{
	"data": {
		"bytecode": {
			"linkReferences": {
				"remix_tests.sol": {
					"Assert": [
						{
							"length": 20,
							"start": 648
						},
						{
							"length": 20,
							"start": 1122
						},
						{
							"length": 20,
							"start": 1597
						},
						{
							"length": 20,
							"start": 2420
						},
						{
							"length": 20,
							"start": 3185
						},
						{
							"length": 20,
							"start": 3470
						},
						{
							"length": 20,
							"start": 4054
						},
						{
							"length": 20,
							"start": 4330
						},
						{
							"length": 20,
							"start": 7389
						},
						{
							"length": 20,
							"start": 7512
						},
						{
							"length": 20,
							"start": 7866
						},
						{
							"length": 20,
							"start": 8956
						},
						{
							"length": 20,
							"start": 9551
						},
						{
							"length": 20,
							"start": 10026
						},
						{
							"length": 20,
							"start": 11401
						}
					]
				}
			},
			"object": "6080604052348015600e575f5ffd5b5061aae68061001c5f395ff3fe608060405234801561000f575f5ffd5b5060043610610091575f3560e01c80637b103999116100645780637b103999146100bd5780637dfecb94146100db578063971742eb146100e5578063ea67ba41146100ef578063ee1989c1146100f957610091565b80631e03436114610095578063311fdff41461009f57806346b12220146100a95780636331e7d4146100b3575b5f5ffd5b61009d610103565b005b6100a76106c5565b005b6100b16109d8565b005b6100bb610e90565b005b6100c5610ef6565b6040516100d29190612d74565b60405180910390f35b6100e3610f1a565b005b6100ed61114a565b005b6100f7611f30565b005b6101016127b6565b005b5f5f5f9054906101000a900473ffffffffffffffffffffffffffffffffffffffff1673ffffffffffffffffffffffffffffffffffffffff166394761a286101f442610e10426101529190612dc3565b6040518463ffffffff1660e01b815260040161017093929190612e98565b6020604051808303815f875af115801561018c573d5f5f3e3d5ffd5b505050506040513d601f19601f820116820180604052508101906101b09190612f1b565b90505f5f5f9054906101000a900473ffffffffffffffffffffffffffffffffffffffff1673ffffffffffffffffffffffffffffffffffffffff1663b7f44b726002846040518363ffffffff1660e01b815260040161020f929190612fb9565b5f60405180830381865afa158015610229573d5f5f3e3d5ffd5b505050506040513d5f823e3d601f19601f82011682018060405250810190610251919061311c565b90505f818060200190518101906102689190613376565b905073__$acbfb1c35000d78352310b16a054a6b106$__63abcd79608260400151600281111561029b5761029a612f46565b5b5f60028111156102ae576102ad612f46565b5b6040518363ffffffff1660e01b81526004016102cb92919061344c565b602060405180830381865af41580156102e6573d5f5f3e3d5ffd5b505050506040513d601f19601f8201168201806040525081019061030a91906134bb565b505f5f9054906101000a900473ffffffffffffffffffffffffffffffffffffffff1673ffffffffffffffffffffffffffffffffffffffff16633e4a1e6c846040518263ffffffff1660e01b815260040161036491906134e6565b5f604051808303815f87803b15801561037b575f5ffd5b505af115801561038d573d5f5f3e3d5ffd5b505050505f5f9054906101000a900473ffffffffffffffffffffffffffffffffffffffff1673ffffffffffffffffffffffffffffffffffffffff1663b7f44b726002856040518363ffffffff1660e01b81526004016103ed929190612fb9565b5f60405180830381865afa158015610407573d5f5f3e3d5ffd5b505050506040513d5f823e3d601f19601f8201168201806040525081019061042f919061311c565b8060200190518101906104429190613376565b905073__$acbfb1c35000d78352310b16a054a6b106$__63abcd79608260400151600281111561047557610474612f46565b5b6001600281111561048957610488612f46565b5b6040518363ffffffff1660e01b81526004016104a6929190613549565b602060405180830381865af41580156104c1573d5f5f3e3d5ffd5b505050506040513d601f19601f820116820180604052508101906104e591906134bb565b505f5f9054906101000a900473ffffffffffffffffffffffffffffffffffffffff1673ffffffffffffffffffffffffffffffffffffffff16632f3ccebd846040518263ffffffff1660e01b815260040161053f91906134e6565b5f604051808303815f87803b158015610556575f5ffd5b505af1158015610568573d5f5f3e3d5ffd5b505050505f5f9054906101000a900473ffffffffffffffffffffffffffffffffffffffff1673ffffffffffffffffffffffffffffffffffffffff1663b7f44b726002856040518363ffffffff1660e01b81526004016105c8929190612fb9565b5f60405180830381865afa1580156105e2573d5f5f3e3d5ffd5b505050506040513d5f823e3d601f19601f8201168201806040525081019061060a919061311c565b80602001905181019061061d9190613376565b905073__$acbfb1c35000d78352310b16a054a6b106$__63abcd7960826040015160028111156106505761064f612f46565b5b60028081111561066357610662612f46565b5b6040518363ffffffff1660e01b81526004016106809291906135cd565b602060405180830381865af415801561069b573d5f5f3e3d5ffd5b505050506040513d601f19601f820116820180604052508101906106bf91906134bb565b50505050565b5f5f5f9054906101000a900473ffffffffffffffffffffffffffffffffffffffff1673ffffffffffffffffffffffffffffffffffffffff16637a78e12d6107d06040518263ffffffff1660e01b81526004016107219190613640565b6020604051808303815f875af115801561073d573d5f5f3e3d5ffd5b505050506040513d601f19601f820116820180604052508101906107619190612f1b565b90505f5f5f9054906101000a900473ffffffffffffffffffffffffffffffffffffffff1673ffffffffffffffffffffffffffffffffffffffff166383cc56e16040518163ffffffff1660e01b81526004016107bb906136ed565b6020604051808303815f875af11580156107d7573d5f5f3e3d5ffd5b505050506040513d601f19601f820116820180604052508101906107fb9190612f1b565b90505f5f5f9054906101000a900473ffffffffffffffffffffffffffffffffffffffff1673ffffffffffffffffffffffffffffffffffffffff1663585b5c63845f5f866040518563ffffffff1660e01b815260040161085d94939291906137e7565b6020604051808303815f875af1158015610879573d5f5f3e3d5ffd5b505050506040513d601f19601f8201168201806040525081019061089d9190612f1b565b90505f5f5f9054906101000a900473ffffffffffffffffffffffffffffffffffffffff1673ffffffffffffffffffffffffffffffffffffffff1663b7f44b725f846040518363ffffffff1660e01b81526004016108fb929190612fb9565b5f60405180830381865afa158015610915573d5f5f3e3d5ffd5b505050506040513d5f823e3d601f19601f8201168201806040525081019061093d919061311c565b90505f818060200190518101906109549190613959565b905073__$acbfb1c35000d78352310b16a054a6b106$__63e8c2cb1682602001516040518263ffffffff1660e01b81526004016109919190613a4e565b602060405180830381865af41580156109ac573d5f5f3e3d5ffd5b505050506040513d601f19601f820116820180604052508101906109d091906134bb565b505050505050565b5f5f5f9054906101000a900473ffffffffffffffffffffffffffffffffffffffff1673ffffffffffffffffffffffffffffffffffffffff1663a805af185f6040518263ffffffff1660e01b8152600401610a329190613a94565b602060405180830381865afa158015610a4d573d5f5f3e3d5ffd5b505050506040513d601f19601f82011682018060405250810190610a719190612f1b565b90505f5f5f9054906101000a900473ffffffffffffffffffffffffffffffffffffffff1673ffffffffffffffffffffffffffffffffffffffff1663a805af1860016040518263ffffffff1660e01b8152600401610ace9190613a94565b602060405180830381865afa158015610ae9573d5f5f3e3d5ffd5b505050506040513d601f19601f82011682018060405250810190610b0d9190612f1b565b90505f5f9054906101000a900473ffffffffffffffffffffffffffffffffffffffff1673ffffffffffffffffffffffffffffffffffffffff16637a78e12d68056bc75e2d631000006040518263ffffffff1660e01b8152600401610b719190613ae6565b6020604051808303815f875af1158015610b8d573d5f5f3e3d5ffd5b505050506040513d601f19601f82011682018060405250810190610bb19190612f1b565b505f5f9054906101000a900473ffffffffffffffffffffffffffffffffffffffff1673ffffffffffffffffffffffffffffffffffffffff1663585b5c6360015f5f5f6040518563ffffffff1660e01b8152600401610c129493929190613b82565b6020604051808303815f875af1158015610c2e573d5f5f3e3d5ffd5b505050506040513d601f19601f82011682018060405250810190610c529190612f1b565b5073__$acbfb1c35000d78352310b16a054a6b106$__63abcd79605f5f9054906101000a900473ffffffffffffffffffffffffffffffffffffffff1673ffffffffffffffffffffffffffffffffffffffff1663a805af1860016040518263ffffffff1660e01b8152600401610cc79190613a94565b602060405180830381865afa158015610ce2573d5f5f3e3d5ffd5b505050506040513d601f19601f82011682018060405250810190610d069190612f1b565b600184610d139190612dc3565b6040518363ffffffff1660e01b8152600401610d30929190613c22565b602060405180830381865af4158015610d4b573d5f5f3e3d5ffd5b505050506040513d601f19601f82011682018060405250810190610d6f91906134bb565b5073__$acbfb1c35000d78352310b16a054a6b106$__63abcd79605f5f9054906101000a900473ffffffffffffffffffffffffffffffffffffffff1673ffffffffffffffffffffffffffffffffffffffff1663a805af185f6040518263ffffffff1660e01b8152600401610de39190613a94565b602060405180830381865afa158015610dfe573d5f5f3e3d5ffd5b505050506040513d601f19601f82011682018060405250810190610e229190612f1b565b600185610e2f9190612dc3565b6040518363ffffffff1660e01b8152600401610e4c929190613ca6565b602060405180830381865af4158015610e67573d5f5f3e3d5ffd5b505050506040513d601f19601f82011682018060405250810190610e8b91906134bb565b505050565b604051610e9c90612ced565b604051809103905ff080158015610eb5573d5f5f3e3d5ffd5b505f5f6101000a81548173ffffffffffffffffffffffffffffffffffffffff021916908373ffffffffffffffffffffffffffffffffffffffff160217905550565b5f5f9054906101000a900473ffffffffffffffffffffffffffffffffffffffff1681565b5f5f5f9054906101000a900473ffffffffffffffffffffffffffffffffffffffff1673ffffffffffffffffffffffffffffffffffffffff16637a78e12d6103e86040518263ffffffff1660e01b8152600401610f769190613d19565b6020604051808303815f875af1158015610f92573d5f5f3e3d5ffd5b505050506040513d601f19601f82011682018060405250810190610fb69190612f1b565b905073__$acbfb1c35000d78352310b16a054a6b106$__63abcd79608260016040518363ffffffff1660e01b8152600401610ff2929190613d8b565b602060405180830381865af415801561100d573d5f5f3e3d5ffd5b505050506040513d601f19601f8201168201806040525081019061103191906134bb565b505f5f5f9054906101000a900473ffffffffffffffffffffffffffffffffffffffff1673ffffffffffffffffffffffffffffffffffffffff166383cc56e16040518163ffffffff1660e01b815260040161108a90613e59565b6020604051808303815f875af11580156110a6573d5f5f3e3d5ffd5b505050506040513d601f19601f820116820180604052508101906110ca9190612f1b565b905073__$acbfb1c35000d78352310b16a054a6b106$__63abcd79608260016040518363ffffffff1660e01b8152600401611106929190613ed4565b602060405180830381865af4158015611121573d5f5f3e3d5ffd5b505050506040513d601f19601f8201168201806040525081019061114591906134bb565b505050565b5f5f5f9054906101000a900473ffffffffffffffffffffffffffffffffffffffff1673ffffffffffffffffffffffffffffffffffffffff16637a78e12d683635c9adc5dea000006040518263ffffffff1660e01b81526004016111ad9190613f47565b6020604051808303815f875af11580156111c9573d5f5f3e3d5ffd5b505050506040513d601f19601f820116820180604052508101906111ed9190612f1b565b90505f5f5f9054906101000a900473ffffffffffffffffffffffffffffffffffffffff1673ffffffffffffffffffffffffffffffffffffffff166383cc56e16040518163ffffffff1660e01b815260040161124790613ff4565b6020604051808303815f875af1158015611263573d5f5f3e3d5ffd5b505050506040513d601f19601f820116820180604052508101906112879190612f1b565b90505f5f5f9054906101000a900473ffffffffffffffffffffffffffffffffffffffff1673ffffffffffffffffffffffffffffffffffffffff1663585b5c63845f5f866040518563ffffffff1660e01b81526004016112e9949392919061406f565b6020604051808303815f875af1158015611305573d5f5f3e3d5ffd5b505050506040513d601f19601f820116820180604052508101906113299190612f1b565b90505f5f5f9054906101000a900473ffffffffffffffffffffffffffffffffffffffff1673ffffffffffffffffffffffffffffffffffffffff166394761a28670de0b6b3a76400004262015180426113819190612dc3565b6040518463ffffffff1660e01b815260040161139f93929190614148565b6020604051808303815f875af11580156113bb573d5f5f3e3d5ffd5b505050506040513d601f19601f820116820180604052508101906113df9190612f1b565b90505f5f5f9054906101000a900473ffffffffffffffffffffffffffffffffffffffff1673ffffffffffffffffffffffffffffffffffffffff16634ef55a1f6001868742610e10426114319190612dc3565b6040518663ffffffff1660e01b81526004016114519594939291906141d6565b6020604051808303815f875af115801561146d573d5f5f3e3d5ffd5b505050506040513d601f19601f820116820180604052508101906114919190612f1b565b90505f6040518060a001604052805f5f9054906101000a900473ffffffffffffffffffffffffffffffffffffffff1673ffffffffffffffffffffffffffffffffffffffff1663e1250ab46040518163ffffffff1660e01b81526004016114f690614271565b6020604051808303815f875af1158015611512573d5f5f3e3d5ffd5b505050506040513d601f19601f820116820180604052508101906115369190612f1b565b81526020015f5f9054906101000a900473ffffffffffffffffffffffffffffffffffffffff1673ffffffffffffffffffffffffffffffffffffffff1663e1250ab46040518163ffffffff1660e01b8152600401611592906142d9565b6020604051808303815f875af11580156115ae573d5f5f3e3d5ffd5b505050506040513d601f19601f820116820180604052508101906115d29190612f1b565b81526020015f5f9054906101000a900473ffffffffffffffffffffffffffffffffffffffff1673ffffffffffffffffffffffffffffffffffffffff1663e1250ab46040518163ffffffff1660e01b815260040161162e90614341565b6020604051808303815f875af115801561164a573d5f5f3e3d5ffd5b505050506040513d601f19601f8201168201806040525081019061166e9190612f1b565b81526020015f5f9054906101000a900473ffffffffffffffffffffffffffffffffffffffff1673ffffffffffffffffffffffffffffffffffffffff1663e1250ab46040518163ffffffff1660e01b81526004016116ca906143a9565b6020604051808303815f875af11580156116e6573d5f5f3e3d5ffd5b505050506040513d601f19601f8201168201806040525081019061170a9190612f1b565b81526020015f5f9054906101000a900473ffffffffffffffffffffffffffffffffffffffff1673ffffffffffffffffffffffffffffffffffffffff1663e1250ab46040518163ffffffff1660e01b815260040161176690614411565b6020604051808303815f875af1158015611782573d5f5f3e3d5ffd5b505050506040513d601f19601f820116820180604052508101906117a69190612f1b565b81525090505f5f9054906101000a900473ffffffffffffffffffffffffffffffffffffffff1673ffffffffffffffffffffffffffffffffffffffff166371895501600188845f600581106117fd576117fc61442f565b5b60200201516040518463ffffffff1660e01b81526004016118209392919061445c565b5f604051808303815f87803b158015611837575f5ffd5b505af1158015611849573d5f5f3e3d5ffd5b505050505f5f9054906101000a900473ffffffffffffffffffffffffffffffffffffffff1673ffffffffffffffffffffffffffffffffffffffff166371895501600587846001600581106118a05761189f61442f565b5b60200201516040518463ffffffff1660e01b81526004016118c39392919061445c565b5f604051808303815f87803b1580156118da575f5ffd5b505af11580156118ec573d5f5f3e3d5ffd5b505050505f5f9054906101000a900473ffffffffffffffffffffffffffffffffffffffff1673ffffffffffffffffffffffffffffffffffffffff1663718955015f86846002600581106119425761194161442f565b5b60200201516040518463ffffffff1660e01b81526004016119659392919061445c565b5f604051808303815f87803b15801561197c575f5ffd5b505af115801561198e573d5f5f3e3d5ffd5b505050505f5f9054906101000a900473ffffffffffffffffffffffffffffffffffffffff1673ffffffffffffffffffffffffffffffffffffffff166371895501600285846003600581106119e5576119e461442f565b5b60200201516040518463ffffffff1660e01b8152600401611a089392919061445c565b5f604051808303815f87803b158015611a1f575f5ffd5b505af1158015611a31573d5f5f3e3d5ffd5b505050505f5f9054906101000a900473ffffffffffffffffffffffffffffffffffffffff1673ffffffffffffffffffffffffffffffffffffffff16637189550160048484600460058110611a8857611a8761442f565b5b60200201516040518463ffffffff1660e01b8152600401611aab9392919061445c565b5f604051808303815f87803b158015611ac2575f5ffd5b505af1158015611ad4573d5f5f3e3d5ffd5b505050505f6040518060a0016040528060016005811115611af857611af7612f46565b5b6005811115611b0a57611b09612f46565b5b8152602001600580811115611b2257611b21612f46565b5b6005811115611b3457611b33612f46565b5b81526020015f6005811115611b4c57611b4b612f46565b5b6005811115611b5e57611b5d612f46565b5b815260200160026005811115611b7757611b76612f46565b5b6005811115611b8957611b88612f46565b5b815260200160046005811115611ba257611ba1612f46565b5b6005811115611bb457611bb3612f46565b5b81525090505f6040518060a001604052808981526020018881526020018781526020018681526020018581525090505f5f90505b6005811015611f25575f5f5f9054906101000a900473ffffffffffffffffffffffffffffffffffffffff1673ffffffffffffffffffffffffffffffffffffffff16636e2c06fa858460058110611c4157611c4061442f565b5b6020020151858560058110611c5957611c5861442f565b5b60200201516040518363ffffffff1660e01b8152600401611c7b929190612fb9565b5f60405180830381865afa158015611c95573d5f5f3e3d5ffd5b505050506040513d5f823e3d601f19601f82011682018060405250810190611cbd9190614555565b905073__$acbfb1c35000d78352310b16a054a6b106$__63abcd7960825160016040518363ffffffff1660e01b8152600401611cfa9291906145e6565b602060405180830381865af4158015611d15573d5f5f3e3d5ffd5b505050506040513d601f19601f82011682018060405250810190611d3991906134bb565b5073__$acbfb1c35000d78352310b16a054a6b106$__63abcd7960825f81518110611d6757611d6661442f565b5b6020026020010151878560058110611d8257611d8161442f565b5b60200201516040518363ffffffff1660e01b8152600401611da492919061466a565b602060405180830381865af4158015611dbf573d5f5f3e3d5ffd5b505050506040513d601f19601f82011682018060405250810190611de391906134bb565b505f5f5f9054906101000a900473ffffffffffffffffffffffffffffffffffffffff1673ffffffffffffffffffffffffffffffffffffffff166361c3a7e6878560058110611e3457611e3361442f565b5b60200201516040518263ffffffff1660e01b8152600401611e5591906134e6565b5f60405180830381865afa158015611e6f573d5f5f3e3d5ffd5b505050506040513d5f823e3d601f19601f82011682018060405250810190611e9791906146a4565b505091505073__$acbfb1c35000d78352310b16a054a6b106$__6339df137f5f8351116040518263ffffffff1660e01b8152600401611ed6919061477d565b602060405180830381865af4158015611ef1573d5f5f3e3d5ffd5b505050506040513d601f19601f82011682018060405250810190611f1591906134bb565b5050508080600101915050611be8565b505050505050505050565b5f5f5f9054906101000a900473ffffffffffffffffffffffffffffffffffffffff1673ffffffffffffffffffffffffffffffffffffffff16637a78e12d6101f46040518263ffffffff1660e01b8152600401611f8c91906147a9565b6020604051808303815f875af1158015611fa8573d5f5f3e3d5ffd5b505050506040513d601f19601f82011682018060405250810190611fcc9190612f1b565b90505f5f5f9054906101000a900473ffffffffffffffffffffffffffffffffffffffff1673ffffffffffffffffffffffffffffffffffffffff166383cc56e16040518163ffffffff1660e01b815260040161202690614856565b6020604051808303815f875af1158015612042573d5f5f3e3d5ffd5b505050506040513d601f19601f820116820180604052508101906120669190612f1b565b90505f5f5f9054906101000a900473ffffffffffffffffffffffffffffffffffffffff1673ffffffffffffffffffffffffffffffffffffffff166383cc56e16040518163ffffffff1660e01b81526004016120c09061491b565b6020604051808303815f875af11580156120dc573d5f5f3e3d5ffd5b505050506040513d601f19601f820116820180604052508101906121009190612f1b565b90505f5f5f9054906101000a900473ffffffffffffffffffffffffffffffffffffffff1673ffffffffffffffffffffffffffffffffffffffff1663585b5c63855f5f876040518563ffffffff1660e01b81526004016121629493929190614996565b6020604051808303815f875af115801561217e573d5f5f3e3d5ffd5b505050506040513d601f19601f820116820180604052508101906121a29190612f1b565b90505f5f5f9054906101000a900473ffffffffffffffffffffffffffffffffffffffff1673ffffffffffffffffffffffffffffffffffffffff16634ef55a1f6003868642610e10426121f49190612dc3565b6040518663ffffffff1660e01b81526004016122149594939291906141d6565b6020604051808303815f875af1158015612230573d5f5f3e3d5ffd5b505050506040513d601f19601f820116820180604052508101906122549190612f1b565b90505f5f9054906101000a900473ffffffffffffffffffffffffffffffffffffffff1673ffffffffffffffffffffffffffffffffffffffff1663e521300782846040518363ffffffff1660e01b81526004016122b19291906149ec565b5f604051808303815f87803b1580156122c8575f5ffd5b505af11580156122da573d5f5f3e3d5ffd5b5050505073__$acbfb1c35000d78352310b16a054a6b106$__63abcd79605f5f9054906101000a900473ffffffffffffffffffffffffffffffffffffffff1673ffffffffffffffffffffffffffffffffffffffff1663c60d817e846040518263ffffffff1660e01b815260040161235191906134e6565b5f60405180830381865afa15801561236b573d5f5f3e3d5ffd5b505050506040513d5f823e3d601f19601f820116820180604052508101906123939190614555565b5160016040518363ffffffff1660e01b81526004016123b3929190614a5d565b602060405180830381865af41580156123ce573d5f5f3e3d5ffd5b505050506040513d601f19601f820116820180604052508101906123f291906134bb565b505f5f9054906101000a900473ffffffffffffffffffffffffffffffffffffffff1673ffffffffffffffffffffffffffffffffffffffff16633c8393ad826040518263ffffffff1660e01b815260040161244c91906134e6565b5f604051808303815f87803b158015612463575f5ffd5b505af1158015612475573d5f5f3e3d5ffd5b505050505f5f5f9054906101000a900473ffffffffffffffffffffffffffffffffffffffff1673ffffffffffffffffffffffffffffffffffffffff1663b7f44b726004846040518363ffffffff1660e01b81526004016124d6929190612fb9565b5f60405180830381865afa1580156124f0573d5f5f3e3d5ffd5b505050506040513d5f823e3d601f19601f82011682018060405250810190612518919061311c565b90505f8180602001905181019061252f9190614be6565b905073__$acbfb1c35000d78352310b16a054a6b106$__63abcd79608260400151600281111561256257612561612f46565b5b6001600281111561257657612575612f46565b5b6040518363ffffffff1660e01b8152600401612593929190614c5c565b602060405180830381865af41580156125ae573d5f5f3e3d5ffd5b505050506040513d601f19601f820116820180604052508101906125d291906134bb565b505f5f9054906101000a900473ffffffffffffffffffffffffffffffffffffffff1673ffffffffffffffffffffffffffffffffffffffff1663624871f9846040518263ffffffff1660e01b815260040161262c91906134e6565b5f604051808303815f87803b158015612643575f5ffd5b505af1158015612655573d5f5f3e3d5ffd5b505050505f5f9054906101000a900473ffffffffffffffffffffffffffffffffffffffff1673ffffffffffffffffffffffffffffffffffffffff1663b7f44b726004856040518363ffffffff1660e01b81526004016126b5929190612fb9565b5f60405180830381865afa1580156126cf573d5f5f3e3d5ffd5b505050506040513d5f823e3d601f19601f820116820180604052508101906126f7919061311c565b80602001905181019061270a9190614be6565b905073__$acbfb1c35000d78352310b16a054a6b106$__63abcd79608260400151600281111561273d5761273c612f46565b5b6002808111156127505761274f612f46565b5b6040518363ffffffff1660e01b815260040161276d929190614ce0565b602060405180830381865af4158015612788573d5f5f3e3d5ffd5b505050506040513d601f19601f820116820180604052508101906127ac91906134bb565b5050505050505050565b5f5f5f9054906101000a900473ffffffffffffffffffffffffffffffffffffffff1673ffffffffffffffffffffffffffffffffffffffff16637a78e12d681b1ae4d6e2ef5000006040518263ffffffff1660e01b81526004016128199190614d53565b6020604051808303815f875af1158015612835573d5f5f3e3d5ffd5b505050506040513d601f19601f820116820180604052508101906128599190612f1b565b90505f5f5f9054906101000a900473ffffffffffffffffffffffffffffffffffffffff1673ffffffffffffffffffffffffffffffffffffffff1663e1250ab46040518163ffffffff1660e01b81526004016128b390614db6565b6020604051808303815f875af11580156128cf573d5f5f3e3d5ffd5b505050506040513d601f19601f820116820180604052508101906128f39190612f1b565b90505f5f5f9054906101000a900473ffffffffffffffffffffffffffffffffffffffff1673ffffffffffffffffffffffffffffffffffffffff1663e1250ab46040518163ffffffff1660e01b815260040161294d90614e1e565b6020604051808303815f875af1158015612969573d5f5f3e3d5ffd5b505050506040513d601f19601f8201168201806040525081019061298d9190612f1b565b90505f5f5f9054906101000a900473ffffffffffffffffffffffffffffffffffffffff1673ffffffffffffffffffffffffffffffffffffffff1663e1250ab46040518163ffffffff1660e01b81526004016129e790614e86565b6020604051808303815f875af1158015612a03573d5f5f3e3d5ffd5b505050506040513d601f19601f82011682018060405250810190612a279190612f1b565b90505f5f9054906101000a900473ffffffffffffffffffffffffffffffffffffffff1673ffffffffffffffffffffffffffffffffffffffff166371895501600186866040518463ffffffff1660e01b8152600401612a879392919061445c565b5f604051808303815f87803b158015612a9e575f5ffd5b505af1158015612ab0573d5f5f3e3d5ffd5b505050505f5f9054906101000a900473ffffffffffffffffffffffffffffffffffffffff1673ffffffffffffffffffffffffffffffffffffffff166371895501600186856040518463ffffffff1660e01b8152600401612b129392919061445c565b5f604051808303815f87803b158015612b29575f5ffd5b505af1158015612b3b573d5f5f3e3d5ffd5b505050505f5f9054906101000a900473ffffffffffffffffffffffffffffffffffffffff1673ffffffffffffffffffffffffffffffffffffffff166371895501600186846040518463ffffffff1660e01b8152600401612b9d9392919061445c565b5f604051808303815f87803b158015612bb4575f5ffd5b505af1158015612bc6573d5f5f3e3d5ffd5b505050505f5f5f9054906101000a900473ffffffffffffffffffffffffffffffffffffffff1673ffffffffffffffffffffffffffffffffffffffff16636e2c06fa6001876040518363ffffffff1660e01b8152600401612c27929190612fb9565b5f60405180830381865afa158015612c41573d5f5f3e3d5ffd5b505050506040513d5f823e3d601f19601f82011682018060405250810190612c699190614555565b905073__$acbfb1c35000d78352310b16a054a6b106$__63abcd7960825160036040518363ffffffff1660e01b8152600401612ca6929190614f27565b602060405180830381865af4158015612cc1573d5f5f3e3d5ffd5b505050506040513d601f19601f82011682018060405250810190612ce591906134bb565b505050505050565b615b4f80614f6283390190565b5f73ffffffffffffffffffffffffffffffffffffffff82169050919050565b5f819050919050565b5f612d3c612d37612d3284612cfa565b612d19565b612cfa565b9050919050565b5f612d4d82612d22565b9050919050565b5f612d5e82612d43565b9050919050565b612d6e81612d54565b82525050565b5f602082019050612d875f830184612d65565b92915050565b5f819050919050565b7f4e487b71000000000000000000000000000000000000000000000000000000005f52601160045260245ffd5b5f612dcd82612d8d565b9150612dd883612d8d565b9250828201905080821115612df057612def612d96565b5b92915050565b5f819050919050565b5f612e19612e14612e0f84612df6565b612d19565b612d8d565b9050919050565b612e2981612dff565b82525050565b5f82825260208201905092915050565b7f4d61696e74656e616e63655465616d00000000000000000000000000000000005f82015250565b5f612e73600f83612e2f565b9150612e7e82612e3f565b602082019050919050565b612e9281612d8d565b82525050565b5f608082019050612eab5f830186612e20565b8181036020830152612ebc81612e67565b9050612ecb6040830185612e89565b612ed86060830184612e89565b949350505050565b5f604051905090565b5f5ffd5b5f5ffd5b612efa81612d8d565b8114612f04575f5ffd5b50565b5f81519050612f1581612ef1565b92915050565b5f60208284031215612f3057612f2f612ee9565b5b5f612f3d84828501612f07565b91505092915050565b7f4e487b71000000000000000000000000000000000000000000000000000000005f52602160045260245ffd5b60068110612f8457612f83612f46565b5b50565b5f819050612f9482612f73565b919050565b5f612fa382612f87565b9050919050565b612fb381612f99565b82525050565b5f604082019050612fcc5f830185612faa565b612fd96020830184612e89565b9392505050565b5f5ffd5b5f5ffd5b5f601f19601f8301169050919050565b7f4e487b71000000000000000000000000000000000000000000000000000000005f52604160045260245ffd5b61302e82612fe8565b810181811067ffffffffffffffff8211171561304d5761304c612ff8565b5b80604052505050565b5f61305f612ee0565b905061306b8282613025565b919050565b5f67ffffffffffffffff82111561308a57613089612ff8565b5b61309382612fe8565b9050602081019050919050565b8281835e5f83830152505050565b5f6130c06130bb84613070565b613056565b9050828152602081018484840111156130dc576130db612fe4565b5b6130e78482856130a0565b509392505050565b5f82601f83011261310357613102612fe0565b5b81516131138482602086016130ae565b91505092915050565b5f6020828403121561313157613130612ee9565b5b5f82015167ffffffffffffffff81111561314e5761314d612eed565b5b61315a848285016130ef565b91505092915050565b5f5ffd5b5f5ffd5b60038110613177575f5ffd5b50565b5f815190506131888161316b565b92915050565b5f67ffffffffffffffff8211156131a8576131a7612ff8565b5b6131b182612fe8565b9050602081019050919050565b5f6131d06131cb8461318e565b613056565b9050828152602081018484840111156131ec576131eb612fe4565b5b6131f78482856130a0565b509392505050565b5f82601f83011261321357613212612fe0565b5b81516132238482602086016131be565b91505092915050565b5f61323682612cfa565b9050919050565b6132468161322c565b8114613250575f5ffd5b50565b5f815190506132618161323d565b92915050565b5f610140828403121561327d5761327c613163565b5b613288610140613056565b90505f61329784828501612f07565b5f8301525060206132aa84828501612f07565b60208301525060406132be8482850161317a565b604083015250606082015167ffffffffffffffff8111156132e2576132e1613167565b5b6132ee848285016131ff565b606083015250608061330284828501612f07565b60808301525060a061331684828501612f07565b60a08301525060c061332a84828501612f07565b60c08301525060e061333e84828501612f07565b60e08301525061010061335384828501612f07565b6101008301525061012061336984828501613253565b6101208301525092915050565b5f6020828403121561338b5761338a612ee9565b5b5f82015167ffffffffffffffff8111156133a8576133a7612eed565b5b6133b484828501613267565b91505092915050565b6133c681612d8d565b82525050565b5f82825260208201905092915050565b7f496e697469616c207374617475732073686f756c6420626520526571756573745f8201527f6564000000000000000000000000000000000000000000000000000000000000602082015250565b5f6134366022836133cc565b9150613441826133dc565b604082019050919050565b5f60608201905061345f5f8301856133bd565b61346c60208301846133bd565b818103604083015261347d8161342a565b90509392505050565b5f8115159050919050565b61349a81613486565b81146134a4575f5ffd5b50565b5f815190506134b581613491565b92915050565b5f602082840312156134d0576134cf612ee9565b5b5f6134dd848285016134a7565b91505092915050565b5f6020820190506134f95f830184612e89565b92915050565b7f5374617475732073686f756c6420626520496e50726f677265737300000000005f82015250565b5f613533601b836133cc565b915061353e826134ff565b602082019050919050565b5f60608201905061355c5f8301856133bd565b61356960208301846133bd565b818103604083015261357a81613527565b90509392505050565b7f5374617475732073686f756c6420626520436f6d706c657465640000000000005f82015250565b5f6135b7601a836133cc565b91506135c282613583565b602082019050919050565b5f6060820190506135e05f8301856133bd565b6135ed60208301846133bd565b81810360408301526135fe816135ab565b90509392505050565b5f819050919050565b5f61362a61362561362084613607565b612d19565b612d8d565b9050919050565b61363a81613610565b82525050565b5f6020820190506136535f830184613631565b92915050565b7f446f636b204100000000000000000000000000000000000000000000000000005f82015250565b5f61368d600683612e2f565b915061369882613659565b602082019050919050565b7f526563656976696e6700000000000000000000000000000000000000000000005f82015250565b5f6136d7600983612e2f565b91506136e2826136a3565b602082019050919050565b5f6040820190508181035f83015261370481613681565b90508181036020830152613717816136cb565b9050919050565b7f57696467657400000000000000000000000000000000000000000000000000005f82015250565b5f613752600683612e2f565b915061375d8261371e565b602082019050919050565b6002811061377957613778612f46565b5b50565b5f81905061378982613768565b919050565b5f6137988261377c565b9050919050565b6137a88161378e565b82525050565b5f819050919050565b5f6137d16137cc6137c7846137ae565b612d19565b612d8d565b9050919050565b6137e1816137b7565b82525050565b5f60a0820190508181035f8301526137fe81613746565b905061380d6020830187612e89565b61381a604083018661379f565b61382760608301856137d8565b6138346080830184612e89565b95945050505050565b60028110613849575f5ffd5b50565b5f8151905061385a8161383d565b92915050565b5f610120828403121561387657613875613163565b5b613881610120613056565b90505f61389084828501612f07565b5f83015250602082015167ffffffffffffffff8111156138b3576138b2613167565b5b6138bf848285016131ff565b60208301525060406138d384828501612f07565b60408301525060606138e784828501612f07565b60608301525060806138fb84828501612f07565b60808301525060a061390f84828501612f07565b60a08301525060c06139238482850161384c565b60c08301525060e061393784828501612f07565b60e08301525061010061394c84828501613253565b6101008301525092915050565b5f6020828403121561396e5761396d612ee9565b5b5f82015167ffffffffffffffff81111561398b5761398a612eed565b5b61399784828501613860565b91505092915050565b5f81519050919050565b5f6139b4826139a0565b6139be81856133cc565b93506139ce8185602086016130a0565b6139d781612fe8565b840191505092915050565b5f6139ee6006836133cc565b91506139f98261371e565b602082019050919050565b7f4974656d206e616d652073686f756c64206d61746368000000000000000000005f82015250565b5f613a386016836133cc565b9150613a4382613a04565b602082019050919050565b5f6060820190508181035f830152613a6681846139aa565b90508181036020830152613a79816139e2565b90508181036040830152613a8c81613a2c565b905092915050565b5f602082019050613aa75f830184612faa565b92915050565b5f819050919050565b5f613ad0613acb613ac684613aad565b612d19565b612d8d565b9050919050565b613ae081613ab6565b82525050565b5f602082019050613af95f830184613ad7565b92915050565b7f54657374000000000000000000000000000000000000000000000000000000005f82015250565b5f613b33600483612e2f565b9150613b3e82613aff565b602082019050919050565b5f819050919050565b5f613b6c613b67613b6284613b49565b612d19565b612d8d565b9050919050565b613b7c81613b52565b82525050565b5f60a0820190508181035f830152613b9981613b27565b9050613ba86020830187613b73565b613bb5604083018661379f565b613bc260608301856137d8565b613bcf60808301846137d8565b95945050505050565b7f4c6f7420636f756e742073686f756c6420696e6372656d656e740000000000005f82015250565b5f613c0c601a836133cc565b9150613c1782613bd8565b602082019050919050565b5f606082019050613c355f8301856133bd565b613c4260208301846133bd565b8181036040830152613c5381613c00565b90509392505050565b7f4974656d20636f756e742073686f756c6420696e6372656d656e7400000000005f82015250565b5f613c90601b836133cc565b9150613c9b82613c5c565b602082019050919050565b5f606082019050613cb95f8301856133bd565b613cc660208301846133bd565b8181036040830152613cd781613c84565b90509392505050565b5f819050919050565b5f613d03613cfe613cf984613ce0565b612d19565b612d8d565b9050919050565b613d1381613ce9565b82525050565b5f602082019050613d2c5f830184613d0a565b92915050565b613d3b81613b52565b82525050565b7f4c6f742049442073686f756c64206265203100000000000000000000000000005f82015250565b5f613d756012836133cc565b9150613d8082613d41565b602082019050919050565b5f606082019050613d9e5f8301856133bd565b613dab6020830184613d32565b8181036040830152613dbc81613d69565b90509392505050565b7f4d61696e2057617265686f7573650000000000000000000000000000000000005f82015250565b5f613df9600e83612e2f565b9150613e0482613dc5565b602082019050919050565b7f53746f72616765000000000000000000000000000000000000000000000000005f82015250565b5f613e43600783612e2f565b9150613e4e82613e0f565b602082019050919050565b5f6040820190508181035f830152613e7081613ded565b90508181036020830152613e8381613e37565b9050919050565b7f4c6f636174696f6e2049442073686f756c6420626520310000000000000000005f82015250565b5f613ebe6017836133cc565b9150613ec982613e8a565b602082019050919050565b5f606082019050613ee75f8301856133bd565b613ef46020830184613d32565b8181036040830152613f0581613eb2565b90509392505050565b5f819050919050565b5f613f31613f2c613f2784613f0e565b612d19565b612d8d565b9050919050565b613f4181613f17565b82525050565b5f602082019050613f5a5f830184613f38565b92915050565b7f466163746f7279000000000000000000000000000000000000000000000000005f82015250565b5f613f94600783612e2f565b9150613f9f82613f60565b602082019050919050565b7f50726f64756374696f6e000000000000000000000000000000000000000000005f82015250565b5f613fde600a83612e2f565b9150613fe982613faa565b602082019050919050565b5f6040820190508181035f83015261400b81613f88565b9050818103602083015261401e81613fd2565b9050919050565b7f50726f64756374000000000000000000000000000000000000000000000000005f82015250565b5f614059600783612e2f565b915061406482614025565b602082019050919050565b5f60a0820190508181035f8301526140868161404d565b90506140956020830187612e89565b6140a2604083018661379f565b6140af60608301856137d8565b6140bc6080830184612e89565b95945050505050565b5f819050919050565b5f6140e86140e36140de846140c5565b612d19565b612d8d565b9050919050565b6140f8816140ce565b82525050565b7f54656368205465616d00000000000000000000000000000000000000000000005f82015250565b5f614132600983612e2f565b915061413d826140fe565b602082019050919050565b5f60808201905061415b5f8301866140ef565b818103602083015261416c81614126565b905061417b6040830185612e89565b6141886060830184612e89565b949350505050565b600481106141a1576141a0612f46565b5b50565b5f8190506141b182614190565b919050565b5f6141c0826141a4565b9050919050565b6141d0816141b6565b82525050565b5f60a0820190506141e95f8301886141c7565b6141f66020830187612e89565b6142036040830186612e89565b6142106060830185612e89565b61421d6080830184612e89565b9695505050505050565b7f4c6f74206e6f74650000000000000000000000000000000000000000000000005f82015250565b5f61425b600883612e2f565b915061426682614227565b602082019050919050565b5f6020820190508181035f8301526142888161424f565b9050919050565b7f4c6f636174696f6e206e6f7465000000000000000000000000000000000000005f82015250565b5f6142c3600d83612e2f565b91506142ce8261428f565b602082019050919050565b5f6020820190508181035f8301526142f0816142b7565b9050919050565b7f4974656d206e6f746500000000000000000000000000000000000000000000005f82015250565b5f61432b600983612e2f565b9150614336826142f7565b602082019050919050565b5f6020820190508181035f8301526143588161431f565b9050919050565b7f53657276696365206e6f746500000000000000000000000000000000000000005f82015250565b5f614393600c83612e2f565b915061439e8261435f565b602082019050919050565b5f6020820190508181035f8301526143c081614387565b9050919050565b7f50726f63657373206e6f746500000000000000000000000000000000000000005f82015250565b5f6143fb600c83612e2f565b9150614406826143c7565b602082019050919050565b5f6020820190508181035f830152614428816143ef565b9050919050565b7f4e487b71000000000000000000000000000000000000000000000000000000005f52603260045260245ffd5b5f60608201905061446f5f830186612faa565b61447c6020830185612e89565b6144896040830184612e89565b949350505050565b5f67ffffffffffffffff8211156144ab576144aa612ff8565b5b602082029050602081019050919050565b5f5ffd5b5f6144d26144cd84614491565b613056565b905080838252602082019050602084028301858111156144f5576144f46144bc565b5b835b8181101561451e578061450a8882612f07565b8452602084019350506020810190506144f7565b5050509392505050565b5f82601f83011261453c5761453b612fe0565b5b815161454c8482602086016144c0565b91505092915050565b5f6020828403121561456a57614569612ee9565b5b5f82015167ffffffffffffffff81111561458757614586612eed565b5b61459384828501614528565b91505092915050565b7f5265736f757263652073686f756c6420686176652031206e6f746500000000005f82015250565b5f6145d0601b836133cc565b91506145db8261459c565b602082019050919050565b5f6060820190506145f95f8301856133bd565b6146066020830184613d32565b8181036040830152614617816145c4565b90509392505050565b7f4e6f7465204944206d69736d61746368000000000000000000000000000000005f82015250565b5f6146546010836133cc565b915061465f82614620565b602082019050919050565b5f60608201905061467d5f8301856133bd565b61468a60208301846133bd565b818103604083015261469b81614648565b90509392505050565b5f5f5f5f608085870312156146bc576146bb612ee9565b5b5f6146c987828801612f07565b945050602085015167ffffffffffffffff8111156146ea576146e9612eed565b5b6146f6878288016131ff565b935050604061470787828801612f07565b925050606061471887828801613253565b91505092959194509250565b61472d81613486565b82525050565b7f4e6f746520636f6e74656e742073686f756c64206578697374000000000000005f82015250565b5f6147676019836133cc565b915061477282614733565b602082019050919050565b5f6040820190506147905f830184614724565b81810360208301526147a18161475b565b905092915050565b5f6020820190506147bc5f830184612e20565b92915050565b7f53746172740000000000000000000000000000000000000000000000000000005f82015250565b5f6147f6600583612e2f565b9150614801826147c2565b602082019050919050565b7f446f636b000000000000000000000000000000000000000000000000000000005f82015250565b5f614840600483612e2f565b915061484b8261480c565b602082019050919050565b5f6040820190508181035f83015261486d816147ea565b9050818103602083015261488081614834565b9050919050565b7f456e6400000000000000000000000000000000000000000000000000000000005f82015250565b5f6148bb600383612e2f565b91506148c682614887565b602082019050919050565b7f57617265686f75736500000000000000000000000000000000000000000000005f82015250565b5f614905600983612e2f565b9150614910826148d1565b602082019050919050565b5f6040820190508181035f830152614932816148af565b90508181036020830152614945816148f9565b9050919050565b7f426f7800000000000000000000000000000000000000000000000000000000005f82015250565b5f614980600383612e2f565b915061498b8261494c565b602082019050919050565b5f60a0820190508181035f8301526149ad81614974565b90506149bc6020830187612e89565b6149c9604083018661379f565b6149d660608301856137d8565b6149e36080830184612e89565b95945050505050565b5f6040820190506149ff5f830185612e89565b614a0c6020830184612e89565b9392505050565b7f50726f636573732073686f756c6420686176652031206974656d0000000000005f82015250565b5f614a47601a836133cc565b9150614a5282614a13565b602082019050919050565b5f606082019050614a705f8301856133bd565b614a7d6020830184613d32565b8181036040830152614a8e81614a3b565b90509392505050565b60048110614aa3575f5ffd5b50565b5f81519050614ab481614a97565b92915050565b60038110614ac6575f5ffd5b50565b5f81519050614ad781614aba565b92915050565b5f6101608284031215614af357614af2613163565b5b614afe610160613056565b90505f614b0d84828501612f07565b5f830152506020614b2084828501614aa6565b6020830152506040614b3484828501614ac9565b6040830152506060614b4884828501612f07565b6060830152506080614b5c84828501612f07565b60808301525060a0614b7084828501612f07565b60a08301525060c0614b8484828501612f07565b60c08301525060e0614b9884828501612f07565b60e083015250610100614bad84828501612f07565b61010083015250610120614bc384828501612f07565b61012083015250610140614bd984828501613253565b6101408301525092915050565b5f6101608284031215614bfc57614bfb612ee9565b5b5f614c0984828501614add565b91505092915050565b7f50726f636573732073686f756c6420626520496e50726f6772657373000000005f82015250565b5f614c46601c836133cc565b9150614c5182614c12565b602082019050919050565b5f606082019050614c6f5f8301856133bd565b614c7c60208301846133bd565b8181036040830152614c8d81614c3a565b90509392505050565b7f50726f636573732073686f756c6420626520436f6d706c6574656400000000005f82015250565b5f614cca601b836133cc565b9150614cd582614c96565b602082019050919050565b5f606082019050614cf35f8301856133bd565b614d0060208301846133bd565b8181036040830152614d1181614cbe565b90509392505050565b5f819050919050565b5f614d3d614d38614d3384614d1a565b612d19565b612d8d565b9050919050565b614d4d81614d23565b82525050565b5f602082019050614d665f830184614d44565b92915050565b7f4669727374206e6f7465000000000000000000000000000000000000000000005f82015250565b5f614da0600a83612e2f565b9150614dab82614d6c565b602082019050919050565b5f6020820190508181035f830152614dcd81614d94565b9050919050565b7f5365636f6e64206e6f74650000000000000000000000000000000000000000005f82015250565b5f614e08600b83612e2f565b9150614e1382614dd4565b602082019050919050565b5f6020820190508181035f830152614e3581614dfc565b9050919050565b7f5468697264206e6f7465000000000000000000000000000000000000000000005f82015250565b5f614e70600a83612e2f565b9150614e7b82614e3c565b602082019050919050565b5f6020820190508181035f830152614e9d81614e64565b9050919050565b5f819050919050565b5f614ec7614ec2614ebd84614ea4565b612d19565b612d8d565b9050919050565b614ed781614ead565b82525050565b7f53686f756c6420686176652033206e6f746573000000000000000000000000005f82015250565b5f614f116013836133cc565b9150614f1c82614edd565b602082019050919050565b5f606082019050614f3a5f8301856133bd565b614f476020830184614ece565b8181036040830152614f5881614f05565b9050939250505056fe608060405260015f5560018055600160025560016003556001600455600160055534801561002b575f5ffd5b503360165f6101000a81548173ffffffffffffffffffffffffffffffffffffffff021916908373ffffffffffffffffffffffffffffffffffffffff1602179055505f5f90505b6005808111156100845761008361015e565b5b811161015857600160155f60165f9054906101000a900473ffffffffffffffffffffffffffffffffffffffff1673ffffffffffffffffffffffffffffffffffffffff1673ffffffffffffffffffffffffffffffffffffffff1681526020019081526020015f205f8360058111156100fe576100fd61015e565b5b60058111156101105761010f61015e565b5b60058111156101225761012161015e565b5b81526020019081526020015f205f6101000a81548160ff0219169083151502179055508080610150906101c1565b915050610071565b50610208565b7f4e487b71000000000000000000000000000000000000000000000000000000005f52602160045260245ffd5b7f4e487b71000000000000000000000000000000000000000000000000000000005f52601160045260245ffd5b5f819050919050565b5f6101cb826101b8565b91507fffffffffffffffffffffffffffffffffffffffffffffffffffffffffffffffff82036101fd576101fc61018b565b5b600182019050919050565b61593a806102155f395ff3fe608060405234801561000f575f5ffd5b5060043610610292575f3560e01c80637a2043a311610165578063bfb231d2116100cc578063d666f29e11610085578063d666f29e14610938578063e1250ab414610956578063e521300714610986578063f1648e84146109a2578063f6c53d9b146109d5578063f9fdb154146109f357610292565b8063bfb231d214610819578063c22c4f4314610851578063c60d817e1461088a578063cc2f211d146108ba578063cf5cf8e1146108ea578063cf97f1111461091a57610292565b806394761a281161011e57806394761a281461071b578063a07e12e11461074b578063a805af1814610769578063acdf0acb14610799578063b7f44b72146107b5578063b9e0db35146107e557610292565b80637a2043a3146106315780637a78e12d1461064f5780637d3c99bb1461067f57806383cc56e1146106af5780638da5cb5b146106df578063925b033d146106fd57610292565b80634ef55a1f116102095780636a868974116101c25780636a868974146105375780636bebd1fd146105555780636c6f4a06146105855780636e2c06fa146105b557806371895501146105e557806371c906c51461060157610292565b80634ef55a1f146104305780635182d7eb14610460578063579e51c71461047e578063585b5c63146104b857806361c3a7e6146104e8578063624871f91461051b57610292565b806334200d7b1161025b57806334200d7b1461035e57806334ccc5ea1461038e5780633c8393ad146103ac5780633e4a1e6c146103c85780634b48f656146103e45780634c56df7b1461040057610292565b806251ff7d146102965780630a108d5e146102c657806320f3847e146102f65780632f3ccebd14610326578063301da87014610342575b5f5ffd5b6102b060048036038101906102ab91906140e0565b610a23565b6040516102bd919061412d565b60405180910390f35b6102e060048036038101906102db91906141c3565b610a4e565b6040516102ed919061421b565b60405180910390f35b610310600480360381019061030b91906140e0565b610a78565b60405161031d919061412d565b60405180910390f35b610340600480360381019061033b9190614234565b610aa3565b005b61035c600480360381019061035791906141c3565b610c87565b005b610378600480360381019061037391906140e0565b610d99565b604051610385919061412d565b60405180910390f35b610396610dc4565b6040516103a3919061412d565b60405180910390f35b6103c660048036038101906103c19190614234565b610dc9565b005b6103e260048036038101906103dd9190614234565b611101565b005b6103fe60048036038101906103f991906140e0565b6112e4565b005b61041a600480360381019061041591906140e0565b611478565b604051610427919061412d565b60405180910390f35b61044a60048036038101906104459190614282565b6114a3565b604051610457919061412d565b60405180910390f35b61046861182c565b604051610475919061412d565b60405180910390f35b61049860048036038101906104939190614234565b611832565b6040516104af9b9a999897969594939291906143c1565b60405180910390f35b6104d260048036038101906104cd91906145c9565b6118c0565b6040516104df919061412d565b60405180910390f35b61050260048036038101906104fd9190614234565b611c71565b60405161051294939291906146bc565b60405180910390f35b61053560048036038101906105309190614234565b611d42565b005b61053f6120fe565b60405161054c919061412d565b60405180910390f35b61056f600480360381019061056a9190614234565b612103565b60405161057c91906147bd565b60405180910390f35b61059f600480360381019061059a91906140e0565b61216a565b6040516105ac919061412d565b60405180910390f35b6105cf60048036038101906105ca91906147dd565b612195565b6040516105dc91906147bd565b60405180910390f35b6105ff60048036038101906105fa919061481b565b6124ab565b005b61061b60048036038101906106169190614234565b6129b5565b604051610628919061421b565b60405180910390f35b6106396129d2565b604051610646919061412d565b60405180910390f35b61066960048036038101906106649190614234565b6129d8565b604051610676919061412d565b60405180910390f35b61069960048036038101906106949190614234565b612bb6565b6040516106a691906147bd565b60405180910390f35b6106c960048036038101906106c4919061486b565b612c1d565b6040516106d6919061412d565b60405180910390f35b6106e7612ea0565b6040516106f491906148e1565b60405180910390f35b610705612ec5565b604051610712919061412d565b60405180910390f35b610735600480360381019061073091906148fa565b612eca565b604051610742919061412d565b60405180910390f35b61075361318f565b604051610760919061412d565b60405180910390f35b610783600480360381019061077e919061497a565b613195565b604051610790919061412d565b60405180910390f35b6107b360048036038101906107ae91906140e0565b61335e565b005b6107cf60048036038101906107ca91906147dd565b61352a565b6040516107dc91906149f7565b60405180910390f35b6107ff60048036038101906107fa9190614234565b6137bd565b604051610810959493929190614a17565b60405180910390f35b610833600480360381019061082e9190614234565b61391a565b60405161084899989796959493929190614abc565b60405180910390f35b61086b60048036038101906108669190614234565b613a15565b6040516108819a99989796959493929190614b94565b60405180910390f35b6108a4600480360381019061089f9190614234565b613b16565b6040516108b191906147bd565b60405180910390f35b6108d460048036038101906108cf91906140e0565b613b7d565b6040516108e1919061412d565b60405180910390f35b61090460048036038101906108ff91906140e0565b613ba8565b604051610911919061412d565b60405180910390f35b610922613bd3565b60405161092f919061412d565b60405180910390f35b610940613bd8565b60405161094d919061412d565b60405180910390f35b610970600480360381019061096b9190614c35565b613bde565b60405161097d919061412d565b60405180910390f35b6109a0600480360381019061099b91906140e0565b613e06565b005b6109bc60048036038101906109b79190614234565b614020565b6040516109cc9493929190614c7c565b60405180910390f35b6109dd61406b565b6040516109ea919061412d565b60405180910390f35b610a0d6004803603810190610a0891906140e0565b614071565b604051610a1a919061412d565b60405180910390f35b600f602052815f5260405f208181548110610a3c575f80fd5b905f5260205f20015f91509150505481565b6015602052815f5260405f20602052805f5260405f205f915091509054906101000a900460ff1681565b6013602052815f5260405f208181548110610a91575f80fd5b905f5260205f20015f91509150505481565b600260155f3373ffffffffffffffffffffffffffffffffffffffff1673ffffffffffffffffffffffffffffffffffffffff1681526020019081526020015f205f826005811115610af657610af56142f9565b5b6005811115610b0857610b076142f9565b5b81526020019081526020015f205f9054906101000a900460ff1680610b7a575060165f9054906101000a900473ffffffffffffffffffffffffffffffffffffffff1673ffffffffffffffffffffffffffffffffffffffff163373ffffffffffffffffffffffffffffffffffffffff1614155b610bb0576040517f9d7b369d00000000000000000000000000000000000000000000000000000000815260040160405180910390fd5b60016002811115610bc457610bc36142f9565b5b60085f8481526020019081526020015f206002015f9054906101000a900460ff166002811115610bf757610bf66142f9565b5b14610c2e576040517ff525e32000000000000000000000000000000000000000000000000000000000815260040160405180910390fd5b600260085f8481526020019081526020015f206002015f6101000a81548160ff02191690836002811115610c6557610c646142f9565b5b02179055504260085f8481526020019081526020015f20600701819055505050565b60165f9054906101000a900473ffffffffffffffffffffffffffffffffffffffff1673ffffffffffffffffffffffffffffffffffffffff163373ffffffffffffffffffffffffffffffffffffffff1614610d0d576040517f5fc483c500000000000000000000000000000000000000000000000000000000815260040160405180910390fd5b600160155f8473ffffffffffffffffffffffffffffffffffffffff1673ffffffffffffffffffffffffffffffffffffffff1681526020019081526020015f205f836005811115610d6057610d5f6142f9565b5b6005811115610d7257610d716142f9565b5b81526020019081526020015f205f6101000a81548160ff0219169083151502179055505050565b600e602052815f5260405f208181548110610db2575f80fd5b905f5260205f20015f91509150505481565b608081565b600460155f3373ffffffffffffffffffffffffffffffffffffffff1673ffffffffffffffffffffffffffffffffffffffff1681526020019081526020015f205f826005811115610e1c57610e1b6142f9565b5b6005811115610e2e57610e2d6142f9565b5b81526020019081526020015f205f9054906101000a900460ff1680610ea0575060165f9054906101000a900473ffffffffffffffffffffffffffffffffffffffff1673ffffffffffffffffffffffffffffffffffffffff163373ffffffffffffffffffffffffffffffffffffffff1614155b610ed6576040517f9d7b369d00000000000000000000000000000000000000000000000000000000815260040160405180910390fd5b5f6002811115610ee957610ee86142f9565b5b600a5f8481526020019081526020015f2060010160019054906101000a900460ff166002811115610f1d57610f1c6142f9565b5b14610f54576040517ff525e32000000000000000000000000000000000000000000000000000000000815260040160405180910390fd5b6001600a5f8481526020019081526020015f2060010160016101000a81548160ff02191690836002811115610f8c57610f8b6142f9565b5b021790555042600a5f8481526020019081526020015f2060060181905550600380811115610fbd57610fbc6142f9565b5b600a5f8481526020019081526020015f206001015f9054906101000a900460ff166003811115610ff057610fef6142f9565b5b036110fd575f60135f8481526020019081526020015f2080548060200260200160405190810160405280929190818152602001828054801561104f57602002820191905f5260205f20905b81548152602001906001019080831161103b575b505050505090505f5f90505b81518110156110fa578360065f84848151811061107b5761107a614cbf565b5b602002602001015181526020019081526020015f2060040181905550600160065f8484815181106110af576110ae614cbf565b5b602002602001015181526020019081526020015f206006015f6101000a81548160ff021916908360018111156110e8576110e76142f9565b5b0217905550808060010191505061105b565b50505b5050565b600260155f3373ffffffffffffffffffffffffffffffffffffffff1673ffffffffffffffffffffffffffffffffffffffff1681526020019081526020015f205f826005811115611154576111536142f9565b5b6005811115611166576111656142f9565b5b81526020019081526020015f205f9054906101000a900460ff16806111d8575060165f9054906101000a900473ffffffffffffffffffffffffffffffffffffffff1673ffffffffffffffffffffffffffffffffffffffff163373ffffffffffffffffffffffffffffffffffffffff1614155b61120e576040517f9d7b369d00000000000000000000000000000000000000000000000000000000815260040160405180910390fd5b5f6002811115611221576112206142f9565b5b60085f8481526020019081526020015f206002015f9054906101000a900460ff166002811115611254576112536142f9565b5b1461128b576040517ff525e32000000000000000000000000000000000000000000000000000000000815260040160405180910390fd5b600160085f8481526020019081526020015f206002015f6101000a81548160ff021916908360028111156112c2576112c16142f9565b5b02179055504260085f8481526020019081526020015f20600601819055505050565b3373ffffffffffffffffffffffffffffffffffffffff1660065f8481526020019081526020015f206008015f9054906101000a900473ffffffffffffffffffffffffffffffffffffffff1673ffffffffffffffffffffffffffffffffffffffff161461137c576040517f9d7b369d00000000000000000000000000000000000000000000000000000000815260040160405180910390fd5b5f60065f8381526020019081526020015f205f0154036113c8576040517fc5723b5100000000000000000000000000000000000000000000000000000000815260040160405180910390fd5b6032600c5f8481526020019081526020015f208054905010611416576040517f4f2a111200000000000000000000000000000000000000000000000000000000815260040160405180910390fd5b600c5f8381526020019081526020015f2081908060018154018082558091505060019003905f5260205f20015f9091909190915055600160145f8381526020019081526020015f205f6101000a81548160ff0219169083151502179055505050565b600c602052815f5260405f208181548110611491575f80fd5b905f5260205f20015f91509150505481565b5f600460155f3373ffffffffffffffffffffffffffffffffffffffff1673ffffffffffffffffffffffffffffffffffffffff1681526020019081526020015f205f8260058111156114f7576114f66142f9565b5b6005811115611509576115086142f9565b5b81526020019081526020015f205f9054906101000a900460ff168061157b575060165f9054906101000a900473ffffffffffffffffffffffffffffffffffffffff1673ffffffffffffffffffffffffffffffffffffffff163373ffffffffffffffffffffffffffffffffffffffff1614155b6115b1576040517f9d7b369d00000000000000000000000000000000000000000000000000000000815260040160405180910390fd5b6003808111156115c4576115c36142f9565b5b8760038111156115d7576115d66142f9565b5b03611675575f600b5f8881526020019081526020015f205f015403611628576040517ff80f144500000000000000000000000000000000000000000000000000000000815260040160405180910390fd5b5f600b5f8781526020019081526020015f205f015403611674576040517ff80f144500000000000000000000000000000000000000000000000000000000815260040160405180910390fd5b5b5f60045f81548092919061168890614d19565b9190505590506040518061016001604052808281526020018960038111156116b3576116b26142f9565b5b81526020015f60028111156116cb576116ca6142f9565b5b81526020018881526020018781526020018681526020018581526020015f81526020015f81526020014281526020013373ffffffffffffffffffffffffffffffffffffffff16815250600a5f8381526020019081526020015f205f820151815f01556020820151816001015f6101000a81548160ff02191690836003811115611757576117566142f9565b5b021790555060408201518160010160016101000a81548160ff02191690836002811115611787576117866142f9565b5b0217905550606082015181600201556080820151816003015560a0820151816004015560c0820151816005015560e0820151816006015561010082015181600701556101208201518160080155610140820151816009015f6101000a81548173ffffffffffffffffffffffffffffffffffffffff021916908373ffffffffffffffffffffffffffffffffffffffff160217905550905050809250505095945050505050565b60055481565b600a602052805f5260405f205f91509050805f015490806001015f9054906101000a900460ff16908060010160019054906101000a900460ff1690806002015490806003015490806004015490806005015490806006015490806007015490806008015490806009015f9054906101000a900473ffffffffffffffffffffffffffffffffffffffff1690508b565b5f5f60155f3373ffffffffffffffffffffffffffffffffffffffff1673ffffffffffffffffffffffffffffffffffffffff1681526020019081526020015f205f826005811115611913576119126142f9565b5b6005811115611925576119246142f9565b5b81526020019081526020015f205f9054906101000a900460ff1680611997575060165f9054906101000a900473ffffffffffffffffffffffffffffffffffffffff1673ffffffffffffffffffffffffffffffffffffffff163373ffffffffffffffffffffffffffffffffffffffff1614155b6119cd576040517f9d7b369d00000000000000000000000000000000000000000000000000000000815260040160405180910390fd5b86608081511115611a0a576040517fb11b2ad800000000000000000000000000000000000000000000000000000000815260040160405180910390fd5b5f60075f8981526020019081526020015f205f015403611a56576040517fc5723b5100000000000000000000000000000000000000000000000000000000815260040160405180910390fd5b5f8514158015611a7857505f600a5f8781526020019081526020015f205f0154145b15611aaf576040517fc5723b5100000000000000000000000000000000000000000000000000000000815260040160405180910390fd5b5f8414158015611ad157505f600b5f8681526020019081526020015f205f0154145b15611b08576040517fc5723b5100000000000000000000000000000000000000000000000000000000815260040160405180910390fd5b5f5f5f815480929190611b1a90614d19565b9190505590506040518061012001604052808281526020018a81526020018981526020018681526020015f8152602001878152602001886001811115611b6357611b626142f9565b5b81526020014281526020013373ffffffffffffffffffffffffffffffffffffffff1681525060065f8381526020019081526020015f205f820151815f01556020820151816001019081611bb69190614f5d565b5060408201518160020155606082015181600301556080820151816004015560a0820151816005015560c0820151816006015f6101000a81548160ff02191690836001811115611c0957611c086142f9565b5b021790555060e08201518160070155610100820151816008015f6101000a81548173ffffffffffffffffffffffffffffffffffffffff021916908373ffffffffffffffffffffffffffffffffffffffff16021790555090505080935050505095945050505050565b6009602052805f5260405f205f91509050805f015490806001018054611c9690614d8d565b80601f0160208091040260200160405190810160405280929190818152602001828054611cc290614d8d565b8015611d0d5780601f10611ce457610100808354040283529160200191611d0d565b820191905f5260205f20905b815481529060010190602001808311611cf057829003601f168201915b505050505090806002015490806003015f9054906101000a900473ffffffffffffffffffffffffffffffffffffffff16905084565b600460155f3373ffffffffffffffffffffffffffffffffffffffff1673ffffffffffffffffffffffffffffffffffffffff1681526020019081526020015f205f826005811115611d9557611d946142f9565b5b6005811115611da757611da66142f9565b5b81526020019081526020015f205f9054906101000a900460ff1680611e19575060165f9054906101000a900473ffffffffffffffffffffffffffffffffffffffff1673ffffffffffffffffffffffffffffffffffffffff163373ffffffffffffffffffffffffffffffffffffffff1614155b611e4f576040517f9d7b369d00000000000000000000000000000000000000000000000000000000815260040160405180910390fd5b60016002811115611e6357611e626142f9565b5b600a5f8481526020019081526020015f2060010160019054906101000a900460ff166002811115611e9757611e966142f9565b5b14611ece576040517ff525e32000000000000000000000000000000000000000000000000000000000815260040160405180910390fd5b6002600a5f8481526020019081526020015f2060010160016101000a81548160ff02191690836002811115611f0657611f056142f9565b5b021790555042600a5f8481526020019081526020015f2060070181905550600380811115611f3757611f366142f9565b5b600a5f8481526020019081526020015f206001015f9054906101000a900460ff166003811115611f6a57611f696142f9565b5b036120fa575f60135f8481526020019081526020015f20805480602002602001604051908101604052809291908181526020018280548015611fc957602002820191905f5260205f20905b815481526020019060010190808311611fb5575b505050505090505f5f90505b81518110156120f757600a5f8581526020019081526020015f206003015460065f84848151811061200957612008614cbf565b5b602002602001015181526020019081526020015f20600301819055505f60065f84848151811061203c5761203b614cbf565b5b602002602001015181526020019081526020015f206004018190555060145f83838151811061206e5761206d614cbf565b5b602002602001015181526020019081526020015f205f9054906101000a900460ff166120ea575f60065f8484815181106120ab576120aa614cbf565b5b602002602001015181526020019081526020015f206006015f6101000a81548160ff021916908360018111156120e4576120e36142f9565b5b02179055505b8080600101915050611fd5565b50505b5050565b5f5481565b6060600c5f8381526020019081526020015f2080548060200260200160405190810160405280929190818152602001828054801561215e57602002820191905f5260205f20905b81548152602001906001019080831161214a575b50505050509050919050565b600d602052815f5260405f208181548110612183575f80fd5b905f5260205f20015f91509150505481565b60605f60058111156121aa576121a96142f9565b5b8360058111156121bd576121bc6142f9565b5b0361222757600d5f8381526020019081526020015f2080548060200260200160405190810160405280929190818152602001828054801561221b57602002820191905f5260205f20905b815481526020019060010190808311612207575b505050505090506124a5565b6001600581111561223b5761223a6142f9565b5b83600581111561224e5761224d6142f9565b5b036122b857600e5f8381526020019081526020015f208054806020026020016040519081016040528092919081815260200182805480156122ac57602002820191905f5260205f20905b815481526020019060010190808311612298575b505050505090506124a5565b600260058111156122cc576122cb6142f9565b5b8360058111156122df576122de6142f9565b5b0361234957600f5f8381526020019081526020015f2080548060200260200160405190810160405280929190818152602001828054801561233d57602002820191905f5260205f20905b815481526020019060010190808311612329575b505050505090506124a5565b6004600581111561235d5761235c6142f9565b5b8360058111156123705761236f6142f9565b5b036123da5760105f8381526020019081526020015f208054806020026020016040519081016040528092919081815260200182805480156123ce57602002820191905f5260205f20905b8154815260200190600101908083116123ba575b505050505090506124a5565b6005808111156123ed576123ec6142f9565b5b836005811115612400576123ff6142f9565b5b0361246a5760115f8381526020019081526020015f2080548060200260200160405190810160405280929190818152602001828054801561245e57602002820191905f5260205f20905b81548152602001906001019080831161244a575b505050505090506124a5565b6040517f08c379a000000000000000000000000000000000000000000000000000000000815260040161249c90615076565b60405180910390fd5b92915050565b5f60095f8381526020019081526020015f205f0154036124f7576040517fc5723b5100000000000000000000000000000000000000000000000000000000815260040160405180910390fd5b60155f3373ffffffffffffffffffffffffffffffffffffffff1673ffffffffffffffffffffffffffffffffffffffff1681526020019081526020015f205f846005811115612548576125476142f9565b5b600581111561255a576125596142f9565b5b81526020019081526020015f205f9054906101000a900460ff16806125cc575060165f9054906101000a900473ffffffffffffffffffffffffffffffffffffffff1673ffffffffffffffffffffffffffffffffffffffff163373ffffffffffffffffffffffffffffffffffffffff1614155b612602576040517f9d7b369d00000000000000000000000000000000000000000000000000000000815260040160405180910390fd5b5f6005811115612615576126146142f9565b5b836005811115612628576126276142f9565b5b036126b3575f60065f8481526020019081526020015f205f015403612679576040517fc5723b5100000000000000000000000000000000000000000000000000000000815260040160405180910390fd5b600d5f8381526020019081526020015f2081908060018154018082558091505060019003905f5260205f20015f90919091909150556129b0565b600160058111156126c7576126c66142f9565b5b8360058111156126da576126d96142f9565b5b03612765575f60075f8481526020019081526020015f205f01540361272b576040517fc5723b5100000000000000000000000000000000000000000000000000000000815260040160405180910390fd5b600e5f8381526020019081526020015f2081908060018154018082558091505060019003905f5260205f20015f90919091909150556129af565b60026005811115612779576127786142f9565b5b83600581111561278c5761278b6142f9565b5b03612817575f60085f8481526020019081526020015f205f0154036127dd576040517fc5723b5100000000000000000000000000000000000000000000000000000000815260040160405180910390fd5b600f5f8381526020019081526020015f2081908060018154018082558091505060019003905f5260205f20015f90919091909150556129ae565b6004600581111561282b5761282a6142f9565b5b83600581111561283e5761283d6142f9565b5b036128c9575f600a5f8481526020019081526020015f205f01540361288f576040517fc5723b5100000000000000000000000000000000000000000000000000000000815260040160405180910390fd5b60105f8381526020019081526020015f2081908060018154018082558091505060019003905f5260205f20015f90919091909150556129ad565b6005808111156128dc576128db6142f9565b5b8360058111156128ef576128ee6142f9565b5b0361297a575f600b5f8481526020019081526020015f205f015403612940576040517fc5723b5100000000000000000000000000000000000000000000000000000000815260040160405180910390fd5b60115f8381526020019081526020015f2081908060018154018082558091505060019003905f5260205f20015f90919091909150556129ac565b6040517f9d7b369d00000000000000000000000000000000000000000000000000000000815260040160405180910390fd5b5b5b5b5b505050565b6014602052805f5260405f205f915054906101000a900460ff1681565b60035481565b5f600160155f3373ffffffffffffffffffffffffffffffffffffffff1673ffffffffffffffffffffffffffffffffffffffff1681526020019081526020015f205f826005811115612a2c57612a2b6142f9565b5b6005811115612a3e57612a3d6142f9565b5b81526020019081526020015f205f9054906101000a900460ff1680612ab0575060165f9054906101000a900473ffffffffffffffffffffffffffffffffffffffff1673ffffffffffffffffffffffffffffffffffffffff163373ffffffffffffffffffffffffffffffffffffffff1614155b612ae6576040517f9d7b369d00000000000000000000000000000000000000000000000000000000815260040160405180910390fd5b5f60015f815480929190612af990614d19565b91905055905060405180608001604052808281526020018581526020014281526020013373ffffffffffffffffffffffffffffffffffffffff1681525060075f8381526020019081526020015f205f820151815f015560208201518160010155604082015181600201556060820151816003015f6101000a81548173ffffffffffffffffffffffffffffffffffffffff021916908373ffffffffffffffffffffffffffffffffffffffff1602179055509050508092505050919050565b606060125f8381526020019081526020015f20805480602002602001604051908101604052809291908181526020018280548015612c1157602002820191905f5260205f20905b815481526020019060010190808311612bfd575b50505050509050919050565b5f600560155f3373ffffffffffffffffffffffffffffffffffffffff1673ffffffffffffffffffffffffffffffffffffffff1681526020019081526020015f205f826005811115612c7157612c706142f9565b5b6005811115612c8357612c826142f9565b5b81526020019081526020015f205f9054906101000a900460ff1680612cf5575060165f9054906101000a900473ffffffffffffffffffffffffffffffffffffffff1673ffffffffffffffffffffffffffffffffffffffff163373ffffffffffffffffffffffffffffffffffffffff1614155b612d2b576040517f9d7b369d00000000000000000000000000000000000000000000000000000000815260040160405180910390fd5b83608081511115612d68576040517fb11b2ad800000000000000000000000000000000000000000000000000000000815260040160405180910390fd5b83608081511115612da5576040517fb11b2ad800000000000000000000000000000000000000000000000000000000815260040160405180910390fd5b5f60055f815480929190612db890614d19565b9190505590506040518060a001604052808281526020018881526020018781526020014281526020013373ffffffffffffffffffffffffffffffffffffffff16815250600b5f8381526020019081526020015f205f820151815f01556020820151816001019081612e299190614f5d565b506040820151816002019081612e3f9190614f5d565b50606082015181600301556080820151816004015f6101000a81548173ffffffffffffffffffffffffffffffffffffffff021916908373ffffffffffffffffffffffffffffffffffffffff1602179055509050508094505050505092915050565b60165f9054906101000a900473ffffffffffffffffffffffffffffffffffffffff1681565b603281565b5f600260155f3373ffffffffffffffffffffffffffffffffffffffff1673ffffffffffffffffffffffffffffffffffffffff1681526020019081526020015f205f826005811115612f1e57612f1d6142f9565b5b6005811115612f3057612f2f6142f9565b5b81526020019081526020015f205f9054906101000a900460ff1680612fa2575060165f9054906101000a900473ffffffffffffffffffffffffffffffffffffffff1673ffffffffffffffffffffffffffffffffffffffff163373ffffffffffffffffffffffffffffffffffffffff1614155b612fd8576040517f9d7b369d00000000000000000000000000000000000000000000000000000000815260040160405180910390fd5b84608081511115613015576040517fb11b2ad800000000000000000000000000000000000000000000000000000000815260040160405180910390fd5b5f60025f81548092919061302890614d19565b9190505590506040518061014001604052808281526020018981526020015f6002811115613059576130586142f9565b5b81526020018881526020018781526020018681526020015f81526020015f81526020014281526020013373ffffffffffffffffffffffffffffffffffffffff1681525060085f8381526020019081526020015f205f820151815f0155602082015181600101556040820151816002015f6101000a81548160ff021916908360028111156130e9576130e86142f9565b5b021790555060608201518160030190816131039190614f5d565b506080820151816004015560a0820151816005015560c0820151816006015560e082015181600701556101008201518160080155610120820151816009015f6101000a81548173ffffffffffffffffffffffffffffffffffffffff021916908373ffffffffffffffffffffffffffffffffffffffff160217905550905050809350505050949350505050565b60045481565b5f5f60058111156131a9576131a86142f9565b5b8260058111156131bc576131bb6142f9565b5b036131d65760015f546131cf9190615094565b9050613359565b600160058111156131ea576131e96142f9565b5b8260058111156131fd576131fc6142f9565b5b0361321757600180546132109190615094565b9050613359565b6002600581111561322b5761322a6142f9565b5b82600581111561323e5761323d6142f9565b5b036132595760016002546132529190615094565b9050613359565b6003600581111561326d5761326c6142f9565b5b8260058111156132805761327f6142f9565b5b0361329b5760016003546132949190615094565b9050613359565b600460058111156132af576132ae6142f9565b5b8260058111156132c2576132c16142f9565b5b036132dd5760016004546132d69190615094565b9050613359565b6005808111156132f0576132ef6142f9565b5b826005811115613303576133026142f9565b5b0361331e5760016005546133179190615094565b9050613359565b6040517f08c379a000000000000000000000000000000000000000000000000000000000815260040161335090615111565b60405180910390fd5b919050565b5f600a5f8481526020019081526020015f205f0154036133aa576040517fc5723b5100000000000000000000000000000000000000000000000000000000815260040160405180910390fd5b5f60085f8381526020019081526020015f205f0154036133f6576040517fc5723b5100000000000000000000000000000000000000000000000000000000815260040160405180910390fd5b5f6002811115613409576134086142f9565b5b600a5f8481526020019081526020015f2060010160019054906101000a900460ff16600281111561343d5761343c6142f9565b5b14613474576040517ff525e32000000000000000000000000000000000000000000000000000000000815260040160405180910390fd5b5f6002811115613487576134866142f9565b5b60085f8381526020019081526020015f206002015f9054906101000a900460ff1660028111156134ba576134b96142f9565b5b146134f1576040517ff525e32000000000000000000000000000000000000000000000000000000000815260040160405180910390fd5b60125f8381526020019081526020015f2081908060018154018082558091505060019003905f5260205f20015f90919091909150555050565b60605f600581111561353f5761353e6142f9565b5b836005811115613552576135516142f9565b5b0361358e5760065f8381526020019081526020015f206040516020016135789190615382565b60405160208183030381529060405290506137b7565b600160058111156135a2576135a16142f9565b5b8360058111156135b5576135b46142f9565b5b036135f15760075f8381526020019081526020015f206040516020016135db9190615423565b60405160208183030381529060405290506137b7565b60026005811115613605576136046142f9565b5b836005811115613618576136176142f9565b5b036136545760085f8381526020019081526020015f2060405160200161363e91906155a9565b60405160208183030381529060405290506137b7565b60036005811115613668576136676142f9565b5b83600581111561367b5761367a6142f9565b5b036136b75760095f8381526020019081526020015f206040516020016136a1919061564b565b60405160208183030381529060405290506137b7565b600460058111156136cb576136ca6142f9565b5b8360058111156136de576136dd6142f9565b5b0361371a57600a5f8381526020019081526020015f20604051602001613704919061582f565b60405160208183030381529060405290506137b7565b60058081111561372d5761372c6142f9565b5b8360058111156137405761373f6142f9565b5b0361377c57600b5f8381526020019081526020015f2060405160200161376691906158e4565b60405160208183030381529060405290506137b7565b6040517f08c379a00000000000000000000000000000000000000000000000000000000081526004016137ae90615111565b60405180910390fd5b92915050565b600b602052805f5260405f205f91509050805f0154908060010180546137e290614d8d565b80601f016020809104026020016040519081016040528092919081815260200182805461380e90614d8d565b80156138595780601f1061383057610100808354040283529160200191613859565b820191905f5260205f20905b81548152906001019060200180831161383c57829003601f168201915b50505050509080600201805461386e90614d8d565b80601f016020809104026020016040519081016040528092919081815260200182805461389a90614d8d565b80156138e55780601f106138bc576101008083540402835291602001916138e5565b820191905f5260205f20905b8154815290600101906020018083116138c857829003601f168201915b505050505090806003015490806004015f9054906101000a900473ffffffffffffffffffffffffffffffffffffffff16905085565b6006602052805f5260405f205f91509050805f01549080600101805461393f90614d8d565b80601f016020809104026020016040519081016040528092919081815260200182805461396b90614d8d565b80156139b65780601f1061398d576101008083540402835291602001916139b6565b820191905f5260205f20905b81548152906001019060200180831161399957829003601f168201915b505050505090806002015490806003015490806004015490806005015490806006015f9054906101000a900460ff1690806007015490806008015f9054906101000a900473ffffffffffffffffffffffffffffffffffffffff16905089565b6008602052805f5260405f205f91509050805f015490806001015490806002015f9054906101000a900460ff1690806003018054613a5290614d8d565b80601f0160208091040260200160405190810160405280929190818152602001828054613a7e90614d8d565b8015613ac95780601f10613aa057610100808354040283529160200191613ac9565b820191905f5260205f20905b815481529060010190602001808311613aac57829003601f168201915b505050505090806004015490806005015490806006015490806007015490806008015490806009015f9054906101000a900473ffffffffffffffffffffffffffffffffffffffff1690508a565b606060135f8381526020019081526020015f20805480602002602001604051908101604052809291908181526020018280548015613b7157602002820191905f5260205f20905b815481526020019060010190808311613b5d575b50505050509050919050565b6012602052815f5260405f208181548110613b96575f80fd5b905f5260205f20015f91509150505481565b6010602052815f5260405f208181548110613bc1575f80fd5b905f5260205f20015f91509150505481565b603281565b60015481565b5f600360155f3373ffffffffffffffffffffffffffffffffffffffff1673ffffffffffffffffffffffffffffffffffffffff1681526020019081526020015f205f826005811115613c3257613c316142f9565b5b6005811115613c4457613c436142f9565b5b81526020019081526020015f205f9054906101000a900460ff1680613cb6575060165f9054906101000a900473ffffffffffffffffffffffffffffffffffffffff1673ffffffffffffffffffffffffffffffffffffffff163373ffffffffffffffffffffffffffffffffffffffff1614155b613cec576040517f9d7b369d00000000000000000000000000000000000000000000000000000000815260040160405180910390fd5b82608081511115613d29576040517fb11b2ad800000000000000000000000000000000000000000000000000000000815260040160405180910390fd5b5f60035f815480929190613d3c90614d19565b91905055905060405180608001604052808281526020018681526020014281526020013373ffffffffffffffffffffffffffffffffffffffff1681525060095f8381526020019081526020015f205f820151815f01556020820151816001019081613da79190614f5d565b50604082015181600201556060820151816003015f6101000a81548173ffffffffffffffffffffffffffffffffffffffff021916908373ffffffffffffffffffffffffffffffffffffffff160217905550905050809350505050919050565b5f600a5f8481526020019081526020015f205f015403613e52576040517fc5723b5100000000000000000000000000000000000000000000000000000000815260040160405180910390fd5b5f60065f8381526020019081526020015f205f015403613e9e576040517fc5723b5100000000000000000000000000000000000000000000000000000000815260040160405180910390fd5b5f6002811115613eb157613eb06142f9565b5b600a5f8481526020019081526020015f2060010160019054906101000a900460ff166002811115613ee557613ee46142f9565b5b14613f1c576040517ff525e32000000000000000000000000000000000000000000000000000000000815260040160405180910390fd5b5f6001811115613f2f57613f2e6142f9565b5b60065f8381526020019081526020015f206006015f9054906101000a900460ff166001811115613f6257613f616142f9565b5b14613f99576040517ff525e32000000000000000000000000000000000000000000000000000000000815260040160405180910390fd5b603260135f8481526020019081526020015f208054905010613fe7576040517f4f2a111200000000000000000000000000000000000000000000000000000000815260040160405180910390fd5b60135f8381526020019081526020015f2081908060018154018082558091505060019003905f5260205f20015f90919091909150555050565b6007602052805f5260405f205f91509050805f015490806001015490806002015490806003015f9054906101000a900473ffffffffffffffffffffffffffffffffffffffff16905084565b60025481565b6011602052815f5260405f20818154811061408a575f80fd5b905f5260205f20015f91509150505481565b5f604051905090565b5f5ffd5b5f5ffd5b5f819050919050565b6140bf816140ad565b81146140c9575f5ffd5b50565b5f813590506140da816140b6565b92915050565b5f5f604083850312156140f6576140f56140a5565b5b5f614103858286016140cc565b9250506020614114858286016140cc565b9150509250929050565b614127816140ad565b82525050565b5f6020820190506141405f83018461411e565b92915050565b5f73ffffffffffffffffffffffffffffffffffffffff82169050919050565b5f61416f82614146565b9050919050565b61417f81614165565b8114614189575f5ffd5b50565b5f8135905061419a81614176565b92915050565b600681106141ac575f5ffd5b50565b5f813590506141bd816141a0565b92915050565b5f5f604083850312156141d9576141d86140a5565b5b5f6141e68582860161418c565b92505060206141f7858286016141af565b9150509250929050565b5f8115159050919050565b61421581614201565b82525050565b5f60208201905061422e5f83018461420c565b92915050565b5f60208284031215614249576142486140a5565b5b5f614256848285016140cc565b91505092915050565b6004811061426b575f5ffd5b50565b5f8135905061427c8161425f565b92915050565b5f5f5f5f5f60a0868803121561429b5761429a6140a5565b5b5f6142a88882890161426e565b95505060206142b9888289016140cc565b94505060406142ca888289016140cc565b93505060606142db888289016140cc565b92505060806142ec888289016140cc565b9150509295509295909350565b7f4e487b71000000000000000000000000000000000000000000000000000000005f52602160045260245ffd5b60048110614337576143366142f9565b5b50565b5f81905061434782614326565b919050565b5f6143568261433a565b9050919050565b6143668161434c565b82525050565b6003811061437d5761437c6142f9565b5b50565b5f81905061438d8261436c565b919050565b5f61439c82614380565b9050919050565b6143ac81614392565b82525050565b6143bb81614165565b82525050565b5f610160820190506143d55f83018e61411e565b6143e2602083018d61435d565b6143ef604083018c6143a3565b6143fc606083018b61411e565b614409608083018a61411e565b61441660a083018961411e565b61442360c083018861411e565b61443060e083018761411e565b61443e61010083018661411e565b61444c61012083018561411e565b61445a6101408301846143b2565b9c9b505050505050505050505050565b5f5ffd5b5f5ffd5b5f601f19601f8301169050919050565b7f4e487b71000000000000000000000000000000000000000000000000000000005f52604160045260245ffd5b6144b882614472565b810181811067ffffffffffffffff821117156144d7576144d6614482565b5b80604052505050565b5f6144e961409c565b90506144f582826144af565b919050565b5f67ffffffffffffffff82111561451457614513614482565b5b61451d82614472565b9050602081019050919050565b828183375f83830152505050565b5f61454a614545846144fa565b6144e0565b9050828152602081018484840111156145665761456561446e565b5b61457184828561452a565b509392505050565b5f82601f83011261458d5761458c61446a565b5b813561459d848260208601614538565b91505092915050565b600281106145b2575f5ffd5b50565b5f813590506145c3816145a6565b92915050565b5f5f5f5f5f60a086880312156145e2576145e16140a5565b5b5f86013567ffffffffffffffff8111156145ff576145fe6140a9565b5b61460b88828901614579565b955050602061461c888289016140cc565b945050604061462d888289016145b5565b935050606061463e888289016140cc565b925050608061464f888289016140cc565b9150509295509295909350565b5f81519050919050565b5f82825260208201905092915050565b8281835e5f83830152505050565b5f61468e8261465c565b6146988185614666565b93506146a8818560208601614676565b6146b181614472565b840191505092915050565b5f6080820190506146cf5f83018761411e565b81810360208301526146e18186614684565b90506146f0604083018561411e565b6146fd60608301846143b2565b95945050505050565b5f81519050919050565b5f82825260208201905092915050565b5f819050602082019050919050565b614738816140ad565b82525050565b5f614749838361472f565b60208301905092915050565b5f602082019050919050565b5f61476b82614706565b6147758185614710565b935061478083614720565b805f5b838110156147b0578151614797888261473e565b97506147a283614755565b925050600181019050614783565b5085935050505092915050565b5f6020820190508181035f8301526147d58184614761565b905092915050565b5f5f604083850312156147f3576147f26140a5565b5b5f614800858286016141af565b9250506020614811858286016140cc565b9150509250929050565b5f5f5f60608486031215614832576148316140a5565b5b5f61483f868287016141af565b9350506020614850868287016140cc565b9250506040614861868287016140cc565b9150509250925092565b5f5f60408385031215614881576148806140a5565b5b5f83013567ffffffffffffffff81111561489e5761489d6140a9565b5b6148aa85828601614579565b925050602083013567ffffffffffffffff8111156148cb576148ca6140a9565b5b6148d785828601614579565b9150509250929050565b5f6020820190506148f45f8301846143b2565b92915050565b5f5f5f5f60808587031215614912576149116140a5565b5b5f61491f878288016140cc565b945050602085013567ffffffffffffffff8111156149405761493f6140a9565b5b61494c87828801614579565b935050604061495d878288016140cc565b925050606061496e878288016140cc565b91505092959194509250565b5f6020828403121561498f5761498e6140a5565b5b5f61499c848285016141af565b91505092915050565b5f81519050919050565b5f82825260208201905092915050565b5f6149c9826149a5565b6149d381856149af565b93506149e3818560208601614676565b6149ec81614472565b840191505092915050565b5f6020820190508181035f830152614a0f81846149bf565b905092915050565b5f60a082019050614a2a5f83018861411e565b8181036020830152614a3c8187614684565b90508181036040830152614a508186614684565b9050614a5f606083018561411e565b614a6c60808301846143b2565b9695505050505050565b60028110614a8757614a866142f9565b5b50565b5f819050614a9782614a76565b919050565b5f614aa682614a8a565b9050919050565b614ab681614a9c565b82525050565b5f61012082019050614ad05f83018c61411e565b8181036020830152614ae2818b614684565b9050614af1604083018a61411e565b614afe606083018961411e565b614b0b608083018861411e565b614b1860a083018761411e565b614b2560c0830186614aad565b614b3260e083018561411e565b614b406101008301846143b2565b9a9950505050505050505050565b60038110614b5f57614b5e6142f9565b5b50565b5f819050614b6f82614b4e565b919050565b5f614b7e82614b62565b9050919050565b614b8e81614b74565b82525050565b5f61014082019050614ba85f83018d61411e565b614bb5602083018c61411e565b614bc2604083018b614b85565b8181036060830152614bd4818a614684565b9050614be3608083018961411e565b614bf060a083018861411e565b614bfd60c083018761411e565b614c0a60e083018661411e565b614c1861010083018561411e565b614c266101208301846143b2565b9b9a5050505050505050505050565b5f60208284031215614c4a57614c496140a5565b5b5f82013567ffffffffffffffff811115614c6757614c666140a9565b5b614c7384828501614579565b91505092915050565b5f608082019050614c8f5f83018761411e565b614c9c602083018661411e565b614ca9604083018561411e565b614cb660608301846143b2565b95945050505050565b7f4e487b71000000000000000000000000000000000000000000000000000000005f52603260045260245ffd5b7f4e487b71000000000000000000000000000000000000000000000000000000005f52601160045260245ffd5b5f614d23826140ad565b91507fffffffffffffffffffffffffffffffffffffffffffffffffffffffffffffffff8203614d5557614d54614cec565b5b600182019050919050565b7f4e487b71000000000000000000000000000000000000000000000000000000005f52602260045260245ffd5b5f6002820490506001821680614da457607f821691505b602082108103614db757614db6614d60565b5b50919050565b5f819050815f5260205f209050919050565b5f6020601f8301049050919050565b5f82821b905092915050565b5f60088302614e197fffffffffffffffffffffffffffffffffffffffffffffffffffffffffffffffff82614dde565b614e238683614dde565b95508019841693508086168417925050509392505050565b5f819050919050565b5f614e5e614e59614e54846140ad565b614e3b565b6140ad565b9050919050565b5f819050919050565b614e7783614e44565b614e8b614e8382614e65565b848454614dea565b825550505050565b5f5f905090565b614ea2614e93565b614ead818484614e6e565b505050565b5b81811015614ed057614ec55f82614e9a565b600181019050614eb3565b5050565b601f821115614f1557614ee681614dbd565b614eef84614dcf565b81016020851015614efe578190505b614f12614f0a85614dcf565b830182614eb2565b50505b505050565b5f82821c905092915050565b5f614f355f1984600802614f1a565b1980831691505092915050565b5f614f4d8383614f26565b9150826002028217905092915050565b614f668261465c565b67ffffffffffffffff811115614f7f57614f7e614482565b5b614f898254614d8d565b614f94828285614ed4565b5f60209050601f831160018114614fc5575f8415614fb3578287015190505b614fbd8582614f42565b865550615024565b601f198416614fd386614dbd565b5f5b82811015614ffa57848901518255600182019150602085019450602081019050614fd5565b868310156150175784890151615013601f891682614f26565b8355505b6001600288020188555050505b505050505050565b7f496e76616c6964207265736f75726365207479706520666f72206e6f746573005f82015250565b5f615060601f83614666565b915061506b8261502c565b602082019050919050565b5f6020820190508181035f83015261508d81615054565b9050919050565b5f61509e826140ad565b91506150a9836140ad565b92508282039050818111156150c1576150c0614cec565b5b92915050565b7f496e76616c6964207265736f75726365207479706500000000000000000000005f82015250565b5f6150fb601583614666565b9150615106826150c7565b602082019050919050565b5f6020820190508181035f830152615128816150ef565b9050919050565b5f815f1c9050919050565b5f819050919050565b5f6151556151508361512f565b61513a565b9050919050565b5f82825260208201905092915050565b5f815461517881614d8d565b615182818661515c565b9450600182165f811461519c57600181146151b2576151e4565b60ff1983168652811515602002860193506151e4565b6151bb85614dbd565b5f5b838110156151dc578154818901526001820191506020810190506151bd565b808801955050505b50505092915050565b5f60ff82169050919050565b5f61520b6152068361512f565b6151ed565b9050919050565b61521b81614a9c565b82525050565b5f73ffffffffffffffffffffffffffffffffffffffff82169050919050565b5f61525261524d8361512f565b615221565b9050919050565b61526281614165565b82525050565b5f61012083015f5f840154905061527e81615143565b61528a5f87018261472f565b506001840185830360208701526152a1838261516c565b925050600284015490506152b481615143565b6152c1604087018261472f565b50600384015490506152d281615143565b6152df606087018261472f565b50600484015490506152f081615143565b6152fd608087018261472f565b506005840154905061530e81615143565b61531b60a087018261472f565b506006840154905061532c816151f9565b61533960c0870182615212565b506007840154905061534a81615143565b61535760e087018261472f565b506008840154905061536881615240565b615376610100870182615259565b50819250505092915050565b5f6020820190508181035f83015261539a8184615268565b905092915050565b608082015f5f83015490506153b681615143565b6153c25f86018261472f565b50600183015490506153d381615143565b6153e0602086018261472f565b50600283015490506153f181615143565b6153fe604086018261472f565b506003830154905061540f81615240565b61541c6060860182615259565b5050505050565b5f6080820190506154365f8301846153a2565b92915050565b5f60ff82169050919050565b5f61545a6154558361512f565b61543c565b9050919050565b61546a81614b74565b82525050565b5f61014083015f5f840154905061548681615143565b6154925f87018261472f565b50600184015490506154a381615143565b6154b0602087018261472f565b50600284015490506154c181615448565b6154ce6040870182615461565b506003840185830360608701526154e5838261516c565b925050600484015490506154f881615143565b615505608087018261472f565b506005840154905061551681615143565b61552360a087018261472f565b506006840154905061553481615143565b61554160c087018261472f565b506007840154905061555281615143565b61555f60e087018261472f565b506008840154905061557081615143565b61557e61010087018261472f565b506009840154905061558f81615240565b61559d610120870182615259565b50819250505092915050565b5f6020820190508181035f8301526155c18184615470565b905092915050565b5f608083015f5f84015490506155de81615143565b6155ea5f87018261472f565b50600184018583036020870152615601838261516c565b9250506002840154905061561481615143565b615621604087018261472f565b506003840154905061563281615240565b61563f6060870182615259565b50819250505092915050565b5f6020820190508181035f83015261566381846155c9565b905092915050565b5f60ff82169050919050565b5f6156896156848361512f565b61566b565b9050919050565b6156998161434c565b82525050565b5f8160081c9050919050565b5f60ff82169050919050565b5f6156c96156c48361569f565b6156ab565b9050919050565b6156d981614392565b82525050565b61016082015f5f83015490506156f481615143565b6157005f86018261472f565b506001830154905061571181615677565b61571e6020860182615690565b50615728816156b7565b61573560408601826156d0565b506002830154905061574681615143565b615753606086018261472f565b506003830154905061576481615143565b615771608086018261472f565b506004830154905061578281615143565b61578f60a086018261472f565b50600583015490506157a081615143565b6157ad60c086018261472f565b50600683015490506157be81615143565b6157cb60e086018261472f565b50600783015490506157dc81615143565b6157ea61010086018261472f565b50600883015490506157fb81615143565b61580961012086018261472f565b506009830154905061581a81615240565b615828610140860182615259565b5050505050565b5f610160820190506158435f8301846156df565b92915050565b5f60a083015f5f840154905061585e81615143565b61586a5f87018261472f565b50600184018583036020870152615881838261516c565b92505060028401858303604087015261589a838261516c565b925050600384015490506158ad81615143565b6158ba606087018261472f565b50600484015490506158cb81615240565b6158d86080870182615259565b50819250505092915050565b5f6020820190508181035f8301526158fc8184615849565b90509291505056fea264697066735822122076cbfecdf62ec74d2c08062bde0f35c8dcca100e8b763b80f8d0ff39cdb9f34364736f6c634300081e0033a264697066735822122005fe591b12acbb2e759901adfdc44f0fdcd41f4ae113bcd3754c35840f1a056c64736f6c634300081e0033",
			"opcodes": "PUSH1 0x80 PUSH1 0x40 MSTORE CALLVALUE DUP1 ISZERO PUSH1 0xE JUMPI PUSH0 PUSH0 REVERT JUMPDEST POP PUSH2 0xAAE6 DUP1 PUSH2 0x1C PUSH0 CODECOPY PUSH0 RETURN INVALID PUSH1 0x80 PUSH1 0x40 MSTORE CALLVALUE DUP1 ISZERO PUSH2 0xF JUMPI PUSH0 PUSH0 REVERT JUMPDEST POP PUSH1 0x4 CALLDATASIZE LT PUSH2 0x91 JUMPI PUSH0 CALLDATALOAD PUSH1 0xE0 SHR DUP1 PUSH4 0x7B103999 GT PUSH2 0x64 JUMPI DUP1 PUSH4 0x7B103999 EQ PUSH2 0xBD JUMPI DUP1 PUSH4 0x7DFECB94 EQ PUSH2 0xDB JUMPI DUP1 PUSH4 0x971742EB EQ PUSH2 0xE5 JUMPI DUP1 PUSH4 0xEA67BA41 EQ PUSH2 0xEF JUMPI DUP1 PUSH4 0xEE1989C1 EQ PUSH2 0xF9 JUMPI PUSH2 0x91 JUMP JUMPDEST DUP1 PUSH4 0x1E034361 EQ PUSH2 0x95 JUMPI DUP1 PUSH4 0x311FDFF4 EQ PUSH2 0x9F JUMPI DUP1 PUSH4 0x46B12220 EQ PUSH2 0xA9 JUMPI DUP1 PUSH4 0x6331E7D4 EQ PUSH2 0xB3 JUMPI JUMPDEST PUSH0 PUSH0 REVERT JUMPDEST PUSH2 0x9D PUSH2 0x103 JUMP JUMPDEST STOP JUMPDEST PUSH2 0xA7 PUSH2 0x6C5 JUMP JUMPDEST STOP JUMPDEST PUSH2 0xB1 PUSH2 0x9D8 JUMP JUMPDEST STOP JUMPDEST PUSH2 0xBB PUSH2 0xE90 JUMP JUMPDEST STOP JUMPDEST PUSH2 0xC5 PUSH2 0xEF6 JUMP JUMPDEST PUSH1 0x40 MLOAD PUSH2 0xD2 SWAP2 SWAP1 PUSH2 0x2D74 JUMP JUMPDEST PUSH1 0x40 MLOAD DUP1 SWAP2 SUB SWAP1 RETURN JUMPDEST PUSH2 0xE3 PUSH2 0xF1A JUMP JUMPDEST STOP JUMPDEST PUSH2 0xED PUSH2 0x114A JUMP JUMPDEST STOP JUMPDEST PUSH2 0xF7 PUSH2 0x1F30 JUMP JUMPDEST STOP JUMPDEST PUSH2 0x101 PUSH2 0x27B6 JUMP JUMPDEST STOP JUMPDEST PUSH0 PUSH0 PUSH0 SWAP1 SLOAD SWAP1 PUSH2 0x100 EXP SWAP1 DIV PUSH20 0xFFFFFFFFFFFFFFFFFFFFFFFFFFFFFFFFFFFFFFFF AND PUSH20 0xFFFFFFFFFFFFFFFFFFFFFFFFFFFFFFFFFFFFFFFF AND PUSH4 0x94761A28 PUSH2 0x1F4 TIMESTAMP PUSH2 0xE10 TIMESTAMP PUSH2 0x152 SWAP2 SWAP1 PUSH2 0x2DC3 JUMP JUMPDEST PUSH1 0x40 MLOAD DUP5 PUSH4 0xFFFFFFFF AND PUSH1 0xE0 SHL DUP2 MSTORE PUSH1 0x4 ADD PUSH2 0x170 SWAP4 SWAP3 SWAP2 SWAP1 PUSH2 0x2E98 JUMP JUMPDEST PUSH1 0x20 PUSH1 0x40 MLOAD DUP1 DUP4 SUB DUP2 PUSH0 DUP8 GAS CALL ISZERO DUP1 ISZERO PUSH2 0x18C JUMPI RETURNDATASIZE PUSH0 PUSH0 RETURNDATACOPY RETURNDATASIZE PUSH0 REVERT JUMPDEST POP POP POP POP PUSH1 0x40 MLOAD RETURNDATASIZE PUSH1 0x1F NOT PUSH1 0x1F DUP3 ADD AND DUP3 ADD DUP1 PUSH1 0x40 MSTORE POP DUP2 ADD SWAP1 PUSH2 0x1B0 SWAP2 SWAP1 PUSH2 0x2F1B JUMP JUMPDEST SWAP1 POP PUSH0 PUSH0 PUSH0 SWAP1 SLOAD SWAP1 PUSH2 0x100 EXP SWAP1 DIV PUSH20 0xFFFFFFFFFFFFFFFFFFFFFFFFFFFFFFFFFFFFFFFF AND PUSH20 0xFFFFFFFFFFFFFFFFFFFFFFFFFFFFFFFFFFFFFFFF AND PUSH4 0xB7F44B72 PUSH1 0x2 DUP5 PUSH1 0x40 MLOAD DUP4 PUSH4 0xFFFFFFFF AND PUSH1 0xE0 SHL DUP2 MSTORE PUSH1 0x4 ADD PUSH2 0x20F SWAP3 SWAP2 SWAP1 PUSH2 0x2FB9 JUMP JUMPDEST PUSH0 PUSH1 0x40 MLOAD DUP1 DUP4 SUB DUP2 DUP7 GAS STATICCALL ISZERO DUP1 ISZERO PUSH2 0x229 JUMPI RETURNDATASIZE PUSH0 PUSH0 RETURNDATACOPY RETURNDATASIZE PUSH0 REVERT JUMPDEST POP POP POP POP PUSH1 0x40 MLOAD RETURNDATASIZE PUSH0 DUP3 RETURNDATACOPY RETURNDATASIZE PUSH1 0x1F NOT PUSH1 0x1F DUP3 ADD AND DUP3 ADD DUP1 PUSH1 0x40 MSTORE POP DUP2 ADD SWAP1 PUSH2 0x251 SWAP2 SWAP1 PUSH2 0x311C JUMP JUMPDEST SWAP1 POP PUSH0 DUP2 DUP1 PUSH1 0x20 ADD SWAP1 MLOAD DUP2 ADD SWAP1 PUSH2 0x268 SWAP2 SWAP1 PUSH2 0x3376 JUMP JUMPDEST SWAP1 POP PUSH20 0x0 PUSH4 0xABCD7960 DUP3 PUSH1 0x40 ADD MLOAD PUSH1 0x2 DUP2 GT ISZERO PUSH2 0x29B JUMPI PUSH2 0x29A PUSH2 0x2F46 JUMP JUMPDEST JUMPDEST PUSH0 PUSH1 0x2 DUP2 GT ISZERO PUSH2 0x2AE JUMPI PUSH2 0x2AD PUSH2 0x2F46 JUMP JUMPDEST JUMPDEST PUSH1 0x40 MLOAD DUP4 PUSH4 0xFFFFFFFF AND PUSH1 0xE0 SHL DUP2 MSTORE PUSH1 0x4 ADD PUSH2 0x2CB SWAP3 SWAP2 SWAP1 PUSH2 0x344C JUMP JUMPDEST PUSH1 0x20 PUSH1 0x40 MLOAD DUP1 DUP4 SUB DUP2 DUP7 GAS DELEGATECALL ISZERO DUP1 ISZERO PUSH2 0x2E6 JUMPI RETURNDATASIZE PUSH0 PUSH0 RETURNDATACOPY RETURNDATASIZE PUSH0 REVERT JUMPDEST POP POP POP POP PUSH1 0x40 MLOAD RETURNDATASIZE PUSH1 0x1F NOT PUSH1 0x1F DUP3 ADD AND DUP3 ADD DUP1 PUSH1 0x40 MSTORE POP DUP2 ADD SWAP1 PUSH2 0x30A SWAP2 SWAP1 PUSH2 0x34BB JUMP JUMPDEST POP PUSH0 PUSH0 SWAP1 SLOAD SWAP1 PUSH2 0x100 EXP SWAP1 DIV PUSH20 0xFFFFFFFFFFFFFFFFFFFFFFFFFFFFFFFFFFFFFFFF AND PUSH20 0xFFFFFFFFFFFFFFFFFFFFFFFFFFFFFFFFFFFFFFFF AND PUSH4 0x3E4A1E6C DUP5 PUSH1 0x40 MLOAD DUP3 PUSH4 0xFFFFFFFF AND PUSH1 0xE0 SHL DUP2 MSTORE PUSH1 0x4 ADD PUSH2 0x364 SWAP2 SWAP1 PUSH2 0x34E6 JUMP JUMPDEST PUSH0 PUSH1 0x40 MLOAD DUP1 DUP4 SUB DUP2 PUSH0 DUP8 DUP1 EXTCODESIZE ISZERO DUP1 ISZERO PUSH2 0x37B JUMPI PUSH0 PUSH0 REVERT JUMPDEST POP GAS CALL ISZERO DUP1 ISZERO PUSH2 0x38D JUMPI RETURNDATASIZE PUSH0 PUSH0 RETURNDATACOPY RETURNDATASIZE PUSH0 REVERT JUMPDEST POP POP POP POP PUSH0 PUSH0 SWAP1 SLOAD SWAP1 PUSH2 0x100 EXP SWAP1 DIV PUSH20 0xFFFFFFFFFFFFFFFFFFFFFFFFFFFFFFFFFFFFFFFF AND PUSH20 0xFFFFFFFFFFFFFFFFFFFFFFFFFFFFFFFFFFFFFFFF AND PUSH4 0xB7F44B72 PUSH1 0x2 DUP6 PUSH1 0x40 MLOAD DUP4 PUSH4 0xFFFFFFFF AND PUSH1 0xE0 SHL DUP2 MSTORE PUSH1 0x4 ADD PUSH2 0x3ED SWAP3 SWAP2 SWAP1 PUSH2 0x2FB9 JUMP JUMPDEST PUSH0 PUSH1 0x40 MLOAD DUP1 DUP4 SUB DUP2 DUP7 GAS STATICCALL ISZERO DUP1 ISZERO PUSH2 0x407 JUMPI RETURNDATASIZE PUSH0 PUSH0 RETURNDATACOPY RETURNDATASIZE PUSH0 REVERT JUMPDEST POP POP POP POP PUSH1 0x40 MLOAD RETURNDATASIZE PUSH0 DUP3 RETURNDATACOPY RETURNDATASIZE PUSH1 0x1F NOT PUSH1 0x1F DUP3 ADD AND DUP3 ADD DUP1 PUSH1 0x40 MSTORE POP DUP2 ADD SWAP1 PUSH2 0x42F SWAP2 SWAP1 PUSH2 0x311C JUMP JUMPDEST DUP1 PUSH1 0x20 ADD SWAP1 MLOAD DUP2 ADD SWAP1 PUSH2 0x442 SWAP2 SWAP1 PUSH2 0x3376 JUMP JUMPDEST SWAP1 POP PUSH20 0x0 PUSH4 0xABCD7960 DUP3 PUSH1 0x40 ADD MLOAD PUSH1 0x2 DUP2 GT ISZERO PUSH2 0x475 JUMPI PUSH2 0x474 PUSH2 0x2F46 JUMP JUMPDEST JUMPDEST PUSH1 0x1 PUSH1 0x2 DUP2 GT ISZERO PUSH2 0x489 JUMPI PUSH2 0x488 PUSH2 0x2F46 JUMP JUMPDEST JUMPDEST PUSH1 0x40 MLOAD DUP4 PUSH4 0xFFFFFFFF AND PUSH1 0xE0 SHL DUP2 MSTORE PUSH1 0x4 ADD PUSH2 0x4A6 SWAP3 SWAP2 SWAP1 PUSH2 0x3549 JUMP JUMPDEST PUSH1 0x20 PUSH1 0x40 MLOAD DUP1 DUP4 SUB DUP2 DUP7 GAS DELEGATECALL ISZERO DUP1 ISZERO PUSH2 0x4C1 JUMPI RETURNDATASIZE PUSH0 PUSH0 RETURNDATACOPY RETURNDATASIZE PUSH0 REVERT JUMPDEST POP POP POP POP PUSH1 0x40 MLOAD RETURNDATASIZE PUSH1 0x1F NOT PUSH1 0x1F DUP3 ADD AND DUP3 ADD DUP1 PUSH1 0x40 MSTORE POP DUP2 ADD SWAP1 PUSH2 0x4E5 SWAP2 SWAP1 PUSH2 0x34BB JUMP JUMPDEST POP PUSH0 PUSH0 SWAP1 SLOAD SWAP1 PUSH2 0x100 EXP SWAP1 DIV PUSH20 0xFFFFFFFFFFFFFFFFFFFFFFFFFFFFFFFFFFFFFFFF AND PUSH20 0xFFFFFFFFFFFFFFFFFFFFFFFFFFFFFFFFFFFFFFFF AND PUSH4 0x2F3CCEBD DUP5 PUSH1 0x40 MLOAD DUP3 PUSH4 0xFFFFFFFF AND PUSH1 0xE0 SHL DUP2 MSTORE PUSH1 0x4 ADD PUSH2 0x53F SWAP2 SWAP1 PUSH2 0x34E6 JUMP JUMPDEST PUSH0 PUSH1 0x40 MLOAD DUP1 DUP4 SUB DUP2 PUSH0 DUP8 DUP1 EXTCODESIZE ISZERO DUP1 ISZERO PUSH2 0x556 JUMPI PUSH0 PUSH0 REVERT JUMPDEST POP GAS CALL ISZERO DUP1 ISZERO PUSH2 0x568 JUMPI RETURNDATASIZE PUSH0 PUSH0 RETURNDATACOPY RETURNDATASIZE PUSH0 REVERT JUMPDEST POP POP POP POP PUSH0 PUSH0 SWAP1 SLOAD SWAP1 PUSH2 0x100 EXP SWAP1 DIV PUSH20 0xFFFFFFFFFFFFFFFFFFFFFFFFFFFFFFFFFFFFFFFF AND PUSH20 0xFFFFFFFFFFFFFFFFFFFFFFFFFFFFFFFFFFFFFFFF AND PUSH4 0xB7F44B72 PUSH1 0x2 DUP6 PUSH1 0x40 MLOAD DUP4 PUSH4 0xFFFFFFFF AND PUSH1 0xE0 SHL DUP2 MSTORE PUSH1 0x4 ADD PUSH2 0x5C8 SWAP3 SWAP2 SWAP1 PUSH2 0x2FB9 JUMP JUMPDEST PUSH0 PUSH1 0x40 MLOAD DUP1 DUP4 SUB DUP2 DUP7 GAS STATICCALL ISZERO DUP1 ISZERO PUSH2 0x5E2 JUMPI RETURNDATASIZE PUSH0 PUSH0 RETURNDATACOPY RETURNDATASIZE PUSH0 REVERT JUMPDEST POP POP POP POP PUSH1 0x40 MLOAD RETURNDATASIZE PUSH0 DUP3 RETURNDATACOPY RETURNDATASIZE PUSH1 0x1F NOT PUSH1 0x1F DUP3 ADD AND DUP3 ADD DUP1 PUSH1 0x40 MSTORE POP DUP2 ADD SWAP1 PUSH2 0x60A SWAP2 SWAP1 PUSH2 0x311C JUMP JUMPDEST DUP1 PUSH1 0x20 ADD SWAP1 MLOAD DUP2 ADD SWAP1 PUSH2 0x61D SWAP2 SWAP1 PUSH2 0x3376 JUMP JUMPDEST SWAP1 POP PUSH20 0x0 PUSH4 0xABCD7960 DUP3 PUSH1 0x40 ADD MLOAD PUSH1 0x2 DUP2 GT ISZERO PUSH2 0x650 JUMPI PUSH2 0x64F PUSH2 0x2F46 JUMP JUMPDEST JUMPDEST PUSH1 0x2 DUP1 DUP2 GT ISZERO PUSH2 0x663 JUMPI PUSH2 0x662 PUSH2 0x2F46 JUMP JUMPDEST JUMPDEST PUSH1 0x40 MLOAD DUP4 PUSH4 0xFFFFFFFF AND PUSH1 0xE0 SHL DUP2 MSTORE PUSH1 0x4 ADD PUSH2 0x680 SWAP3 SWAP2 SWAP1 PUSH2 0x35CD JUMP JUMPDEST PUSH1 0x20 PUSH1 0x40 MLOAD DUP1 DUP4 SUB DUP2 DUP7 GAS DELEGATECALL ISZERO DUP1 ISZERO PUSH2 0x69B JUMPI RETURNDATASIZE PUSH0 PUSH0 RETURNDATACOPY RETURNDATASIZE PUSH0 REVERT JUMPDEST POP POP POP POP PUSH1 0x40 MLOAD RETURNDATASIZE PUSH1 0x1F NOT PUSH1 0x1F DUP3 ADD AND DUP3 ADD DUP1 PUSH1 0x40 MSTORE POP DUP2 ADD SWAP1 PUSH2 0x6BF SWAP2 SWAP1 PUSH2 0x34BB JUMP JUMPDEST POP POP POP POP JUMP JUMPDEST PUSH0 PUSH0 PUSH0 SWAP1 SLOAD SWAP1 PUSH2 0x100 EXP SWAP1 DIV PUSH20 0xFFFFFFFFFFFFFFFFFFFFFFFFFFFFFFFFFFFFFFFF AND PUSH20 0xFFFFFFFFFFFFFFFFFFFFFFFFFFFFFFFFFFFFFFFF AND PUSH4 0x7A78E12D PUSH2 0x7D0 PUSH1 0x40 MLOAD DUP3 PUSH4 0xFFFFFFFF AND PUSH1 0xE0 SHL DUP2 MSTORE PUSH1 0x4 ADD PUSH2 0x721 SWAP2 SWAP1 PUSH2 0x3640 JUMP JUMPDEST PUSH1 0x20 PUSH1 0x40 MLOAD DUP1 DUP4 SUB DUP2 PUSH0 DUP8 GAS CALL ISZERO DUP1 ISZERO PUSH2 0x73D JUMPI RETURNDATASIZE PUSH0 PUSH0 RETURNDATACOPY RETURNDATASIZE PUSH0 REVERT JUMPDEST POP POP POP POP PUSH1 0x40 MLOAD RETURNDATASIZE PUSH1 0x1F NOT PUSH1 0x1F DUP3 ADD AND DUP3 ADD DUP1 PUSH1 0x40 MSTORE POP DUP2 ADD SWAP1 PUSH2 0x761 SWAP2 SWAP1 PUSH2 0x2F1B JUMP JUMPDEST SWAP1 POP PUSH0 PUSH0 PUSH0 SWAP1 SLOAD SWAP1 PUSH2 0x100 EXP SWAP1 DIV PUSH20 0xFFFFFFFFFFFFFFFFFFFFFFFFFFFFFFFFFFFFFFFF AND PUSH20 0xFFFFFFFFFFFFFFFFFFFFFFFFFFFFFFFFFFFFFFFF AND PUSH4 0x83CC56E1 PUSH1 0x40 MLOAD DUP2 PUSH4 0xFFFFFFFF AND PUSH1 0xE0 SHL DUP2 MSTORE PUSH1 0x4 ADD PUSH2 0x7BB SWAP1 PUSH2 0x36ED JUMP JUMPDEST PUSH1 0x20 PUSH1 0x40 MLOAD DUP1 DUP4 SUB DUP2 PUSH0 DUP8 GAS CALL ISZERO DUP1 ISZERO PUSH2 0x7D7 JUMPI RETURNDATASIZE PUSH0 PUSH0 RETURNDATACOPY RETURNDATASIZE PUSH0 REVERT JUMPDEST POP POP POP POP PUSH1 0x40 MLOAD RETURNDATASIZE PUSH1 0x1F NOT PUSH1 0x1F DUP3 ADD AND DUP3 ADD DUP1 PUSH1 0x40 MSTORE POP DUP2 ADD SWAP1 PUSH2 0x7FB SWAP2 SWAP1 PUSH2 0x2F1B JUMP JUMPDEST SWAP1 POP PUSH0 PUSH0 PUSH0 SWAP1 SLOAD SWAP1 PUSH2 0x100 EXP SWAP1 DIV PUSH20 0xFFFFFFFFFFFFFFFFFFFFFFFFFFFFFFFFFFFFFFFF AND PUSH20 0xFFFFFFFFFFFFFFFFFFFFFFFFFFFFFFFFFFFFFFFF AND PUSH4 0x585B5C63 DUP5 PUSH0 PUSH0 DUP7 PUSH1 0x40 MLOAD DUP6 PUSH4 0xFFFFFFFF AND PUSH1 0xE0 SHL DUP2 MSTORE PUSH1 0x4 ADD PUSH2 0x85D SWAP5 SWAP4 SWAP3 SWAP2 SWAP1 PUSH2 0x37E7 JUMP JUMPDEST PUSH1 0x20 PUSH1 0x40 MLOAD DUP1 DUP4 SUB DUP2 PUSH0 DUP8 GAS CALL ISZERO DUP1 ISZERO PUSH2 0x879 JUMPI RETURNDATASIZE PUSH0 PUSH0 RETURNDATACOPY RETURNDATASIZE PUSH0 REVERT JUMPDEST POP POP POP POP PUSH1 0x40 MLOAD RETURNDATASIZE PUSH1 0x1F NOT PUSH1 0x1F DUP3 ADD AND DUP3 ADD DUP1 PUSH1 0x40 MSTORE POP DUP2 ADD SWAP1 PUSH2 0x89D SWAP2 SWAP1 PUSH2 0x2F1B JUMP JUMPDEST SWAP1 POP PUSH0 PUSH0 PUSH0 SWAP1 SLOAD SWAP1 PUSH2 0x100 EXP SWAP1 DIV PUSH20 0xFFFFFFFFFFFFFFFFFFFFFFFFFFFFFFFFFFFFFFFF AND PUSH20 0xFFFFFFFFFFFFFFFFFFFFFFFFFFFFFFFFFFFFFFFF AND PUSH4 0xB7F44B72 PUSH0 DUP5 PUSH1 0x40 MLOAD DUP4 PUSH4 0xFFFFFFFF AND PUSH1 0xE0 SHL DUP2 MSTORE PUSH1 0x4 ADD PUSH2 0x8FB SWAP3 SWAP2 SWAP1 PUSH2 0x2FB9 JUMP JUMPDEST PUSH0 PUSH1 0x40 MLOAD DUP1 DUP4 SUB DUP2 DUP7 GAS STATICCALL ISZERO DUP1 ISZERO PUSH2 0x915 JUMPI RETURNDATASIZE PUSH0 PUSH0 RETURNDATACOPY RETURNDATASIZE PUSH0 REVERT JUMPDEST POP POP POP POP PUSH1 0x40 MLOAD RETURNDATASIZE PUSH0 DUP3 RETURNDATACOPY RETURNDATASIZE PUSH1 0x1F NOT PUSH1 0x1F DUP3 ADD AND DUP3 ADD DUP1 PUSH1 0x40 MSTORE POP DUP2 ADD SWAP1 PUSH2 0x93D SWAP2 SWAP1 PUSH2 0x311C JUMP JUMPDEST SWAP1 POP PUSH0 DUP2 DUP1 PUSH1 0x20 ADD SWAP1 MLOAD DUP2 ADD SWAP1 PUSH2 0x954 SWAP2 SWAP1 PUSH2 0x3959 JUMP JUMPDEST SWAP1 POP PUSH20 0x0 PUSH4 0xE8C2CB16 DUP3 PUSH1 0x20 ADD MLOAD PUSH1 0x40 MLOAD DUP3 PUSH4 0xFFFFFFFF AND PUSH1 0xE0 SHL DUP2 MSTORE PUSH1 0x4 ADD PUSH2 0x991 SWAP2 SWAP1 PUSH2 0x3A4E JUMP JUMPDEST PUSH1 0x20 PUSH1 0x40 MLOAD DUP1 DUP4 SUB DUP2 DUP7 GAS DELEGATECALL ISZERO DUP1 ISZERO PUSH2 0x9AC JUMPI RETURNDATASIZE PUSH0 PUSH0 RETURNDATACOPY RETURNDATASIZE PUSH0 REVERT JUMPDEST POP POP POP POP PUSH1 0x40 MLOAD RETURNDATASIZE PUSH1 0x1F NOT PUSH1 0x1F DUP3 ADD AND DUP3 ADD DUP1 PUSH1 0x40 MSTORE POP DUP2 ADD SWAP1 PUSH2 0x9D0 SWAP2 SWAP1 PUSH2 0x34BB JUMP JUMPDEST POP POP POP POP POP POP JUMP JUMPDEST PUSH0 PUSH0 PUSH0 SWAP1 SLOAD SWAP1 PUSH2 0x100 EXP SWAP1 DIV PUSH20 0xFFFFFFFFFFFFFFFFFFFFFFFFFFFFFFFFFFFFFFFF AND PUSH20 0xFFFFFFFFFFFFFFFFFFFFFFFFFFFFFFFFFFFFFFFF AND PUSH4 0xA805AF18 PUSH0 PUSH1 0x40 MLOAD DUP3 PUSH4 0xFFFFFFFF AND PUSH1 0xE0 SHL DUP2 MSTORE PUSH1 0x4 ADD PUSH2 0xA32 SWAP2 SWAP1 PUSH2 0x3A94 JUMP JUMPDEST PUSH1 0x20 PUSH1 0x40 MLOAD DUP1 DUP4 SUB DUP2 DUP7 GAS STATICCALL ISZERO DUP1 ISZERO PUSH2 0xA4D JUMPI RETURNDATASIZE PUSH0 PUSH0 RETURNDATACOPY RETURNDATASIZE PUSH0 REVERT JUMPDEST POP POP POP POP PUSH1 0x40 MLOAD RETURNDATASIZE PUSH1 0x1F NOT PUSH1 0x1F DUP3 ADD AND DUP3 ADD DUP1 PUSH1 0x40 MSTORE POP DUP2 ADD SWAP1 PUSH2 0xA71 SWAP2 SWAP1 PUSH2 0x2F1B JUMP JUMPDEST SWAP1 POP PUSH0 PUSH0 PUSH0 SWAP1 SLOAD SWAP1 PUSH2 0x100 EXP SWAP1 DIV PUSH20 0xFFFFFFFFFFFFFFFFFFFFFFFFFFFFFFFFFFFFFFFF AND PUSH20 0xFFFFFFFFFFFFFFFFFFFFFFFFFFFFFFFFFFFFFFFF AND PUSH4 0xA805AF18 PUSH1 0x1 PUSH1 0x40 MLOAD DUP3 PUSH4 0xFFFFFFFF AND PUSH1 0xE0 SHL DUP2 MSTORE PUSH1 0x4 ADD PUSH2 0xACE SWAP2 SWAP1 PUSH2 0x3A94 JUMP JUMPDEST PUSH1 0x20 PUSH1 0x40 MLOAD DUP1 DUP4 SUB DUP2 DUP7 GAS STATICCALL ISZERO DUP1 ISZERO PUSH2 0xAE9 JUMPI RETURNDATASIZE PUSH0 PUSH0 RETURNDATACOPY RETURNDATASIZE PUSH0 REVERT JUMPDEST POP POP POP POP PUSH1 0x40 MLOAD RETURNDATASIZE PUSH1 0x1F NOT PUSH1 0x1F DUP3 ADD AND DUP3 ADD DUP1 PUSH1 0x40 MSTORE POP DUP2 ADD SWAP1 PUSH2 0xB0D SWAP2 SWAP1 PUSH2 0x2F1B JUMP JUMPDEST SWAP1 POP PUSH0 PUSH0 SWAP1 SLOAD SWAP1 PUSH2 0x100 EXP SWAP1 DIV PUSH20 0xFFFFFFFFFFFFFFFFFFFFFFFFFFFFFFFFFFFFFFFF AND PUSH20 0xFFFFFFFFFFFFFFFFFFFFFFFFFFFFFFFFFFFFFFFF AND PUSH4 0x7A78E12D PUSH9 0x56BC75E2D63100000 PUSH1 0x40 MLOAD DUP3 PUSH4 0xFFFFFFFF AND PUSH1 0xE0 SHL DUP2 MSTORE PUSH1 0x4 ADD PUSH2 0xB71 SWAP2 SWAP1 PUSH2 0x3AE6 JUMP JUMPDEST PUSH1 0x20 PUSH1 0x40 MLOAD DUP1 DUP4 SUB DUP2 PUSH0 DUP8 GAS CALL ISZERO DUP1 ISZERO PUSH2 0xB8D JUMPI RETURNDATASIZE PUSH0 PUSH0 RETURNDATACOPY RETURNDATASIZE PUSH0 REVERT JUMPDEST POP POP POP POP PUSH1 0x40 MLOAD RETURNDATASIZE PUSH1 0x1F NOT PUSH1 0x1F DUP3 ADD AND DUP3 ADD DUP1 PUSH1 0x40 MSTORE POP DUP2 ADD SWAP1 PUSH2 0xBB1 SWAP2 SWAP1 PUSH2 0x2F1B JUMP JUMPDEST POP PUSH0 PUSH0 SWAP1 SLOAD SWAP1 PUSH2 0x100 EXP SWAP1 DIV PUSH20 0xFFFFFFFFFFFFFFFFFFFFFFFFFFFFFFFFFFFFFFFF AND PUSH20 0xFFFFFFFFFFFFFFFFFFFFFFFFFFFFFFFFFFFFFFFF AND PUSH4 0x585B5C63 PUSH1 0x1 PUSH0 PUSH0 PUSH0 PUSH1 0x40 MLOAD DUP6 PUSH4 0xFFFFFFFF AND PUSH1 0xE0 SHL DUP2 MSTORE PUSH1 0x4 ADD PUSH2 0xC12 SWAP5 SWAP4 SWAP3 SWAP2 SWAP1 PUSH2 0x3B82 JUMP JUMPDEST PUSH1 0x20 PUSH1 0x40 MLOAD DUP1 DUP4 SUB DUP2 PUSH0 DUP8 GAS CALL ISZERO DUP1 ISZERO PUSH2 0xC2E JUMPI RETURNDATASIZE PUSH0 PUSH0 RETURNDATACOPY RETURNDATASIZE PUSH0 REVERT JUMPDEST POP POP POP POP PUSH1 0x40 MLOAD RETURNDATASIZE PUSH1 0x1F NOT PUSH1 0x1F DUP3 ADD AND DUP3 ADD DUP1 PUSH1 0x40 MSTORE POP DUP2 ADD SWAP1 PUSH2 0xC52 SWAP2 SWAP1 PUSH2 0x2F1B JUMP JUMPDEST POP PUSH20 0x0 PUSH4 0xABCD7960 PUSH0 PUSH0 SWAP1 SLOAD SWAP1 PUSH2 0x100 EXP SWAP1 DIV PUSH20 0xFFFFFFFFFFFFFFFFFFFFFFFFFFFFFFFFFFFFFFFF AND PUSH20 0xFFFFFFFFFFFFFFFFFFFFFFFFFFFFFFFFFFFFFFFF AND PUSH4 0xA805AF18 PUSH1 0x1 PUSH1 0x40 MLOAD DUP3 PUSH4 0xFFFFFFFF AND PUSH1 0xE0 SHL DUP2 MSTORE PUSH1 0x4 ADD PUSH2 0xCC7 SWAP2 SWAP1 PUSH2 0x3A94 JUMP JUMPDEST PUSH1 0x20 PUSH1 0x40 MLOAD DUP1 DUP4 SUB DUP2 DUP7 GAS STATICCALL ISZERO DUP1 ISZERO PUSH2 0xCE2 JUMPI RETURNDATASIZE PUSH0 PUSH0 RETURNDATACOPY RETURNDATASIZE PUSH0 REVERT JUMPDEST POP POP POP POP PUSH1 0x40 MLOAD RETURNDATASIZE PUSH1 0x1F NOT PUSH1 0x1F DUP3 ADD AND DUP3 ADD DUP1 PUSH1 0x40 MSTORE POP DUP2 ADD SWAP1 PUSH2 0xD06 SWAP2 SWAP1 PUSH2 0x2F1B JUMP JUMPDEST PUSH1 0x1 DUP5 PUSH2 0xD13 SWAP2 SWAP1 PUSH2 0x2DC3 JUMP JUMPDEST PUSH1 0x40 MLOAD DUP4 PUSH4 0xFFFFFFFF AND PUSH1 0xE0 SHL DUP2 MSTORE PUSH1 0x4 ADD PUSH2 0xD30 SWAP3 SWAP2 SWAP1 PUSH2 0x3C22 JUMP JUMPDEST PUSH1 0x20 PUSH1 0x40 MLOAD DUP1 DUP4 SUB DUP2 DUP7 GAS DELEGATECALL ISZERO DUP1 ISZERO PUSH2 0xD4B JUMPI RETURNDATASIZE PUSH0 PUSH0 RETURNDATACOPY RETURNDATASIZE PUSH0 REVERT JUMPDEST POP POP POP POP PUSH1 0x40 MLOAD RETURNDATASIZE PUSH1 0x1F NOT PUSH1 0x1F DUP3 ADD AND DUP3 ADD DUP1 PUSH1 0x40 MSTORE POP DUP2 ADD SWAP1 PUSH2 0xD6F SWAP2 SWAP1 PUSH2 0x34BB JUMP JUMPDEST POP PUSH20 0x0 PUSH4 0xABCD7960 PUSH0 PUSH0 SWAP1 SLOAD SWAP1 PUSH2 0x100 EXP SWAP1 DIV PUSH20 0xFFFFFFFFFFFFFFFFFFFFFFFFFFFFFFFFFFFFFFFF AND PUSH20 0xFFFFFFFFFFFFFFFFFFFFFFFFFFFFFFFFFFFFFFFF AND PUSH4 0xA805AF18 PUSH0 PUSH1 0x40 MLOAD DUP3 PUSH4 0xFFFFFFFF AND PUSH1 0xE0 SHL DUP2 MSTORE PUSH1 0x4 ADD PUSH2 0xDE3 SWAP2 SWAP1 PUSH2 0x3A94 JUMP JUMPDEST PUSH1 0x20 PUSH1 0x40 MLOAD DUP1 DUP4 SUB DUP2 DUP7 GAS STATICCALL ISZERO DUP1 ISZERO PUSH2 0xDFE JUMPI RETURNDATASIZE PUSH0 PUSH0 RETURNDATACOPY RETURNDATASIZE PUSH0 REVERT JUMPDEST POP POP POP POP PUSH1 0x40 MLOAD RETURNDATASIZE PUSH1 0x1F NOT PUSH1 0x1F DUP3 ADD AND DUP3 ADD DUP1 PUSH1 0x40 MSTORE POP DUP2 ADD SWAP1 PUSH2 0xE22 SWAP2 SWAP1 PUSH2 0x2F1B JUMP JUMPDEST PUSH1 0x1 DUP6 PUSH2 0xE2F SWAP2 SWAP1 PUSH2 0x2DC3 JUMP JUMPDEST PUSH1 0x40 MLOAD DUP4 PUSH4 0xFFFFFFFF AND PUSH1 0xE0 SHL DUP2 MSTORE PUSH1 0x4 ADD PUSH2 0xE4C SWAP3 SWAP2 SWAP1 PUSH2 0x3CA6 JUMP JUMPDEST PUSH1 0x20 PUSH1 0x40 MLOAD DUP1 DUP4 SUB DUP2 DUP7 GAS DELEGATECALL ISZERO DUP1 ISZERO PUSH2 0xE67 JUMPI RETURNDATASIZE PUSH0 PUSH0 RETURNDATACOPY RETURNDATASIZE PUSH0 REVERT JUMPDEST POP POP POP POP PUSH1 0x40 MLOAD RETURNDATASIZE PUSH1 0x1F NOT PUSH1 0x1F DUP3 ADD AND DUP3 ADD DUP1 PUSH1 0x40 MSTORE POP DUP2 ADD SWAP1 PUSH2 0xE8B SWAP2 SWAP1 PUSH2 0x34BB JUMP JUMPDEST POP POP POP JUMP JUMPDEST PUSH1 0x40 MLOAD PUSH2 0xE9C SWAP1 PUSH2 0x2CED JUMP JUMPDEST PUSH1 0x40 MLOAD DUP1 SWAP2 SUB SWAP1 PUSH0 CREATE DUP1 ISZERO DUP1 ISZERO PUSH2 0xEB5 JUMPI RETURNDATASIZE PUSH0 PUSH0 RETURNDATACOPY RETURNDATASIZE PUSH0 REVERT JUMPDEST POP PUSH0 PUSH0 PUSH2 0x100 EXP DUP2 SLOAD DUP2 PUSH20 0xFFFFFFFFFFFFFFFFFFFFFFFFFFFFFFFFFFFFFFFF MUL NOT AND SWAP1 DUP4 PUSH20 0xFFFFFFFFFFFFFFFFFFFFFFFFFFFFFFFFFFFFFFFF AND MUL OR SWAP1 SSTORE POP JUMP JUMPDEST PUSH0 PUSH0 SWAP1 SLOAD SWAP1 PUSH2 0x100 EXP SWAP1 DIV PUSH20 0xFFFFFFFFFFFFFFFFFFFFFFFFFFFFFFFFFFFFFFFF AND DUP2 JUMP JUMPDEST PUSH0 PUSH0 PUSH0 SWAP1 SLOAD SWAP1 PUSH2 0x100 EXP SWAP1 DIV PUSH20 0xFFFFFFFFFFFFFFFFFFFFFFFFFFFFFFFFFFFFFFFF AND PUSH20 0xFFFFFFFFFFFFFFFFFFFFFFFFFFFFFFFFFFFFFFFF AND PUSH4 0x7A78E12D PUSH2 0x3E8 PUSH1 0x40 MLOAD DUP3 PUSH4 0xFFFFFFFF AND PUSH1 0xE0 SHL DUP2 MSTORE PUSH1 0x4 ADD PUSH2 0xF76 SWAP2 SWAP1 PUSH2 0x3D19 JUMP JUMPDEST PUSH1 0x20 PUSH1 0x40 MLOAD DUP1 DUP4 SUB DUP2 PUSH0 DUP8 GAS CALL ISZERO DUP1 ISZERO PUSH2 0xF92 JUMPI RETURNDATASIZE PUSH0 PUSH0 RETURNDATACOPY RETURNDATASIZE PUSH0 REVERT JUMPDEST POP POP POP POP PUSH1 0x40 MLOAD RETURNDATASIZE PUSH1 0x1F NOT PUSH1 0x1F DUP3 ADD AND DUP3 ADD DUP1 PUSH1 0x40 MSTORE POP DUP2 ADD SWAP1 PUSH2 0xFB6 SWAP2 SWAP1 PUSH2 0x2F1B JUMP JUMPDEST SWAP1 POP PUSH20 0x0 PUSH4 0xABCD7960 DUP3 PUSH1 0x1 PUSH1 0x40 MLOAD DUP4 PUSH4 0xFFFFFFFF AND PUSH1 0xE0 SHL DUP2 MSTORE PUSH1 0x4 ADD PUSH2 0xFF2 SWAP3 SWAP2 SWAP1 PUSH2 0x3D8B JUMP JUMPDEST PUSH1 0x20 PUSH1 0x40 MLOAD DUP1 DUP4 SUB DUP2 DUP7 GAS DELEGATECALL ISZERO DUP1 ISZERO PUSH2 0x100D JUMPI RETURNDATASIZE PUSH0 PUSH0 RETURNDATACOPY RETURNDATASIZE PUSH0 REVERT JUMPDEST POP POP POP POP PUSH1 0x40 MLOAD RETURNDATASIZE PUSH1 0x1F NOT PUSH1 0x1F DUP3 ADD AND DUP3 ADD DUP1 PUSH1 0x40 MSTORE POP DUP2 ADD SWAP1 PUSH2 0x1031 SWAP2 SWAP1 PUSH2 0x34BB JUMP JUMPDEST POP PUSH0 PUSH0 PUSH0 SWAP1 SLOAD SWAP1 PUSH2 0x100 EXP SWAP1 DIV PUSH20 0xFFFFFFFFFFFFFFFFFFFFFFFFFFFFFFFFFFFFFFFF AND PUSH20 0xFFFFFFFFFFFFFFFFFFFFFFFFFFFFFFFFFFFFFFFF AND PUSH4 0x83CC56E1 PUSH1 0x40 MLOAD DUP2 PUSH4 0xFFFFFFFF AND PUSH1 0xE0 SHL DUP2 MSTORE PUSH1 0x4 ADD PUSH2 0x108A SWAP1 PUSH2 0x3E59 JUMP JUMPDEST PUSH1 0x20 PUSH1 0x40 MLOAD DUP1 DUP4 SUB DUP2 PUSH0 DUP8 GAS CALL ISZERO DUP1 ISZERO PUSH2 0x10A6 JUMPI RETURNDATASIZE PUSH0 PUSH0 RETURNDATACOPY RETURNDATASIZE PUSH0 REVERT JUMPDEST POP POP POP POP PUSH1 0x40 MLOAD RETURNDATASIZE PUSH1 0x1F NOT PUSH1 0x1F DUP3 ADD AND DUP3 ADD DUP1 PUSH1 0x40 MSTORE POP DUP2 ADD SWAP1 PUSH2 0x10CA SWAP2 SWAP1 PUSH2 0x2F1B JUMP JUMPDEST SWAP1 POP PUSH20 0x0 PUSH4 0xABCD7960 DUP3 PUSH1 0x1 PUSH1 0x40 MLOAD DUP4 PUSH4 0xFFFFFFFF AND PUSH1 0xE0 SHL DUP2 MSTORE PUSH1 0x4 ADD PUSH2 0x1106 SWAP3 SWAP2 SWAP1 PUSH2 0x3ED4 JUMP JUMPDEST PUSH1 0x20 PUSH1 0x40 MLOAD DUP1 DUP4 SUB DUP2 DUP7 GAS DELEGATECALL ISZERO DUP1 ISZERO PUSH2 0x1121 JUMPI RETURNDATASIZE PUSH0 PUSH0 RETURNDATACOPY RETURNDATASIZE PUSH0 REVERT JUMPDEST POP POP POP POP PUSH1 0x40 MLOAD RETURNDATASIZE PUSH1 0x1F NOT PUSH1 0x1F DUP3 ADD AND DUP3 ADD DUP1 PUSH1 0x40 MSTORE POP DUP2 ADD SWAP1 PUSH2 0x1145 SWAP2 SWAP1 PUSH2 0x34BB JUMP JUMPDEST POP POP POP JUMP JUMPDEST PUSH0 PUSH0 PUSH0 SWAP1 SLOAD SWAP1 PUSH2 0x100 EXP SWAP1 DIV PUSH20 0xFFFFFFFFFFFFFFFFFFFFFFFFFFFFFFFFFFFFFFFF AND PUSH20 0xFFFFFFFFFFFFFFFFFFFFFFFFFFFFFFFFFFFFFFFF AND PUSH4 0x7A78E12D PUSH9 0x3635C9ADC5DEA00000 PUSH1 0x40 MLOAD DUP3 PUSH4 0xFFFFFFFF AND PUSH1 0xE0 SHL DUP2 MSTORE PUSH1 0x4 ADD PUSH2 0x11AD SWAP2 SWAP1 PUSH2 0x3F47 JUMP JUMPDEST PUSH1 0x20 PUSH1 0x40 MLOAD DUP1 DUP4 SUB DUP2 PUSH0 DUP8 GAS CALL ISZERO DUP1 ISZERO PUSH2 0x11C9 JUMPI RETURNDATASIZE PUSH0 PUSH0 RETURNDATACOPY RETURNDATASIZE PUSH0 REVERT JUMPDEST POP POP POP POP PUSH1 0x40 MLOAD RETURNDATASIZE PUSH1 0x1F NOT PUSH1 0x1F DUP3 ADD AND DUP3 ADD DUP1 PUSH1 0x40 MSTORE POP DUP2 ADD SWAP1 PUSH2 0x11ED SWAP2 SWAP1 PUSH2 0x2F1B JUMP JUMPDEST SWAP1 POP PUSH0 PUSH0 PUSH0 SWAP1 SLOAD SWAP1 PUSH2 0x100 EXP SWAP1 DIV PUSH20 0xFFFFFFFFFFFFFFFFFFFFFFFFFFFFFFFFFFFFFFFF AND PUSH20 0xFFFFFFFFFFFFFFFFFFFFFFFFFFFFFFFFFFFFFFFF AND PUSH4 0x83CC56E1 PUSH1 0x40 MLOAD DUP2 PUSH4 0xFFFFFFFF AND PUSH1 0xE0 SHL DUP2 MSTORE PUSH1 0x4 ADD PUSH2 0x1247 SWAP1 PUSH2 0x3FF4 JUMP JUMPDEST PUSH1 0x20 PUSH1 0x40 MLOAD DUP1 DUP4 SUB DUP2 PUSH0 DUP8 GAS CALL ISZERO DUP1 ISZERO PUSH2 0x1263 JUMPI RETURNDATASIZE PUSH0 PUSH0 RETURNDATACOPY RETURNDATASIZE PUSH0 REVERT JUMPDEST POP POP POP POP PUSH1 0x40 MLOAD RETURNDATASIZE PUSH1 0x1F NOT PUSH1 0x1F DUP3 ADD AND DUP3 ADD DUP1 PUSH1 0x40 MSTORE POP DUP2 ADD SWAP1 PUSH2 0x1287 SWAP2 SWAP1 PUSH2 0x2F1B JUMP JUMPDEST SWAP1 POP PUSH0 PUSH0 PUSH0 SWAP1 SLOAD SWAP1 PUSH2 0x100 EXP SWAP1 DIV PUSH20 0xFFFFFFFFFFFFFFFFFFFFFFFFFFFFFFFFFFFFFFFF AND PUSH20 0xFFFFFFFFFFFFFFFFFFFFFFFFFFFFFFFFFFFFFFFF AND PUSH4 0x585B5C63 DUP5 PUSH0 PUSH0 DUP7 PUSH1 0x40 MLOAD DUP6 PUSH4 0xFFFFFFFF AND PUSH1 0xE0 SHL DUP2 MSTORE PUSH1 0x4 ADD PUSH2 0x12E9 SWAP5 SWAP4 SWAP3 SWAP2 SWAP1 PUSH2 0x406F JUMP JUMPDEST PUSH1 0x20 PUSH1 0x40 MLOAD DUP1 DUP4 SUB DUP2 PUSH0 DUP8 GAS CALL ISZERO DUP1 ISZERO PUSH2 0x1305 JUMPI RETURNDATASIZE PUSH0 PUSH0 RETURNDATACOPY RETURNDATASIZE PUSH0 REVERT JUMPDEST POP POP POP POP PUSH1 0x40 MLOAD RETURNDATASIZE PUSH1 0x1F NOT PUSH1 0x1F DUP3 ADD AND DUP3 ADD DUP1 PUSH1 0x40 MSTORE POP DUP2 ADD SWAP1 PUSH2 0x1329 SWAP2 SWAP1 PUSH2 0x2F1B JUMP JUMPDEST SWAP1 POP PUSH0 PUSH0 PUSH0 SWAP1 SLOAD SWAP1 PUSH2 0x100 EXP SWAP1 DIV PUSH20 0xFFFFFFFFFFFFFFFFFFFFFFFFFFFFFFFFFFFFFFFF AND PUSH20 0xFFFFFFFFFFFFFFFFFFFFFFFFFFFFFFFFFFFFFFFF AND PUSH4 0x94761A28 PUSH8 0xDE0B6B3A7640000 TIMESTAMP PUSH3 0x15180 TIMESTAMP PUSH2 0x1381 SWAP2 SWAP1 PUSH2 0x2DC3 JUMP JUMPDEST PUSH1 0x40 MLOAD DUP5 PUSH4 0xFFFFFFFF AND PUSH1 0xE0 SHL DUP2 MSTORE PUSH1 0x4 ADD PUSH2 0x139F SWAP4 SWAP3 SWAP2 SWAP1 PUSH2 0x4148 JUMP JUMPDEST PUSH1 0x20 PUSH1 0x40 MLOAD DUP1 DUP4 SUB DUP2 PUSH0 DUP8 GAS CALL ISZERO DUP1 ISZERO PUSH2 0x13BB JUMPI RETURNDATASIZE PUSH0 PUSH0 RETURNDATACOPY RETURNDATASIZE PUSH0 REVERT JUMPDEST POP POP POP POP PUSH1 0x40 MLOAD RETURNDATASIZE PUSH1 0x1F NOT PUSH1 0x1F DUP3 ADD AND DUP3 ADD DUP1 PUSH1 0x40 MSTORE POP DUP2 ADD SWAP1 PUSH2 0x13DF SWAP2 SWAP1 PUSH2 0x2F1B JUMP JUMPDEST SWAP1 POP PUSH0 PUSH0 PUSH0 SWAP1 SLOAD SWAP1 PUSH2 0x100 EXP SWAP1 DIV PUSH20 0xFFFFFFFFFFFFFFFFFFFFFFFFFFFFFFFFFFFFFFFF AND PUSH20 0xFFFFFFFFFFFFFFFFFFFFFFFFFFFFFFFFFFFFFFFF AND PUSH4 0x4EF55A1F PUSH1 0x1 DUP7 DUP8 TIMESTAMP PUSH2 0xE10 TIMESTAMP PUSH2 0x1431 SWAP2 SWAP1 PUSH2 0x2DC3 JUMP JUMPDEST PUSH1 0x40 MLOAD DUP7 PUSH4 0xFFFFFFFF AND PUSH1 0xE0 SHL DUP2 MSTORE PUSH1 0x4 ADD PUSH2 0x1451 SWAP6 SWAP5 SWAP4 SWAP3 SWAP2 SWAP1 PUSH2 0x41D6 JUMP JUMPDEST PUSH1 0x20 PUSH1 0x40 MLOAD DUP1 DUP4 SUB DUP2 PUSH0 DUP8 GAS CALL ISZERO DUP1 ISZERO PUSH2 0x146D JUMPI RETURNDATASIZE PUSH0 PUSH0 RETURNDATACOPY RETURNDATASIZE PUSH0 REVERT JUMPDEST POP POP POP POP PUSH1 0x40 MLOAD RETURNDATASIZE PUSH1 0x1F NOT PUSH1 0x1F DUP3 ADD AND DUP3 ADD DUP1 PUSH1 0x40 MSTORE POP DUP2 ADD SWAP1 PUSH2 0x1491 SWAP2 SWAP1 PUSH2 0x2F1B JUMP JUMPDEST SWAP1 POP PUSH0 PUSH1 0x40 MLOAD DUP1 PUSH1 0xA0 ADD PUSH1 0x40 MSTORE DUP1 PUSH0 PUSH0 SWAP1 SLOAD SWAP1 PUSH2 0x100 EXP SWAP1 DIV PUSH20 0xFFFFFFFFFFFFFFFFFFFFFFFFFFFFFFFFFFFFFFFF AND PUSH20 0xFFFFFFFFFFFFFFFFFFFFFFFFFFFFFFFFFFFFFFFF AND PUSH4 0xE1250AB4 PUSH1 0x40 MLOAD DUP2 PUSH4 0xFFFFFFFF AND PUSH1 0xE0 SHL DUP2 MSTORE PUSH1 0x4 ADD PUSH2 0x14F6 SWAP1 PUSH2 0x4271 JUMP JUMPDEST PUSH1 0x20 PUSH1 0x40 MLOAD DUP1 DUP4 SUB DUP2 PUSH0 DUP8 GAS CALL ISZERO DUP1 ISZERO PUSH2 0x1512 JUMPI RETURNDATASIZE PUSH0 PUSH0 RETURNDATACOPY RETURNDATASIZE PUSH0 REVERT JUMPDEST POP POP POP POP PUSH1 0x40 MLOAD RETURNDATASIZE PUSH1 0x1F NOT PUSH1 0x1F DUP3 ADD AND DUP3 ADD DUP1 PUSH1 0x40 MSTORE POP DUP2 ADD SWAP1 PUSH2 0x1536 SWAP2 SWAP1 PUSH2 0x2F1B JUMP JUMPDEST DUP2 MSTORE PUSH1 0x20 ADD PUSH0 PUSH0 SWAP1 SLOAD SWAP1 PUSH2 0x100 EXP SWAP1 DIV PUSH20 0xFFFFFFFFFFFFFFFFFFFFFFFFFFFFFFFFFFFFFFFF AND PUSH20 0xFFFFFFFFFFFFFFFFFFFFFFFFFFFFFFFFFFFFFFFF AND PUSH4 0xE1250AB4 PUSH1 0x40 MLOAD DUP2 PUSH4 0xFFFFFFFF AND PUSH1 0xE0 SHL DUP2 MSTORE PUSH1 0x4 ADD PUSH2 0x1592 SWAP1 PUSH2 0x42D9 JUMP JUMPDEST PUSH1 0x20 PUSH1 0x40 MLOAD DUP1 DUP4 SUB DUP2 PUSH0 DUP8 GAS CALL ISZERO DUP1 ISZERO PUSH2 0x15AE JUMPI RETURNDATASIZE PUSH0 PUSH0 RETURNDATACOPY RETURNDATASIZE PUSH0 REVERT JUMPDEST POP POP POP POP PUSH1 0x40 MLOAD RETURNDATASIZE PUSH1 0x1F NOT PUSH1 0x1F DUP3 ADD AND DUP3 ADD DUP1 PUSH1 0x40 MSTORE POP DUP2 ADD SWAP1 PUSH2 0x15D2 SWAP2 SWAP1 PUSH2 0x2F1B JUMP JUMPDEST DUP2 MSTORE PUSH1 0x20 ADD PUSH0 PUSH0 SWAP1 SLOAD SWAP1 PUSH2 0x100 EXP SWAP1 DIV PUSH20 0xFFFFFFFFFFFFFFFFFFFFFFFFFFFFFFFFFFFFFFFF AND PUSH20 0xFFFFFFFFFFFFFFFFFFFFFFFFFFFFFFFFFFFFFFFF AND PUSH4 0xE1250AB4 PUSH1 0x40 MLOAD DUP2 PUSH4 0xFFFFFFFF AND PUSH1 0xE0 SHL DUP2 MSTORE PUSH1 0x4 ADD PUSH2 0x162E SWAP1 PUSH2 0x4341 JUMP JUMPDEST PUSH1 0x20 PUSH1 0x40 MLOAD DUP1 DUP4 SUB DUP2 PUSH0 DUP8 GAS CALL ISZERO DUP1 ISZERO PUSH2 0x164A JUMPI RETURNDATASIZE PUSH0 PUSH0 RETURNDATACOPY RETURNDATASIZE PUSH0 REVERT JUMPDEST POP POP POP POP PUSH1 0x40 MLOAD RETURNDATASIZE PUSH1 0x1F NOT PUSH1 0x1F DUP3 ADD AND DUP3 ADD DUP1 PUSH1 0x40 MSTORE POP DUP2 ADD SWAP1 PUSH2 0x166E SWAP2 SWAP1 PUSH2 0x2F1B JUMP JUMPDEST DUP2 MSTORE PUSH1 0x20 ADD PUSH0 PUSH0 SWAP1 SLOAD SWAP1 PUSH2 0x100 EXP SWAP1 DIV PUSH20 0xFFFFFFFFFFFFFFFFFFFFFFFFFFFFFFFFFFFFFFFF AND PUSH20 0xFFFFFFFFFFFFFFFFFFFFFFFFFFFFFFFFFFFFFFFF AND PUSH4 0xE1250AB4 PUSH1 0x40 MLOAD DUP2 PUSH4 0xFFFFFFFF AND PUSH1 0xE0 SHL DUP2 MSTORE PUSH1 0x4 ADD PUSH2 0x16CA SWAP1 PUSH2 0x43A9 JUMP JUMPDEST PUSH1 0x20 PUSH1 0x40 MLOAD DUP1 DUP4 SUB DUP2 PUSH0 DUP8 GAS CALL ISZERO DUP1 ISZERO PUSH2 0x16E6 JUMPI RETURNDATASIZE PUSH0 PUSH0 RETURNDATACOPY RETURNDATASIZE PUSH0 REVERT JUMPDEST POP POP POP POP PUSH1 0x40 MLOAD RETURNDATASIZE PUSH1 0x1F NOT PUSH1 0x1F DUP3 ADD AND DUP3 ADD DUP1 PUSH1 0x40 MSTORE POP DUP2 ADD SWAP1 PUSH2 0x170A SWAP2 SWAP1 PUSH2 0x2F1B JUMP JUMPDEST DUP2 MSTORE PUSH1 0x20 ADD PUSH0 PUSH0 SWAP1 SLOAD SWAP1 PUSH2 0x100 EXP SWAP1 DIV PUSH20 0xFFFFFFFFFFFFFFFFFFFFFFFFFFFFFFFFFFFFFFFF AND PUSH20 0xFFFFFFFFFFFFFFFFFFFFFFFFFFFFFFFFFFFFFFFF AND PUSH4 0xE1250AB4 PUSH1 0x40 MLOAD DUP2 PUSH4 0xFFFFFFFF AND PUSH1 0xE0 SHL DUP2 MSTORE PUSH1 0x4 ADD PUSH2 0x1766 SWAP1 PUSH2 0x4411 JUMP JUMPDEST PUSH1 0x20 PUSH1 0x40 MLOAD DUP1 DUP4 SUB DUP2 PUSH0 DUP8 GAS CALL ISZERO DUP1 ISZERO PUSH2 0x1782 JUMPI RETURNDATASIZE PUSH0 PUSH0 RETURNDATACOPY RETURNDATASIZE PUSH0 REVERT JUMPDEST POP POP POP POP PUSH1 0x40 MLOAD RETURNDATASIZE PUSH1 0x1F NOT PUSH1 0x1F DUP3 ADD AND DUP3 ADD DUP1 PUSH1 0x40 MSTORE POP DUP2 ADD SWAP1 PUSH2 0x17A6 SWAP2 SWAP1 PUSH2 0x2F1B JUMP JUMPDEST DUP2 MSTORE POP SWAP1 POP PUSH0 PUSH0 SWAP1 SLOAD SWAP1 PUSH2 0x100 EXP SWAP1 DIV PUSH20 0xFFFFFFFFFFFFFFFFFFFFFFFFFFFFFFFFFFFFFFFF AND PUSH20 0xFFFFFFFFFFFFFFFFFFFFFFFFFFFFFFFFFFFFFFFF AND PUSH4 0x71895501 PUSH1 0x1 DUP9 DUP5 PUSH0 PUSH1 0x5 DUP2 LT PUSH2 0x17FD JUMPI PUSH2 0x17FC PUSH2 0x442F JUMP JUMPDEST JUMPDEST PUSH1 0x20 MUL ADD MLOAD PUSH1 0x40 MLOAD DUP5 PUSH4 0xFFFFFFFF AND PUSH1 0xE0 SHL DUP2 MSTORE PUSH1 0x4 ADD PUSH2 0x1820 SWAP4 SWAP3 SWAP2 SWAP1 PUSH2 0x445C JUMP JUMPDEST PUSH0 PUSH1 0x40 MLOAD DUP1 DUP4 SUB DUP2 PUSH0 DUP8 DUP1 EXTCODESIZE ISZERO DUP1 ISZERO PUSH2 0x1837 JUMPI PUSH0 PUSH0 REVERT JUMPDEST POP GAS CALL ISZERO DUP1 ISZERO PUSH2 0x1849 JUMPI RETURNDATASIZE PUSH0 PUSH0 RETURNDATACOPY RETURNDATASIZE PUSH0 REVERT JUMPDEST POP POP POP POP PUSH0 PUSH0 SWAP1 SLOAD SWAP1 PUSH2 0x100 EXP SWAP1 DIV PUSH20 0xFFFFFFFFFFFFFFFFFFFFFFFFFFFFFFFFFFFFFFFF AND PUSH20 0xFFFFFFFFFFFFFFFFFFFFFFFFFFFFFFFFFFFFFFFF AND PUSH4 0x71895501 PUSH1 0x5 DUP8 DUP5 PUSH1 0x1 PUSH1 0x5 DUP2 LT PUSH2 0x18A0 JUMPI PUSH2 0x189F PUSH2 0x442F JUMP JUMPDEST JUMPDEST PUSH1 0x20 MUL ADD MLOAD PUSH1 0x40 MLOAD DUP5 PUSH4 0xFFFFFFFF AND PUSH1 0xE0 SHL DUP2 MSTORE PUSH1 0x4 ADD PUSH2 0x18C3 SWAP4 SWAP3 SWAP2 SWAP1 PUSH2 0x445C JUMP JUMPDEST PUSH0 PUSH1 0x40 MLOAD DUP1 DUP4 SUB DUP2 PUSH0 DUP8 DUP1 EXTCODESIZE ISZERO DUP1 ISZERO PUSH2 0x18DA JUMPI PUSH0 PUSH0 REVERT JUMPDEST POP GAS CALL ISZERO DUP1 ISZERO PUSH2 0x18EC JUMPI RETURNDATASIZE PUSH0 PUSH0 RETURNDATACOPY RETURNDATASIZE PUSH0 REVERT JUMPDEST POP POP POP POP PUSH0 PUSH0 SWAP1 SLOAD SWAP1 PUSH2 0x100 EXP SWAP1 DIV PUSH20 0xFFFFFFFFFFFFFFFFFFFFFFFFFFFFFFFFFFFFFFFF AND PUSH20 0xFFFFFFFFFFFFFFFFFFFFFFFFFFFFFFFFFFFFFFFF AND PUSH4 0x71895501 PUSH0 DUP7 DUP5 PUSH1 0x2 PUSH1 0x5 DUP2 LT PUSH2 0x1942 JUMPI PUSH2 0x1941 PUSH2 0x442F JUMP JUMPDEST JUMPDEST PUSH1 0x20 MUL ADD MLOAD PUSH1 0x40 MLOAD DUP5 PUSH4 0xFFFFFFFF AND PUSH1 0xE0 SHL DUP2 MSTORE PUSH1 0x4 ADD PUSH2 0x1965 SWAP4 SWAP3 SWAP2 SWAP1 PUSH2 0x445C JUMP JUMPDEST PUSH0 PUSH1 0x40 MLOAD DUP1 DUP4 SUB DUP2 PUSH0 DUP8 DUP1 EXTCODESIZE ISZERO DUP1 ISZERO PUSH2 0x197C JUMPI PUSH0 PUSH0 REVERT JUMPDEST POP GAS CALL ISZERO DUP1 ISZERO PUSH2 0x198E JUMPI RETURNDATASIZE PUSH0 PUSH0 RETURNDATACOPY RETURNDATASIZE PUSH0 REVERT JUMPDEST POP POP POP POP PUSH0 PUSH0 SWAP1 SLOAD SWAP1 PUSH2 0x100 EXP SWAP1 DIV PUSH20 0xFFFFFFFFFFFFFFFFFFFFFFFFFFFFFFFFFFFFFFFF AND PUSH20 0xFFFFFFFFFFFFFFFFFFFFFFFFFFFFFFFFFFFFFFFF AND PUSH4 0x71895501 PUSH1 0x2 DUP6 DUP5 PUSH1 0x3 PUSH1 0x5 DUP2 LT PUSH2 0x19E5 JUMPI PUSH2 0x19E4 PUSH2 0x442F JUMP JUMPDEST JUMPDEST PUSH1 0x20 MUL ADD MLOAD PUSH1 0x40 MLOAD DUP5 PUSH4 0xFFFFFFFF AND PUSH1 0xE0 SHL DUP2 MSTORE PUSH1 0x4 ADD PUSH2 0x1A08 SWAP4 SWAP3 SWAP2 SWAP1 PUSH2 0x445C JUMP JUMPDEST PUSH0 PUSH1 0x40 MLOAD DUP1 DUP4 SUB DUP2 PUSH0 DUP8 DUP1 EXTCODESIZE ISZERO DUP1 ISZERO PUSH2 0x1A1F JUMPI PUSH0 PUSH0 REVERT JUMPDEST POP GAS CALL ISZERO DUP1 ISZERO PUSH2 0x1A31 JUMPI RETURNDATASIZE PUSH0 PUSH0 RETURNDATACOPY RETURNDATASIZE PUSH0 REVERT JUMPDEST POP POP POP POP PUSH0 PUSH0 SWAP1 SLOAD SWAP1 PUSH2 0x100 EXP SWAP1 DIV PUSH20 0xFFFFFFFFFFFFFFFFFFFFFFFFFFFFFFFFFFFFFFFF AND PUSH20 0xFFFFFFFFFFFFFFFFFFFFFFFFFFFFFFFFFFFFFFFF AND PUSH4 0x71895501 PUSH1 0x4 DUP5 DUP5 PUSH1 0x4 PUSH1 0x5 DUP2 LT PUSH2 0x1A88 JUMPI PUSH2 0x1A87 PUSH2 0x442F JUMP JUMPDEST JUMPDEST PUSH1 0x20 MUL ADD MLOAD PUSH1 0x40 MLOAD DUP5 PUSH4 0xFFFFFFFF AND PUSH1 0xE0 SHL DUP2 MSTORE PUSH1 0x4 ADD PUSH2 0x1AAB SWAP4 SWAP3 SWAP2 SWAP1 PUSH2 0x445C JUMP JUMPDEST PUSH0 PUSH1 0x40 MLOAD DUP1 DUP4 SUB DUP2 PUSH0 DUP8 DUP1 EXTCODESIZE ISZERO DUP1 ISZERO PUSH2 0x1AC2 JUMPI PUSH0 PUSH0 REVERT JUMPDEST POP GAS CALL ISZERO DUP1 ISZERO PUSH2 0x1AD4 JUMPI RETURNDATASIZE PUSH0 PUSH0 RETURNDATACOPY RETURNDATASIZE PUSH0 REVERT JUMPDEST POP POP POP POP PUSH0 PUSH1 0x40 MLOAD DUP1 PUSH1 0xA0 ADD PUSH1 0x40 MSTORE DUP1 PUSH1 0x1 PUSH1 0x5 DUP2 GT ISZERO PUSH2 0x1AF8 JUMPI PUSH2 0x1AF7 PUSH2 0x2F46 JUMP JUMPDEST JUMPDEST PUSH1 0x5 DUP2 GT ISZERO PUSH2 0x1B0A JUMPI PUSH2 0x1B09 PUSH2 0x2F46 JUMP JUMPDEST JUMPDEST DUP2 MSTORE PUSH1 0x20 ADD PUSH1 0x5 DUP1 DUP2 GT ISZERO PUSH2 0x1B22 JUMPI PUSH2 0x1B21 PUSH2 0x2F46 JUMP JUMPDEST JUMPDEST PUSH1 0x5 DUP2 GT ISZERO PUSH2 0x1B34 JUMPI PUSH2 0x1B33 PUSH2 0x2F46 JUMP JUMPDEST JUMPDEST DUP2 MSTORE PUSH1 0x20 ADD PUSH0 PUSH1 0x5 DUP2 GT ISZERO PUSH2 0x1B4C JUMPI PUSH2 0x1B4B PUSH2 0x2F46 JUMP JUMPDEST JUMPDEST PUSH1 0x5 DUP2 GT ISZERO PUSH2 0x1B5E JUMPI PUSH2 0x1B5D PUSH2 0x2F46 JUMP JUMPDEST JUMPDEST DUP2 MSTORE PUSH1 0x20 ADD PUSH1 0x2 PUSH1 0x5 DUP2 GT ISZERO PUSH2 0x1B77 JUMPI PUSH2 0x1B76 PUSH2 0x2F46 JUMP JUMPDEST JUMPDEST PUSH1 0x5 DUP2 GT ISZERO PUSH2 0x1B89 JUMPI PUSH2 0x1B88 PUSH2 0x2F46 JUMP JUMPDEST JUMPDEST DUP2 MSTORE PUSH1 0x20 ADD PUSH1 0x4 PUSH1 0x5 DUP2 GT ISZERO PUSH2 0x1BA2 JUMPI PUSH2 0x1BA1 PUSH2 0x2F46 JUMP JUMPDEST JUMPDEST PUSH1 0x5 DUP2 GT ISZERO PUSH2 0x1BB4 JUMPI PUSH2 0x1BB3 PUSH2 0x2F46 JUMP JUMPDEST JUMPDEST DUP2 MSTORE POP SWAP1 POP PUSH0 PUSH1 0x40 MLOAD DUP1 PUSH1 0xA0 ADD PUSH1 0x40 MSTORE DUP1 DUP10 DUP2 MSTORE PUSH1 0x20 ADD DUP9 DUP2 MSTORE PUSH1 0x20 ADD DUP8 DUP2 MSTORE PUSH1 0x20 ADD DUP7 DUP2 MSTORE PUSH1 0x20 ADD DUP6 DUP2 MSTORE POP SWAP1 POP PUSH0 PUSH0 SWAP1 POP JUMPDEST PUSH1 0x5 DUP2 LT ISZERO PUSH2 0x1F25 JUMPI PUSH0 PUSH0 PUSH0 SWAP1 SLOAD SWAP1 PUSH2 0x100 EXP SWAP1 DIV PUSH20 0xFFFFFFFFFFFFFFFFFFFFFFFFFFFFFFFFFFFFFFFF AND PUSH20 0xFFFFFFFFFFFFFFFFFFFFFFFFFFFFFFFFFFFFFFFF AND PUSH4 0x6E2C06FA DUP6 DUP5 PUSH1 0x5 DUP2 LT PUSH2 0x1C41 JUMPI PUSH2 0x1C40 PUSH2 0x442F JUMP JUMPDEST JUMPDEST PUSH1 0x20 MUL ADD MLOAD DUP6 DUP6 PUSH1 0x5 DUP2 LT PUSH2 0x1C59 JUMPI PUSH2 0x1C58 PUSH2 0x442F JUMP JUMPDEST JUMPDEST PUSH1 0x20 MUL ADD MLOAD PUSH1 0x40 MLOAD DUP4 PUSH4 0xFFFFFFFF AND PUSH1 0xE0 SHL DUP2 MSTORE PUSH1 0x4 ADD PUSH2 0x1C7B SWAP3 SWAP2 SWAP1 PUSH2 0x2FB9 JUMP JUMPDEST PUSH0 PUSH1 0x40 MLOAD DUP1 DUP4 SUB DUP2 DUP7 GAS STATICCALL ISZERO DUP1 ISZERO PUSH2 0x1C95 JUMPI RETURNDATASIZE PUSH0 PUSH0 RETURNDATACOPY RETURNDATASIZE PUSH0 REVERT JUMPDEST POP POP POP POP PUSH1 0x40 MLOAD RETURNDATASIZE PUSH0 DUP3 RETURNDATACOPY RETURNDATASIZE PUSH1 0x1F NOT PUSH1 0x1F DUP3 ADD AND DUP3 ADD DUP1 PUSH1 0x40 MSTORE POP DUP2 ADD SWAP1 PUSH2 0x1CBD SWAP2 SWAP1 PUSH2 0x4555 JUMP JUMPDEST SWAP1 POP PUSH20 0x0 PUSH4 0xABCD7960 DUP3 MLOAD PUSH1 0x1 PUSH1 0x40 MLOAD DUP4 PUSH4 0xFFFFFFFF AND PUSH1 0xE0 SHL DUP2 MSTORE PUSH1 0x4 ADD PUSH2 0x1CFA SWAP3 SWAP2 SWAP1 PUSH2 0x45E6 JUMP JUMPDEST PUSH1 0x20 PUSH1 0x40 MLOAD DUP1 DUP4 SUB DUP2 DUP7 GAS DELEGATECALL ISZERO DUP1 ISZERO PUSH2 0x1D15 JUMPI RETURNDATASIZE PUSH0 PUSH0 RETURNDATACOPY RETURNDATASIZE PUSH0 REVERT JUMPDEST POP POP POP POP PUSH1 0x40 MLOAD RETURNDATASIZE PUSH1 0x1F NOT PUSH1 0x1F DUP3 ADD AND DUP3 ADD DUP1 PUSH1 0x40 MSTORE POP DUP2 ADD SWAP1 PUSH2 0x1D39 SWAP2 SWAP1 PUSH2 0x34BB JUMP JUMPDEST POP PUSH20 0x0 PUSH4 0xABCD7960 DUP3 PUSH0 DUP2 MLOAD DUP2 LT PUSH2 0x1D67 JUMPI PUSH2 0x1D66 PUSH2 0x442F JUMP JUMPDEST JUMPDEST PUSH1 0x20 MUL PUSH1 0x20 ADD ADD MLOAD DUP8 DUP6 PUSH1 0x5 DUP2 LT PUSH2 0x1D82 JUMPI PUSH2 0x1D81 PUSH2 0x442F JUMP JUMPDEST JUMPDEST PUSH1 0x20 MUL ADD MLOAD PUSH1 0x40 MLOAD DUP4 PUSH4 0xFFFFFFFF AND PUSH1 0xE0 SHL DUP2 MSTORE PUSH1 0x4 ADD PUSH2 0x1DA4 SWAP3 SWAP2 SWAP1 PUSH2 0x466A JUMP JUMPDEST PUSH1 0x20 PUSH1 0x40 MLOAD DUP1 DUP4 SUB DUP2 DUP7 GAS DELEGATECALL ISZERO DUP1 ISZERO PUSH2 0x1DBF JUMPI RETURNDATASIZE PUSH0 PUSH0 RETURNDATACOPY RETURNDATASIZE PUSH0 REVERT JUMPDEST POP POP POP POP PUSH1 0x40 MLOAD RETURNDATASIZE PUSH1 0x1F NOT PUSH1 0x1F DUP3 ADD AND DUP3 ADD DUP1 PUSH1 0x40 MSTORE POP DUP2 ADD SWAP1 PUSH2 0x1DE3 SWAP2 SWAP1 PUSH2 0x34BB JUMP JUMPDEST POP PUSH0 PUSH0 PUSH0 SWAP1 SLOAD SWAP1 PUSH2 0x100 EXP SWAP1 DIV PUSH20 0xFFFFFFFFFFFFFFFFFFFFFFFFFFFFFFFFFFFFFFFF AND PUSH20 0xFFFFFFFFFFFFFFFFFFFFFFFFFFFFFFFFFFFFFFFF AND PUSH4 0x61C3A7E6 DUP8 DUP6 PUSH1 0x5 DUP2 LT PUSH2 0x1E34 JUMPI PUSH2 0x1E33 PUSH2 0x442F JUMP JUMPDEST JUMPDEST PUSH1 0x20 MUL ADD MLOAD PUSH1 0x40 MLOAD DUP3 PUSH4 0xFFFFFFFF AND PUSH1 0xE0 SHL DUP2 MSTORE PUSH1 0x4 ADD PUSH2 0x1E55 SWAP2 SWAP1 PUSH2 0x34E6 JUMP JUMPDEST PUSH0 PUSH1 0x40 MLOAD DUP1 DUP4 SUB DUP2 DUP7 GAS STATICCALL ISZERO DUP1 ISZERO PUSH2 0x1E6F JUMPI RETURNDATASIZE PUSH0 PUSH0 RETURNDATACOPY RETURNDATASIZE PUSH0 REVERT JUMPDEST POP POP POP POP PUSH1 0x40 MLOAD RETURNDATASIZE PUSH0 DUP3 RETURNDATACOPY RETURNDATASIZE PUSH1 0x1F NOT PUSH1 0x1F DUP3 ADD AND DUP3 ADD DUP1 PUSH1 0x40 MSTORE POP DUP2 ADD SWAP1 PUSH2 0x1E97 SWAP2 SWAP1 PUSH2 0x46A4 JUMP JUMPDEST POP POP SWAP2 POP POP PUSH20 0x0 PUSH4 0x39DF137F PUSH0 DUP4 MLOAD GT PUSH1 0x40 MLOAD DUP3 PUSH4 0xFFFFFFFF AND PUSH1 0xE0 SHL DUP2 MSTORE PUSH1 0x4 ADD PUSH2 0x1ED6 SWAP2 SWAP1 PUSH2 0x477D JUMP JUMPDEST PUSH1 0x20 PUSH1 0x40 MLOAD DUP1 DUP4 SUB DUP2 DUP7 GAS DELEGATECALL ISZERO DUP1 ISZERO PUSH2 0x1EF1 JUMPI RETURNDATASIZE PUSH0 PUSH0 RETURNDATACOPY RETURNDATASIZE PUSH0 REVERT JUMPDEST POP POP POP POP PUSH1 0x40 MLOAD RETURNDATASIZE PUSH1 0x1F NOT PUSH1 0x1F DUP3 ADD AND DUP3 ADD DUP1 PUSH1 0x40 MSTORE POP DUP2 ADD SWAP1 PUSH2 0x1F15 SWAP2 SWAP1 PUSH2 0x34BB JUMP JUMPDEST POP POP POP DUP1 DUP1 PUSH1 0x1 ADD SWAP2 POP POP PUSH2 0x1BE8 JUMP JUMPDEST POP POP POP POP POP POP POP POP POP JUMP JUMPDEST PUSH0 PUSH0 PUSH0 SWAP1 SLOAD SWAP1 PUSH2 0x100 EXP SWAP1 DIV PUSH20 0xFFFFFFFFFFFFFFFFFFFFFFFFFFFFFFFFFFFFFFFF AND PUSH20 0xFFFFFFFFFFFFFFFFFFFFFFFFFFFFFFFFFFFFFFFF AND PUSH4 0x7A78E12D PUSH2 0x1F4 PUSH1 0x40 MLOAD DUP3 PUSH4 0xFFFFFFFF AND PUSH1 0xE0 SHL DUP2 MSTORE PUSH1 0x4 ADD PUSH2 0x1F8C SWAP2 SWAP1 PUSH2 0x47A9 JUMP JUMPDEST PUSH1 0x20 PUSH1 0x40 MLOAD DUP1 DUP4 SUB DUP2 PUSH0 DUP8 GAS CALL ISZERO DUP1 ISZERO PUSH2 0x1FA8 JUMPI RETURNDATASIZE PUSH0 PUSH0 RETURNDATACOPY RETURNDATASIZE PUSH0 REVERT JUMPDEST POP POP POP POP PUSH1 0x40 MLOAD RETURNDATASIZE PUSH1 0x1F NOT PUSH1 0x1F DUP3 ADD AND DUP3 ADD DUP1 PUSH1 0x40 MSTORE POP DUP2 ADD SWAP1 PUSH2 0x1FCC SWAP2 SWAP1 PUSH2 0x2F1B JUMP JUMPDEST SWAP1 POP PUSH0 PUSH0 PUSH0 SWAP1 SLOAD SWAP1 PUSH2 0x100 EXP SWAP1 DIV PUSH20 0xFFFFFFFFFFFFFFFFFFFFFFFFFFFFFFFFFFFFFFFF AND PUSH20 0xFFFFFFFFFFFFFFFFFFFFFFFFFFFFFFFFFFFFFFFF AND PUSH4 0x83CC56E1 PUSH1 0x40 MLOAD DUP2 PUSH4 0xFFFFFFFF AND PUSH1 0xE0 SHL DUP2 MSTORE PUSH1 0x4 ADD PUSH2 0x2026 SWAP1 PUSH2 0x4856 JUMP JUMPDEST PUSH1 0x20 PUSH1 0x40 MLOAD DUP1 DUP4 SUB DUP2 PUSH0 DUP8 GAS CALL ISZERO DUP1 ISZERO PUSH2 0x2042 JUMPI RETURNDATASIZE PUSH0 PUSH0 RETURNDATACOPY RETURNDATASIZE PUSH0 REVERT JUMPDEST POP POP POP POP PUSH1 0x40 MLOAD RETURNDATASIZE PUSH1 0x1F NOT PUSH1 0x1F DUP3 ADD AND DUP3 ADD DUP1 PUSH1 0x40 MSTORE POP DUP2 ADD SWAP1 PUSH2 0x2066 SWAP2 SWAP1 PUSH2 0x2F1B JUMP JUMPDEST SWAP1 POP PUSH0 PUSH0 PUSH0 SWAP1 SLOAD SWAP1 PUSH2 0x100 EXP SWAP1 DIV PUSH20 0xFFFFFFFFFFFFFFFFFFFFFFFFFFFFFFFFFFFFFFFF AND PUSH20 0xFFFFFFFFFFFFFFFFFFFFFFFFFFFFFFFFFFFFFFFF AND PUSH4 0x83CC56E1 PUSH1 0x40 MLOAD DUP2 PUSH4 0xFFFFFFFF AND PUSH1 0xE0 SHL DUP2 MSTORE PUSH1 0x4 ADD PUSH2 0x20C0 SWAP1 PUSH2 0x491B JUMP JUMPDEST PUSH1 0x20 PUSH1 0x40 MLOAD DUP1 DUP4 SUB DUP2 PUSH0 DUP8 GAS CALL ISZERO DUP1 ISZERO PUSH2 0x20DC JUMPI RETURNDATASIZE PUSH0 PUSH0 RETURNDATACOPY RETURNDATASIZE PUSH0 REVERT JUMPDEST POP POP POP POP PUSH1 0x40 MLOAD RETURNDATASIZE PUSH1 0x1F NOT PUSH1 0x1F DUP3 ADD AND DUP3 ADD DUP1 PUSH1 0x40 MSTORE POP DUP2 ADD SWAP1 PUSH2 0x2100 SWAP2 SWAP1 PUSH2 0x2F1B JUMP JUMPDEST SWAP1 POP PUSH0 PUSH0 PUSH0 SWAP1 SLOAD SWAP1 PUSH2 0x100 EXP SWAP1 DIV PUSH20 0xFFFFFFFFFFFFFFFFFFFFFFFFFFFFFFFFFFFFFFFF AND PUSH20 0xFFFFFFFFFFFFFFFFFFFFFFFFFFFFFFFFFFFFFFFF AND PUSH4 0x585B5C63 DUP6 PUSH0 PUSH0 DUP8 PUSH1 0x40 MLOAD DUP6 PUSH4 0xFFFFFFFF AND PUSH1 0xE0 SHL DUP2 MSTORE PUSH1 0x4 ADD PUSH2 0x2162 SWAP5 SWAP4 SWAP3 SWAP2 SWAP1 PUSH2 0x4996 JUMP JUMPDEST PUSH1 0x20 PUSH1 0x40 MLOAD DUP1 DUP4 SUB DUP2 PUSH0 DUP8 GAS CALL ISZERO DUP1 ISZERO PUSH2 0x217E JUMPI RETURNDATASIZE PUSH0 PUSH0 RETURNDATACOPY RETURNDATASIZE PUSH0 REVERT JUMPDEST POP POP POP POP PUSH1 0x40 MLOAD RETURNDATASIZE PUSH1 0x1F NOT PUSH1 0x1F DUP3 ADD AND DUP3 ADD DUP1 PUSH1 0x40 MSTORE POP DUP2 ADD SWAP1 PUSH2 0x21A2 SWAP2 SWAP1 PUSH2 0x2F1B JUMP JUMPDEST SWAP1 POP PUSH0 PUSH0 PUSH0 SWAP1 SLOAD SWAP1 PUSH2 0x100 EXP SWAP1 DIV PUSH20 0xFFFFFFFFFFFFFFFFFFFFFFFFFFFFFFFFFFFFFFFF AND PUSH20 0xFFFFFFFFFFFFFFFFFFFFFFFFFFFFFFFFFFFFFFFF AND PUSH4 0x4EF55A1F PUSH1 0x3 DUP7 DUP7 TIMESTAMP PUSH2 0xE10 TIMESTAMP PUSH2 0x21F4 SWAP2 SWAP1 PUSH2 0x2DC3 JUMP JUMPDEST PUSH1 0x40 MLOAD DUP7 PUSH4 0xFFFFFFFF AND PUSH1 0xE0 SHL DUP2 MSTORE PUSH1 0x4 ADD PUSH2 0x2214 SWAP6 SWAP5 SWAP4 SWAP3 SWAP2 SWAP1 PUSH2 0x41D6 JUMP JUMPDEST PUSH1 0x20 PUSH1 0x40 MLOAD DUP1 DUP4 SUB DUP2 PUSH0 DUP8 GAS CALL ISZERO DUP1 ISZERO PUSH2 0x2230 JUMPI RETURNDATASIZE PUSH0 PUSH0 RETURNDATACOPY RETURNDATASIZE PUSH0 REVERT JUMPDEST POP POP POP POP PUSH1 0x40 MLOAD RETURNDATASIZE PUSH1 0x1F NOT PUSH1 0x1F DUP3 ADD AND DUP3 ADD DUP1 PUSH1 0x40 MSTORE POP DUP2 ADD SWAP1 PUSH2 0x2254 SWAP2 SWAP1 PUSH2 0x2F1B JUMP JUMPDEST SWAP1 POP PUSH0 PUSH0 SWAP1 SLOAD SWAP1 PUSH2 0x100 EXP SWAP1 DIV PUSH20 0xFFFFFFFFFFFFFFFFFFFFFFFFFFFFFFFFFFFFFFFF AND PUSH20 0xFFFFFFFFFFFFFFFFFFFFFFFFFFFFFFFFFFFFFFFF AND PUSH4 0xE5213007 DUP3 DUP5 PUSH1 0x40 MLOAD DUP4 PUSH4 0xFFFFFFFF AND PUSH1 0xE0 SHL DUP2 MSTORE PUSH1 0x4 ADD PUSH2 0x22B1 SWAP3 SWAP2 SWAP1 PUSH2 0x49EC JUMP JUMPDEST PUSH0 PUSH1 0x40 MLOAD DUP1 DUP4 SUB DUP2 PUSH0 DUP8 DUP1 EXTCODESIZE ISZERO DUP1 ISZERO PUSH2 0x22C8 JUMPI PUSH0 PUSH0 REVERT JUMPDEST POP GAS CALL ISZERO DUP1 ISZERO PUSH2 0x22DA JUMPI RETURNDATASIZE PUSH0 PUSH0 RETURNDATACOPY RETURNDATASIZE PUSH0 REVERT JUMPDEST POP POP POP POP PUSH20 0x0 PUSH4 0xABCD7960 PUSH0 PUSH0 SWAP1 SLOAD SWAP1 PUSH2 0x100 EXP SWAP1 DIV PUSH20 0xFFFFFFFFFFFFFFFFFFFFFFFFFFFFFFFFFFFFFFFF AND PUSH20 0xFFFFFFFFFFFFFFFFFFFFFFFFFFFFFFFFFFFFFFFF AND PUSH4 0xC60D817E DUP5 PUSH1 0x40 MLOAD DUP3 PUSH4 0xFFFFFFFF AND PUSH1 0xE0 SHL DUP2 MSTORE PUSH1 0x4 ADD PUSH2 0x2351 SWAP2 SWAP1 PUSH2 0x34E6 JUMP JUMPDEST PUSH0 PUSH1 0x40 MLOAD DUP1 DUP4 SUB DUP2 DUP7 GAS STATICCALL ISZERO DUP1 ISZERO PUSH2 0x236B JUMPI RETURNDATASIZE PUSH0 PUSH0 RETURNDATACOPY RETURNDATASIZE PUSH0 REVERT JUMPDEST POP POP POP POP PUSH1 0x40 MLOAD RETURNDATASIZE PUSH0 DUP3 RETURNDATACOPY RETURNDATASIZE PUSH1 0x1F NOT PUSH1 0x1F DUP3 ADD AND DUP3 ADD DUP1 PUSH1 0x40 MSTORE POP DUP2 ADD SWAP1 PUSH2 0x2393 SWAP2 SWAP1 PUSH2 0x4555 JUMP JUMPDEST MLOAD PUSH1 0x1 PUSH1 0x40 MLOAD DUP4 PUSH4 0xFFFFFFFF AND PUSH1 0xE0 SHL DUP2 MSTORE PUSH1 0x4 ADD PUSH2 0x23B3 SWAP3 SWAP2 SWAP1 PUSH2 0x4A5D JUMP JUMPDEST PUSH1 0x20 PUSH1 0x40 MLOAD DUP1 DUP4 SUB DUP2 DUP7 GAS DELEGATECALL ISZERO DUP1 ISZERO PUSH2 0x23CE JUMPI RETURNDATASIZE PUSH0 PUSH0 RETURNDATACOPY RETURNDATASIZE PUSH0 REVERT JUMPDEST POP POP POP POP PUSH1 0x40 MLOAD RETURNDATASIZE PUSH1 0x1F NOT PUSH1 0x1F DUP3 ADD AND DUP3 ADD DUP1 PUSH1 0x40 MSTORE POP DUP2 ADD SWAP1 PUSH2 0x23F2 SWAP2 SWAP1 PUSH2 0x34BB JUMP JUMPDEST POP PUSH0 PUSH0 SWAP1 SLOAD SWAP1 PUSH2 0x100 EXP SWAP1 DIV PUSH20 0xFFFFFFFFFFFFFFFFFFFFFFFFFFFFFFFFFFFFFFFF AND PUSH20 0xFFFFFFFFFFFFFFFFFFFFFFFFFFFFFFFFFFFFFFFF AND PUSH4 0x3C8393AD DUP3 PUSH1 0x40 MLOAD DUP3 PUSH4 0xFFFFFFFF AND PUSH1 0xE0 SHL DUP2 MSTORE PUSH1 0x4 ADD PUSH2 0x244C SWAP2 SWAP1 PUSH2 0x34E6 JUMP JUMPDEST PUSH0 PUSH1 0x40 MLOAD DUP1 DUP4 SUB DUP2 PUSH0 DUP8 DUP1 EXTCODESIZE ISZERO DUP1 ISZERO PUSH2 0x2463 JUMPI PUSH0 PUSH0 REVERT JUMPDEST POP GAS CALL ISZERO DUP1 ISZERO PUSH2 0x2475 JUMPI RETURNDATASIZE PUSH0 PUSH0 RETURNDATACOPY RETURNDATASIZE PUSH0 REVERT JUMPDEST POP POP POP POP PUSH0 PUSH0 PUSH0 SWAP1 SLOAD SWAP1 PUSH2 0x100 EXP SWAP1 DIV PUSH20 0xFFFFFFFFFFFFFFFFFFFFFFFFFFFFFFFFFFFFFFFF AND PUSH20 0xFFFFFFFFFFFFFFFFFFFFFFFFFFFFFFFFFFFFFFFF AND PUSH4 0xB7F44B72 PUSH1 0x4 DUP5 PUSH1 0x40 MLOAD DUP4 PUSH4 0xFFFFFFFF AND PUSH1 0xE0 SHL DUP2 MSTORE PUSH1 0x4 ADD PUSH2 0x24D6 SWAP3 SWAP2 SWAP1 PUSH2 0x2FB9 JUMP JUMPDEST PUSH0 PUSH1 0x40 MLOAD DUP1 DUP4 SUB DUP2 DUP7 GAS STATICCALL ISZERO DUP1 ISZERO PUSH2 0x24F0 JUMPI RETURNDATASIZE PUSH0 PUSH0 RETURNDATACOPY RETURNDATASIZE PUSH0 REVERT JUMPDEST POP POP POP POP PUSH1 0x40 MLOAD RETURNDATASIZE PUSH0 DUP3 RETURNDATACOPY RETURNDATASIZE PUSH1 0x1F NOT PUSH1 0x1F DUP3 ADD AND DUP3 ADD DUP1 PUSH1 0x40 MSTORE POP DUP2 ADD SWAP1 PUSH2 0x2518 SWAP2 SWAP1 PUSH2 0x311C JUMP JUMPDEST SWAP1 POP PUSH0 DUP2 DUP1 PUSH1 0x20 ADD SWAP1 MLOAD DUP2 ADD SWAP1 PUSH2 0x252F SWAP2 SWAP1 PUSH2 0x4BE6 JUMP JUMPDEST SWAP1 POP PUSH20 0x0 PUSH4 0xABCD7960 DUP3 PUSH1 0x40 ADD MLOAD PUSH1 0x2 DUP2 GT ISZERO PUSH2 0x2562 JUMPI PUSH2 0x2561 PUSH2 0x2F46 JUMP JUMPDEST JUMPDEST PUSH1 0x1 PUSH1 0x2 DUP2 GT ISZERO PUSH2 0x2576 JUMPI PUSH2 0x2575 PUSH2 0x2F46 JUMP JUMPDEST JUMPDEST PUSH1 0x40 MLOAD DUP4 PUSH4 0xFFFFFFFF AND PUSH1 0xE0 SHL DUP2 MSTORE PUSH1 0x4 ADD PUSH2 0x2593 SWAP3 SWAP2 SWAP1 PUSH2 0x4C5C JUMP JUMPDEST PUSH1 0x20 PUSH1 0x40 MLOAD DUP1 DUP4 SUB DUP2 DUP7 GAS DELEGATECALL ISZERO DUP1 ISZERO PUSH2 0x25AE JUMPI RETURNDATASIZE PUSH0 PUSH0 RETURNDATACOPY RETURNDATASIZE PUSH0 REVERT JUMPDEST POP POP POP POP PUSH1 0x40 MLOAD RETURNDATASIZE PUSH1 0x1F NOT PUSH1 0x1F DUP3 ADD AND DUP3 ADD DUP1 PUSH1 0x40 MSTORE POP DUP2 ADD SWAP1 PUSH2 0x25D2 SWAP2 SWAP1 PUSH2 0x34BB JUMP JUMPDEST POP PUSH0 PUSH0 SWAP1 SLOAD SWAP1 PUSH2 0x100 EXP SWAP1 DIV PUSH20 0xFFFFFFFFFFFFFFFFFFFFFFFFFFFFFFFFFFFFFFFF AND PUSH20 0xFFFFFFFFFFFFFFFFFFFFFFFFFFFFFFFFFFFFFFFF AND PUSH4 0x624871F9 DUP5 PUSH1 0x40 MLOAD DUP3 PUSH4 0xFFFFFFFF AND PUSH1 0xE0 SHL DUP2 MSTORE PUSH1 0x4 ADD PUSH2 0x262C SWAP2 SWAP1 PUSH2 0x34E6 JUMP JUMPDEST PUSH0 PUSH1 0x40 MLOAD DUP1 DUP4 SUB DUP2 PUSH0 DUP8 DUP1 EXTCODESIZE ISZERO DUP1 ISZERO PUSH2 0x2643 JUMPI PUSH0 PUSH0 REVERT JUMPDEST POP GAS CALL ISZERO DUP1 ISZERO PUSH2 0x2655 JUMPI RETURNDATASIZE PUSH0 PUSH0 RETURNDATACOPY RETURNDATASIZE PUSH0 REVERT JUMPDEST POP POP POP POP PUSH0 PUSH0 SWAP1 SLOAD SWAP1 PUSH2 0x100 EXP SWAP1 DIV PUSH20 0xFFFFFFFFFFFFFFFFFFFFFFFFFFFFFFFFFFFFFFFF AND PUSH20 0xFFFFFFFFFFFFFFFFFFFFFFFFFFFFFFFFFFFFFFFF AND PUSH4 0xB7F44B72 PUSH1 0x4 DUP6 PUSH1 0x40 MLOAD DUP4 PUSH4 0xFFFFFFFF AND PUSH1 0xE0 SHL DUP2 MSTORE PUSH1 0x4 ADD PUSH2 0x26B5 SWAP3 SWAP2 SWAP1 PUSH2 0x2FB9 JUMP JUMPDEST PUSH0 PUSH1 0x40 MLOAD DUP1 DUP4 SUB DUP2 DUP7 GAS STATICCALL ISZERO DUP1 ISZERO PUSH2 0x26CF JUMPI RETURNDATASIZE PUSH0 PUSH0 RETURNDATACOPY RETURNDATASIZE PUSH0 REVERT JUMPDEST POP POP POP POP PUSH1 0x40 MLOAD RETURNDATASIZE PUSH0 DUP3 RETURNDATACOPY RETURNDATASIZE PUSH1 0x1F NOT PUSH1 0x1F DUP3 ADD AND DUP3 ADD DUP1 PUSH1 0x40 MSTORE POP DUP2 ADD SWAP1 PUSH2 0x26F7 SWAP2 SWAP1 PUSH2 0x311C JUMP JUMPDEST DUP1 PUSH1 0x20 ADD SWAP1 MLOAD DUP2 ADD SWAP1 PUSH2 0x270A SWAP2 SWAP1 PUSH2 0x4BE6 JUMP JUMPDEST SWAP1 POP PUSH20 0x0 PUSH4 0xABCD7960 DUP3 PUSH1 0x40 ADD MLOAD PUSH1 0x2 DUP2 GT ISZERO PUSH2 0x273D JUMPI PUSH2 0x273C PUSH2 0x2F46 JUMP JUMPDEST JUMPDEST PUSH1 0x2 DUP1 DUP2 GT ISZERO PUSH2 0x2750 JUMPI PUSH2 0x274F PUSH2 0x2F46 JUMP JUMPDEST JUMPDEST PUSH1 0x40 MLOAD DUP4 PUSH4 0xFFFFFFFF AND PUSH1 0xE0 SHL DUP2 MSTORE PUSH1 0x4 ADD PUSH2 0x276D SWAP3 SWAP2 SWAP1 PUSH2 0x4CE0 JUMP JUMPDEST PUSH1 0x20 PUSH1 0x40 MLOAD DUP1 DUP4 SUB DUP2 DUP7 GAS DELEGATECALL ISZERO DUP1 ISZERO PUSH2 0x2788 JUMPI RETURNDATASIZE PUSH0 PUSH0 RETURNDATACOPY RETURNDATASIZE PUSH0 REVERT JUMPDEST POP POP POP POP PUSH1 0x40 MLOAD RETURNDATASIZE PUSH1 0x1F NOT PUSH1 0x1F DUP3 ADD AND DUP3 ADD DUP1 PUSH1 0x40 MSTORE POP DUP2 ADD SWAP1 PUSH2 0x27AC SWAP2 SWAP1 PUSH2 0x34BB JUMP JUMPDEST POP POP POP POP POP POP POP POP JUMP JUMPDEST PUSH0 PUSH0 PUSH0 SWAP1 SLOAD SWAP1 PUSH2 0x100 EXP SWAP1 DIV PUSH20 0xFFFFFFFFFFFFFFFFFFFFFFFFFFFFFFFFFFFFFFFF AND PUSH20 0xFFFFFFFFFFFFFFFFFFFFFFFFFFFFFFFFFFFFFFFF AND PUSH4 0x7A78E12D PUSH9 0x1B1AE4D6E2EF500000 PUSH1 0x40 MLOAD DUP3 PUSH4 0xFFFFFFFF AND PUSH1 0xE0 SHL DUP2 MSTORE PUSH1 0x4 ADD PUSH2 0x2819 SWAP2 SWAP1 PUSH2 0x4D53 JUMP JUMPDEST PUSH1 0x20 PUSH1 0x40 MLOAD DUP1 DUP4 SUB DUP2 PUSH0 DUP8 GAS CALL ISZERO DUP1 ISZERO PUSH2 0x2835 JUMPI RETURNDATASIZE PUSH0 PUSH0 RETURNDATACOPY RETURNDATASIZE PUSH0 REVERT JUMPDEST POP POP POP POP PUSH1 0x40 MLOAD RETURNDATASIZE PUSH1 0x1F NOT PUSH1 0x1F DUP3 ADD AND DUP3 ADD DUP1 PUSH1 0x40 MSTORE POP DUP2 ADD SWAP1 PUSH2 0x2859 SWAP2 SWAP1 PUSH2 0x2F1B JUMP JUMPDEST SWAP1 POP PUSH0 PUSH0 PUSH0 SWAP1 SLOAD SWAP1 PUSH2 0x100 EXP SWAP1 DIV PUSH20 0xFFFFFFFFFFFFFFFFFFFFFFFFFFFFFFFFFFFFFFFF AND PUSH20 0xFFFFFFFFFFFFFFFFFFFFFFFFFFFFFFFFFFFFFFFF AND PUSH4 0xE1250AB4 PUSH1 0x40 MLOAD DUP2 PUSH4 0xFFFFFFFF AND PUSH1 0xE0 SHL DUP2 MSTORE PUSH1 0x4 ADD PUSH2 0x28B3 SWAP1 PUSH2 0x4DB6 JUMP JUMPDEST PUSH1 0x20 PUSH1 0x40 MLOAD DUP1 DUP4 SUB DUP2 PUSH0 DUP8 GAS CALL ISZERO DUP1 ISZERO PUSH2 0x28CF JUMPI RETURNDATASIZE PUSH0 PUSH0 RETURNDATACOPY RETURNDATASIZE PUSH0 REVERT JUMPDEST POP POP POP POP PUSH1 0x40 MLOAD RETURNDATASIZE PUSH1 0x1F NOT PUSH1 0x1F DUP3 ADD AND DUP3 ADD DUP1 PUSH1 0x40 MSTORE POP DUP2 ADD SWAP1 PUSH2 0x28F3 SWAP2 SWAP1 PUSH2 0x2F1B JUMP JUMPDEST SWAP1 POP PUSH0 PUSH0 PUSH0 SWAP1 SLOAD SWAP1 PUSH2 0x100 EXP SWAP1 DIV PUSH20 0xFFFFFFFFFFFFFFFFFFFFFFFFFFFFFFFFFFFFFFFF AND PUSH20 0xFFFFFFFFFFFFFFFFFFFFFFFFFFFFFFFFFFFFFFFF AND PUSH4 0xE1250AB4 PUSH1 0x40 MLOAD DUP2 PUSH4 0xFFFFFFFF AND PUSH1 0xE0 SHL DUP2 MSTORE PUSH1 0x4 ADD PUSH2 0x294D SWAP1 PUSH2 0x4E1E JUMP JUMPDEST PUSH1 0x20 PUSH1 0x40 MLOAD DUP1 DUP4 SUB DUP2 PUSH0 DUP8 GAS CALL ISZERO DUP1 ISZERO PUSH2 0x2969 JUMPI RETURNDATASIZE PUSH0 PUSH0 RETURNDATACOPY RETURNDATASIZE PUSH0 REVERT JUMPDEST POP POP POP POP PUSH1 0x40 MLOAD RETURNDATASIZE PUSH1 0x1F NOT PUSH1 0x1F DUP3 ADD AND DUP3 ADD DUP1 PUSH1 0x40 MSTORE POP DUP2 ADD SWAP1 PUSH2 0x298D SWAP2 SWAP1 PUSH2 0x2F1B JUMP JUMPDEST SWAP1 POP PUSH0 PUSH0 PUSH0 SWAP1 SLOAD SWAP1 PUSH2 0x100 EXP SWAP1 DIV PUSH20 0xFFFFFFFFFFFFFFFFFFFFFFFFFFFFFFFFFFFFFFFF AND PUSH20 0xFFFFFFFFFFFFFFFFFFFFFFFFFFFFFFFFFFFFFFFF AND PUSH4 0xE1250AB4 PUSH1 0x40 MLOAD DUP2 PUSH4 0xFFFFFFFF AND PUSH1 0xE0 SHL DUP2 MSTORE PUSH1 0x4 ADD PUSH2 0x29E7 SWAP1 PUSH2 0x4E86 JUMP JUMPDEST PUSH1 0x20 PUSH1 0x40 MLOAD DUP1 DUP4 SUB DUP2 PUSH0 DUP8 GAS CALL ISZERO DUP1 ISZERO PUSH2 0x2A03 JUMPI RETURNDATASIZE PUSH0 PUSH0 RETURNDATACOPY RETURNDATASIZE PUSH0 REVERT JUMPDEST POP POP POP POP PUSH1 0x40 MLOAD RETURNDATASIZE PUSH1 0x1F NOT PUSH1 0x1F DUP3 ADD AND DUP3 ADD DUP1 PUSH1 0x40 MSTORE POP DUP2 ADD SWAP1 PUSH2 0x2A27 SWAP2 SWAP1 PUSH2 0x2F1B JUMP JUMPDEST SWAP1 POP PUSH0 PUSH0 SWAP1 SLOAD SWAP1 PUSH2 0x100 EXP SWAP1 DIV PUSH20 0xFFFFFFFFFFFFFFFFFFFFFFFFFFFFFFFFFFFFFFFF AND PUSH20 0xFFFFFFFFFFFFFFFFFFFFFFFFFFFFFFFFFFFFFFFF AND PUSH4 0x71895501 PUSH1 0x1 DUP7 DUP7 PUSH1 0x40 MLOAD DUP5 PUSH4 0xFFFFFFFF AND PUSH1 0xE0 SHL DUP2 MSTORE PUSH1 0x4 ADD PUSH2 0x2A87 SWAP4 SWAP3 SWAP2 SWAP1 PUSH2 0x445C JUMP JUMPDEST PUSH0 PUSH1 0x40 MLOAD DUP1 DUP4 SUB DUP2 PUSH0 DUP8 DUP1 EXTCODESIZE ISZERO DUP1 ISZERO PUSH2 0x2A9E JUMPI PUSH0 PUSH0 REVERT JUMPDEST POP GAS CALL ISZERO DUP1 ISZERO PUSH2 0x2AB0 JUMPI RETURNDATASIZE PUSH0 PUSH0 RETURNDATACOPY RETURNDATASIZE PUSH0 REVERT JUMPDEST POP POP POP POP PUSH0 PUSH0 SWAP1 SLOAD SWAP1 PUSH2 0x100 EXP SWAP1 DIV PUSH20 0xFFFFFFFFFFFFFFFFFFFFFFFFFFFFFFFFFFFFFFFF AND PUSH20 0xFFFFFFFFFFFFFFFFFFFFFFFFFFFFFFFFFFFFFFFF AND PUSH4 0x71895501 PUSH1 0x1 DUP7 DUP6 PUSH1 0x40 MLOAD DUP5 PUSH4 0xFFFFFFFF AND PUSH1 0xE0 SHL DUP2 MSTORE PUSH1 0x4 ADD PUSH2 0x2B12 SWAP4 SWAP3 SWAP2 SWAP1 PUSH2 0x445C JUMP JUMPDEST PUSH0 PUSH1 0x40 MLOAD DUP1 DUP4 SUB DUP2 PUSH0 DUP8 DUP1 EXTCODESIZE ISZERO DUP1 ISZERO PUSH2 0x2B29 JUMPI PUSH0 PUSH0 REVERT JUMPDEST POP GAS CALL ISZERO DUP1 ISZERO PUSH2 0x2B3B JUMPI RETURNDATASIZE PUSH0 PUSH0 RETURNDATACOPY RETURNDATASIZE PUSH0 REVERT JUMPDEST POP POP POP POP PUSH0 PUSH0 SWAP1 SLOAD SWAP1 PUSH2 0x100 EXP SWAP1 DIV PUSH20 0xFFFFFFFFFFFFFFFFFFFFFFFFFFFFFFFFFFFFFFFF AND PUSH20 0xFFFFFFFFFFFFFFFFFFFFFFFFFFFFFFFFFFFFFFFF AND PUSH4 0x71895501 PUSH1 0x1 DUP7 DUP5 PUSH1 0x40 MLOAD DUP5 PUSH4 0xFFFFFFFF AND PUSH1 0xE0 SHL DUP2 MSTORE PUSH1 0x4 ADD PUSH2 0x2B9D SWAP4 SWAP3 SWAP2 SWAP1 PUSH2 0x445C JUMP JUMPDEST PUSH0 PUSH1 0x40 MLOAD DUP1 DUP4 SUB DUP2 PUSH0 DUP8 DUP1 EXTCODESIZE ISZERO DUP1 ISZERO PUSH2 0x2BB4 JUMPI PUSH0 PUSH0 REVERT JUMPDEST POP GAS CALL ISZERO DUP1 ISZERO PUSH2 0x2BC6 JUMPI RETURNDATASIZE PUSH0 PUSH0 RETURNDATACOPY RETURNDATASIZE PUSH0 REVERT JUMPDEST POP POP POP POP PUSH0 PUSH0 PUSH0 SWAP1 SLOAD SWAP1 PUSH2 0x100 EXP SWAP1 DIV PUSH20 0xFFFFFFFFFFFFFFFFFFFFFFFFFFFFFFFFFFFFFFFF AND PUSH20 0xFFFFFFFFFFFFFFFFFFFFFFFFFFFFFFFFFFFFFFFF AND PUSH4 0x6E2C06FA PUSH1 0x1 DUP8 PUSH1 0x40 MLOAD DUP4 PUSH4 0xFFFFFFFF AND PUSH1 0xE0 SHL DUP2 MSTORE PUSH1 0x4 ADD PUSH2 0x2C27 SWAP3 SWAP2 SWAP1 PUSH2 0x2FB9 JUMP JUMPDEST PUSH0 PUSH1 0x40 MLOAD DUP1 DUP4 SUB DUP2 DUP7 GAS STATICCALL ISZERO DUP1 ISZERO PUSH2 0x2C41 JUMPI RETURNDATASIZE PUSH0 PUSH0 RETURNDATACOPY RETURNDATASIZE PUSH0 REVERT JUMPDEST POP POP POP POP PUSH1 0x40 MLOAD RETURNDATASIZE PUSH0 DUP3 RETURNDATACOPY RETURNDATASIZE PUSH1 0x1F NOT PUSH1 0x1F DUP3 ADD AND DUP3 ADD DUP1 PUSH1 0x40 MSTORE POP DUP2 ADD SWAP1 PUSH2 0x2C69 SWAP2 SWAP1 PUSH2 0x4555 JUMP JUMPDEST SWAP1 POP PUSH20 0x0 PUSH4 0xABCD7960 DUP3 MLOAD PUSH1 0x3 PUSH1 0x40 MLOAD DUP4 PUSH4 0xFFFFFFFF AND PUSH1 0xE0 SHL DUP2 MSTORE PUSH1 0x4 ADD PUSH2 0x2CA6 SWAP3 SWAP2 SWAP1 PUSH2 0x4F27 JUMP JUMPDEST PUSH1 0x20 PUSH1 0x40 MLOAD DUP1 DUP4 SUB DUP2 DUP7 GAS DELEGATECALL ISZERO DUP1 ISZERO PUSH2 0x2CC1 JUMPI RETURNDATASIZE PUSH0 PUSH0 RETURNDATACOPY RETURNDATASIZE PUSH0 REVERT JUMPDEST POP POP POP POP PUSH1 0x40 MLOAD RETURNDATASIZE PUSH1 0x1F NOT PUSH1 0x1F DUP3 ADD AND DUP3 ADD DUP1 PUSH1 0x40 MSTORE POP DUP2 ADD SWAP1 PUSH2 0x2CE5 SWAP2 SWAP1 PUSH2 0x34BB JUMP JUMPDEST POP POP POP POP POP POP JUMP JUMPDEST PUSH2 0x5B4F DUP1 PUSH2 0x4F62 DUP4 CODECOPY ADD SWAP1 JUMP JUMPDEST PUSH0 PUSH20 0xFFFFFFFFFFFFFFFFFFFFFFFFFFFFFFFFFFFFFFFF DUP3 AND SWAP1 POP SWAP2 SWAP1 POP JUMP JUMPDEST PUSH0 DUP2 SWAP1 POP SWAP2 SWAP1 POP JUMP JUMPDEST PUSH0 PUSH2 0x2D3C PUSH2 0x2D37 PUSH2 0x2D32 DUP5 PUSH2 0x2CFA JUMP JUMPDEST PUSH2 0x2D19 JUMP JUMPDEST PUSH2 0x2CFA JUMP JUMPDEST SWAP1 POP SWAP2 SWAP1 POP JUMP JUMPDEST PUSH0 PUSH2 0x2D4D DUP3 PUSH2 0x2D22 JUMP JUMPDEST SWAP1 POP SWAP2 SWAP1 POP JUMP JUMPDEST PUSH0 PUSH2 0x2D5E DUP3 PUSH2 0x2D43 JUMP JUMPDEST SWAP1 POP SWAP2 SWAP1 POP JUMP JUMPDEST PUSH2 0x2D6E DUP2 PUSH2 0x2D54 JUMP JUMPDEST DUP3 MSTORE POP POP JUMP JUMPDEST PUSH0 PUSH1 0x20 DUP3 ADD SWAP1 POP PUSH2 0x2D87 PUSH0 DUP4 ADD DUP5 PUSH2 0x2D65 JUMP JUMPDEST SWAP3 SWAP2 POP POP JUMP JUMPDEST PUSH0 DUP2 SWAP1 POP SWAP2 SWAP1 POP JUMP JUMPDEST PUSH32 0x4E487B7100000000000000000000000000000000000000000000000000000000 PUSH0 MSTORE PUSH1 0x11 PUSH1 0x4 MSTORE PUSH1 0x24 PUSH0 REVERT JUMPDEST PUSH0 PUSH2 0x2DCD DUP3 PUSH2 0x2D8D JUMP JUMPDEST SWAP2 POP PUSH2 0x2DD8 DUP4 PUSH2 0x2D8D JUMP JUMPDEST SWAP3 POP DUP3 DUP3 ADD SWAP1 POP DUP1 DUP3 GT ISZERO PUSH2 0x2DF0 JUMPI PUSH2 0x2DEF PUSH2 0x2D96 JUMP JUMPDEST JUMPDEST SWAP3 SWAP2 POP POP JUMP JUMPDEST PUSH0 DUP2 SWAP1 POP SWAP2 SWAP1 POP JUMP JUMPDEST PUSH0 PUSH2 0x2E19 PUSH2 0x2E14 PUSH2 0x2E0F DUP5 PUSH2 0x2DF6 JUMP JUMPDEST PUSH2 0x2D19 JUMP JUMPDEST PUSH2 0x2D8D JUMP JUMPDEST SWAP1 POP SWAP2 SWAP1 POP JUMP JUMPDEST PUSH2 0x2E29 DUP2 PUSH2 0x2DFF JUMP JUMPDEST DUP3 MSTORE POP POP JUMP JUMPDEST PUSH0 DUP3 DUP3 MSTORE PUSH1 0x20 DUP3 ADD SWAP1 POP SWAP3 SWAP2 POP POP JUMP JUMPDEST PUSH32 0x4D61696E74656E616E63655465616D0000000000000000000000000000000000 PUSH0 DUP3 ADD MSTORE POP JUMP JUMPDEST PUSH0 PUSH2 0x2E73 PUSH1 0xF DUP4 PUSH2 0x2E2F JUMP JUMPDEST SWAP2 POP PUSH2 0x2E7E DUP3 PUSH2 0x2E3F JUMP JUMPDEST PUSH1 0x20 DUP3 ADD SWAP1 POP SWAP2 SWAP1 POP JUMP JUMPDEST PUSH2 0x2E92 DUP2 PUSH2 0x2D8D JUMP JUMPDEST DUP3 MSTORE POP POP JUMP JUMPDEST PUSH0 PUSH1 0x80 DUP3 ADD SWAP1 POP PUSH2 0x2EAB PUSH0 DUP4 ADD DUP7 PUSH2 0x2E20 JUMP JUMPDEST DUP2 DUP2 SUB PUSH1 0x20 DUP4 ADD MSTORE PUSH2 0x2EBC DUP2 PUSH2 0x2E67 JUMP JUMPDEST SWAP1 POP PUSH2 0x2ECB PUSH1 0x40 DUP4 ADD DUP6 PUSH2 0x2E89 JUMP JUMPDEST PUSH2 0x2ED8 PUSH1 0x60 DUP4 ADD DUP5 PUSH2 0x2E89 JUMP JUMPDEST SWAP5 SWAP4 POP POP POP POP JUMP JUMPDEST PUSH0 PUSH1 0x40 MLOAD SWAP1 POP SWAP1 JUMP JUMPDEST PUSH0 PUSH0 REVERT JUMPDEST PUSH0 PUSH0 REVERT JUMPDEST PUSH2 0x2EFA DUP2 PUSH2 0x2D8D JUMP JUMPDEST DUP2 EQ PUSH2 0x2F04 JUMPI PUSH0 PUSH0 REVERT JUMPDEST POP JUMP JUMPDEST PUSH0 DUP2 MLOAD SWAP1 POP PUSH2 0x2F15 DUP2 PUSH2 0x2EF1 JUMP JUMPDEST SWAP3 SWAP2 POP POP JUMP JUMPDEST PUSH0 PUSH1 0x20 DUP3 DUP5 SUB SLT ISZERO PUSH2 0x2F30 JUMPI PUSH2 0x2F2F PUSH2 0x2EE9 JUMP JUMPDEST JUMPDEST PUSH0 PUSH2 0x2F3D DUP5 DUP3 DUP6 ADD PUSH2 0x2F07 JUMP JUMPDEST SWAP2 POP POP SWAP3 SWAP2 POP POP JUMP JUMPDEST PUSH32 0x4E487B7100000000000000000000000000000000000000000000000000000000 PUSH0 MSTORE PUSH1 0x21 PUSH1 0x4 MSTORE PUSH1 0x24 PUSH0 REVERT JUMPDEST PUSH1 0x6 DUP2 LT PUSH2 0x2F84 JUMPI PUSH2 0x2F83 PUSH2 0x2F46 JUMP JUMPDEST JUMPDEST POP JUMP JUMPDEST PUSH0 DUP2 SWAP1 POP PUSH2 0x2F94 DUP3 PUSH2 0x2F73 JUMP JUMPDEST SWAP2 SWAP1 POP JUMP JUMPDEST PUSH0 PUSH2 0x2FA3 DUP3 PUSH2 0x2F87 JUMP JUMPDEST SWAP1 POP SWAP2 SWAP1 POP JUMP JUMPDEST PUSH2 0x2FB3 DUP2 PUSH2 0x2F99 JUMP JUMPDEST DUP3 MSTORE POP POP JUMP JUMPDEST PUSH0 PUSH1 0x40 DUP3 ADD SWAP1 POP PUSH2 0x2FCC PUSH0 DUP4 ADD DUP6 PUSH2 0x2FAA JUMP JUMPDEST PUSH2 0x2FD9 PUSH1 0x20 DUP4 ADD DUP5 PUSH2 0x2E89 JUMP JUMPDEST SWAP4 SWAP3 POP POP POP JUMP JUMPDEST PUSH0 PUSH0 REVERT JUMPDEST PUSH0 PUSH0 REVERT JUMPDEST PUSH0 PUSH1 0x1F NOT PUSH1 0x1F DUP4 ADD AND SWAP1 POP SWAP2 SWAP1 POP JUMP JUMPDEST PUSH32 0x4E487B7100000000000000000000000000000000000000000000000000000000 PUSH0 MSTORE PUSH1 0x41 PUSH1 0x4 MSTORE PUSH1 0x24 PUSH0 REVERT JUMPDEST PUSH2 0x302E DUP3 PUSH2 0x2FE8 JUMP JUMPDEST DUP2 ADD DUP2 DUP2 LT PUSH8 0xFFFFFFFFFFFFFFFF DUP3 GT OR ISZERO PUSH2 0x304D JUMPI PUSH2 0x304C PUSH2 0x2FF8 JUMP JUMPDEST JUMPDEST DUP1 PUSH1 0x40 MSTORE POP POP POP JUMP JUMPDEST PUSH0 PUSH2 0x305F PUSH2 0x2EE0 JUMP JUMPDEST SWAP1 POP PUSH2 0x306B DUP3 DUP3 PUSH2 0x3025 JUMP JUMPDEST SWAP2 SWAP1 POP JUMP JUMPDEST PUSH0 PUSH8 0xFFFFFFFFFFFFFFFF DUP3 GT ISZERO PUSH2 0x308A JUMPI PUSH2 0x3089 PUSH2 0x2FF8 JUMP JUMPDEST JUMPDEST PUSH2 0x3093 DUP3 PUSH2 0x2FE8 JUMP JUMPDEST SWAP1 POP PUSH1 0x20 DUP2 ADD SWAP1 POP SWAP2 SWAP1 POP JUMP JUMPDEST DUP3 DUP2 DUP4 MCOPY PUSH0 DUP4 DUP4 ADD MSTORE POP POP POP JUMP JUMPDEST PUSH0 PUSH2 0x30C0 PUSH2 0x30BB DUP5 PUSH2 0x3070 JUMP JUMPDEST PUSH2 0x3056 JUMP JUMPDEST SWAP1 POP DUP3 DUP2 MSTORE PUSH1 0x20 DUP2 ADD DUP5 DUP5 DUP5 ADD GT ISZERO PUSH2 0x30DC JUMPI PUSH2 0x30DB PUSH2 0x2FE4 JUMP JUMPDEST JUMPDEST PUSH2 0x30E7 DUP5 DUP3 DUP6 PUSH2 0x30A0 JUMP JUMPDEST POP SWAP4 SWAP3 POP POP POP JUMP JUMPDEST PUSH0 DUP3 PUSH1 0x1F DUP4 ADD SLT PUSH2 0x3103 JUMPI PUSH2 0x3102 PUSH2 0x2FE0 JUMP JUMPDEST JUMPDEST DUP2 MLOAD PUSH2 0x3113 DUP5 DUP3 PUSH1 0x20 DUP7 ADD PUSH2 0x30AE JUMP JUMPDEST SWAP2 POP POP SWAP3 SWAP2 POP POP JUMP JUMPDEST PUSH0 PUSH1 0x20 DUP3 DUP5 SUB SLT ISZERO PUSH2 0x3131 JUMPI PUSH2 0x3130 PUSH2 0x2EE9 JUMP JUMPDEST JUMPDEST PUSH0 DUP3 ADD MLOAD PUSH8 0xFFFFFFFFFFFFFFFF DUP2 GT ISZERO PUSH2 0x314E JUMPI PUSH2 0x314D PUSH2 0x2EED JUMP JUMPDEST JUMPDEST PUSH2 0x315A DUP5 DUP3 DUP6 ADD PUSH2 0x30EF JUMP JUMPDEST SWAP2 POP POP SWAP3 SWAP2 POP POP JUMP JUMPDEST PUSH0 PUSH0 REVERT JUMPDEST PUSH0 PUSH0 REVERT JUMPDEST PUSH1 0x3 DUP2 LT PUSH2 0x3177 JUMPI PUSH0 PUSH0 REVERT JUMPDEST POP JUMP JUMPDEST PUSH0 DUP2 MLOAD SWAP1 POP PUSH2 0x3188 DUP2 PUSH2 0x316B JUMP JUMPDEST SWAP3 SWAP2 POP POP JUMP JUMPDEST PUSH0 PUSH8 0xFFFFFFFFFFFFFFFF DUP3 GT ISZERO PUSH2 0x31A8 JUMPI PUSH2 0x31A7 PUSH2 0x2FF8 JUMP JUMPDEST JUMPDEST PUSH2 0x31B1 DUP3 PUSH2 0x2FE8 JUMP JUMPDEST SWAP1 POP PUSH1 0x20 DUP2 ADD SWAP1 POP SWAP2 SWAP1 POP JUMP JUMPDEST PUSH0 PUSH2 0x31D0 PUSH2 0x31CB DUP5 PUSH2 0x318E JUMP JUMPDEST PUSH2 0x3056 JUMP JUMPDEST SWAP1 POP DUP3 DUP2 MSTORE PUSH1 0x20 DUP2 ADD DUP5 DUP5 DUP5 ADD GT ISZERO PUSH2 0x31EC JUMPI PUSH2 0x31EB PUSH2 0x2FE4 JUMP JUMPDEST JUMPDEST PUSH2 0x31F7 DUP5 DUP3 DUP6 PUSH2 0x30A0 JUMP JUMPDEST POP SWAP4 SWAP3 POP POP POP JUMP JUMPDEST PUSH0 DUP3 PUSH1 0x1F DUP4 ADD SLT PUSH2 0x3213 JUMPI PUSH2 0x3212 PUSH2 0x2FE0 JUMP JUMPDEST JUMPDEST DUP2 MLOAD PUSH2 0x3223 DUP5 DUP3 PUSH1 0x20 DUP7 ADD PUSH2 0x31BE JUMP JUMPDEST SWAP2 POP POP SWAP3 SWAP2 POP POP JUMP JUMPDEST PUSH0 PUSH2 0x3236 DUP3 PUSH2 0x2CFA JUMP JUMPDEST SWAP1 POP SWAP2 SWAP1 POP JUMP JUMPDEST PUSH2 0x3246 DUP2 PUSH2 0x322C JUMP JUMPDEST DUP2 EQ PUSH2 0x3250 JUMPI PUSH0 PUSH0 REVERT JUMPDEST POP JUMP JUMPDEST PUSH0 DUP2 MLOAD SWAP1 POP PUSH2 0x3261 DUP2 PUSH2 0x323D JUMP JUMPDEST SWAP3 SWAP2 POP POP JUMP JUMPDEST PUSH0 PUSH2 0x140 DUP3 DUP5 SUB SLT ISZERO PUSH2 0x327D JUMPI PUSH2 0x327C PUSH2 0x3163 JUMP JUMPDEST JUMPDEST PUSH2 0x3288 PUSH2 0x140 PUSH2 0x3056 JUMP JUMPDEST SWAP1 POP PUSH0 PUSH2 0x3297 DUP5 DUP3 DUP6 ADD PUSH2 0x2F07 JUMP JUMPDEST PUSH0 DUP4 ADD MSTORE POP PUSH1 0x20 PUSH2 0x32AA DUP5 DUP3 DUP6 ADD PUSH2 0x2F07 JUMP JUMPDEST PUSH1 0x20 DUP4 ADD MSTORE POP PUSH1 0x40 PUSH2 0x32BE DUP5 DUP3 DUP6 ADD PUSH2 0x317A JUMP JUMPDEST PUSH1 0x40 DUP4 ADD MSTORE POP PUSH1 0x60 DUP3 ADD MLOAD PUSH8 0xFFFFFFFFFFFFFFFF DUP2 GT ISZERO PUSH2 0x32E2 JUMPI PUSH2 0x32E1 PUSH2 0x3167 JUMP JUMPDEST JUMPDEST PUSH2 0x32EE DUP5 DUP3 DUP6 ADD PUSH2 0x31FF JUMP JUMPDEST PUSH1 0x60 DUP4 ADD MSTORE POP PUSH1 0x80 PUSH2 0x3302 DUP5 DUP3 DUP6 ADD PUSH2 0x2F07 JUMP JUMPDEST PUSH1 0x80 DUP4 ADD MSTORE POP PUSH1 0xA0 PUSH2 0x3316 DUP5 DUP3 DUP6 ADD PUSH2 0x2F07 JUMP JUMPDEST PUSH1 0xA0 DUP4 ADD MSTORE POP PUSH1 0xC0 PUSH2 0x332A DUP5 DUP3 DUP6 ADD PUSH2 0x2F07 JUMP JUMPDEST PUSH1 0xC0 DUP4 ADD MSTORE POP PUSH1 0xE0 PUSH2 0x333E DUP5 DUP3 DUP6 ADD PUSH2 0x2F07 JUMP JUMPDEST PUSH1 0xE0 DUP4 ADD MSTORE POP PUSH2 0x100 PUSH2 0x3353 DUP5 DUP3 DUP6 ADD PUSH2 0x2F07 JUMP JUMPDEST PUSH2 0x100 DUP4 ADD MSTORE POP PUSH2 0x120 PUSH2 0x3369 DUP5 DUP3 DUP6 ADD PUSH2 0x3253 JUMP JUMPDEST PUSH2 0x120 DUP4 ADD MSTORE POP SWAP3 SWAP2 POP POP JUMP JUMPDEST PUSH0 PUSH1 0x20 DUP3 DUP5 SUB SLT ISZERO PUSH2 0x338B JUMPI PUSH2 0x338A PUSH2 0x2EE9 JUMP JUMPDEST JUMPDEST PUSH0 DUP3 ADD MLOAD PUSH8 0xFFFFFFFFFFFFFFFF DUP2 GT ISZERO PUSH2 0x33A8 JUMPI PUSH2 0x33A7 PUSH2 0x2EED JUMP JUMPDEST JUMPDEST PUSH2 0x33B4 DUP5 DUP3 DUP6 ADD PUSH2 0x3267 JUMP JUMPDEST SWAP2 POP POP SWAP3 SWAP2 POP POP JUMP JUMPDEST PUSH2 0x33C6 DUP2 PUSH2 0x2D8D JUMP JUMPDEST DUP3 MSTORE POP POP JUMP JUMPDEST PUSH0 DUP3 DUP3 MSTORE PUSH1 0x20 DUP3 ADD SWAP1 POP SWAP3 SWAP2 POP POP JUMP JUMPDEST PUSH32 0x496E697469616C207374617475732073686F756C642062652052657175657374 PUSH0 DUP3 ADD MSTORE PUSH32 0x6564000000000000000000000000000000000000000000000000000000000000 PUSH1 0x20 DUP3 ADD MSTORE POP JUMP JUMPDEST PUSH0 PUSH2 0x3436 PUSH1 0x22 DUP4 PUSH2 0x33CC JUMP JUMPDEST SWAP2 POP PUSH2 0x3441 DUP3 PUSH2 0x33DC JUMP JUMPDEST PUSH1 0x40 DUP3 ADD SWAP1 POP SWAP2 SWAP1 POP JUMP JUMPDEST PUSH0 PUSH1 0x60 DUP3 ADD SWAP1 POP PUSH2 0x345F PUSH0 DUP4 ADD DUP6 PUSH2 0x33BD JUMP JUMPDEST PUSH2 0x346C PUSH1 0x20 DUP4 ADD DUP5 PUSH2 0x33BD JUMP JUMPDEST DUP2 DUP2 SUB PUSH1 0x40 DUP4 ADD MSTORE PUSH2 0x347D DUP2 PUSH2 0x342A JUMP JUMPDEST SWAP1 POP SWAP4 SWAP3 POP POP POP JUMP JUMPDEST PUSH0 DUP2 ISZERO ISZERO SWAP1 POP SWAP2 SWAP1 POP JUMP JUMPDEST PUSH2 0x349A DUP2 PUSH2 0x3486 JUMP JUMPDEST DUP2 EQ PUSH2 0x34A4 JUMPI PUSH0 PUSH0 REVERT JUMPDEST POP JUMP JUMPDEST PUSH0 DUP2 MLOAD SWAP1 POP PUSH2 0x34B5 DUP2 PUSH2 0x3491 JUMP JUMPDEST SWAP3 SWAP2 POP POP JUMP JUMPDEST PUSH0 PUSH1 0x20 DUP3 DUP5 SUB SLT ISZERO PUSH2 0x34D0 JUMPI PUSH2 0x34CF PUSH2 0x2EE9 JUMP JUMPDEST JUMPDEST PUSH0 PUSH2 0x34DD DUP5 DUP3 DUP6 ADD PUSH2 0x34A7 JUMP JUMPDEST SWAP2 POP POP SWAP3 SWAP2 POP POP JUMP JUMPDEST PUSH0 PUSH1 0x20 DUP3 ADD SWAP1 POP PUSH2 0x34F9 PUSH0 DUP4 ADD DUP5 PUSH2 0x2E89 JUMP JUMPDEST SWAP3 SWAP2 POP POP JUMP JUMPDEST PUSH32 0x5374617475732073686F756C6420626520496E50726F67726573730000000000 PUSH0 DUP3 ADD MSTORE POP JUMP JUMPDEST PUSH0 PUSH2 0x3533 PUSH1 0x1B DUP4 PUSH2 0x33CC JUMP JUMPDEST SWAP2 POP PUSH2 0x353E DUP3 PUSH2 0x34FF JUMP JUMPDEST PUSH1 0x20 DUP3 ADD SWAP1 POP SWAP2 SWAP1 POP JUMP JUMPDEST PUSH0 PUSH1 0x60 DUP3 ADD SWAP1 POP PUSH2 0x355C PUSH0 DUP4 ADD DUP6 PUSH2 0x33BD JUMP JUMPDEST PUSH2 0x3569 PUSH1 0x20 DUP4 ADD DUP5 PUSH2 0x33BD JUMP JUMPDEST DUP2 DUP2 SUB PUSH1 0x40 DUP4 ADD MSTORE PUSH2 0x357A DUP2 PUSH2 0x3527 JUMP JUMPDEST SWAP1 POP SWAP4 SWAP3 POP POP POP JUMP JUMPDEST PUSH32 0x5374617475732073686F756C6420626520436F6D706C65746564000000000000 PUSH0 DUP3 ADD MSTORE POP JUMP JUMPDEST PUSH0 PUSH2 0x35B7 PUSH1 0x1A DUP4 PUSH2 0x33CC JUMP JUMPDEST SWAP2 POP PUSH2 0x35C2 DUP3 PUSH2 0x3583 JUMP JUMPDEST PUSH1 0x20 DUP3 ADD SWAP1 POP SWAP2 SWAP1 POP JUMP JUMPDEST PUSH0 PUSH1 0x60 DUP3 ADD SWAP1 POP PUSH2 0x35E0 PUSH0 DUP4 ADD DUP6 PUSH2 0x33BD JUMP JUMPDEST PUSH2 0x35ED PUSH1 0x20 DUP4 ADD DUP5 PUSH2 0x33BD JUMP JUMPDEST DUP2 DUP2 SUB PUSH1 0x40 DUP4 ADD MSTORE PUSH2 0x35FE DUP2 PUSH2 0x35AB JUMP JUMPDEST SWAP1 POP SWAP4 SWAP3 POP POP POP JUMP JUMPDEST PUSH0 DUP2 SWAP1 POP SWAP2 SWAP1 POP JUMP JUMPDEST PUSH0 PUSH2 0x362A PUSH2 0x3625 PUSH2 0x3620 DUP5 PUSH2 0x3607 JUMP JUMPDEST PUSH2 0x2D19 JUMP JUMPDEST PUSH2 0x2D8D JUMP JUMPDEST SWAP1 POP SWAP2 SWAP1 POP JUMP JUMPDEST PUSH2 0x363A DUP2 PUSH2 0x3610 JUMP JUMPDEST DUP3 MSTORE POP POP JUMP JUMPDEST PUSH0 PUSH1 0x20 DUP3 ADD SWAP1 POP PUSH2 0x3653 PUSH0 DUP4 ADD DUP5 PUSH2 0x3631 JUMP JUMPDEST SWAP3 SWAP2 POP POP JUMP JUMPDEST PUSH32 0x446F636B20410000000000000000000000000000000000000000000000000000 PUSH0 DUP3 ADD MSTORE POP JUMP JUMPDEST PUSH0 PUSH2 0x368D PUSH1 0x6 DUP4 PUSH2 0x2E2F JUMP JUMPDEST SWAP2 POP PUSH2 0x3698 DUP3 PUSH2 0x3659 JUMP JUMPDEST PUSH1 0x20 DUP3 ADD SWAP1 POP SWAP2 SWAP1 POP JUMP JUMPDEST PUSH32 0x526563656976696E670000000000000000000000000000000000000000000000 PUSH0 DUP3 ADD MSTORE POP JUMP JUMPDEST PUSH0 PUSH2 0x36D7 PUSH1 0x9 DUP4 PUSH2 0x2E2F JUMP JUMPDEST SWAP2 POP PUSH2 0x36E2 DUP3 PUSH2 0x36A3 JUMP JUMPDEST PUSH1 0x20 DUP3 ADD SWAP1 POP SWAP2 SWAP1 POP JUMP JUMPDEST PUSH0 PUSH1 0x40 DUP3 ADD SWAP1 POP DUP2 DUP2 SUB PUSH0 DUP4 ADD MSTORE PUSH2 0x3704 DUP2 PUSH2 0x3681 JUMP JUMPDEST SWAP1 POP DUP2 DUP2 SUB PUSH1 0x20 DUP4 ADD MSTORE PUSH2 0x3717 DUP2 PUSH2 0x36CB JUMP JUMPDEST SWAP1 POP SWAP2 SWAP1 POP JUMP JUMPDEST PUSH32 0x5769646765740000000000000000000000000000000000000000000000000000 PUSH0 DUP3 ADD MSTORE POP JUMP JUMPDEST PUSH0 PUSH2 0x3752 PUSH1 0x6 DUP4 PUSH2 0x2E2F JUMP JUMPDEST SWAP2 POP PUSH2 0x375D DUP3 PUSH2 0x371E JUMP JUMPDEST PUSH1 0x20 DUP3 ADD SWAP1 POP SWAP2 SWAP1 POP JUMP JUMPDEST PUSH1 0x2 DUP2 LT PUSH2 0x3779 JUMPI PUSH2 0x3778 PUSH2 0x2F46 JUMP JUMPDEST JUMPDEST POP JUMP JUMPDEST PUSH0 DUP2 SWAP1 POP PUSH2 0x3789 DUP3 PUSH2 0x3768 JUMP JUMPDEST SWAP2 SWAP1 POP JUMP JUMPDEST PUSH0 PUSH2 0x3798 DUP3 PUSH2 0x377C JUMP JUMPDEST SWAP1 POP SWAP2 SWAP1 POP JUMP JUMPDEST PUSH2 0x37A8 DUP2 PUSH2 0x378E JUMP JUMPDEST DUP3 MSTORE POP POP JUMP JUMPDEST PUSH0 DUP2 SWAP1 POP SWAP2 SWAP1 POP JUMP JUMPDEST PUSH0 PUSH2 0x37D1 PUSH2 0x37CC PUSH2 0x37C7 DUP5 PUSH2 0x37AE JUMP JUMPDEST PUSH2 0x2D19 JUMP JUMPDEST PUSH2 0x2D8D JUMP JUMPDEST SWAP1 POP SWAP2 SWAP1 POP JUMP JUMPDEST PUSH2 0x37E1 DUP2 PUSH2 0x37B7 JUMP JUMPDEST DUP3 MSTORE POP POP JUMP JUMPDEST PUSH0 PUSH1 0xA0 DUP3 ADD SWAP1 POP DUP2 DUP2 SUB PUSH0 DUP4 ADD MSTORE PUSH2 0x37FE DUP2 PUSH2 0x3746 JUMP JUMPDEST SWAP1 POP PUSH2 0x380D PUSH1 0x20 DUP4 ADD DUP8 PUSH2 0x2E89 JUMP JUMPDEST PUSH2 0x381A PUSH1 0x40 DUP4 ADD DUP7 PUSH2 0x379F JUMP JUMPDEST PUSH2 0x3827 PUSH1 0x60 DUP4 ADD DUP6 PUSH2 0x37D8 JUMP JUMPDEST PUSH2 0x3834 PUSH1 0x80 DUP4 ADD DUP5 PUSH2 0x2E89 JUMP JUMPDEST SWAP6 SWAP5 POP POP POP POP POP JUMP JUMPDEST PUSH1 0x2 DUP2 LT PUSH2 0x3849 JUMPI PUSH0 PUSH0 REVERT JUMPDEST POP JUMP JUMPDEST PUSH0 DUP2 MLOAD SWAP1 POP PUSH2 0x385A DUP2 PUSH2 0x383D JUMP JUMPDEST SWAP3 SWAP2 POP POP JUMP JUMPDEST PUSH0 PUSH2 0x120 DUP3 DUP5 SUB SLT ISZERO PUSH2 0x3876 JUMPI PUSH2 0x3875 PUSH2 0x3163 JUMP JUMPDEST JUMPDEST PUSH2 0x3881 PUSH2 0x120 PUSH2 0x3056 JUMP JUMPDEST SWAP1 POP PUSH0 PUSH2 0x3890 DUP5 DUP3 DUP6 ADD PUSH2 0x2F07 JUMP JUMPDEST PUSH0 DUP4 ADD MSTORE POP PUSH1 0x20 DUP3 ADD MLOAD PUSH8 0xFFFFFFFFFFFFFFFF DUP2 GT ISZERO PUSH2 0x38B3 JUMPI PUSH2 0x38B2 PUSH2 0x3167 JUMP JUMPDEST JUMPDEST PUSH2 0x38BF DUP5 DUP3 DUP6 ADD PUSH2 0x31FF JUMP JUMPDEST PUSH1 0x20 DUP4 ADD MSTORE POP PUSH1 0x40 PUSH2 0x38D3 DUP5 DUP3 DUP6 ADD PUSH2 0x2F07 JUMP JUMPDEST PUSH1 0x40 DUP4 ADD MSTORE POP PUSH1 0x60 PUSH2 0x38E7 DUP5 DUP3 DUP6 ADD PUSH2 0x2F07 JUMP JUMPDEST PUSH1 0x60 DUP4 ADD MSTORE POP PUSH1 0x80 PUSH2 0x38FB DUP5 DUP3 DUP6 ADD PUSH2 0x2F07 JUMP JUMPDEST PUSH1 0x80 DUP4 ADD MSTORE POP PUSH1 0xA0 PUSH2 0x390F DUP5 DUP3 DUP6 ADD PUSH2 0x2F07 JUMP JUMPDEST PUSH1 0xA0 DUP4 ADD MSTORE POP PUSH1 0xC0 PUSH2 0x3923 DUP5 DUP3 DUP6 ADD PUSH2 0x384C JUMP JUMPDEST PUSH1 0xC0 DUP4 ADD MSTORE POP PUSH1 0xE0 PUSH2 0x3937 DUP5 DUP3 DUP6 ADD PUSH2 0x2F07 JUMP JUMPDEST PUSH1 0xE0 DUP4 ADD MSTORE POP PUSH2 0x100 PUSH2 0x394C DUP5 DUP3 DUP6 ADD PUSH2 0x3253 JUMP JUMPDEST PUSH2 0x100 DUP4 ADD MSTORE POP SWAP3 SWAP2 POP POP JUMP JUMPDEST PUSH0 PUSH1 0x20 DUP3 DUP5 SUB SLT ISZERO PUSH2 0x396E JUMPI PUSH2 0x396D PUSH2 0x2EE9 JUMP JUMPDEST JUMPDEST PUSH0 DUP3 ADD MLOAD PUSH8 0xFFFFFFFFFFFFFFFF DUP2 GT ISZERO PUSH2 0x398B JUMPI PUSH2 0x398A PUSH2 0x2EED JUMP JUMPDEST JUMPDEST PUSH2 0x3997 DUP5 DUP3 DUP6 ADD PUSH2 0x3860 JUMP JUMPDEST SWAP2 POP POP SWAP3 SWAP2 POP POP JUMP JUMPDEST PUSH0 DUP2 MLOAD SWAP1 POP SWAP2 SWAP1 POP JUMP JUMPDEST PUSH0 PUSH2 0x39B4 DUP3 PUSH2 0x39A0 JUMP JUMPDEST PUSH2 0x39BE DUP2 DUP6 PUSH2 0x33CC JUMP JUMPDEST SWAP4 POP PUSH2 0x39CE DUP2 DUP6 PUSH1 0x20 DUP7 ADD PUSH2 0x30A0 JUMP JUMPDEST PUSH2 0x39D7 DUP2 PUSH2 0x2FE8 JUMP JUMPDEST DUP5 ADD SWAP2 POP POP SWAP3 SWAP2 POP POP JUMP JUMPDEST PUSH0 PUSH2 0x39EE PUSH1 0x6 DUP4 PUSH2 0x33CC JUMP JUMPDEST SWAP2 POP PUSH2 0x39F9 DUP3 PUSH2 0x371E JUMP JUMPDEST PUSH1 0x20 DUP3 ADD SWAP1 POP SWAP2 SWAP1 POP JUMP JUMPDEST PUSH32 0x4974656D206E616D652073686F756C64206D6174636800000000000000000000 PUSH0 DUP3 ADD MSTORE POP JUMP JUMPDEST PUSH0 PUSH2 0x3A38 PUSH1 0x16 DUP4 PUSH2 0x33CC JUMP JUMPDEST SWAP2 POP PUSH2 0x3A43 DUP3 PUSH2 0x3A04 JUMP JUMPDEST PUSH1 0x20 DUP3 ADD SWAP1 POP SWAP2 SWAP1 POP JUMP JUMPDEST PUSH0 PUSH1 0x60 DUP3 ADD SWAP1 POP DUP2 DUP2 SUB PUSH0 DUP4 ADD MSTORE PUSH2 0x3A66 DUP2 DUP5 PUSH2 0x39AA JUMP JUMPDEST SWAP1 POP DUP2 DUP2 SUB PUSH1 0x20 DUP4 ADD MSTORE PUSH2 0x3A79 DUP2 PUSH2 0x39E2 JUMP JUMPDEST SWAP1 POP DUP2 DUP2 SUB PUSH1 0x40 DUP4 ADD MSTORE PUSH2 0x3A8C DUP2 PUSH2 0x3A2C JUMP JUMPDEST SWAP1 POP SWAP3 SWAP2 POP POP JUMP JUMPDEST PUSH0 PUSH1 0x20 DUP3 ADD SWAP1 POP PUSH2 0x3AA7 PUSH0 DUP4 ADD DUP5 PUSH2 0x2FAA JUMP JUMPDEST SWAP3 SWAP2 POP POP JUMP JUMPDEST PUSH0 DUP2 SWAP1 POP SWAP2 SWAP1 POP JUMP JUMPDEST PUSH0 PUSH2 0x3AD0 PUSH2 0x3ACB PUSH2 0x3AC6 DUP5 PUSH2 0x3AAD JUMP JUMPDEST PUSH2 0x2D19 JUMP JUMPDEST PUSH2 0x2D8D JUMP JUMPDEST SWAP1 POP SWAP2 SWAP1 POP JUMP JUMPDEST PUSH2 0x3AE0 DUP2 PUSH2 0x3AB6 JUMP JUMPDEST DUP3 MSTORE POP POP JUMP JUMPDEST PUSH0 PUSH1 0x20 DUP3 ADD SWAP1 POP PUSH2 0x3AF9 PUSH0 DUP4 ADD DUP5 PUSH2 0x3AD7 JUMP JUMPDEST SWAP3 SWAP2 POP POP JUMP JUMPDEST PUSH32 0x5465737400000000000000000000000000000000000000000000000000000000 PUSH0 DUP3 ADD MSTORE POP JUMP JUMPDEST PUSH0 PUSH2 0x3B33 PUSH1 0x4 DUP4 PUSH2 0x2E2F JUMP JUMPDEST SWAP2 POP PUSH2 0x3B3E DUP3 PUSH2 0x3AFF JUMP JUMPDEST PUSH1 0x20 DUP3 ADD SWAP1 POP SWAP2 SWAP1 POP JUMP JUMPDEST PUSH0 DUP2 SWAP1 POP SWAP2 SWAP1 POP JUMP JUMPDEST PUSH0 PUSH2 0x3B6C PUSH2 0x3B67 PUSH2 0x3B62 DUP5 PUSH2 0x3B49 JUMP JUMPDEST PUSH2 0x2D19 JUMP JUMPDEST PUSH2 0x2D8D JUMP JUMPDEST SWAP1 POP SWAP2 SWAP1 POP JUMP JUMPDEST PUSH2 0x3B7C DUP2 PUSH2 0x3B52 JUMP JUMPDEST DUP3 MSTORE POP POP JUMP JUMPDEST PUSH0 PUSH1 0xA0 DUP3 ADD SWAP1 POP DUP2 DUP2 SUB PUSH0 DUP4 ADD MSTORE PUSH2 0x3B99 DUP2 PUSH2 0x3B27 JUMP JUMPDEST SWAP1 POP PUSH2 0x3BA8 PUSH1 0x20 DUP4 ADD DUP8 PUSH2 0x3B73 JUMP JUMPDEST PUSH2 0x3BB5 PUSH1 0x40 DUP4 ADD DUP7 PUSH2 0x379F JUMP JUMPDEST PUSH2 0x3BC2 PUSH1 0x60 DUP4 ADD DUP6 PUSH2 0x37D8 JUMP JUMPDEST PUSH2 0x3BCF PUSH1 0x80 DUP4 ADD DUP5 PUSH2 0x37D8 JUMP JUMPDEST SWAP6 SWAP5 POP POP POP POP POP JUMP JUMPDEST PUSH32 0x4C6F7420636F756E742073686F756C6420696E6372656D656E74000000000000 PUSH0 DUP3 ADD MSTORE POP JUMP JUMPDEST PUSH0 PUSH2 0x3C0C PUSH1 0x1A DUP4 PUSH2 0x33CC JUMP JUMPDEST SWAP2 POP PUSH2 0x3C17 DUP3 PUSH2 0x3BD8 JUMP JUMPDEST PUSH1 0x20 DUP3 ADD SWAP1 POP SWAP2 SWAP1 POP JUMP JUMPDEST PUSH0 PUSH1 0x60 DUP3 ADD SWAP1 POP PUSH2 0x3C35 PUSH0 DUP4 ADD DUP6 PUSH2 0x33BD JUMP JUMPDEST PUSH2 0x3C42 PUSH1 0x20 DUP4 ADD DUP5 PUSH2 0x33BD JUMP JUMPDEST DUP2 DUP2 SUB PUSH1 0x40 DUP4 ADD MSTORE PUSH2 0x3C53 DUP2 PUSH2 0x3C00 JUMP JUMPDEST SWAP1 POP SWAP4 SWAP3 POP POP POP JUMP JUMPDEST PUSH32 0x4974656D20636F756E742073686F756C6420696E6372656D656E740000000000 PUSH0 DUP3 ADD MSTORE POP JUMP JUMPDEST PUSH0 PUSH2 0x3C90 PUSH1 0x1B DUP4 PUSH2 0x33CC JUMP JUMPDEST SWAP2 POP PUSH2 0x3C9B DUP3 PUSH2 0x3C5C JUMP JUMPDEST PUSH1 0x20 DUP3 ADD SWAP1 POP SWAP2 SWAP1 POP JUMP JUMPDEST PUSH0 PUSH1 0x60 DUP3 ADD SWAP1 POP PUSH2 0x3CB9 PUSH0 DUP4 ADD DUP6 PUSH2 0x33BD JUMP JUMPDEST PUSH2 0x3CC6 PUSH1 0x20 DUP4 ADD DUP5 PUSH2 0x33BD JUMP JUMPDEST DUP2 DUP2 SUB PUSH1 0x40 DUP4 ADD MSTORE PUSH2 0x3CD7 DUP2 PUSH2 0x3C84 JUMP JUMPDEST SWAP1 POP SWAP4 SWAP3 POP POP POP JUMP JUMPDEST PUSH0 DUP2 SWAP1 POP SWAP2 SWAP1 POP JUMP JUMPDEST PUSH0 PUSH2 0x3D03 PUSH2 0x3CFE PUSH2 0x3CF9 DUP5 PUSH2 0x3CE0 JUMP JUMPDEST PUSH2 0x2D19 JUMP JUMPDEST PUSH2 0x2D8D JUMP JUMPDEST SWAP1 POP SWAP2 SWAP1 POP JUMP JUMPDEST PUSH2 0x3D13 DUP2 PUSH2 0x3CE9 JUMP JUMPDEST DUP3 MSTORE POP POP JUMP JUMPDEST PUSH0 PUSH1 0x20 DUP3 ADD SWAP1 POP PUSH2 0x3D2C PUSH0 DUP4 ADD DUP5 PUSH2 0x3D0A JUMP JUMPDEST SWAP3 SWAP2 POP POP JUMP JUMPDEST PUSH2 0x3D3B DUP2 PUSH2 0x3B52 JUMP JUMPDEST DUP3 MSTORE POP POP JUMP JUMPDEST PUSH32 0x4C6F742049442073686F756C6420626520310000000000000000000000000000 PUSH0 DUP3 ADD MSTORE POP JUMP JUMPDEST PUSH0 PUSH2 0x3D75 PUSH1 0x12 DUP4 PUSH2 0x33CC JUMP JUMPDEST SWAP2 POP PUSH2 0x3D80 DUP3 PUSH2 0x3D41 JUMP JUMPDEST PUSH1 0x20 DUP3 ADD SWAP1 POP SWAP2 SWAP1 POP JUMP JUMPDEST PUSH0 PUSH1 0x60 DUP3 ADD SWAP1 POP PUSH2 0x3D9E PUSH0 DUP4 ADD DUP6 PUSH2 0x33BD JUMP JUMPDEST PUSH2 0x3DAB PUSH1 0x20 DUP4 ADD DUP5 PUSH2 0x3D32 JUMP JUMPDEST DUP2 DUP2 SUB PUSH1 0x40 DUP4 ADD MSTORE PUSH2 0x3DBC DUP2 PUSH2 0x3D69 JUMP JUMPDEST SWAP1 POP SWAP4 SWAP3 POP POP POP JUMP JUMPDEST PUSH32 0x4D61696E2057617265686F757365000000000000000000000000000000000000 PUSH0 DUP3 ADD MSTORE POP JUMP JUMPDEST PUSH0 PUSH2 0x3DF9 PUSH1 0xE DUP4 PUSH2 0x2E2F JUMP JUMPDEST SWAP2 POP PUSH2 0x3E04 DUP3 PUSH2 0x3DC5 JUMP JUMPDEST PUSH1 0x20 DUP3 ADD SWAP1 POP SWAP2 SWAP1 POP JUMP JUMPDEST PUSH32 0x53746F7261676500000000000000000000000000000000000000000000000000 PUSH0 DUP3 ADD MSTORE POP JUMP JUMPDEST PUSH0 PUSH2 0x3E43 PUSH1 0x7 DUP4 PUSH2 0x2E2F JUMP JUMPDEST SWAP2 POP PUSH2 0x3E4E DUP3 PUSH2 0x3E0F JUMP JUMPDEST PUSH1 0x20 DUP3 ADD SWAP1 POP SWAP2 SWAP1 POP JUMP JUMPDEST PUSH0 PUSH1 0x40 DUP3 ADD SWAP1 POP DUP2 DUP2 SUB PUSH0 DUP4 ADD MSTORE PUSH2 0x3E70 DUP2 PUSH2 0x3DED JUMP JUMPDEST SWAP1 POP DUP2 DUP2 SUB PUSH1 0x20 DUP4 ADD MSTORE PUSH2 0x3E83 DUP2 PUSH2 0x3E37 JUMP JUMPDEST SWAP1 POP SWAP2 SWAP1 POP JUMP JUMPDEST PUSH32 0x4C6F636174696F6E2049442073686F756C642062652031000000000000000000 PUSH0 DUP3 ADD MSTORE POP JUMP JUMPDEST PUSH0 PUSH2 0x3EBE PUSH1 0x17 DUP4 PUSH2 0x33CC JUMP JUMPDEST SWAP2 POP PUSH2 0x3EC9 DUP3 PUSH2 0x3E8A JUMP JUMPDEST PUSH1 0x20 DUP3 ADD SWAP1 POP SWAP2 SWAP1 POP JUMP JUMPDEST PUSH0 PUSH1 0x60 DUP3 ADD SWAP1 POP PUSH2 0x3EE7 PUSH0 DUP4 ADD DUP6 PUSH2 0x33BD JUMP JUMPDEST PUSH2 0x3EF4 PUSH1 0x20 DUP4 ADD DUP5 PUSH2 0x3D32 JUMP JUMPDEST DUP2 DUP2 SUB PUSH1 0x40 DUP4 ADD MSTORE PUSH2 0x3F05 DUP2 PUSH2 0x3EB2 JUMP JUMPDEST SWAP1 POP SWAP4 SWAP3 POP POP POP JUMP JUMPDEST PUSH0 DUP2 SWAP1 POP SWAP2 SWAP1 POP JUMP JUMPDEST PUSH0 PUSH2 0x3F31 PUSH2 0x3F2C PUSH2 0x3F27 DUP5 PUSH2 0x3F0E JUMP JUMPDEST PUSH2 0x2D19 JUMP JUMPDEST PUSH2 0x2D8D JUMP JUMPDEST SWAP1 POP SWAP2 SWAP1 POP JUMP JUMPDEST PUSH2 0x3F41 DUP2 PUSH2 0x3F17 JUMP JUMPDEST DUP3 MSTORE POP POP JUMP JUMPDEST PUSH0 PUSH1 0x20 DUP3 ADD SWAP1 POP PUSH2 0x3F5A PUSH0 DUP4 ADD DUP5 PUSH2 0x3F38 JUMP JUMPDEST SWAP3 SWAP2 POP POP JUMP JUMPDEST PUSH32 0x466163746F727900000000000000000000000000000000000000000000000000 PUSH0 DUP3 ADD MSTORE POP JUMP JUMPDEST PUSH0 PUSH2 0x3F94 PUSH1 0x7 DUP4 PUSH2 0x2E2F JUMP JUMPDEST SWAP2 POP PUSH2 0x3F9F DUP3 PUSH2 0x3F60 JUMP JUMPDEST PUSH1 0x20 DUP3 ADD SWAP1 POP SWAP2 SWAP1 POP JUMP JUMPDEST PUSH32 0x50726F64756374696F6E00000000000000000000000000000000000000000000 PUSH0 DUP3 ADD MSTORE POP JUMP JUMPDEST PUSH0 PUSH2 0x3FDE PUSH1 0xA DUP4 PUSH2 0x2E2F JUMP JUMPDEST SWAP2 POP PUSH2 0x3FE9 DUP3 PUSH2 0x3FAA JUMP JUMPDEST PUSH1 0x20 DUP3 ADD SWAP1 POP SWAP2 SWAP1 POP JUMP JUMPDEST PUSH0 PUSH1 0x40 DUP3 ADD SWAP1 POP DUP2 DUP2 SUB PUSH0 DUP4 ADD MSTORE PUSH2 0x400B DUP2 PUSH2 0x3F88 JUMP JUMPDEST SWAP1 POP DUP2 DUP2 SUB PUSH1 0x20 DUP4 ADD MSTORE PUSH2 0x401E DUP2 PUSH2 0x3FD2 JUMP JUMPDEST SWAP1 POP SWAP2 SWAP1 POP JUMP JUMPDEST PUSH32 0x50726F6475637400000000000000000000000000000000000000000000000000 PUSH0 DUP3 ADD MSTORE POP JUMP JUMPDEST PUSH0 PUSH2 0x4059 PUSH1 0x7 DUP4 PUSH2 0x2E2F JUMP JUMPDEST SWAP2 POP PUSH2 0x4064 DUP3 PUSH2 0x4025 JUMP JUMPDEST PUSH1 0x20 DUP3 ADD SWAP1 POP SWAP2 SWAP1 POP JUMP JUMPDEST PUSH0 PUSH1 0xA0 DUP3 ADD SWAP1 POP DUP2 DUP2 SUB PUSH0 DUP4 ADD MSTORE PUSH2 0x4086 DUP2 PUSH2 0x404D JUMP JUMPDEST SWAP1 POP PUSH2 0x4095 PUSH1 0x20 DUP4 ADD DUP8 PUSH2 0x2E89 JUMP JUMPDEST PUSH2 0x40A2 PUSH1 0x40 DUP4 ADD DUP7 PUSH2 0x379F JUMP JUMPDEST PUSH2 0x40AF PUSH1 0x60 DUP4 ADD DUP6 PUSH2 0x37D8 JUMP JUMPDEST PUSH2 0x40BC PUSH1 0x80 DUP4 ADD DUP5 PUSH2 0x2E89 JUMP JUMPDEST SWAP6 SWAP5 POP POP POP POP POP JUMP JUMPDEST PUSH0 DUP2 SWAP1 POP SWAP2 SWAP1 POP JUMP JUMPDEST PUSH0 PUSH2 0x40E8 PUSH2 0x40E3 PUSH2 0x40DE DUP5 PUSH2 0x40C5 JUMP JUMPDEST PUSH2 0x2D19 JUMP JUMPDEST PUSH2 0x2D8D JUMP JUMPDEST SWAP1 POP SWAP2 SWAP1 POP JUMP JUMPDEST PUSH2 0x40F8 DUP2 PUSH2 0x40CE JUMP JUMPDEST DUP3 MSTORE POP POP JUMP JUMPDEST PUSH32 0x54656368205465616D0000000000000000000000000000000000000000000000 PUSH0 DUP3 ADD MSTORE POP JUMP JUMPDEST PUSH0 PUSH2 0x4132 PUSH1 0x9 DUP4 PUSH2 0x2E2F JUMP JUMPDEST SWAP2 POP PUSH2 0x413D DUP3 PUSH2 0x40FE JUMP JUMPDEST PUSH1 0x20 DUP3 ADD SWAP1 POP SWAP2 SWAP1 POP JUMP JUMPDEST PUSH0 PUSH1 0x80 DUP3 ADD SWAP1 POP PUSH2 0x415B PUSH0 DUP4 ADD DUP7 PUSH2 0x40EF JUMP JUMPDEST DUP2 DUP2 SUB PUSH1 0x20 DUP4 ADD MSTORE PUSH2 0x416C DUP2 PUSH2 0x4126 JUMP JUMPDEST SWAP1 POP PUSH2 0x417B PUSH1 0x40 DUP4 ADD DUP6 PUSH2 0x2E89 JUMP JUMPDEST PUSH2 0x4188 PUSH1 0x60 DUP4 ADD DUP5 PUSH2 0x2E89 JUMP JUMPDEST SWAP5 SWAP4 POP POP POP POP JUMP JUMPDEST PUSH1 0x4 DUP2 LT PUSH2 0x41A1 JUMPI PUSH2 0x41A0 PUSH2 0x2F46 JUMP JUMPDEST JUMPDEST POP JUMP JUMPDEST PUSH0 DUP2 SWAP1 POP PUSH2 0x41B1 DUP3 PUSH2 0x4190 JUMP JUMPDEST SWAP2 SWAP1 POP JUMP JUMPDEST PUSH0 PUSH2 0x41C0 DUP3 PUSH2 0x41A4 JUMP JUMPDEST SWAP1 POP SWAP2 SWAP1 POP JUMP JUMPDEST PUSH2 0x41D0 DUP2 PUSH2 0x41B6 JUMP JUMPDEST DUP3 MSTORE POP POP JUMP JUMPDEST PUSH0 PUSH1 0xA0 DUP3 ADD SWAP1 POP PUSH2 0x41E9 PUSH0 DUP4 ADD DUP9 PUSH2 0x41C7 JUMP JUMPDEST PUSH2 0x41F6 PUSH1 0x20 DUP4 ADD DUP8 PUSH2 0x2E89 JUMP JUMPDEST PUSH2 0x4203 PUSH1 0x40 DUP4 ADD DUP7 PUSH2 0x2E89 JUMP JUMPDEST PUSH2 0x4210 PUSH1 0x60 DUP4 ADD DUP6 PUSH2 0x2E89 JUMP JUMPDEST PUSH2 0x421D PUSH1 0x80 DUP4 ADD DUP5 PUSH2 0x2E89 JUMP JUMPDEST SWAP7 SWAP6 POP POP POP POP POP POP JUMP JUMPDEST PUSH32 0x4C6F74206E6F7465000000000000000000000000000000000000000000000000 PUSH0 DUP3 ADD MSTORE POP JUMP JUMPDEST PUSH0 PUSH2 0x425B PUSH1 0x8 DUP4 PUSH2 0x2E2F JUMP JUMPDEST SWAP2 POP PUSH2 0x4266 DUP3 PUSH2 0x4227 JUMP JUMPDEST PUSH1 0x20 DUP3 ADD SWAP1 POP SWAP2 SWAP1 POP JUMP JUMPDEST PUSH0 PUSH1 0x20 DUP3 ADD SWAP1 POP DUP2 DUP2 SUB PUSH0 DUP4 ADD MSTORE PUSH2 0x4288 DUP2 PUSH2 0x424F JUMP JUMPDEST SWAP1 POP SWAP2 SWAP1 POP JUMP JUMPDEST PUSH32 0x4C6F636174696F6E206E6F746500000000000000000000000000000000000000 PUSH0 DUP3 ADD MSTORE POP JUMP JUMPDEST PUSH0 PUSH2 0x42C3 PUSH1 0xD DUP4 PUSH2 0x2E2F JUMP JUMPDEST SWAP2 POP PUSH2 0x42CE DUP3 PUSH2 0x428F JUMP JUMPDEST PUSH1 0x20 DUP3 ADD SWAP1 POP SWAP2 SWAP1 POP JUMP JUMPDEST PUSH0 PUSH1 0x20 DUP3 ADD SWAP1 POP DUP2 DUP2 SUB PUSH0 DUP4 ADD MSTORE PUSH2 0x42F0 DUP2 PUSH2 0x42B7 JUMP JUMPDEST SWAP1 POP SWAP2 SWAP1 POP JUMP JUMPDEST PUSH32 0x4974656D206E6F74650000000000000000000000000000000000000000000000 PUSH0 DUP3 ADD MSTORE POP JUMP JUMPDEST PUSH0 PUSH2 0x432B PUSH1 0x9 DUP4 PUSH2 0x2E2F JUMP JUMPDEST SWAP2 POP PUSH2 0x4336 DUP3 PUSH2 0x42F7 JUMP JUMPDEST PUSH1 0x20 DUP3 ADD SWAP1 POP SWAP2 SWAP1 POP JUMP JUMPDEST PUSH0 PUSH1 0x20 DUP3 ADD SWAP1 POP DUP2 DUP2 SUB PUSH0 DUP4 ADD MSTORE PUSH2 0x4358 DUP2 PUSH2 0x431F JUMP JUMPDEST SWAP1 POP SWAP2 SWAP1 POP JUMP JUMPDEST PUSH32 0x53657276696365206E6F74650000000000000000000000000000000000000000 PUSH0 DUP3 ADD MSTORE POP JUMP JUMPDEST PUSH0 PUSH2 0x4393 PUSH1 0xC DUP4 PUSH2 0x2E2F JUMP JUMPDEST SWAP2 POP PUSH2 0x439E DUP3 PUSH2 0x435F JUMP JUMPDEST PUSH1 0x20 DUP3 ADD SWAP1 POP SWAP2 SWAP1 POP JUMP JUMPDEST PUSH0 PUSH1 0x20 DUP3 ADD SWAP1 POP DUP2 DUP2 SUB PUSH0 DUP4 ADD MSTORE PUSH2 0x43C0 DUP2 PUSH2 0x4387 JUMP JUMPDEST SWAP1 POP SWAP2 SWAP1 POP JUMP JUMPDEST PUSH32 0x50726F63657373206E6F74650000000000000000000000000000000000000000 PUSH0 DUP3 ADD MSTORE POP JUMP JUMPDEST PUSH0 PUSH2 0x43FB PUSH1 0xC DUP4 PUSH2 0x2E2F JUMP JUMPDEST SWAP2 POP PUSH2 0x4406 DUP3 PUSH2 0x43C7 JUMP JUMPDEST PUSH1 0x20 DUP3 ADD SWAP1 POP SWAP2 SWAP1 POP JUMP JUMPDEST PUSH0 PUSH1 0x20 DUP3 ADD SWAP1 POP DUP2 DUP2 SUB PUSH0 DUP4 ADD MSTORE PUSH2 0x4428 DUP2 PUSH2 0x43EF JUMP JUMPDEST SWAP1 POP SWAP2 SWAP1 POP JUMP JUMPDEST PUSH32 0x4E487B7100000000000000000000000000000000000000000000000000000000 PUSH0 MSTORE PUSH1 0x32 PUSH1 0x4 MSTORE PUSH1 0x24 PUSH0 REVERT JUMPDEST PUSH0 PUSH1 0x60 DUP3 ADD SWAP1 POP PUSH2 0x446F PUSH0 DUP4 ADD DUP7 PUSH2 0x2FAA JUMP JUMPDEST PUSH2 0x447C PUSH1 0x20 DUP4 ADD DUP6 PUSH2 0x2E89 JUMP JUMPDEST PUSH2 0x4489 PUSH1 0x40 DUP4 ADD DUP5 PUSH2 0x2E89 JUMP JUMPDEST SWAP5 SWAP4 POP POP POP POP JUMP JUMPDEST PUSH0 PUSH8 0xFFFFFFFFFFFFFFFF DUP3 GT ISZERO PUSH2 0x44AB JUMPI PUSH2 0x44AA PUSH2 0x2FF8 JUMP JUMPDEST JUMPDEST PUSH1 0x20 DUP3 MUL SWAP1 POP PUSH1 0x20 DUP2 ADD SWAP1 POP SWAP2 SWAP1 POP JUMP JUMPDEST PUSH0 PUSH0 REVERT JUMPDEST PUSH0 PUSH2 0x44D2 PUSH2 0x44CD DUP5 PUSH2 0x4491 JUMP JUMPDEST PUSH2 0x3056 JUMP JUMPDEST SWAP1 POP DUP1 DUP4 DUP3 MSTORE PUSH1 0x20 DUP3 ADD SWAP1 POP PUSH1 0x20 DUP5 MUL DUP4 ADD DUP6 DUP2 GT ISZERO PUSH2 0x44F5 JUMPI PUSH2 0x44F4 PUSH2 0x44BC JUMP JUMPDEST JUMPDEST DUP4 JUMPDEST DUP2 DUP2 LT ISZERO PUSH2 0x451E JUMPI DUP1 PUSH2 0x450A DUP9 DUP3 PUSH2 0x2F07 JUMP JUMPDEST DUP5 MSTORE PUSH1 0x20 DUP5 ADD SWAP4 POP POP PUSH1 0x20 DUP2 ADD SWAP1 POP PUSH2 0x44F7 JUMP JUMPDEST POP POP POP SWAP4 SWAP3 POP POP POP JUMP JUMPDEST PUSH0 DUP3 PUSH1 0x1F DUP4 ADD SLT PUSH2 0x453C JUMPI PUSH2 0x453B PUSH2 0x2FE0 JUMP JUMPDEST JUMPDEST DUP2 MLOAD PUSH2 0x454C DUP5 DUP3 PUSH1 0x20 DUP7 ADD PUSH2 0x44C0 JUMP JUMPDEST SWAP2 POP POP SWAP3 SWAP2 POP POP JUMP JUMPDEST PUSH0 PUSH1 0x20 DUP3 DUP5 SUB SLT ISZERO PUSH2 0x456A JUMPI PUSH2 0x4569 PUSH2 0x2EE9 JUMP JUMPDEST JUMPDEST PUSH0 DUP3 ADD MLOAD PUSH8 0xFFFFFFFFFFFFFFFF DUP2 GT ISZERO PUSH2 0x4587 JUMPI PUSH2 0x4586 PUSH2 0x2EED JUMP JUMPDEST JUMPDEST PUSH2 0x4593 DUP5 DUP3 DUP6 ADD PUSH2 0x4528 JUMP JUMPDEST SWAP2 POP POP SWAP3 SWAP2 POP POP JUMP JUMPDEST PUSH32 0x5265736F757263652073686F756C6420686176652031206E6F74650000000000 PUSH0 DUP3 ADD MSTORE POP JUMP JUMPDEST PUSH0 PUSH2 0x45D0 PUSH1 0x1B DUP4 PUSH2 0x33CC JUMP JUMPDEST SWAP2 POP PUSH2 0x45DB DUP3 PUSH2 0x459C JUMP JUMPDEST PUSH1 0x20 DUP3 ADD SWAP1 POP SWAP2 SWAP1 POP JUMP JUMPDEST PUSH0 PUSH1 0x60 DUP3 ADD SWAP1 POP PUSH2 0x45F9 PUSH0 DUP4 ADD DUP6 PUSH2 0x33BD JUMP JUMPDEST PUSH2 0x4606 PUSH1 0x20 DUP4 ADD DUP5 PUSH2 0x3D32 JUMP JUMPDEST DUP2 DUP2 SUB PUSH1 0x40 DUP4 ADD MSTORE PUSH2 0x4617 DUP2 PUSH2 0x45C4 JUMP JUMPDEST SWAP1 POP SWAP4 SWAP3 POP POP POP JUMP JUMPDEST PUSH32 0x4E6F7465204944206D69736D6174636800000000000000000000000000000000 PUSH0 DUP3 ADD MSTORE POP JUMP JUMPDEST PUSH0 PUSH2 0x4654 PUSH1 0x10 DUP4 PUSH2 0x33CC JUMP JUMPDEST SWAP2 POP PUSH2 0x465F DUP3 PUSH2 0x4620 JUMP JUMPDEST PUSH1 0x20 DUP3 ADD SWAP1 POP SWAP2 SWAP1 POP JUMP JUMPDEST PUSH0 PUSH1 0x60 DUP3 ADD SWAP1 POP PUSH2 0x467D PUSH0 DUP4 ADD DUP6 PUSH2 0x33BD JUMP JUMPDEST PUSH2 0x468A PUSH1 0x20 DUP4 ADD DUP5 PUSH2 0x33BD JUMP JUMPDEST DUP2 DUP2 SUB PUSH1 0x40 DUP4 ADD MSTORE PUSH2 0x469B DUP2 PUSH2 0x4648 JUMP JUMPDEST SWAP1 POP SWAP4 SWAP3 POP POP POP JUMP JUMPDEST PUSH0 PUSH0 PUSH0 PUSH0 PUSH1 0x80 DUP6 DUP8 SUB SLT ISZERO PUSH2 0x46BC JUMPI PUSH2 0x46BB PUSH2 0x2EE9 JUMP JUMPDEST JUMPDEST PUSH0 PUSH2 0x46C9 DUP8 DUP3 DUP9 ADD PUSH2 0x2F07 JUMP JUMPDEST SWAP5 POP POP PUSH1 0x20 DUP6 ADD MLOAD PUSH8 0xFFFFFFFFFFFFFFFF DUP2 GT ISZERO PUSH2 0x46EA JUMPI PUSH2 0x46E9 PUSH2 0x2EED JUMP JUMPDEST JUMPDEST PUSH2 0x46F6 DUP8 DUP3 DUP9 ADD PUSH2 0x31FF JUMP JUMPDEST SWAP4 POP POP PUSH1 0x40 PUSH2 0x4707 DUP8 DUP3 DUP9 ADD PUSH2 0x2F07 JUMP JUMPDEST SWAP3 POP POP PUSH1 0x60 PUSH2 0x4718 DUP8 DUP3 DUP9 ADD PUSH2 0x3253 JUMP JUMPDEST SWAP2 POP POP SWAP3 SWAP6 SWAP2 SWAP5 POP SWAP3 POP JUMP JUMPDEST PUSH2 0x472D DUP2 PUSH2 0x3486 JUMP JUMPDEST DUP3 MSTORE POP POP JUMP JUMPDEST PUSH32 0x4E6F746520636F6E74656E742073686F756C6420657869737400000000000000 PUSH0 DUP3 ADD MSTORE POP JUMP JUMPDEST PUSH0 PUSH2 0x4767 PUSH1 0x19 DUP4 PUSH2 0x33CC JUMP JUMPDEST SWAP2 POP PUSH2 0x4772 DUP3 PUSH2 0x4733 JUMP JUMPDEST PUSH1 0x20 DUP3 ADD SWAP1 POP SWAP2 SWAP1 POP JUMP JUMPDEST PUSH0 PUSH1 0x40 DUP3 ADD SWAP1 POP PUSH2 0x4790 PUSH0 DUP4 ADD DUP5 PUSH2 0x4724 JUMP JUMPDEST DUP2 DUP2 SUB PUSH1 0x20 DUP4 ADD MSTORE PUSH2 0x47A1 DUP2 PUSH2 0x475B JUMP JUMPDEST SWAP1 POP SWAP3 SWAP2 POP POP JUMP JUMPDEST PUSH0 PUSH1 0x20 DUP3 ADD SWAP1 POP PUSH2 0x47BC PUSH0 DUP4 ADD DUP5 PUSH2 0x2E20 JUMP JUMPDEST SWAP3 SWAP2 POP POP JUMP JUMPDEST PUSH32 0x5374617274000000000000000000000000000000000000000000000000000000 PUSH0 DUP3 ADD MSTORE POP JUMP JUMPDEST PUSH0 PUSH2 0x47F6 PUSH1 0x5 DUP4 PUSH2 0x2E2F JUMP JUMPDEST SWAP2 POP PUSH2 0x4801 DUP3 PUSH2 0x47C2 JUMP JUMPDEST PUSH1 0x20 DUP3 ADD SWAP1 POP SWAP2 SWAP1 POP JUMP JUMPDEST PUSH32 0x446F636B00000000000000000000000000000000000000000000000000000000 PUSH0 DUP3 ADD MSTORE POP JUMP JUMPDEST PUSH0 PUSH2 0x4840 PUSH1 0x4 DUP4 PUSH2 0x2E2F JUMP JUMPDEST SWAP2 POP PUSH2 0x484B DUP3 PUSH2 0x480C JUMP JUMPDEST PUSH1 0x20 DUP3 ADD SWAP1 POP SWAP2 SWAP1 POP JUMP JUMPDEST PUSH0 PUSH1 0x40 DUP3 ADD SWAP1 POP DUP2 DUP2 SUB PUSH0 DUP4 ADD MSTORE PUSH2 0x486D DUP2 PUSH2 0x47EA JUMP JUMPDEST SWAP1 POP DUP2 DUP2 SUB PUSH1 0x20 DUP4 ADD MSTORE PUSH2 0x4880 DUP2 PUSH2 0x4834 JUMP JUMPDEST SWAP1 POP SWAP2 SWAP1 POP JUMP JUMPDEST PUSH32 0x456E640000000000000000000000000000000000000000000000000000000000 PUSH0 DUP3 ADD MSTORE POP JUMP JUMPDEST PUSH0 PUSH2 0x48BB PUSH1 0x3 DUP4 PUSH2 0x2E2F JUMP JUMPDEST SWAP2 POP PUSH2 0x48C6 DUP3 PUSH2 0x4887 JUMP JUMPDEST PUSH1 0x20 DUP3 ADD SWAP1 POP SWAP2 SWAP1 POP JUMP JUMPDEST PUSH32 0x57617265686F7573650000000000000000000000000000000000000000000000 PUSH0 DUP3 ADD MSTORE POP JUMP JUMPDEST PUSH0 PUSH2 0x4905 PUSH1 0x9 DUP4 PUSH2 0x2E2F JUMP JUMPDEST SWAP2 POP PUSH2 0x4910 DUP3 PUSH2 0x48D1 JUMP JUMPDEST PUSH1 0x20 DUP3 ADD SWAP1 POP SWAP2 SWAP1 POP JUMP JUMPDEST PUSH0 PUSH1 0x40 DUP3 ADD SWAP1 POP DUP2 DUP2 SUB PUSH0 DUP4 ADD MSTORE PUSH2 0x4932 DUP2 PUSH2 0x48AF JUMP JUMPDEST SWAP1 POP DUP2 DUP2 SUB PUSH1 0x20 DUP4 ADD MSTORE PUSH2 0x4945 DUP2 PUSH2 0x48F9 JUMP JUMPDEST SWAP1 POP SWAP2 SWAP1 POP JUMP JUMPDEST PUSH32 0x426F780000000000000000000000000000000000000000000000000000000000 PUSH0 DUP3 ADD MSTORE POP JUMP JUMPDEST PUSH0 PUSH2 0x4980 PUSH1 0x3 DUP4 PUSH2 0x2E2F JUMP JUMPDEST SWAP2 POP PUSH2 0x498B DUP3 PUSH2 0x494C JUMP JUMPDEST PUSH1 0x20 DUP3 ADD SWAP1 POP SWAP2 SWAP1 POP JUMP JUMPDEST PUSH0 PUSH1 0xA0 DUP3 ADD SWAP1 POP DUP2 DUP2 SUB PUSH0 DUP4 ADD MSTORE PUSH2 0x49AD DUP2 PUSH2 0x4974 JUMP JUMPDEST SWAP1 POP PUSH2 0x49BC PUSH1 0x20 DUP4 ADD DUP8 PUSH2 0x2E89 JUMP JUMPDEST PUSH2 0x49C9 PUSH1 0x40 DUP4 ADD DUP7 PUSH2 0x379F JUMP JUMPDEST PUSH2 0x49D6 PUSH1 0x60 DUP4 ADD DUP6 PUSH2 0x37D8 JUMP JUMPDEST PUSH2 0x49E3 PUSH1 0x80 DUP4 ADD DUP5 PUSH2 0x2E89 JUMP JUMPDEST SWAP6 SWAP5 POP POP POP POP POP JUMP JUMPDEST PUSH0 PUSH1 0x40 DUP3 ADD SWAP1 POP PUSH2 0x49FF PUSH0 DUP4 ADD DUP6 PUSH2 0x2E89 JUMP JUMPDEST PUSH2 0x4A0C PUSH1 0x20 DUP4 ADD DUP5 PUSH2 0x2E89 JUMP JUMPDEST SWAP4 SWAP3 POP POP POP JUMP JUMPDEST PUSH32 0x50726F636573732073686F756C6420686176652031206974656D000000000000 PUSH0 DUP3 ADD MSTORE POP JUMP JUMPDEST PUSH0 PUSH2 0x4A47 PUSH1 0x1A DUP4 PUSH2 0x33CC JUMP JUMPDEST SWAP2 POP PUSH2 0x4A52 DUP3 PUSH2 0x4A13 JUMP JUMPDEST PUSH1 0x20 DUP3 ADD SWAP1 POP SWAP2 SWAP1 POP JUMP JUMPDEST PUSH0 PUSH1 0x60 DUP3 ADD SWAP1 POP PUSH2 0x4A70 PUSH0 DUP4 ADD DUP6 PUSH2 0x33BD JUMP JUMPDEST PUSH2 0x4A7D PUSH1 0x20 DUP4 ADD DUP5 PUSH2 0x3D32 JUMP JUMPDEST DUP2 DUP2 SUB PUSH1 0x40 DUP4 ADD MSTORE PUSH2 0x4A8E DUP2 PUSH2 0x4A3B JUMP JUMPDEST SWAP1 POP SWAP4 SWAP3 POP POP POP JUMP JUMPDEST PUSH1 0x4 DUP2 LT PUSH2 0x4AA3 JUMPI PUSH0 PUSH0 REVERT JUMPDEST POP JUMP JUMPDEST PUSH0 DUP2 MLOAD SWAP1 POP PUSH2 0x4AB4 DUP2 PUSH2 0x4A97 JUMP JUMPDEST SWAP3 SWAP2 POP POP JUMP JUMPDEST PUSH1 0x3 DUP2 LT PUSH2 0x4AC6 JUMPI PUSH0 PUSH0 REVERT JUMPDEST POP JUMP JUMPDEST PUSH0 DUP2 MLOAD SWAP1 POP PUSH2 0x4AD7 DUP2 PUSH2 0x4ABA JUMP JUMPDEST SWAP3 SWAP2 POP POP JUMP JUMPDEST PUSH0 PUSH2 0x160 DUP3 DUP5 SUB SLT ISZERO PUSH2 0x4AF3 JUMPI PUSH2 0x4AF2 PUSH2 0x3163 JUMP JUMPDEST JUMPDEST PUSH2 0x4AFE PUSH2 0x160 PUSH2 0x3056 JUMP JUMPDEST SWAP1 POP PUSH0 PUSH2 0x4B0D DUP5 DUP3 DUP6 ADD PUSH2 0x2F07 JUMP JUMPDEST PUSH0 DUP4 ADD MSTORE POP PUSH1 0x20 PUSH2 0x4B20 DUP5 DUP3 DUP6 ADD PUSH2 0x4AA6 JUMP JUMPDEST PUSH1 0x20 DUP4 ADD MSTORE POP PUSH1 0x40 PUSH2 0x4B34 DUP5 DUP3 DUP6 ADD PUSH2 0x4AC9 JUMP JUMPDEST PUSH1 0x40 DUP4 ADD MSTORE POP PUSH1 0x60 PUSH2 0x4B48 DUP5 DUP3 DUP6 ADD PUSH2 0x2F07 JUMP JUMPDEST PUSH1 0x60 DUP4 ADD MSTORE POP PUSH1 0x80 PUSH2 0x4B5C DUP5 DUP3 DUP6 ADD PUSH2 0x2F07 JUMP JUMPDEST PUSH1 0x80 DUP4 ADD MSTORE POP PUSH1 0xA0 PUSH2 0x4B70 DUP5 DUP3 DUP6 ADD PUSH2 0x2F07 JUMP JUMPDEST PUSH1 0xA0 DUP4 ADD MSTORE POP PUSH1 0xC0 PUSH2 0x4B84 DUP5 DUP3 DUP6 ADD PUSH2 0x2F07 JUMP JUMPDEST PUSH1 0xC0 DUP4 ADD MSTORE POP PUSH1 0xE0 PUSH2 0x4B98 DUP5 DUP3 DUP6 ADD PUSH2 0x2F07 JUMP JUMPDEST PUSH1 0xE0 DUP4 ADD MSTORE POP PUSH2 0x100 PUSH2 0x4BAD DUP5 DUP3 DUP6 ADD PUSH2 0x2F07 JUMP JUMPDEST PUSH2 0x100 DUP4 ADD MSTORE POP PUSH2 0x120 PUSH2 0x4BC3 DUP5 DUP3 DUP6 ADD PUSH2 0x2F07 JUMP JUMPDEST PUSH2 0x120 DUP4 ADD MSTORE POP PUSH2 0x140 PUSH2 0x4BD9 DUP5 DUP3 DUP6 ADD PUSH2 0x3253 JUMP JUMPDEST PUSH2 0x140 DUP4 ADD MSTORE POP SWAP3 SWAP2 POP POP JUMP JUMPDEST PUSH0 PUSH2 0x160 DUP3 DUP5 SUB SLT ISZERO PUSH2 0x4BFC JUMPI PUSH2 0x4BFB PUSH2 0x2EE9 JUMP JUMPDEST JUMPDEST PUSH0 PUSH2 0x4C09 DUP5 DUP3 DUP6 ADD PUSH2 0x4ADD JUMP JUMPDEST SWAP2 POP POP SWAP3 SWAP2 POP POP JUMP JUMPDEST PUSH32 0x50726F636573732073686F756C6420626520496E50726F677265737300000000 PUSH0 DUP3 ADD MSTORE POP JUMP JUMPDEST PUSH0 PUSH2 0x4C46 PUSH1 0x1C DUP4 PUSH2 0x33CC JUMP JUMPDEST SWAP2 POP PUSH2 0x4C51 DUP3 PUSH2 0x4C12 JUMP JUMPDEST PUSH1 0x20 DUP3 ADD SWAP1 POP SWAP2 SWAP1 POP JUMP JUMPDEST PUSH0 PUSH1 0x60 DUP3 ADD SWAP1 POP PUSH2 0x4C6F PUSH0 DUP4 ADD DUP6 PUSH2 0x33BD JUMP JUMPDEST PUSH2 0x4C7C PUSH1 0x20 DUP4 ADD DUP5 PUSH2 0x33BD JUMP JUMPDEST DUP2 DUP2 SUB PUSH1 0x40 DUP4 ADD MSTORE PUSH2 0x4C8D DUP2 PUSH2 0x4C3A JUMP JUMPDEST SWAP1 POP SWAP4 SWAP3 POP POP POP JUMP JUMPDEST PUSH32 0x50726F636573732073686F756C6420626520436F6D706C657465640000000000 PUSH0 DUP3 ADD MSTORE POP JUMP JUMPDEST PUSH0 PUSH2 0x4CCA PUSH1 0x1B DUP4 PUSH2 0x33CC JUMP JUMPDEST SWAP2 POP PUSH2 0x4CD5 DUP3 PUSH2 0x4C96 JUMP JUMPDEST PUSH1 0x20 DUP3 ADD SWAP1 POP SWAP2 SWAP1 POP JUMP JUMPDEST PUSH0 PUSH1 0x60 DUP3 ADD SWAP1 POP PUSH2 0x4CF3 PUSH0 DUP4 ADD DUP6 PUSH2 0x33BD JUMP JUMPDEST PUSH2 0x4D00 PUSH1 0x20 DUP4 ADD DUP5 PUSH2 0x33BD JUMP JUMPDEST DUP2 DUP2 SUB PUSH1 0x40 DUP4 ADD MSTORE PUSH2 0x4D11 DUP2 PUSH2 0x4CBE JUMP JUMPDEST SWAP1 POP SWAP4 SWAP3 POP POP POP JUMP JUMPDEST PUSH0 DUP2 SWAP1 POP SWAP2 SWAP1 POP JUMP JUMPDEST PUSH0 PUSH2 0x4D3D PUSH2 0x4D38 PUSH2 0x4D33 DUP5 PUSH2 0x4D1A JUMP JUMPDEST PUSH2 0x2D19 JUMP JUMPDEST PUSH2 0x2D8D JUMP JUMPDEST SWAP1 POP SWAP2 SWAP1 POP JUMP JUMPDEST PUSH2 0x4D4D DUP2 PUSH2 0x4D23 JUMP JUMPDEST DUP3 MSTORE POP POP JUMP JUMPDEST PUSH0 PUSH1 0x20 DUP3 ADD SWAP1 POP PUSH2 0x4D66 PUSH0 DUP4 ADD DUP5 PUSH2 0x4D44 JUMP JUMPDEST SWAP3 SWAP2 POP POP JUMP JUMPDEST PUSH32 0x4669727374206E6F746500000000000000000000000000000000000000000000 PUSH0 DUP3 ADD MSTORE POP JUMP JUMPDEST PUSH0 PUSH2 0x4DA0 PUSH1 0xA DUP4 PUSH2 0x2E2F JUMP JUMPDEST SWAP2 POP PUSH2 0x4DAB DUP3 PUSH2 0x4D6C JUMP JUMPDEST PUSH1 0x20 DUP3 ADD SWAP1 POP SWAP2 SWAP1 POP JUMP JUMPDEST PUSH0 PUSH1 0x20 DUP3 ADD SWAP1 POP DUP2 DUP2 SUB PUSH0 DUP4 ADD MSTORE PUSH2 0x4DCD DUP2 PUSH2 0x4D94 JUMP JUMPDEST SWAP1 POP SWAP2 SWAP1 POP JUMP JUMPDEST PUSH32 0x5365636F6E64206E6F7465000000000000000000000000000000000000000000 PUSH0 DUP3 ADD MSTORE POP JUMP JUMPDEST PUSH0 PUSH2 0x4E08 PUSH1 0xB DUP4 PUSH2 0x2E2F JUMP JUMPDEST SWAP2 POP PUSH2 0x4E13 DUP3 PUSH2 0x4DD4 JUMP JUMPDEST PUSH1 0x20 DUP3 ADD SWAP1 POP SWAP2 SWAP1 POP JUMP JUMPDEST PUSH0 PUSH1 0x20 DUP3 ADD SWAP1 POP DUP2 DUP2 SUB PUSH0 DUP4 ADD MSTORE PUSH2 0x4E35 DUP2 PUSH2 0x4DFC JUMP JUMPDEST SWAP1 POP SWAP2 SWAP1 POP JUMP JUMPDEST PUSH32 0x5468697264206E6F746500000000000000000000000000000000000000000000 PUSH0 DUP3 ADD MSTORE POP JUMP JUMPDEST PUSH0 PUSH2 0x4E70 PUSH1 0xA DUP4 PUSH2 0x2E2F JUMP JUMPDEST SWAP2 POP PUSH2 0x4E7B DUP3 PUSH2 0x4E3C JUMP JUMPDEST PUSH1 0x20 DUP3 ADD SWAP1 POP SWAP2 SWAP1 POP JUMP JUMPDEST PUSH0 PUSH1 0x20 DUP3 ADD SWAP1 POP DUP2 DUP2 SUB PUSH0 DUP4 ADD MSTORE PUSH2 0x4E9D DUP2 PUSH2 0x4E64 JUMP JUMPDEST SWAP1 POP SWAP2 SWAP1 POP JUMP JUMPDEST PUSH0 DUP2 SWAP1 POP SWAP2 SWAP1 POP JUMP JUMPDEST PUSH0 PUSH2 0x4EC7 PUSH2 0x4EC2 PUSH2 0x4EBD DUP5 PUSH2 0x4EA4 JUMP JUMPDEST PUSH2 0x2D19 JUMP JUMPDEST PUSH2 0x2D8D JUMP JUMPDEST SWAP1 POP SWAP2 SWAP1 POP JUMP JUMPDEST PUSH2 0x4ED7 DUP2 PUSH2 0x4EAD JUMP JUMPDEST DUP3 MSTORE POP POP JUMP JUMPDEST PUSH32 0x53686F756C6420686176652033206E6F74657300000000000000000000000000 PUSH0 DUP3 ADD MSTORE POP JUMP JUMPDEST PUSH0 PUSH2 0x4F11 PUSH1 0x13 DUP4 PUSH2 0x33CC JUMP JUMPDEST SWAP2 POP PUSH2 0x4F1C DUP3 PUSH2 0x4EDD JUMP JUMPDEST PUSH1 0x20 DUP3 ADD SWAP1 POP SWAP2 SWAP1 POP JUMP JUMPDEST PUSH0 PUSH1 0x60 DUP3 ADD SWAP1 POP PUSH2 0x4F3A PUSH0 DUP4 ADD DUP6 PUSH2 0x33BD JUMP JUMPDEST PUSH2 0x4F47 PUSH1 0x20 DUP4 ADD DUP5 PUSH2 0x4ECE JUMP JUMPDEST DUP2 DUP2 SUB PUSH1 0x40 DUP4 ADD MSTORE PUSH2 0x4F58 DUP2 PUSH2 0x4F05 JUMP JUMPDEST SWAP1 POP SWAP4 SWAP3 POP POP POP JUMP INVALID PUSH1 0x80 PUSH1 0x40 MSTORE PUSH1 0x1 PUSH0 SSTORE PUSH1 0x1 DUP1 SSTORE PUSH1 0x1 PUSH1 0x2 SSTORE PUSH1 0x1 PUSH1 0x3 SSTORE PUSH1 0x1 PUSH1 0x4 SSTORE PUSH1 0x1 PUSH1 0x5 SSTORE CALLVALUE DUP1 ISZERO PUSH2 0x2B JUMPI PUSH0 PUSH0 REVERT JUMPDEST POP CALLER PUSH1 0x16 PUSH0 PUSH2 0x100 EXP DUP2 SLOAD DUP2 PUSH20 0xFFFFFFFFFFFFFFFFFFFFFFFFFFFFFFFFFFFFFFFF MUL NOT AND SWAP1 DUP4 PUSH20 0xFFFFFFFFFFFFFFFFFFFFFFFFFFFFFFFFFFFFFFFF AND MUL OR SWAP1 SSTORE POP PUSH0 PUSH0 SWAP1 POP JUMPDEST PUSH1 0x5 DUP1 DUP2 GT ISZERO PUSH2 0x84 JUMPI PUSH2 0x83 PUSH2 0x15E JUMP JUMPDEST JUMPDEST DUP2 GT PUSH2 0x158 JUMPI PUSH1 0x1 PUSH1 0x15 PUSH0 PUSH1 0x16 PUSH0 SWAP1 SLOAD SWAP1 PUSH2 0x100 EXP SWAP1 DIV PUSH20 0xFFFFFFFFFFFFFFFFFFFFFFFFFFFFFFFFFFFFFFFF AND PUSH20 0xFFFFFFFFFFFFFFFFFFFFFFFFFFFFFFFFFFFFFFFF AND PUSH20 0xFFFFFFFFFFFFFFFFFFFFFFFFFFFFFFFFFFFFFFFF AND DUP2 MSTORE PUSH1 0x20 ADD SWAP1 DUP2 MSTORE PUSH1 0x20 ADD PUSH0 KECCAK256 PUSH0 DUP4 PUSH1 0x5 DUP2 GT ISZERO PUSH2 0xFE JUMPI PUSH2 0xFD PUSH2 0x15E JUMP JUMPDEST JUMPDEST PUSH1 0x5 DUP2 GT ISZERO PUSH2 0x110 JUMPI PUSH2 0x10F PUSH2 0x15E JUMP JUMPDEST JUMPDEST PUSH1 0x5 DUP2 GT ISZERO PUSH2 0x122 JUMPI PUSH2 0x121 PUSH2 0x15E JUMP JUMPDEST JUMPDEST DUP2 MSTORE PUSH1 0x20 ADD SWAP1 DUP2 MSTORE PUSH1 0x20 ADD PUSH0 KECCAK256 PUSH0 PUSH2 0x100 EXP DUP2 SLOAD DUP2 PUSH1 0xFF MUL NOT AND SWAP1 DUP4 ISZERO ISZERO MUL OR SWAP1 SSTORE POP DUP1 DUP1 PUSH2 0x150 SWAP1 PUSH2 0x1C1 JUMP JUMPDEST SWAP2 POP POP PUSH2 0x71 JUMP JUMPDEST POP PUSH2 0x208 JUMP JUMPDEST PUSH32 0x4E487B7100000000000000000000000000000000000000000000000000000000 PUSH0 MSTORE PUSH1 0x21 PUSH1 0x4 MSTORE PUSH1 0x24 PUSH0 REVERT JUMPDEST PUSH32 0x4E487B7100000000000000000000000000000000000000000000000000000000 PUSH0 MSTORE PUSH1 0x11 PUSH1 0x4 MSTORE PUSH1 0x24 PUSH0 REVERT JUMPDEST PUSH0 DUP2 SWAP1 POP SWAP2 SWAP1 POP JUMP JUMPDEST PUSH0 PUSH2 0x1CB DUP3 PUSH2 0x1B8 JUMP JUMPDEST SWAP2 POP PUSH32 0xFFFFFFFFFFFFFFFFFFFFFFFFFFFFFFFFFFFFFFFFFFFFFFFFFFFFFFFFFFFFFFFF DUP3 SUB PUSH2 0x1FD JUMPI PUSH2 0x1FC PUSH2 0x18B JUMP JUMPDEST JUMPDEST PUSH1 0x1 DUP3 ADD SWAP1 POP SWAP2 SWAP1 POP JUMP JUMPDEST PUSH2 0x593A DUP1 PUSH2 0x215 PUSH0 CODECOPY PUSH0 RETURN INVALID PUSH1 0x80 PUSH1 0x40 MSTORE CALLVALUE DUP1 ISZERO PUSH2 0xF JUMPI PUSH0 PUSH0 REVERT JUMPDEST POP PUSH1 0x4 CALLDATASIZE LT PUSH2 0x292 JUMPI PUSH0 CALLDATALOAD PUSH1 0xE0 SHR DUP1 PUSH4 0x7A2043A3 GT PUSH2 0x165 JUMPI DUP1 PUSH4 0xBFB231D2 GT PUSH2 0xCC JUMPI DUP1 PUSH4 0xD666F29E GT PUSH2 0x85 JUMPI DUP1 PUSH4 0xD666F29E EQ PUSH2 0x938 JUMPI DUP1 PUSH4 0xE1250AB4 EQ PUSH2 0x956 JUMPI DUP1 PUSH4 0xE5213007 EQ PUSH2 0x986 JUMPI DUP1 PUSH4 0xF1648E84 EQ PUSH2 0x9A2 JUMPI DUP1 PUSH4 0xF6C53D9B EQ PUSH2 0x9D5 JUMPI DUP1 PUSH4 0xF9FDB154 EQ PUSH2 0x9F3 JUMPI PUSH2 0x292 JUMP JUMPDEST DUP1 PUSH4 0xBFB231D2 EQ PUSH2 0x819 JUMPI DUP1 PUSH4 0xC22C4F43 EQ PUSH2 0x851 JUMPI DUP1 PUSH4 0xC60D817E EQ PUSH2 0x88A JUMPI DUP1 PUSH4 0xCC2F211D EQ PUSH2 0x8BA JUMPI DUP1 PUSH4 0xCF5CF8E1 EQ PUSH2 0x8EA JUMPI DUP1 PUSH4 0xCF97F111 EQ PUSH2 0x91A JUMPI PUSH2 0x292 JUMP JUMPDEST DUP1 PUSH4 0x94761A28 GT PUSH2 0x11E JUMPI DUP1 PUSH4 0x94761A28 EQ PUSH2 0x71B JUMPI DUP1 PUSH4 0xA07E12E1 EQ PUSH2 0x74B JUMPI DUP1 PUSH4 0xA805AF18 EQ PUSH2 0x769 JUMPI DUP1 PUSH4 0xACDF0ACB EQ PUSH2 0x799 JUMPI DUP1 PUSH4 0xB7F44B72 EQ PUSH2 0x7B5 JUMPI DUP1 PUSH4 0xB9E0DB35 EQ PUSH2 0x7E5 JUMPI PUSH2 0x292 JUMP JUMPDEST DUP1 PUSH4 0x7A2043A3 EQ PUSH2 0x631 JUMPI DUP1 PUSH4 0x7A78E12D EQ PUSH2 0x64F JUMPI DUP1 PUSH4 0x7D3C99BB EQ PUSH2 0x67F JUMPI DUP1 PUSH4 0x83CC56E1 EQ PUSH2 0x6AF JUMPI DUP1 PUSH4 0x8DA5CB5B EQ PUSH2 0x6DF JUMPI DUP1 PUSH4 0x925B033D EQ PUSH2 0x6FD JUMPI PUSH2 0x292 JUMP JUMPDEST DUP1 PUSH4 0x4EF55A1F GT PUSH2 0x209 JUMPI DUP1 PUSH4 0x6A868974 GT PUSH2 0x1C2 JUMPI DUP1 PUSH4 0x6A868974 EQ PUSH2 0x537 JUMPI DUP1 PUSH4 0x6BEBD1FD EQ PUSH2 0x555 JUMPI DUP1 PUSH4 0x6C6F4A06 EQ PUSH2 0x585 JUMPI DUP1 PUSH4 0x6E2C06FA EQ PUSH2 0x5B5 JUMPI DUP1 PUSH4 0x71895501 EQ PUSH2 0x5E5 JUMPI DUP1 PUSH4 0x71C906C5 EQ PUSH2 0x601 JUMPI PUSH2 0x292 JUMP JUMPDEST DUP1 PUSH4 0x4EF55A1F EQ PUSH2 0x430 JUMPI DUP1 PUSH4 0x5182D7EB EQ PUSH2 0x460 JUMPI DUP1 PUSH4 0x579E51C7 EQ PUSH2 0x47E JUMPI DUP1 PUSH4 0x585B5C63 EQ PUSH2 0x4B8 JUMPI DUP1 PUSH4 0x61C3A7E6 EQ PUSH2 0x4E8 JUMPI DUP1 PUSH4 0x624871F9 EQ PUSH2 0x51B JUMPI PUSH2 0x292 JUMP JUMPDEST DUP1 PUSH4 0x34200D7B GT PUSH2 0x25B JUMPI DUP1 PUSH4 0x34200D7B EQ PUSH2 0x35E JUMPI DUP1 PUSH4 0x34CCC5EA EQ PUSH2 0x38E JUMPI DUP1 PUSH4 0x3C8393AD EQ PUSH2 0x3AC JUMPI DUP1 PUSH4 0x3E4A1E6C EQ PUSH2 0x3C8 JUMPI DUP1 PUSH4 0x4B48F656 EQ PUSH2 0x3E4 JUMPI DUP1 PUSH4 0x4C56DF7B EQ PUSH2 0x400 JUMPI PUSH2 0x292 JUMP JUMPDEST DUP1 PUSH3 0x51FF7D EQ PUSH2 0x296 JUMPI DUP1 PUSH4 0xA108D5E EQ PUSH2 0x2C6 JUMPI DUP1 PUSH4 0x20F3847E EQ PUSH2 0x2F6 JUMPI DUP1 PUSH4 0x2F3CCEBD EQ PUSH2 0x326 JUMPI DUP1 PUSH4 0x301DA870 EQ PUSH2 0x342 JUMPI JUMPDEST PUSH0 PUSH0 REVERT JUMPDEST PUSH2 0x2B0 PUSH1 0x4 DUP1 CALLDATASIZE SUB DUP2 ADD SWAP1 PUSH2 0x2AB SWAP2 SWAP1 PUSH2 0x40E0 JUMP JUMPDEST PUSH2 0xA23 JUMP JUMPDEST PUSH1 0x40 MLOAD PUSH2 0x2BD SWAP2 SWAP1 PUSH2 0x412D JUMP JUMPDEST PUSH1 0x40 MLOAD DUP1 SWAP2 SUB SWAP1 RETURN JUMPDEST PUSH2 0x2E0 PUSH1 0x4 DUP1 CALLDATASIZE SUB DUP2 ADD SWAP1 PUSH2 0x2DB SWAP2 SWAP1 PUSH2 0x41C3 JUMP JUMPDEST PUSH2 0xA4E JUMP JUMPDEST PUSH1 0x40 MLOAD PUSH2 0x2ED SWAP2 SWAP1 PUSH2 0x421B JUMP JUMPDEST PUSH1 0x40 MLOAD DUP1 SWAP2 SUB SWAP1 RETURN JUMPDEST PUSH2 0x310 PUSH1 0x4 DUP1 CALLDATASIZE SUB DUP2 ADD SWAP1 PUSH2 0x30B SWAP2 SWAP1 PUSH2 0x40E0 JUMP JUMPDEST PUSH2 0xA78 JUMP JUMPDEST PUSH1 0x40 MLOAD PUSH2 0x31D SWAP2 SWAP1 PUSH2 0x412D JUMP JUMPDEST PUSH1 0x40 MLOAD DUP1 SWAP2 SUB SWAP1 RETURN JUMPDEST PUSH2 0x340 PUSH1 0x4 DUP1 CALLDATASIZE SUB DUP2 ADD SWAP1 PUSH2 0x33B SWAP2 SWAP1 PUSH2 0x4234 JUMP JUMPDEST PUSH2 0xAA3 JUMP JUMPDEST STOP JUMPDEST PUSH2 0x35C PUSH1 0x4 DUP1 CALLDATASIZE SUB DUP2 ADD SWAP1 PUSH2 0x357 SWAP2 SWAP1 PUSH2 0x41C3 JUMP JUMPDEST PUSH2 0xC87 JUMP JUMPDEST STOP JUMPDEST PUSH2 0x378 PUSH1 0x4 DUP1 CALLDATASIZE SUB DUP2 ADD SWAP1 PUSH2 0x373 SWAP2 SWAP1 PUSH2 0x40E0 JUMP JUMPDEST PUSH2 0xD99 JUMP JUMPDEST PUSH1 0x40 MLOAD PUSH2 0x385 SWAP2 SWAP1 PUSH2 0x412D JUMP JUMPDEST PUSH1 0x40 MLOAD DUP1 SWAP2 SUB SWAP1 RETURN JUMPDEST PUSH2 0x396 PUSH2 0xDC4 JUMP JUMPDEST PUSH1 0x40 MLOAD PUSH2 0x3A3 SWAP2 SWAP1 PUSH2 0x412D JUMP JUMPDEST PUSH1 0x40 MLOAD DUP1 SWAP2 SUB SWAP1 RETURN JUMPDEST PUSH2 0x3C6 PUSH1 0x4 DUP1 CALLDATASIZE SUB DUP2 ADD SWAP1 PUSH2 0x3C1 SWAP2 SWAP1 PUSH2 0x4234 JUMP JUMPDEST PUSH2 0xDC9 JUMP JUMPDEST STOP JUMPDEST PUSH2 0x3E2 PUSH1 0x4 DUP1 CALLDATASIZE SUB DUP2 ADD SWAP1 PUSH2 0x3DD SWAP2 SWAP1 PUSH2 0x4234 JUMP JUMPDEST PUSH2 0x1101 JUMP JUMPDEST STOP JUMPDEST PUSH2 0x3FE PUSH1 0x4 DUP1 CALLDATASIZE SUB DUP2 ADD SWAP1 PUSH2 0x3F9 SWAP2 SWAP1 PUSH2 0x40E0 JUMP JUMPDEST PUSH2 0x12E4 JUMP JUMPDEST STOP JUMPDEST PUSH2 0x41A PUSH1 0x4 DUP1 CALLDATASIZE SUB DUP2 ADD SWAP1 PUSH2 0x415 SWAP2 SWAP1 PUSH2 0x40E0 JUMP JUMPDEST PUSH2 0x1478 JUMP JUMPDEST PUSH1 0x40 MLOAD PUSH2 0x427 SWAP2 SWAP1 PUSH2 0x412D JUMP JUMPDEST PUSH1 0x40 MLOAD DUP1 SWAP2 SUB SWAP1 RETURN JUMPDEST PUSH2 0x44A PUSH1 0x4 DUP1 CALLDATASIZE SUB DUP2 ADD SWAP1 PUSH2 0x445 SWAP2 SWAP1 PUSH2 0x4282 JUMP JUMPDEST PUSH2 0x14A3 JUMP JUMPDEST PUSH1 0x40 MLOAD PUSH2 0x457 SWAP2 SWAP1 PUSH2 0x412D JUMP JUMPDEST PUSH1 0x40 MLOAD DUP1 SWAP2 SUB SWAP1 RETURN JUMPDEST PUSH2 0x468 PUSH2 0x182C JUMP JUMPDEST PUSH1 0x40 MLOAD PUSH2 0x475 SWAP2 SWAP1 PUSH2 0x412D JUMP JUMPDEST PUSH1 0x40 MLOAD DUP1 SWAP2 SUB SWAP1 RETURN JUMPDEST PUSH2 0x498 PUSH1 0x4 DUP1 CALLDATASIZE SUB DUP2 ADD SWAP1 PUSH2 0x493 SWAP2 SWAP1 PUSH2 0x4234 JUMP JUMPDEST PUSH2 0x1832 JUMP JUMPDEST PUSH1 0x40 MLOAD PUSH2 0x4AF SWAP12 SWAP11 SWAP10 SWAP9 SWAP8 SWAP7 SWAP6 SWAP5 SWAP4 SWAP3 SWAP2 SWAP1 PUSH2 0x43C1 JUMP JUMPDEST PUSH1 0x40 MLOAD DUP1 SWAP2 SUB SWAP1 RETURN JUMPDEST PUSH2 0x4D2 PUSH1 0x4 DUP1 CALLDATASIZE SUB DUP2 ADD SWAP1 PUSH2 0x4CD SWAP2 SWAP1 PUSH2 0x45C9 JUMP JUMPDEST PUSH2 0x18C0 JUMP JUMPDEST PUSH1 0x40 MLOAD PUSH2 0x4DF SWAP2 SWAP1 PUSH2 0x412D JUMP JUMPDEST PUSH1 0x40 MLOAD DUP1 SWAP2 SUB SWAP1 RETURN JUMPDEST PUSH2 0x502 PUSH1 0x4 DUP1 CALLDATASIZE SUB DUP2 ADD SWAP1 PUSH2 0x4FD SWAP2 SWAP1 PUSH2 0x4234 JUMP JUMPDEST PUSH2 0x1C71 JUMP JUMPDEST PUSH1 0x40 MLOAD PUSH2 0x512 SWAP5 SWAP4 SWAP3 SWAP2 SWAP1 PUSH2 0x46BC JUMP JUMPDEST PUSH1 0x40 MLOAD DUP1 SWAP2 SUB SWAP1 RETURN JUMPDEST PUSH2 0x535 PUSH1 0x4 DUP1 CALLDATASIZE SUB DUP2 ADD SWAP1 PUSH2 0x530 SWAP2 SWAP1 PUSH2 0x4234 JUMP JUMPDEST PUSH2 0x1D42 JUMP JUMPDEST STOP JUMPDEST PUSH2 0x53F PUSH2 0x20FE JUMP JUMPDEST PUSH1 0x40 MLOAD PUSH2 0x54C SWAP2 SWAP1 PUSH2 0x412D JUMP JUMPDEST PUSH1 0x40 MLOAD DUP1 SWAP2 SUB SWAP1 RETURN JUMPDEST PUSH2 0x56F PUSH1 0x4 DUP1 CALLDATASIZE SUB DUP2 ADD SWAP1 PUSH2 0x56A SWAP2 SWAP1 PUSH2 0x4234 JUMP JUMPDEST PUSH2 0x2103 JUMP JUMPDEST PUSH1 0x40 MLOAD PUSH2 0x57C SWAP2 SWAP1 PUSH2 0x47BD JUMP JUMPDEST PUSH1 0x40 MLOAD DUP1 SWAP2 SUB SWAP1 RETURN JUMPDEST PUSH2 0x59F PUSH1 0x4 DUP1 CALLDATASIZE SUB DUP2 ADD SWAP1 PUSH2 0x59A SWAP2 SWAP1 PUSH2 0x40E0 JUMP JUMPDEST PUSH2 0x216A JUMP JUMPDEST PUSH1 0x40 MLOAD PUSH2 0x5AC SWAP2 SWAP1 PUSH2 0x412D JUMP JUMPDEST PUSH1 0x40 MLOAD DUP1 SWAP2 SUB SWAP1 RETURN JUMPDEST PUSH2 0x5CF PUSH1 0x4 DUP1 CALLDATASIZE SUB DUP2 ADD SWAP1 PUSH2 0x5CA SWAP2 SWAP1 PUSH2 0x47DD JUMP JUMPDEST PUSH2 0x2195 JUMP JUMPDEST PUSH1 0x40 MLOAD PUSH2 0x5DC SWAP2 SWAP1 PUSH2 0x47BD JUMP JUMPDEST PUSH1 0x40 MLOAD DUP1 SWAP2 SUB SWAP1 RETURN JUMPDEST PUSH2 0x5FF PUSH1 0x4 DUP1 CALLDATASIZE SUB DUP2 ADD SWAP1 PUSH2 0x5FA SWAP2 SWAP1 PUSH2 0x481B JUMP JUMPDEST PUSH2 0x24AB JUMP JUMPDEST STOP JUMPDEST PUSH2 0x61B PUSH1 0x4 DUP1 CALLDATASIZE SUB DUP2 ADD SWAP1 PUSH2 0x616 SWAP2 SWAP1 PUSH2 0x4234 JUMP JUMPDEST PUSH2 0x29B5 JUMP JUMPDEST PUSH1 0x40 MLOAD PUSH2 0x628 SWAP2 SWAP1 PUSH2 0x421B JUMP JUMPDEST PUSH1 0x40 MLOAD DUP1 SWAP2 SUB SWAP1 RETURN JUMPDEST PUSH2 0x639 PUSH2 0x29D2 JUMP JUMPDEST PUSH1 0x40 MLOAD PUSH2 0x646 SWAP2 SWAP1 PUSH2 0x412D JUMP JUMPDEST PUSH1 0x40 MLOAD DUP1 SWAP2 SUB SWAP1 RETURN JUMPDEST PUSH2 0x669 PUSH1 0x4 DUP1 CALLDATASIZE SUB DUP2 ADD SWAP1 PUSH2 0x664 SWAP2 SWAP1 PUSH2 0x4234 JUMP JUMPDEST PUSH2 0x29D8 JUMP JUMPDEST PUSH1 0x40 MLOAD PUSH2 0x676 SWAP2 SWAP1 PUSH2 0x412D JUMP JUMPDEST PUSH1 0x40 MLOAD DUP1 SWAP2 SUB SWAP1 RETURN JUMPDEST PUSH2 0x699 PUSH1 0x4 DUP1 CALLDATASIZE SUB DUP2 ADD SWAP1 PUSH2 0x694 SWAP2 SWAP1 PUSH2 0x4234 JUMP JUMPDEST PUSH2 0x2BB6 JUMP JUMPDEST PUSH1 0x40 MLOAD PUSH2 0x6A6 SWAP2 SWAP1 PUSH2 0x47BD JUMP JUMPDEST PUSH1 0x40 MLOAD DUP1 SWAP2 SUB SWAP1 RETURN JUMPDEST PUSH2 0x6C9 PUSH1 0x4 DUP1 CALLDATASIZE SUB DUP2 ADD SWAP1 PUSH2 0x6C4 SWAP2 SWAP1 PUSH2 0x486B JUMP JUMPDEST PUSH2 0x2C1D JUMP JUMPDEST PUSH1 0x40 MLOAD PUSH2 0x6D6 SWAP2 SWAP1 PUSH2 0x412D JUMP JUMPDEST PUSH1 0x40 MLOAD DUP1 SWAP2 SUB SWAP1 RETURN JUMPDEST PUSH2 0x6E7 PUSH2 0x2EA0 JUMP JUMPDEST PUSH1 0x40 MLOAD PUSH2 0x6F4 SWAP2 SWAP1 PUSH2 0x48E1 JUMP JUMPDEST PUSH1 0x40 MLOAD DUP1 SWAP2 SUB SWAP1 RETURN JUMPDEST PUSH2 0x705 PUSH2 0x2EC5 JUMP JUMPDEST PUSH1 0x40 MLOAD PUSH2 0x712 SWAP2 SWAP1 PUSH2 0x412D JUMP JUMPDEST PUSH1 0x40 MLOAD DUP1 SWAP2 SUB SWAP1 RETURN JUMPDEST PUSH2 0x735 PUSH1 0x4 DUP1 CALLDATASIZE SUB DUP2 ADD SWAP1 PUSH2 0x730 SWAP2 SWAP1 PUSH2 0x48FA JUMP JUMPDEST PUSH2 0x2ECA JUMP JUMPDEST PUSH1 0x40 MLOAD PUSH2 0x742 SWAP2 SWAP1 PUSH2 0x412D JUMP JUMPDEST PUSH1 0x40 MLOAD DUP1 SWAP2 SUB SWAP1 RETURN JUMPDEST PUSH2 0x753 PUSH2 0x318F JUMP JUMPDEST PUSH1 0x40 MLOAD PUSH2 0x760 SWAP2 SWAP1 PUSH2 0x412D JUMP JUMPDEST PUSH1 0x40 MLOAD DUP1 SWAP2 SUB SWAP1 RETURN JUMPDEST PUSH2 0x783 PUSH1 0x4 DUP1 CALLDATASIZE SUB DUP2 ADD SWAP1 PUSH2 0x77E SWAP2 SWAP1 PUSH2 0x497A JUMP JUMPDEST PUSH2 0x3195 JUMP JUMPDEST PUSH1 0x40 MLOAD PUSH2 0x790 SWAP2 SWAP1 PUSH2 0x412D JUMP JUMPDEST PUSH1 0x40 MLOAD DUP1 SWAP2 SUB SWAP1 RETURN JUMPDEST PUSH2 0x7B3 PUSH1 0x4 DUP1 CALLDATASIZE SUB DUP2 ADD SWAP1 PUSH2 0x7AE SWAP2 SWAP1 PUSH2 0x40E0 JUMP JUMPDEST PUSH2 0x335E JUMP JUMPDEST STOP JUMPDEST PUSH2 0x7CF PUSH1 0x4 DUP1 CALLDATASIZE SUB DUP2 ADD SWAP1 PUSH2 0x7CA SWAP2 SWAP1 PUSH2 0x47DD JUMP JUMPDEST PUSH2 0x352A JUMP JUMPDEST PUSH1 0x40 MLOAD PUSH2 0x7DC SWAP2 SWAP1 PUSH2 0x49F7 JUMP JUMPDEST PUSH1 0x40 MLOAD DUP1 SWAP2 SUB SWAP1 RETURN JUMPDEST PUSH2 0x7FF PUSH1 0x4 DUP1 CALLDATASIZE SUB DUP2 ADD SWAP1 PUSH2 0x7FA SWAP2 SWAP1 PUSH2 0x4234 JUMP JUMPDEST PUSH2 0x37BD JUMP JUMPDEST PUSH1 0x40 MLOAD PUSH2 0x810 SWAP6 SWAP5 SWAP4 SWAP3 SWAP2 SWAP1 PUSH2 0x4A17 JUMP JUMPDEST PUSH1 0x40 MLOAD DUP1 SWAP2 SUB SWAP1 RETURN JUMPDEST PUSH2 0x833 PUSH1 0x4 DUP1 CALLDATASIZE SUB DUP2 ADD SWAP1 PUSH2 0x82E SWAP2 SWAP1 PUSH2 0x4234 JUMP JUMPDEST PUSH2 0x391A JUMP JUMPDEST PUSH1 0x40 MLOAD PUSH2 0x848 SWAP10 SWAP9 SWAP8 SWAP7 SWAP6 SWAP5 SWAP4 SWAP3 SWAP2 SWAP1 PUSH2 0x4ABC JUMP JUMPDEST PUSH1 0x40 MLOAD DUP1 SWAP2 SUB SWAP1 RETURN JUMPDEST PUSH2 0x86B PUSH1 0x4 DUP1 CALLDATASIZE SUB DUP2 ADD SWAP1 PUSH2 0x866 SWAP2 SWAP1 PUSH2 0x4234 JUMP JUMPDEST PUSH2 0x3A15 JUMP JUMPDEST PUSH1 0x40 MLOAD PUSH2 0x881 SWAP11 SWAP10 SWAP9 SWAP8 SWAP7 SWAP6 SWAP5 SWAP4 SWAP3 SWAP2 SWAP1 PUSH2 0x4B94 JUMP JUMPDEST PUSH1 0x40 MLOAD DUP1 SWAP2 SUB SWAP1 RETURN JUMPDEST PUSH2 0x8A4 PUSH1 0x4 DUP1 CALLDATASIZE SUB DUP2 ADD SWAP1 PUSH2 0x89F SWAP2 SWAP1 PUSH2 0x4234 JUMP JUMPDEST PUSH2 0x3B16 JUMP JUMPDEST PUSH1 0x40 MLOAD PUSH2 0x8B1 SWAP2 SWAP1 PUSH2 0x47BD JUMP JUMPDEST PUSH1 0x40 MLOAD DUP1 SWAP2 SUB SWAP1 RETURN JUMPDEST PUSH2 0x8D4 PUSH1 0x4 DUP1 CALLDATASIZE SUB DUP2 ADD SWAP1 PUSH2 0x8CF SWAP2 SWAP1 PUSH2 0x40E0 JUMP JUMPDEST PUSH2 0x3B7D JUMP JUMPDEST PUSH1 0x40 MLOAD PUSH2 0x8E1 SWAP2 SWAP1 PUSH2 0x412D JUMP JUMPDEST PUSH1 0x40 MLOAD DUP1 SWAP2 SUB SWAP1 RETURN JUMPDEST PUSH2 0x904 PUSH1 0x4 DUP1 CALLDATASIZE SUB DUP2 ADD SWAP1 PUSH2 0x8FF SWAP2 SWAP1 PUSH2 0x40E0 JUMP JUMPDEST PUSH2 0x3BA8 JUMP JUMPDEST PUSH1 0x40 MLOAD PUSH2 0x911 SWAP2 SWAP1 PUSH2 0x412D JUMP JUMPDEST PUSH1 0x40 MLOAD DUP1 SWAP2 SUB SWAP1 RETURN JUMPDEST PUSH2 0x922 PUSH2 0x3BD3 JUMP JUMPDEST PUSH1 0x40 MLOAD PUSH2 0x92F SWAP2 SWAP1 PUSH2 0x412D JUMP JUMPDEST PUSH1 0x40 MLOAD DUP1 SWAP2 SUB SWAP1 RETURN JUMPDEST PUSH2 0x940 PUSH2 0x3BD8 JUMP JUMPDEST PUSH1 0x40 MLOAD PUSH2 0x94D SWAP2 SWAP1 PUSH2 0x412D JUMP JUMPDEST PUSH1 0x40 MLOAD DUP1 SWAP2 SUB SWAP1 RETURN JUMPDEST PUSH2 0x970 PUSH1 0x4 DUP1 CALLDATASIZE SUB DUP2 ADD SWAP1 PUSH2 0x96B SWAP2 SWAP1 PUSH2 0x4C35 JUMP JUMPDEST PUSH2 0x3BDE JUMP JUMPDEST PUSH1 0x40 MLOAD PUSH2 0x97D SWAP2 SWAP1 PUSH2 0x412D JUMP JUMPDEST PUSH1 0x40 MLOAD DUP1 SWAP2 SUB SWAP1 RETURN JUMPDEST PUSH2 0x9A0 PUSH1 0x4 DUP1 CALLDATASIZE SUB DUP2 ADD SWAP1 PUSH2 0x99B SWAP2 SWAP1 PUSH2 0x40E0 JUMP JUMPDEST PUSH2 0x3E06 JUMP JUMPDEST STOP JUMPDEST PUSH2 0x9BC PUSH1 0x4 DUP1 CALLDATASIZE SUB DUP2 ADD SWAP1 PUSH2 0x9B7 SWAP2 SWAP1 PUSH2 0x4234 JUMP JUMPDEST PUSH2 0x4020 JUMP JUMPDEST PUSH1 0x40 MLOAD PUSH2 0x9CC SWAP5 SWAP4 SWAP3 SWAP2 SWAP1 PUSH2 0x4C7C JUMP JUMPDEST PUSH1 0x40 MLOAD DUP1 SWAP2 SUB SWAP1 RETURN JUMPDEST PUSH2 0x9DD PUSH2 0x406B JUMP JUMPDEST PUSH1 0x40 MLOAD PUSH2 0x9EA SWAP2 SWAP1 PUSH2 0x412D JUMP JUMPDEST PUSH1 0x40 MLOAD DUP1 SWAP2 SUB SWAP1 RETURN JUMPDEST PUSH2 0xA0D PUSH1 0x4 DUP1 CALLDATASIZE SUB DUP2 ADD SWAP1 PUSH2 0xA08 SWAP2 SWAP1 PUSH2 0x40E0 JUMP JUMPDEST PUSH2 0x4071 JUMP JUMPDEST PUSH1 0x40 MLOAD PUSH2 0xA1A SWAP2 SWAP1 PUSH2 0x412D JUMP JUMPDEST PUSH1 0x40 MLOAD DUP1 SWAP2 SUB SWAP1 RETURN JUMPDEST PUSH1 0xF PUSH1 0x20 MSTORE DUP2 PUSH0 MSTORE PUSH1 0x40 PUSH0 KECCAK256 DUP2 DUP2 SLOAD DUP2 LT PUSH2 0xA3C JUMPI PUSH0 DUP1 REVERT JUMPDEST SWAP1 PUSH0 MSTORE PUSH1 0x20 PUSH0 KECCAK256 ADD PUSH0 SWAP2 POP SWAP2 POP POP SLOAD DUP2 JUMP JUMPDEST PUSH1 0x15 PUSH1 0x20 MSTORE DUP2 PUSH0 MSTORE PUSH1 0x40 PUSH0 KECCAK256 PUSH1 0x20 MSTORE DUP1 PUSH0 MSTORE PUSH1 0x40 PUSH0 KECCAK256 PUSH0 SWAP2 POP SWAP2 POP SWAP1 SLOAD SWAP1 PUSH2 0x100 EXP SWAP1 DIV PUSH1 0xFF AND DUP2 JUMP JUMPDEST PUSH1 0x13 PUSH1 0x20 MSTORE DUP2 PUSH0 MSTORE PUSH1 0x40 PUSH0 KECCAK256 DUP2 DUP2 SLOAD DUP2 LT PUSH2 0xA91 JUMPI PUSH0 DUP1 REVERT JUMPDEST SWAP1 PUSH0 MSTORE PUSH1 0x20 PUSH0 KECCAK256 ADD PUSH0 SWAP2 POP SWAP2 POP POP SLOAD DUP2 JUMP JUMPDEST PUSH1 0x2 PUSH1 0x15 PUSH0 CALLER PUSH20 0xFFFFFFFFFFFFFFFFFFFFFFFFFFFFFFFFFFFFFFFF AND PUSH20 0xFFFFFFFFFFFFFFFFFFFFFFFFFFFFFFFFFFFFFFFF AND DUP2 MSTORE PUSH1 0x20 ADD SWAP1 DUP2 MSTORE PUSH1 0x20 ADD PUSH0 KECCAK256 PUSH0 DUP3 PUSH1 0x5 DUP2 GT ISZERO PUSH2 0xAF6 JUMPI PUSH2 0xAF5 PUSH2 0x42F9 JUMP JUMPDEST JUMPDEST PUSH1 0x5 DUP2 GT ISZERO PUSH2 0xB08 JUMPI PUSH2 0xB07 PUSH2 0x42F9 JUMP JUMPDEST JUMPDEST DUP2 MSTORE PUSH1 0x20 ADD SWAP1 DUP2 MSTORE PUSH1 0x20 ADD PUSH0 KECCAK256 PUSH0 SWAP1 SLOAD SWAP1 PUSH2 0x100 EXP SWAP1 DIV PUSH1 0xFF AND DUP1 PUSH2 0xB7A JUMPI POP PUSH1 0x16 PUSH0 SWAP1 SLOAD SWAP1 PUSH2 0x100 EXP SWAP1 DIV PUSH20 0xFFFFFFFFFFFFFFFFFFFFFFFFFFFFFFFFFFFFFFFF AND PUSH20 0xFFFFFFFFFFFFFFFFFFFFFFFFFFFFFFFFFFFFFFFF AND CALLER PUSH20 0xFFFFFFFFFFFFFFFFFFFFFFFFFFFFFFFFFFFFFFFF AND EQ ISZERO JUMPDEST PUSH2 0xBB0 JUMPI PUSH1 0x40 MLOAD PUSH32 0x9D7B369D00000000000000000000000000000000000000000000000000000000 DUP2 MSTORE PUSH1 0x4 ADD PUSH1 0x40 MLOAD DUP1 SWAP2 SUB SWAP1 REVERT JUMPDEST PUSH1 0x1 PUSH1 0x2 DUP2 GT ISZERO PUSH2 0xBC4 JUMPI PUSH2 0xBC3 PUSH2 0x42F9 JUMP JUMPDEST JUMPDEST PUSH1 0x8 PUSH0 DUP5 DUP2 MSTORE PUSH1 0x20 ADD SWAP1 DUP2 MSTORE PUSH1 0x20 ADD PUSH0 KECCAK256 PUSH1 0x2 ADD PUSH0 SWAP1 SLOAD SWAP1 PUSH2 0x100 EXP SWAP1 DIV PUSH1 0xFF AND PUSH1 0x2 DUP2 GT ISZERO PUSH2 0xBF7 JUMPI PUSH2 0xBF6 PUSH2 0x42F9 JUMP JUMPDEST JUMPDEST EQ PUSH2 0xC2E JUMPI PUSH1 0x40 MLOAD PUSH32 0xF525E32000000000000000000000000000000000000000000000000000000000 DUP2 MSTORE PUSH1 0x4 ADD PUSH1 0x40 MLOAD DUP1 SWAP2 SUB SWAP1 REVERT JUMPDEST PUSH1 0x2 PUSH1 0x8 PUSH0 DUP5 DUP2 MSTORE PUSH1 0x20 ADD SWAP1 DUP2 MSTORE PUSH1 0x20 ADD PUSH0 KECCAK256 PUSH1 0x2 ADD PUSH0 PUSH2 0x100 EXP DUP2 SLOAD DUP2 PUSH1 0xFF MUL NOT AND SWAP1 DUP4 PUSH1 0x2 DUP2 GT ISZERO PUSH2 0xC65 JUMPI PUSH2 0xC64 PUSH2 0x42F9 JUMP JUMPDEST JUMPDEST MUL OR SWAP1 SSTORE POP TIMESTAMP PUSH1 0x8 PUSH0 DUP5 DUP2 MSTORE PUSH1 0x20 ADD SWAP1 DUP2 MSTORE PUSH1 0x20 ADD PUSH0 KECCAK256 PUSH1 0x7 ADD DUP2 SWAP1 SSTORE POP POP POP JUMP JUMPDEST PUSH1 0x16 PUSH0 SWAP1 SLOAD SWAP1 PUSH2 0x100 EXP SWAP1 DIV PUSH20 0xFFFFFFFFFFFFFFFFFFFFFFFFFFFFFFFFFFFFFFFF AND PUSH20 0xFFFFFFFFFFFFFFFFFFFFFFFFFFFFFFFFFFFFFFFF AND CALLER PUSH20 0xFFFFFFFFFFFFFFFFFFFFFFFFFFFFFFFFFFFFFFFF AND EQ PUSH2 0xD0D JUMPI PUSH1 0x40 MLOAD PUSH32 0x5FC483C500000000000000000000000000000000000000000000000000000000 DUP2 MSTORE PUSH1 0x4 ADD PUSH1 0x40 MLOAD DUP1 SWAP2 SUB SWAP1 REVERT JUMPDEST PUSH1 0x1 PUSH1 0x15 PUSH0 DUP5 PUSH20 0xFFFFFFFFFFFFFFFFFFFFFFFFFFFFFFFFFFFFFFFF AND PUSH20 0xFFFFFFFFFFFFFFFFFFFFFFFFFFFFFFFFFFFFFFFF AND DUP2 MSTORE PUSH1 0x20 ADD SWAP1 DUP2 MSTORE PUSH1 0x20 ADD PUSH0 KECCAK256 PUSH0 DUP4 PUSH1 0x5 DUP2 GT ISZERO PUSH2 0xD60 JUMPI PUSH2 0xD5F PUSH2 0x42F9 JUMP JUMPDEST JUMPDEST PUSH1 0x5 DUP2 GT ISZERO PUSH2 0xD72 JUMPI PUSH2 0xD71 PUSH2 0x42F9 JUMP JUMPDEST JUMPDEST DUP2 MSTORE PUSH1 0x20 ADD SWAP1 DUP2 MSTORE PUSH1 0x20 ADD PUSH0 KECCAK256 PUSH0 PUSH2 0x100 EXP DUP2 SLOAD DUP2 PUSH1 0xFF MUL NOT AND SWAP1 DUP4 ISZERO ISZERO MUL OR SWAP1 SSTORE POP POP POP JUMP JUMPDEST PUSH1 0xE PUSH1 0x20 MSTORE DUP2 PUSH0 MSTORE PUSH1 0x40 PUSH0 KECCAK256 DUP2 DUP2 SLOAD DUP2 LT PUSH2 0xDB2 JUMPI PUSH0 DUP1 REVERT JUMPDEST SWAP1 PUSH0 MSTORE PUSH1 0x20 PUSH0 KECCAK256 ADD PUSH0 SWAP2 POP SWAP2 POP POP SLOAD DUP2 JUMP JUMPDEST PUSH1 0x80 DUP2 JUMP JUMPDEST PUSH1 0x4 PUSH1 0x15 PUSH0 CALLER PUSH20 0xFFFFFFFFFFFFFFFFFFFFFFFFFFFFFFFFFFFFFFFF AND PUSH20 0xFFFFFFFFFFFFFFFFFFFFFFFFFFFFFFFFFFFFFFFF AND DUP2 MSTORE PUSH1 0x20 ADD SWAP1 DUP2 MSTORE PUSH1 0x20 ADD PUSH0 KECCAK256 PUSH0 DUP3 PUSH1 0x5 DUP2 GT ISZERO PUSH2 0xE1C JUMPI PUSH2 0xE1B PUSH2 0x42F9 JUMP JUMPDEST JUMPDEST PUSH1 0x5 DUP2 GT ISZERO PUSH2 0xE2E JUMPI PUSH2 0xE2D PUSH2 0x42F9 JUMP JUMPDEST JUMPDEST DUP2 MSTORE PUSH1 0x20 ADD SWAP1 DUP2 MSTORE PUSH1 0x20 ADD PUSH0 KECCAK256 PUSH0 SWAP1 SLOAD SWAP1 PUSH2 0x100 EXP SWAP1 DIV PUSH1 0xFF AND DUP1 PUSH2 0xEA0 JUMPI POP PUSH1 0x16 PUSH0 SWAP1 SLOAD SWAP1 PUSH2 0x100 EXP SWAP1 DIV PUSH20 0xFFFFFFFFFFFFFFFFFFFFFFFFFFFFFFFFFFFFFFFF AND PUSH20 0xFFFFFFFFFFFFFFFFFFFFFFFFFFFFFFFFFFFFFFFF AND CALLER PUSH20 0xFFFFFFFFFFFFFFFFFFFFFFFFFFFFFFFFFFFFFFFF AND EQ ISZERO JUMPDEST PUSH2 0xED6 JUMPI PUSH1 0x40 MLOAD PUSH32 0x9D7B369D00000000000000000000000000000000000000000000000000000000 DUP2 MSTORE PUSH1 0x4 ADD PUSH1 0x40 MLOAD DUP1 SWAP2 SUB SWAP1 REVERT JUMPDEST PUSH0 PUSH1 0x2 DUP2 GT ISZERO PUSH2 0xEE9 JUMPI PUSH2 0xEE8 PUSH2 0x42F9 JUMP JUMPDEST JUMPDEST PUSH1 0xA PUSH0 DUP5 DUP2 MSTORE PUSH1 0x20 ADD SWAP1 DUP2 MSTORE PUSH1 0x20 ADD PUSH0 KECCAK256 PUSH1 0x1 ADD PUSH1 0x1 SWAP1 SLOAD SWAP1 PUSH2 0x100 EXP SWAP1 DIV PUSH1 0xFF AND PUSH1 0x2 DUP2 GT ISZERO PUSH2 0xF1D JUMPI PUSH2 0xF1C PUSH2 0x42F9 JUMP JUMPDEST JUMPDEST EQ PUSH2 0xF54 JUMPI PUSH1 0x40 MLOAD PUSH32 0xF525E32000000000000000000000000000000000000000000000000000000000 DUP2 MSTORE PUSH1 0x4 ADD PUSH1 0x40 MLOAD DUP1 SWAP2 SUB SWAP1 REVERT JUMPDEST PUSH1 0x1 PUSH1 0xA PUSH0 DUP5 DUP2 MSTORE PUSH1 0x20 ADD SWAP1 DUP2 MSTORE PUSH1 0x20 ADD PUSH0 KECCAK256 PUSH1 0x1 ADD PUSH1 0x1 PUSH2 0x100 EXP DUP2 SLOAD DUP2 PUSH1 0xFF MUL NOT AND SWAP1 DUP4 PUSH1 0x2 DUP2 GT ISZERO PUSH2 0xF8C JUMPI PUSH2 0xF8B PUSH2 0x42F9 JUMP JUMPDEST JUMPDEST MUL OR SWAP1 SSTORE POP TIMESTAMP PUSH1 0xA PUSH0 DUP5 DUP2 MSTORE PUSH1 0x20 ADD SWAP1 DUP2 MSTORE PUSH1 0x20 ADD PUSH0 KECCAK256 PUSH1 0x6 ADD DUP2 SWAP1 SSTORE POP PUSH1 0x3 DUP1 DUP2 GT ISZERO PUSH2 0xFBD JUMPI PUSH2 0xFBC PUSH2 0x42F9 JUMP JUMPDEST JUMPDEST PUSH1 0xA PUSH0 DUP5 DUP2 MSTORE PUSH1 0x20 ADD SWAP1 DUP2 MSTORE PUSH1 0x20 ADD PUSH0 KECCAK256 PUSH1 0x1 ADD PUSH0 SWAP1 SLOAD SWAP1 PUSH2 0x100 EXP SWAP1 DIV PUSH1 0xFF AND PUSH1 0x3 DUP2 GT ISZERO PUSH2 0xFF0 JUMPI PUSH2 0xFEF PUSH2 0x42F9 JUMP JUMPDEST JUMPDEST SUB PUSH2 0x10FD JUMPI PUSH0 PUSH1 0x13 PUSH0 DUP5 DUP2 MSTORE PUSH1 0x20 ADD SWAP1 DUP2 MSTORE PUSH1 0x20 ADD PUSH0 KECCAK256 DUP1 SLOAD DUP1 PUSH1 0x20 MUL PUSH1 0x20 ADD PUSH1 0x40 MLOAD SWAP1 DUP2 ADD PUSH1 0x40 MSTORE DUP1 SWAP3 SWAP2 SWAP1 DUP2 DUP2 MSTORE PUSH1 0x20 ADD DUP3 DUP1 SLOAD DUP1 ISZERO PUSH2 0x104F JUMPI PUSH1 0x20 MUL DUP3 ADD SWAP2 SWAP1 PUSH0 MSTORE PUSH1 0x20 PUSH0 KECCAK256 SWAP1 JUMPDEST DUP2 SLOAD DUP2 MSTORE PUSH1 0x20 ADD SWAP1 PUSH1 0x1 ADD SWAP1 DUP1 DUP4 GT PUSH2 0x103B JUMPI JUMPDEST POP POP POP POP POP SWAP1 POP PUSH0 PUSH0 SWAP1 POP JUMPDEST DUP2 MLOAD DUP2 LT ISZERO PUSH2 0x10FA JUMPI DUP4 PUSH1 0x6 PUSH0 DUP5 DUP5 DUP2 MLOAD DUP2 LT PUSH2 0x107B JUMPI PUSH2 0x107A PUSH2 0x4CBF JUMP JUMPDEST JUMPDEST PUSH1 0x20 MUL PUSH1 0x20 ADD ADD MLOAD DUP2 MSTORE PUSH1 0x20 ADD SWAP1 DUP2 MSTORE PUSH1 0x20 ADD PUSH0 KECCAK256 PUSH1 0x4 ADD DUP2 SWAP1 SSTORE POP PUSH1 0x1 PUSH1 0x6 PUSH0 DUP5 DUP5 DUP2 MLOAD DUP2 LT PUSH2 0x10AF JUMPI PUSH2 0x10AE PUSH2 0x4CBF JUMP JUMPDEST JUMPDEST PUSH1 0x20 MUL PUSH1 0x20 ADD ADD MLOAD DUP2 MSTORE PUSH1 0x20 ADD SWAP1 DUP2 MSTORE PUSH1 0x20 ADD PUSH0 KECCAK256 PUSH1 0x6 ADD PUSH0 PUSH2 0x100 EXP DUP2 SLOAD DUP2 PUSH1 0xFF MUL NOT AND SWAP1 DUP4 PUSH1 0x1 DUP2 GT ISZERO PUSH2 0x10E8 JUMPI PUSH2 0x10E7 PUSH2 0x42F9 JUMP JUMPDEST JUMPDEST MUL OR SWAP1 SSTORE POP DUP1 DUP1 PUSH1 0x1 ADD SWAP2 POP POP PUSH2 0x105B JUMP JUMPDEST POP POP JUMPDEST POP POP JUMP JUMPDEST PUSH1 0x2 PUSH1 0x15 PUSH0 CALLER PUSH20 0xFFFFFFFFFFFFFFFFFFFFFFFFFFFFFFFFFFFFFFFF AND PUSH20 0xFFFFFFFFFFFFFFFFFFFFFFFFFFFFFFFFFFFFFFFF AND DUP2 MSTORE PUSH1 0x20 ADD SWAP1 DUP2 MSTORE PUSH1 0x20 ADD PUSH0 KECCAK256 PUSH0 DUP3 PUSH1 0x5 DUP2 GT ISZERO PUSH2 0x1154 JUMPI PUSH2 0x1153 PUSH2 0x42F9 JUMP JUMPDEST JUMPDEST PUSH1 0x5 DUP2 GT ISZERO PUSH2 0x1166 JUMPI PUSH2 0x1165 PUSH2 0x42F9 JUMP JUMPDEST JUMPDEST DUP2 MSTORE PUSH1 0x20 ADD SWAP1 DUP2 MSTORE PUSH1 0x20 ADD PUSH0 KECCAK256 PUSH0 SWAP1 SLOAD SWAP1 PUSH2 0x100 EXP SWAP1 DIV PUSH1 0xFF AND DUP1 PUSH2 0x11D8 JUMPI POP PUSH1 0x16 PUSH0 SWAP1 SLOAD SWAP1 PUSH2 0x100 EXP SWAP1 DIV PUSH20 0xFFFFFFFFFFFFFFFFFFFFFFFFFFFFFFFFFFFFFFFF AND PUSH20 0xFFFFFFFFFFFFFFFFFFFFFFFFFFFFFFFFFFFFFFFF AND CALLER PUSH20 0xFFFFFFFFFFFFFFFFFFFFFFFFFFFFFFFFFFFFFFFF AND EQ ISZERO JUMPDEST PUSH2 0x120E JUMPI PUSH1 0x40 MLOAD PUSH32 0x9D7B369D00000000000000000000000000000000000000000000000000000000 DUP2 MSTORE PUSH1 0x4 ADD PUSH1 0x40 MLOAD DUP1 SWAP2 SUB SWAP1 REVERT JUMPDEST PUSH0 PUSH1 0x2 DUP2 GT ISZERO PUSH2 0x1221 JUMPI PUSH2 0x1220 PUSH2 0x42F9 JUMP JUMPDEST JUMPDEST PUSH1 0x8 PUSH0 DUP5 DUP2 MSTORE PUSH1 0x20 ADD SWAP1 DUP2 MSTORE PUSH1 0x20 ADD PUSH0 KECCAK256 PUSH1 0x2 ADD PUSH0 SWAP1 SLOAD SWAP1 PUSH2 0x100 EXP SWAP1 DIV PUSH1 0xFF AND PUSH1 0x2 DUP2 GT ISZERO PUSH2 0x1254 JUMPI PUSH2 0x1253 PUSH2 0x42F9 JUMP JUMPDEST JUMPDEST EQ PUSH2 0x128B JUMPI PUSH1 0x40 MLOAD PUSH32 0xF525E32000000000000000000000000000000000000000000000000000000000 DUP2 MSTORE PUSH1 0x4 ADD PUSH1 0x40 MLOAD DUP1 SWAP2 SUB SWAP1 REVERT JUMPDEST PUSH1 0x1 PUSH1 0x8 PUSH0 DUP5 DUP2 MSTORE PUSH1 0x20 ADD SWAP1 DUP2 MSTORE PUSH1 0x20 ADD PUSH0 KECCAK256 PUSH1 0x2 ADD PUSH0 PUSH2 0x100 EXP DUP2 SLOAD DUP2 PUSH1 0xFF MUL NOT AND SWAP1 DUP4 PUSH1 0x2 DUP2 GT ISZERO PUSH2 0x12C2 JUMPI PUSH2 0x12C1 PUSH2 0x42F9 JUMP JUMPDEST JUMPDEST MUL OR SWAP1 SSTORE POP TIMESTAMP PUSH1 0x8 PUSH0 DUP5 DUP2 MSTORE PUSH1 0x20 ADD SWAP1 DUP2 MSTORE PUSH1 0x20 ADD PUSH0 KECCAK256 PUSH1 0x6 ADD DUP2 SWAP1 SSTORE POP POP POP JUMP JUMPDEST CALLER PUSH20 0xFFFFFFFFFFFFFFFFFFFFFFFFFFFFFFFFFFFFFFFF AND PUSH1 0x6 PUSH0 DUP5 DUP2 MSTORE PUSH1 0x20 ADD SWAP1 DUP2 MSTORE PUSH1 0x20 ADD PUSH0 KECCAK256 PUSH1 0x8 ADD PUSH0 SWAP1 SLOAD SWAP1 PUSH2 0x100 EXP SWAP1 DIV PUSH20 0xFFFFFFFFFFFFFFFFFFFFFFFFFFFFFFFFFFFFFFFF AND PUSH20 0xFFFFFFFFFFFFFFFFFFFFFFFFFFFFFFFFFFFFFFFF AND EQ PUSH2 0x137C JUMPI PUSH1 0x40 MLOAD PUSH32 0x9D7B369D00000000000000000000000000000000000000000000000000000000 DUP2 MSTORE PUSH1 0x4 ADD PUSH1 0x40 MLOAD DUP1 SWAP2 SUB SWAP1 REVERT JUMPDEST PUSH0 PUSH1 0x6 PUSH0 DUP4 DUP2 MSTORE PUSH1 0x20 ADD SWAP1 DUP2 MSTORE PUSH1 0x20 ADD PUSH0 KECCAK256 PUSH0 ADD SLOAD SUB PUSH2 0x13C8 JUMPI PUSH1 0x40 MLOAD PUSH32 0xC5723B5100000000000000000000000000000000000000000000000000000000 DUP2 MSTORE PUSH1 0x4 ADD PUSH1 0x40 MLOAD DUP1 SWAP2 SUB SWAP1 REVERT JUMPDEST PUSH1 0x32 PUSH1 0xC PUSH0 DUP5 DUP2 MSTORE PUSH1 0x20 ADD SWAP1 DUP2 MSTORE PUSH1 0x20 ADD PUSH0 KECCAK256 DUP1 SLOAD SWAP1 POP LT PUSH2 0x1416 JUMPI PUSH1 0x40 MLOAD PUSH32 0x4F2A111200000000000000000000000000000000000000000000000000000000 DUP2 MSTORE PUSH1 0x4 ADD PUSH1 0x40 MLOAD DUP1 SWAP2 SUB SWAP1 REVERT JUMPDEST PUSH1 0xC PUSH0 DUP4 DUP2 MSTORE PUSH1 0x20 ADD SWAP1 DUP2 MSTORE PUSH1 0x20 ADD PUSH0 KECCAK256 DUP2 SWAP1 DUP1 PUSH1 0x1 DUP2 SLOAD ADD DUP1 DUP3 SSTORE DUP1 SWAP2 POP POP PUSH1 0x1 SWAP1 SUB SWAP1 PUSH0 MSTORE PUSH1 0x20 PUSH0 KECCAK256 ADD PUSH0 SWAP1 SWAP2 SWAP1 SWAP2 SWAP1 SWAP2 POP SSTORE PUSH1 0x1 PUSH1 0x14 PUSH0 DUP4 DUP2 MSTORE PUSH1 0x20 ADD SWAP1 DUP2 MSTORE PUSH1 0x20 ADD PUSH0 KECCAK256 PUSH0 PUSH2 0x100 EXP DUP2 SLOAD DUP2 PUSH1 0xFF MUL NOT AND SWAP1 DUP4 ISZERO ISZERO MUL OR SWAP1 SSTORE POP POP POP JUMP JUMPDEST PUSH1 0xC PUSH1 0x20 MSTORE DUP2 PUSH0 MSTORE PUSH1 0x40 PUSH0 KECCAK256 DUP2 DUP2 SLOAD DUP2 LT PUSH2 0x1491 JUMPI PUSH0 DUP1 REVERT JUMPDEST SWAP1 PUSH0 MSTORE PUSH1 0x20 PUSH0 KECCAK256 ADD PUSH0 SWAP2 POP SWAP2 POP POP SLOAD DUP2 JUMP JUMPDEST PUSH0 PUSH1 0x4 PUSH1 0x15 PUSH0 CALLER PUSH20 0xFFFFFFFFFFFFFFFFFFFFFFFFFFFFFFFFFFFFFFFF AND PUSH20 0xFFFFFFFFFFFFFFFFFFFFFFFFFFFFFFFFFFFFFFFF AND DUP2 MSTORE PUSH1 0x20 ADD SWAP1 DUP2 MSTORE PUSH1 0x20 ADD PUSH0 KECCAK256 PUSH0 DUP3 PUSH1 0x5 DUP2 GT ISZERO PUSH2 0x14F7 JUMPI PUSH2 0x14F6 PUSH2 0x42F9 JUMP JUMPDEST JUMPDEST PUSH1 0x5 DUP2 GT ISZERO PUSH2 0x1509 JUMPI PUSH2 0x1508 PUSH2 0x42F9 JUMP JUMPDEST JUMPDEST DUP2 MSTORE PUSH1 0x20 ADD SWAP1 DUP2 MSTORE PUSH1 0x20 ADD PUSH0 KECCAK256 PUSH0 SWAP1 SLOAD SWAP1 PUSH2 0x100 EXP SWAP1 DIV PUSH1 0xFF AND DUP1 PUSH2 0x157B JUMPI POP PUSH1 0x16 PUSH0 SWAP1 SLOAD SWAP1 PUSH2 0x100 EXP SWAP1 DIV PUSH20 0xFFFFFFFFFFFFFFFFFFFFFFFFFFFFFFFFFFFFFFFF AND PUSH20 0xFFFFFFFFFFFFFFFFFFFFFFFFFFFFFFFFFFFFFFFF AND CALLER PUSH20 0xFFFFFFFFFFFFFFFFFFFFFFFFFFFFFFFFFFFFFFFF AND EQ ISZERO JUMPDEST PUSH2 0x15B1 JUMPI PUSH1 0x40 MLOAD PUSH32 0x9D7B369D00000000000000000000000000000000000000000000000000000000 DUP2 MSTORE PUSH1 0x4 ADD PUSH1 0x40 MLOAD DUP1 SWAP2 SUB SWAP1 REVERT JUMPDEST PUSH1 0x3 DUP1 DUP2 GT ISZERO PUSH2 0x15C4 JUMPI PUSH2 0x15C3 PUSH2 0x42F9 JUMP JUMPDEST JUMPDEST DUP8 PUSH1 0x3 DUP2 GT ISZERO PUSH2 0x15D7 JUMPI PUSH2 0x15D6 PUSH2 0x42F9 JUMP JUMPDEST JUMPDEST SUB PUSH2 0x1675 JUMPI PUSH0 PUSH1 0xB PUSH0 DUP9 DUP2 MSTORE PUSH1 0x20 ADD SWAP1 DUP2 MSTORE PUSH1 0x20 ADD PUSH0 KECCAK256 PUSH0 ADD SLOAD SUB PUSH2 0x1628 JUMPI PUSH1 0x40 MLOAD PUSH32 0xF80F144500000000000000000000000000000000000000000000000000000000 DUP2 MSTORE PUSH1 0x4 ADD PUSH1 0x40 MLOAD DUP1 SWAP2 SUB SWAP1 REVERT JUMPDEST PUSH0 PUSH1 0xB PUSH0 DUP8 DUP2 MSTORE PUSH1 0x20 ADD SWAP1 DUP2 MSTORE PUSH1 0x20 ADD PUSH0 KECCAK256 PUSH0 ADD SLOAD SUB PUSH2 0x1674 JUMPI PUSH1 0x40 MLOAD PUSH32 0xF80F144500000000000000000000000000000000000000000000000000000000 DUP2 MSTORE PUSH1 0x4 ADD PUSH1 0x40 MLOAD DUP1 SWAP2 SUB SWAP1 REVERT JUMPDEST JUMPDEST PUSH0 PUSH1 0x4 PUSH0 DUP2 SLOAD DUP1 SWAP3 SWAP2 SWAP1 PUSH2 0x1688 SWAP1 PUSH2 0x4D19 JUMP JUMPDEST SWAP2 SWAP1 POP SSTORE SWAP1 POP PUSH1 0x40 MLOAD DUP1 PUSH2 0x160 ADD PUSH1 0x40 MSTORE DUP1 DUP3 DUP2 MSTORE PUSH1 0x20 ADD DUP10 PUSH1 0x3 DUP2 GT ISZERO PUSH2 0x16B3 JUMPI PUSH2 0x16B2 PUSH2 0x42F9 JUMP JUMPDEST JUMPDEST DUP2 MSTORE PUSH1 0x20 ADD PUSH0 PUSH1 0x2 DUP2 GT ISZERO PUSH2 0x16CB JUMPI PUSH2 0x16CA PUSH2 0x42F9 JUMP JUMPDEST JUMPDEST DUP2 MSTORE PUSH1 0x20 ADD DUP9 DUP2 MSTORE PUSH1 0x20 ADD DUP8 DUP2 MSTORE PUSH1 0x20 ADD DUP7 DUP2 MSTORE PUSH1 0x20 ADD DUP6 DUP2 MSTORE PUSH1 0x20 ADD PUSH0 DUP2 MSTORE PUSH1 0x20 ADD PUSH0 DUP2 MSTORE PUSH1 0x20 ADD TIMESTAMP DUP2 MSTORE PUSH1 0x20 ADD CALLER PUSH20 0xFFFFFFFFFFFFFFFFFFFFFFFFFFFFFFFFFFFFFFFF AND DUP2 MSTORE POP PUSH1 0xA PUSH0 DUP4 DUP2 MSTORE PUSH1 0x20 ADD SWAP1 DUP2 MSTORE PUSH1 0x20 ADD PUSH0 KECCAK256 PUSH0 DUP3 ADD MLOAD DUP2 PUSH0 ADD SSTORE PUSH1 0x20 DUP3 ADD MLOAD DUP2 PUSH1 0x1 ADD PUSH0 PUSH2 0x100 EXP DUP2 SLOAD DUP2 PUSH1 0xFF MUL NOT AND SWAP1 DUP4 PUSH1 0x3 DUP2 GT ISZERO PUSH2 0x1757 JUMPI PUSH2 0x1756 PUSH2 0x42F9 JUMP JUMPDEST JUMPDEST MUL OR SWAP1 SSTORE POP PUSH1 0x40 DUP3 ADD MLOAD DUP2 PUSH1 0x1 ADD PUSH1 0x1 PUSH2 0x100 EXP DUP2 SLOAD DUP2 PUSH1 0xFF MUL NOT AND SWAP1 DUP4 PUSH1 0x2 DUP2 GT ISZERO PUSH2 0x1787 JUMPI PUSH2 0x1786 PUSH2 0x42F9 JUMP JUMPDEST JUMPDEST MUL OR SWAP1 SSTORE POP PUSH1 0x60 DUP3 ADD MLOAD DUP2 PUSH1 0x2 ADD SSTORE PUSH1 0x80 DUP3 ADD MLOAD DUP2 PUSH1 0x3 ADD SSTORE PUSH1 0xA0 DUP3 ADD MLOAD DUP2 PUSH1 0x4 ADD SSTORE PUSH1 0xC0 DUP3 ADD MLOAD DUP2 PUSH1 0x5 ADD SSTORE PUSH1 0xE0 DUP3 ADD MLOAD DUP2 PUSH1 0x6 ADD SSTORE PUSH2 0x100 DUP3 ADD MLOAD DUP2 PUSH1 0x7 ADD SSTORE PUSH2 0x120 DUP3 ADD MLOAD DUP2 PUSH1 0x8 ADD SSTORE PUSH2 0x140 DUP3 ADD MLOAD DUP2 PUSH1 0x9 ADD PUSH0 PUSH2 0x100 EXP DUP2 SLOAD DUP2 PUSH20 0xFFFFFFFFFFFFFFFFFFFFFFFFFFFFFFFFFFFFFFFF MUL NOT AND SWAP1 DUP4 PUSH20 0xFFFFFFFFFFFFFFFFFFFFFFFFFFFFFFFFFFFFFFFF AND MUL OR SWAP1 SSTORE POP SWAP1 POP POP DUP1 SWAP3 POP POP POP SWAP6 SWAP5 POP POP POP POP POP JUMP JUMPDEST PUSH1 0x5 SLOAD DUP2 JUMP JUMPDEST PUSH1 0xA PUSH1 0x20 MSTORE DUP1 PUSH0 MSTORE PUSH1 0x40 PUSH0 KECCAK256 PUSH0 SWAP2 POP SWAP1 POP DUP1 PUSH0 ADD SLOAD SWAP1 DUP1 PUSH1 0x1 ADD PUSH0 SWAP1 SLOAD SWAP1 PUSH2 0x100 EXP SWAP1 DIV PUSH1 0xFF AND SWAP1 DUP1 PUSH1 0x1 ADD PUSH1 0x1 SWAP1 SLOAD SWAP1 PUSH2 0x100 EXP SWAP1 DIV PUSH1 0xFF AND SWAP1 DUP1 PUSH1 0x2 ADD SLOAD SWAP1 DUP1 PUSH1 0x3 ADD SLOAD SWAP1 DUP1 PUSH1 0x4 ADD SLOAD SWAP1 DUP1 PUSH1 0x5 ADD SLOAD SWAP1 DUP1 PUSH1 0x6 ADD SLOAD SWAP1 DUP1 PUSH1 0x7 ADD SLOAD SWAP1 DUP1 PUSH1 0x8 ADD SLOAD SWAP1 DUP1 PUSH1 0x9 ADD PUSH0 SWAP1 SLOAD SWAP1 PUSH2 0x100 EXP SWAP1 DIV PUSH20 0xFFFFFFFFFFFFFFFFFFFFFFFFFFFFFFFFFFFFFFFF AND SWAP1 POP DUP12 JUMP JUMPDEST PUSH0 PUSH0 PUSH1 0x15 PUSH0 CALLER PUSH20 0xFFFFFFFFFFFFFFFFFFFFFFFFFFFFFFFFFFFFFFFF AND PUSH20 0xFFFFFFFFFFFFFFFFFFFFFFFFFFFFFFFFFFFFFFFF AND DUP2 MSTORE PUSH1 0x20 ADD SWAP1 DUP2 MSTORE PUSH1 0x20 ADD PUSH0 KECCAK256 PUSH0 DUP3 PUSH1 0x5 DUP2 GT ISZERO PUSH2 0x1913 JUMPI PUSH2 0x1912 PUSH2 0x42F9 JUMP JUMPDEST JUMPDEST PUSH1 0x5 DUP2 GT ISZERO PUSH2 0x1925 JUMPI PUSH2 0x1924 PUSH2 0x42F9 JUMP JUMPDEST JUMPDEST DUP2 MSTORE PUSH1 0x20 ADD SWAP1 DUP2 MSTORE PUSH1 0x20 ADD PUSH0 KECCAK256 PUSH0 SWAP1 SLOAD SWAP1 PUSH2 0x100 EXP SWAP1 DIV PUSH1 0xFF AND DUP1 PUSH2 0x1997 JUMPI POP PUSH1 0x16 PUSH0 SWAP1 SLOAD SWAP1 PUSH2 0x100 EXP SWAP1 DIV PUSH20 0xFFFFFFFFFFFFFFFFFFFFFFFFFFFFFFFFFFFFFFFF AND PUSH20 0xFFFFFFFFFFFFFFFFFFFFFFFFFFFFFFFFFFFFFFFF AND CALLER PUSH20 0xFFFFFFFFFFFFFFFFFFFFFFFFFFFFFFFFFFFFFFFF AND EQ ISZERO JUMPDEST PUSH2 0x19CD JUMPI PUSH1 0x40 MLOAD PUSH32 0x9D7B369D00000000000000000000000000000000000000000000000000000000 DUP2 MSTORE PUSH1 0x4 ADD PUSH1 0x40 MLOAD DUP1 SWAP2 SUB SWAP1 REVERT JUMPDEST DUP7 PUSH1 0x80 DUP2 MLOAD GT ISZERO PUSH2 0x1A0A JUMPI PUSH1 0x40 MLOAD PUSH32 0xB11B2AD800000000000000000000000000000000000000000000000000000000 DUP2 MSTORE PUSH1 0x4 ADD PUSH1 0x40 MLOAD DUP1 SWAP2 SUB SWAP1 REVERT JUMPDEST PUSH0 PUSH1 0x7 PUSH0 DUP10 DUP2 MSTORE PUSH1 0x20 ADD SWAP1 DUP2 MSTORE PUSH1 0x20 ADD PUSH0 KECCAK256 PUSH0 ADD SLOAD SUB PUSH2 0x1A56 JUMPI PUSH1 0x40 MLOAD PUSH32 0xC5723B5100000000000000000000000000000000000000000000000000000000 DUP2 MSTORE PUSH1 0x4 ADD PUSH1 0x40 MLOAD DUP1 SWAP2 SUB SWAP1 REVERT JUMPDEST PUSH0 DUP6 EQ ISZERO DUP1 ISZERO PUSH2 0x1A78 JUMPI POP PUSH0 PUSH1 0xA PUSH0 DUP8 DUP2 MSTORE PUSH1 0x20 ADD SWAP1 DUP2 MSTORE PUSH1 0x20 ADD PUSH0 KECCAK256 PUSH0 ADD SLOAD EQ JUMPDEST ISZERO PUSH2 0x1AAF JUMPI PUSH1 0x40 MLOAD PUSH32 0xC5723B5100000000000000000000000000000000000000000000000000000000 DUP2 MSTORE PUSH1 0x4 ADD PUSH1 0x40 MLOAD DUP1 SWAP2 SUB SWAP1 REVERT JUMPDEST PUSH0 DUP5 EQ ISZERO DUP1 ISZERO PUSH2 0x1AD1 JUMPI POP PUSH0 PUSH1 0xB PUSH0 DUP7 DUP2 MSTORE PUSH1 0x20 ADD SWAP1 DUP2 MSTORE PUSH1 0x20 ADD PUSH0 KECCAK256 PUSH0 ADD SLOAD EQ JUMPDEST ISZERO PUSH2 0x1B08 JUMPI PUSH1 0x40 MLOAD PUSH32 0xC5723B5100000000000000000000000000000000000000000000000000000000 DUP2 MSTORE PUSH1 0x4 ADD PUSH1 0x40 MLOAD DUP1 SWAP2 SUB SWAP1 REVERT JUMPDEST PUSH0 PUSH0 PUSH0 DUP2 SLOAD DUP1 SWAP3 SWAP2 SWAP1 PUSH2 0x1B1A SWAP1 PUSH2 0x4D19 JUMP JUMPDEST SWAP2 SWAP1 POP SSTORE SWAP1 POP PUSH1 0x40 MLOAD DUP1 PUSH2 0x120 ADD PUSH1 0x40 MSTORE DUP1 DUP3 DUP2 MSTORE PUSH1 0x20 ADD DUP11 DUP2 MSTORE PUSH1 0x20 ADD DUP10 DUP2 MSTORE PUSH1 0x20 ADD DUP7 DUP2 MSTORE PUSH1 0x20 ADD PUSH0 DUP2 MSTORE PUSH1 0x20 ADD DUP8 DUP2 MSTORE PUSH1 0x20 ADD DUP9 PUSH1 0x1 DUP2 GT ISZERO PUSH2 0x1B63 JUMPI PUSH2 0x1B62 PUSH2 0x42F9 JUMP JUMPDEST JUMPDEST DUP2 MSTORE PUSH1 0x20 ADD TIMESTAMP DUP2 MSTORE PUSH1 0x20 ADD CALLER PUSH20 0xFFFFFFFFFFFFFFFFFFFFFFFFFFFFFFFFFFFFFFFF AND DUP2 MSTORE POP PUSH1 0x6 PUSH0 DUP4 DUP2 MSTORE PUSH1 0x20 ADD SWAP1 DUP2 MSTORE PUSH1 0x20 ADD PUSH0 KECCAK256 PUSH0 DUP3 ADD MLOAD DUP2 PUSH0 ADD SSTORE PUSH1 0x20 DUP3 ADD MLOAD DUP2 PUSH1 0x1 ADD SWAP1 DUP2 PUSH2 0x1BB6 SWAP2 SWAP1 PUSH2 0x4F5D JUMP JUMPDEST POP PUSH1 0x40 DUP3 ADD MLOAD DUP2 PUSH1 0x2 ADD SSTORE PUSH1 0x60 DUP3 ADD MLOAD DUP2 PUSH1 0x3 ADD SSTORE PUSH1 0x80 DUP3 ADD MLOAD DUP2 PUSH1 0x4 ADD SSTORE PUSH1 0xA0 DUP3 ADD MLOAD DUP2 PUSH1 0x5 ADD SSTORE PUSH1 0xC0 DUP3 ADD MLOAD DUP2 PUSH1 0x6 ADD PUSH0 PUSH2 0x100 EXP DUP2 SLOAD DUP2 PUSH1 0xFF MUL NOT AND SWAP1 DUP4 PUSH1 0x1 DUP2 GT ISZERO PUSH2 0x1C09 JUMPI PUSH2 0x1C08 PUSH2 0x42F9 JUMP JUMPDEST JUMPDEST MUL OR SWAP1 SSTORE POP PUSH1 0xE0 DUP3 ADD MLOAD DUP2 PUSH1 0x7 ADD SSTORE PUSH2 0x100 DUP3 ADD MLOAD DUP2 PUSH1 0x8 ADD PUSH0 PUSH2 0x100 EXP DUP2 SLOAD DUP2 PUSH20 0xFFFFFFFFFFFFFFFFFFFFFFFFFFFFFFFFFFFFFFFF MUL NOT AND SWAP1 DUP4 PUSH20 0xFFFFFFFFFFFFFFFFFFFFFFFFFFFFFFFFFFFFFFFF AND MUL OR SWAP1 SSTORE POP SWAP1 POP POP DUP1 SWAP4 POP POP POP POP SWAP6 SWAP5 POP POP POP POP POP JUMP JUMPDEST PUSH1 0x9 PUSH1 0x20 MSTORE DUP1 PUSH0 MSTORE PUSH1 0x40 PUSH0 KECCAK256 PUSH0 SWAP2 POP SWAP1 POP DUP1 PUSH0 ADD SLOAD SWAP1 DUP1 PUSH1 0x1 ADD DUP1 SLOAD PUSH2 0x1C96 SWAP1 PUSH2 0x4D8D JUMP JUMPDEST DUP1 PUSH1 0x1F ADD PUSH1 0x20 DUP1 SWAP2 DIV MUL PUSH1 0x20 ADD PUSH1 0x40 MLOAD SWAP1 DUP2 ADD PUSH1 0x40 MSTORE DUP1 SWAP3 SWAP2 SWAP1 DUP2 DUP2 MSTORE PUSH1 0x20 ADD DUP3 DUP1 SLOAD PUSH2 0x1CC2 SWAP1 PUSH2 0x4D8D JUMP JUMPDEST DUP1 ISZERO PUSH2 0x1D0D JUMPI DUP1 PUSH1 0x1F LT PUSH2 0x1CE4 JUMPI PUSH2 0x100 DUP1 DUP4 SLOAD DIV MUL DUP4 MSTORE SWAP2 PUSH1 0x20 ADD SWAP2 PUSH2 0x1D0D JUMP JUMPDEST DUP3 ADD SWAP2 SWAP1 PUSH0 MSTORE PUSH1 0x20 PUSH0 KECCAK256 SWAP1 JUMPDEST DUP2 SLOAD DUP2 MSTORE SWAP1 PUSH1 0x1 ADD SWAP1 PUSH1 0x20 ADD DUP1 DUP4 GT PUSH2 0x1CF0 JUMPI DUP3 SWAP1 SUB PUSH1 0x1F AND DUP3 ADD SWAP2 JUMPDEST POP POP POP POP POP SWAP1 DUP1 PUSH1 0x2 ADD SLOAD SWAP1 DUP1 PUSH1 0x3 ADD PUSH0 SWAP1 SLOAD SWAP1 PUSH2 0x100 EXP SWAP1 DIV PUSH20 0xFFFFFFFFFFFFFFFFFFFFFFFFFFFFFFFFFFFFFFFF AND SWAP1 POP DUP5 JUMP JUMPDEST PUSH1 0x4 PUSH1 0x15 PUSH0 CALLER PUSH20 0xFFFFFFFFFFFFFFFFFFFFFFFFFFFFFFFFFFFFFFFF AND PUSH20 0xFFFFFFFFFFFFFFFFFFFFFFFFFFFFFFFFFFFFFFFF AND DUP2 MSTORE PUSH1 0x20 ADD SWAP1 DUP2 MSTORE PUSH1 0x20 ADD PUSH0 KECCAK256 PUSH0 DUP3 PUSH1 0x5 DUP2 GT ISZERO PUSH2 0x1D95 JUMPI PUSH2 0x1D94 PUSH2 0x42F9 JUMP JUMPDEST JUMPDEST PUSH1 0x5 DUP2 GT ISZERO PUSH2 0x1DA7 JUMPI PUSH2 0x1DA6 PUSH2 0x42F9 JUMP JUMPDEST JUMPDEST DUP2 MSTORE PUSH1 0x20 ADD SWAP1 DUP2 MSTORE PUSH1 0x20 ADD PUSH0 KECCAK256 PUSH0 SWAP1 SLOAD SWAP1 PUSH2 0x100 EXP SWAP1 DIV PUSH1 0xFF AND DUP1 PUSH2 0x1E19 JUMPI POP PUSH1 0x16 PUSH0 SWAP1 SLOAD SWAP1 PUSH2 0x100 EXP SWAP1 DIV PUSH20 0xFFFFFFFFFFFFFFFFFFFFFFFFFFFFFFFFFFFFFFFF AND PUSH20 0xFFFFFFFFFFFFFFFFFFFFFFFFFFFFFFFFFFFFFFFF AND CALLER PUSH20 0xFFFFFFFFFFFFFFFFFFFFFFFFFFFFFFFFFFFFFFFF AND EQ ISZERO JUMPDEST PUSH2 0x1E4F JUMPI PUSH1 0x40 MLOAD PUSH32 0x9D7B369D00000000000000000000000000000000000000000000000000000000 DUP2 MSTORE PUSH1 0x4 ADD PUSH1 0x40 MLOAD DUP1 SWAP2 SUB SWAP1 REVERT JUMPDEST PUSH1 0x1 PUSH1 0x2 DUP2 GT ISZERO PUSH2 0x1E63 JUMPI PUSH2 0x1E62 PUSH2 0x42F9 JUMP JUMPDEST JUMPDEST PUSH1 0xA PUSH0 DUP5 DUP2 MSTORE PUSH1 0x20 ADD SWAP1 DUP2 MSTORE PUSH1 0x20 ADD PUSH0 KECCAK256 PUSH1 0x1 ADD PUSH1 0x1 SWAP1 SLOAD SWAP1 PUSH2 0x100 EXP SWAP1 DIV PUSH1 0xFF AND PUSH1 0x2 DUP2 GT ISZERO PUSH2 0x1E97 JUMPI PUSH2 0x1E96 PUSH2 0x42F9 JUMP JUMPDEST JUMPDEST EQ PUSH2 0x1ECE JUMPI PUSH1 0x40 MLOAD PUSH32 0xF525E32000000000000000000000000000000000000000000000000000000000 DUP2 MSTORE PUSH1 0x4 ADD PUSH1 0x40 MLOAD DUP1 SWAP2 SUB SWAP1 REVERT JUMPDEST PUSH1 0x2 PUSH1 0xA PUSH0 DUP5 DUP2 MSTORE PUSH1 0x20 ADD SWAP1 DUP2 MSTORE PUSH1 0x20 ADD PUSH0 KECCAK256 PUSH1 0x1 ADD PUSH1 0x1 PUSH2 0x100 EXP DUP2 SLOAD DUP2 PUSH1 0xFF MUL NOT AND SWAP1 DUP4 PUSH1 0x2 DUP2 GT ISZERO PUSH2 0x1F06 JUMPI PUSH2 0x1F05 PUSH2 0x42F9 JUMP JUMPDEST JUMPDEST MUL OR SWAP1 SSTORE POP TIMESTAMP PUSH1 0xA PUSH0 DUP5 DUP2 MSTORE PUSH1 0x20 ADD SWAP1 DUP2 MSTORE PUSH1 0x20 ADD PUSH0 KECCAK256 PUSH1 0x7 ADD DUP2 SWAP1 SSTORE POP PUSH1 0x3 DUP1 DUP2 GT ISZERO PUSH2 0x1F37 JUMPI PUSH2 0x1F36 PUSH2 0x42F9 JUMP JUMPDEST JUMPDEST PUSH1 0xA PUSH0 DUP5 DUP2 MSTORE PUSH1 0x20 ADD SWAP1 DUP2 MSTORE PUSH1 0x20 ADD PUSH0 KECCAK256 PUSH1 0x1 ADD PUSH0 SWAP1 SLOAD SWAP1 PUSH2 0x100 EXP SWAP1 DIV PUSH1 0xFF AND PUSH1 0x3 DUP2 GT ISZERO PUSH2 0x1F6A JUMPI PUSH2 0x1F69 PUSH2 0x42F9 JUMP JUMPDEST JUMPDEST SUB PUSH2 0x20FA JUMPI PUSH0 PUSH1 0x13 PUSH0 DUP5 DUP2 MSTORE PUSH1 0x20 ADD SWAP1 DUP2 MSTORE PUSH1 0x20 ADD PUSH0 KECCAK256 DUP1 SLOAD DUP1 PUSH1 0x20 MUL PUSH1 0x20 ADD PUSH1 0x40 MLOAD SWAP1 DUP2 ADD PUSH1 0x40 MSTORE DUP1 SWAP3 SWAP2 SWAP1 DUP2 DUP2 MSTORE PUSH1 0x20 ADD DUP3 DUP1 SLOAD DUP1 ISZERO PUSH2 0x1FC9 JUMPI PUSH1 0x20 MUL DUP3 ADD SWAP2 SWAP1 PUSH0 MSTORE PUSH1 0x20 PUSH0 KECCAK256 SWAP1 JUMPDEST DUP2 SLOAD DUP2 MSTORE PUSH1 0x20 ADD SWAP1 PUSH1 0x1 ADD SWAP1 DUP1 DUP4 GT PUSH2 0x1FB5 JUMPI JUMPDEST POP POP POP POP POP SWAP1 POP PUSH0 PUSH0 SWAP1 POP JUMPDEST DUP2 MLOAD DUP2 LT ISZERO PUSH2 0x20F7 JUMPI PUSH1 0xA PUSH0 DUP6 DUP2 MSTORE PUSH1 0x20 ADD SWAP1 DUP2 MSTORE PUSH1 0x20 ADD PUSH0 KECCAK256 PUSH1 0x3 ADD SLOAD PUSH1 0x6 PUSH0 DUP5 DUP5 DUP2 MLOAD DUP2 LT PUSH2 0x2009 JUMPI PUSH2 0x2008 PUSH2 0x4CBF JUMP JUMPDEST JUMPDEST PUSH1 0x20 MUL PUSH1 0x20 ADD ADD MLOAD DUP2 MSTORE PUSH1 0x20 ADD SWAP1 DUP2 MSTORE PUSH1 0x20 ADD PUSH0 KECCAK256 PUSH1 0x3 ADD DUP2 SWAP1 SSTORE POP PUSH0 PUSH1 0x6 PUSH0 DUP5 DUP5 DUP2 MLOAD DUP2 LT PUSH2 0x203C JUMPI PUSH2 0x203B PUSH2 0x4CBF JUMP JUMPDEST JUMPDEST PUSH1 0x20 MUL PUSH1 0x20 ADD ADD MLOAD DUP2 MSTORE PUSH1 0x20 ADD SWAP1 DUP2 MSTORE PUSH1 0x20 ADD PUSH0 KECCAK256 PUSH1 0x4 ADD DUP2 SWAP1 SSTORE POP PUSH1 0x14 PUSH0 DUP4 DUP4 DUP2 MLOAD DUP2 LT PUSH2 0x206E JUMPI PUSH2 0x206D PUSH2 0x4CBF JUMP JUMPDEST JUMPDEST PUSH1 0x20 MUL PUSH1 0x20 ADD ADD MLOAD DUP2 MSTORE PUSH1 0x20 ADD SWAP1 DUP2 MSTORE PUSH1 0x20 ADD PUSH0 KECCAK256 PUSH0 SWAP1 SLOAD SWAP1 PUSH2 0x100 EXP SWAP1 DIV PUSH1 0xFF AND PUSH2 0x20EA JUMPI PUSH0 PUSH1 0x6 PUSH0 DUP5 DUP5 DUP2 MLOAD DUP2 LT PUSH2 0x20AB JUMPI PUSH2 0x20AA PUSH2 0x4CBF JUMP JUMPDEST JUMPDEST PUSH1 0x20 MUL PUSH1 0x20 ADD ADD MLOAD DUP2 MSTORE PUSH1 0x20 ADD SWAP1 DUP2 MSTORE PUSH1 0x20 ADD PUSH0 KECCAK256 PUSH1 0x6 ADD PUSH0 PUSH2 0x100 EXP DUP2 SLOAD DUP2 PUSH1 0xFF MUL NOT AND SWAP1 DUP4 PUSH1 0x1 DUP2 GT ISZERO PUSH2 0x20E4 JUMPI PUSH2 0x20E3 PUSH2 0x42F9 JUMP JUMPDEST JUMPDEST MUL OR SWAP1 SSTORE POP JUMPDEST DUP1 DUP1 PUSH1 0x1 ADD SWAP2 POP POP PUSH2 0x1FD5 JUMP JUMPDEST POP POP JUMPDEST POP POP JUMP JUMPDEST PUSH0 SLOAD DUP2 JUMP JUMPDEST PUSH1 0x60 PUSH1 0xC PUSH0 DUP4 DUP2 MSTORE PUSH1 0x20 ADD SWAP1 DUP2 MSTORE PUSH1 0x20 ADD PUSH0 KECCAK256 DUP1 SLOAD DUP1 PUSH1 0x20 MUL PUSH1 0x20 ADD PUSH1 0x40 MLOAD SWAP1 DUP2 ADD PUSH1 0x40 MSTORE DUP1 SWAP3 SWAP2 SWAP1 DUP2 DUP2 MSTORE PUSH1 0x20 ADD DUP3 DUP1 SLOAD DUP1 ISZERO PUSH2 0x215E JUMPI PUSH1 0x20 MUL DUP3 ADD SWAP2 SWAP1 PUSH0 MSTORE PUSH1 0x20 PUSH0 KECCAK256 SWAP1 JUMPDEST DUP2 SLOAD DUP2 MSTORE PUSH1 0x20 ADD SWAP1 PUSH1 0x1 ADD SWAP1 DUP1 DUP4 GT PUSH2 0x214A JUMPI JUMPDEST POP POP POP POP POP SWAP1 POP SWAP2 SWAP1 POP JUMP JUMPDEST PUSH1 0xD PUSH1 0x20 MSTORE DUP2 PUSH0 MSTORE PUSH1 0x40 PUSH0 KECCAK256 DUP2 DUP2 SLOAD DUP2 LT PUSH2 0x2183 JUMPI PUSH0 DUP1 REVERT JUMPDEST SWAP1 PUSH0 MSTORE PUSH1 0x20 PUSH0 KECCAK256 ADD PUSH0 SWAP2 POP SWAP2 POP POP SLOAD DUP2 JUMP JUMPDEST PUSH1 0x60 PUSH0 PUSH1 0x5 DUP2 GT ISZERO PUSH2 0x21AA JUMPI PUSH2 0x21A9 PUSH2 0x42F9 JUMP JUMPDEST JUMPDEST DUP4 PUSH1 0x5 DUP2 GT ISZERO PUSH2 0x21BD JUMPI PUSH2 0x21BC PUSH2 0x42F9 JUMP JUMPDEST JUMPDEST SUB PUSH2 0x2227 JUMPI PUSH1 0xD PUSH0 DUP4 DUP2 MSTORE PUSH1 0x20 ADD SWAP1 DUP2 MSTORE PUSH1 0x20 ADD PUSH0 KECCAK256 DUP1 SLOAD DUP1 PUSH1 0x20 MUL PUSH1 0x20 ADD PUSH1 0x40 MLOAD SWAP1 DUP2 ADD PUSH1 0x40 MSTORE DUP1 SWAP3 SWAP2 SWAP1 DUP2 DUP2 MSTORE PUSH1 0x20 ADD DUP3 DUP1 SLOAD DUP1 ISZERO PUSH2 0x221B JUMPI PUSH1 0x20 MUL DUP3 ADD SWAP2 SWAP1 PUSH0 MSTORE PUSH1 0x20 PUSH0 KECCAK256 SWAP1 JUMPDEST DUP2 SLOAD DUP2 MSTORE PUSH1 0x20 ADD SWAP1 PUSH1 0x1 ADD SWAP1 DUP1 DUP4 GT PUSH2 0x2207 JUMPI JUMPDEST POP POP POP POP POP SWAP1 POP PUSH2 0x24A5 JUMP JUMPDEST PUSH1 0x1 PUSH1 0x5 DUP2 GT ISZERO PUSH2 0x223B JUMPI PUSH2 0x223A PUSH2 0x42F9 JUMP JUMPDEST JUMPDEST DUP4 PUSH1 0x5 DUP2 GT ISZERO PUSH2 0x224E JUMPI PUSH2 0x224D PUSH2 0x42F9 JUMP JUMPDEST JUMPDEST SUB PUSH2 0x22B8 JUMPI PUSH1 0xE PUSH0 DUP4 DUP2 MSTORE PUSH1 0x20 ADD SWAP1 DUP2 MSTORE PUSH1 0x20 ADD PUSH0 KECCAK256 DUP1 SLOAD DUP1 PUSH1 0x20 MUL PUSH1 0x20 ADD PUSH1 0x40 MLOAD SWAP1 DUP2 ADD PUSH1 0x40 MSTORE DUP1 SWAP3 SWAP2 SWAP1 DUP2 DUP2 MSTORE PUSH1 0x20 ADD DUP3 DUP1 SLOAD DUP1 ISZERO PUSH2 0x22AC JUMPI PUSH1 0x20 MUL DUP3 ADD SWAP2 SWAP1 PUSH0 MSTORE PUSH1 0x20 PUSH0 KECCAK256 SWAP1 JUMPDEST DUP2 SLOAD DUP2 MSTORE PUSH1 0x20 ADD SWAP1 PUSH1 0x1 ADD SWAP1 DUP1 DUP4 GT PUSH2 0x2298 JUMPI JUMPDEST POP POP POP POP POP SWAP1 POP PUSH2 0x24A5 JUMP JUMPDEST PUSH1 0x2 PUSH1 0x5 DUP2 GT ISZERO PUSH2 0x22CC JUMPI PUSH2 0x22CB PUSH2 0x42F9 JUMP JUMPDEST JUMPDEST DUP4 PUSH1 0x5 DUP2 GT ISZERO PUSH2 0x22DF JUMPI PUSH2 0x22DE PUSH2 0x42F9 JUMP JUMPDEST JUMPDEST SUB PUSH2 0x2349 JUMPI PUSH1 0xF PUSH0 DUP4 DUP2 MSTORE PUSH1 0x20 ADD SWAP1 DUP2 MSTORE PUSH1 0x20 ADD PUSH0 KECCAK256 DUP1 SLOAD DUP1 PUSH1 0x20 MUL PUSH1 0x20 ADD PUSH1 0x40 MLOAD SWAP1 DUP2 ADD PUSH1 0x40 MSTORE DUP1 SWAP3 SWAP2 SWAP1 DUP2 DUP2 MSTORE PUSH1 0x20 ADD DUP3 DUP1 SLOAD DUP1 ISZERO PUSH2 0x233D JUMPI PUSH1 0x20 MUL DUP3 ADD SWAP2 SWAP1 PUSH0 MSTORE PUSH1 0x20 PUSH0 KECCAK256 SWAP1 JUMPDEST DUP2 SLOAD DUP2 MSTORE PUSH1 0x20 ADD SWAP1 PUSH1 0x1 ADD SWAP1 DUP1 DUP4 GT PUSH2 0x2329 JUMPI JUMPDEST POP POP POP POP POP SWAP1 POP PUSH2 0x24A5 JUMP JUMPDEST PUSH1 0x4 PUSH1 0x5 DUP2 GT ISZERO PUSH2 0x235D JUMPI PUSH2 0x235C PUSH2 0x42F9 JUMP JUMPDEST JUMPDEST DUP4 PUSH1 0x5 DUP2 GT ISZERO PUSH2 0x2370 JUMPI PUSH2 0x236F PUSH2 0x42F9 JUMP JUMPDEST JUMPDEST SUB PUSH2 0x23DA JUMPI PUSH1 0x10 PUSH0 DUP4 DUP2 MSTORE PUSH1 0x20 ADD SWAP1 DUP2 MSTORE PUSH1 0x20 ADD PUSH0 KECCAK256 DUP1 SLOAD DUP1 PUSH1 0x20 MUL PUSH1 0x20 ADD PUSH1 0x40 MLOAD SWAP1 DUP2 ADD PUSH1 0x40 MSTORE DUP1 SWAP3 SWAP2 SWAP1 DUP2 DUP2 MSTORE PUSH1 0x20 ADD DUP3 DUP1 SLOAD DUP1 ISZERO PUSH2 0x23CE JUMPI PUSH1 0x20 MUL DUP3 ADD SWAP2 SWAP1 PUSH0 MSTORE PUSH1 0x20 PUSH0 KECCAK256 SWAP1 JUMPDEST DUP2 SLOAD DUP2 MSTORE PUSH1 0x20 ADD SWAP1 PUSH1 0x1 ADD SWAP1 DUP1 DUP4 GT PUSH2 0x23BA JUMPI JUMPDEST POP POP POP POP POP SWAP1 POP PUSH2 0x24A5 JUMP JUMPDEST PUSH1 0x5 DUP1 DUP2 GT ISZERO PUSH2 0x23ED JUMPI PUSH2 0x23EC PUSH2 0x42F9 JUMP JUMPDEST JUMPDEST DUP4 PUSH1 0x5 DUP2 GT ISZERO PUSH2 0x2400 JUMPI PUSH2 0x23FF PUSH2 0x42F9 JUMP JUMPDEST JUMPDEST SUB PUSH2 0x246A JUMPI PUSH1 0x11 PUSH0 DUP4 DUP2 MSTORE PUSH1 0x20 ADD SWAP1 DUP2 MSTORE PUSH1 0x20 ADD PUSH0 KECCAK256 DUP1 SLOAD DUP1 PUSH1 0x20 MUL PUSH1 0x20 ADD PUSH1 0x40 MLOAD SWAP1 DUP2 ADD PUSH1 0x40 MSTORE DUP1 SWAP3 SWAP2 SWAP1 DUP2 DUP2 MSTORE PUSH1 0x20 ADD DUP3 DUP1 SLOAD DUP1 ISZERO PUSH2 0x245E JUMPI PUSH1 0x20 MUL DUP3 ADD SWAP2 SWAP1 PUSH0 MSTORE PUSH1 0x20 PUSH0 KECCAK256 SWAP1 JUMPDEST DUP2 SLOAD DUP2 MSTORE PUSH1 0x20 ADD SWAP1 PUSH1 0x1 ADD SWAP1 DUP1 DUP4 GT PUSH2 0x244A JUMPI JUMPDEST POP POP POP POP POP SWAP1 POP PUSH2 0x24A5 JUMP JUMPDEST PUSH1 0x40 MLOAD PUSH32 0x8C379A000000000000000000000000000000000000000000000000000000000 DUP2 MSTORE PUSH1 0x4 ADD PUSH2 0x249C SWAP1 PUSH2 0x5076 JUMP JUMPDEST PUSH1 0x40 MLOAD DUP1 SWAP2 SUB SWAP1 REVERT JUMPDEST SWAP3 SWAP2 POP POP JUMP JUMPDEST PUSH0 PUSH1 0x9 PUSH0 DUP4 DUP2 MSTORE PUSH1 0x20 ADD SWAP1 DUP2 MSTORE PUSH1 0x20 ADD PUSH0 KECCAK256 PUSH0 ADD SLOAD SUB PUSH2 0x24F7 JUMPI PUSH1 0x40 MLOAD PUSH32 0xC5723B5100000000000000000000000000000000000000000000000000000000 DUP2 MSTORE PUSH1 0x4 ADD PUSH1 0x40 MLOAD DUP1 SWAP2 SUB SWAP1 REVERT JUMPDEST PUSH1 0x15 PUSH0 CALLER PUSH20 0xFFFFFFFFFFFFFFFFFFFFFFFFFFFFFFFFFFFFFFFF AND PUSH20 0xFFFFFFFFFFFFFFFFFFFFFFFFFFFFFFFFFFFFFFFF AND DUP2 MSTORE PUSH1 0x20 ADD SWAP1 DUP2 MSTORE PUSH1 0x20 ADD PUSH0 KECCAK256 PUSH0 DUP5 PUSH1 0x5 DUP2 GT ISZERO PUSH2 0x2548 JUMPI PUSH2 0x2547 PUSH2 0x42F9 JUMP JUMPDEST JUMPDEST PUSH1 0x5 DUP2 GT ISZERO PUSH2 0x255A JUMPI PUSH2 0x2559 PUSH2 0x42F9 JUMP JUMPDEST JUMPDEST DUP2 MSTORE PUSH1 0x20 ADD SWAP1 DUP2 MSTORE PUSH1 0x20 ADD PUSH0 KECCAK256 PUSH0 SWAP1 SLOAD SWAP1 PUSH2 0x100 EXP SWAP1 DIV PUSH1 0xFF AND DUP1 PUSH2 0x25CC JUMPI POP PUSH1 0x16 PUSH0 SWAP1 SLOAD SWAP1 PUSH2 0x100 EXP SWAP1 DIV PUSH20 0xFFFFFFFFFFFFFFFFFFFFFFFFFFFFFFFFFFFFFFFF AND PUSH20 0xFFFFFFFFFFFFFFFFFFFFFFFFFFFFFFFFFFFFFFFF AND CALLER PUSH20 0xFFFFFFFFFFFFFFFFFFFFFFFFFFFFFFFFFFFFFFFF AND EQ ISZERO JUMPDEST PUSH2 0x2602 JUMPI PUSH1 0x40 MLOAD PUSH32 0x9D7B369D00000000000000000000000000000000000000000000000000000000 DUP2 MSTORE PUSH1 0x4 ADD PUSH1 0x40 MLOAD DUP1 SWAP2 SUB SWAP1 REVERT JUMPDEST PUSH0 PUSH1 0x5 DUP2 GT ISZERO PUSH2 0x2615 JUMPI PUSH2 0x2614 PUSH2 0x42F9 JUMP JUMPDEST JUMPDEST DUP4 PUSH1 0x5 DUP2 GT ISZERO PUSH2 0x2628 JUMPI PUSH2 0x2627 PUSH2 0x42F9 JUMP JUMPDEST JUMPDEST SUB PUSH2 0x26B3 JUMPI PUSH0 PUSH1 0x6 PUSH0 DUP5 DUP2 MSTORE PUSH1 0x20 ADD SWAP1 DUP2 MSTORE PUSH1 0x20 ADD PUSH0 KECCAK256 PUSH0 ADD SLOAD SUB PUSH2 0x2679 JUMPI PUSH1 0x40 MLOAD PUSH32 0xC5723B5100000000000000000000000000000000000000000000000000000000 DUP2 MSTORE PUSH1 0x4 ADD PUSH1 0x40 MLOAD DUP1 SWAP2 SUB SWAP1 REVERT JUMPDEST PUSH1 0xD PUSH0 DUP4 DUP2 MSTORE PUSH1 0x20 ADD SWAP1 DUP2 MSTORE PUSH1 0x20 ADD PUSH0 KECCAK256 DUP2 SWAP1 DUP1 PUSH1 0x1 DUP2 SLOAD ADD DUP1 DUP3 SSTORE DUP1 SWAP2 POP POP PUSH1 0x1 SWAP1 SUB SWAP1 PUSH0 MSTORE PUSH1 0x20 PUSH0 KECCAK256 ADD PUSH0 SWAP1 SWAP2 SWAP1 SWAP2 SWAP1 SWAP2 POP SSTORE PUSH2 0x29B0 JUMP JUMPDEST PUSH1 0x1 PUSH1 0x5 DUP2 GT ISZERO PUSH2 0x26C7 JUMPI PUSH2 0x26C6 PUSH2 0x42F9 JUMP JUMPDEST JUMPDEST DUP4 PUSH1 0x5 DUP2 GT ISZERO PUSH2 0x26DA JUMPI PUSH2 0x26D9 PUSH2 0x42F9 JUMP JUMPDEST JUMPDEST SUB PUSH2 0x2765 JUMPI PUSH0 PUSH1 0x7 PUSH0 DUP5 DUP2 MSTORE PUSH1 0x20 ADD SWAP1 DUP2 MSTORE PUSH1 0x20 ADD PUSH0 KECCAK256 PUSH0 ADD SLOAD SUB PUSH2 0x272B JUMPI PUSH1 0x40 MLOAD PUSH32 0xC5723B5100000000000000000000000000000000000000000000000000000000 DUP2 MSTORE PUSH1 0x4 ADD PUSH1 0x40 MLOAD DUP1 SWAP2 SUB SWAP1 REVERT JUMPDEST PUSH1 0xE PUSH0 DUP4 DUP2 MSTORE PUSH1 0x20 ADD SWAP1 DUP2 MSTORE PUSH1 0x20 ADD PUSH0 KECCAK256 DUP2 SWAP1 DUP1 PUSH1 0x1 DUP2 SLOAD ADD DUP1 DUP3 SSTORE DUP1 SWAP2 POP POP PUSH1 0x1 SWAP1 SUB SWAP1 PUSH0 MSTORE PUSH1 0x20 PUSH0 KECCAK256 ADD PUSH0 SWAP1 SWAP2 SWAP1 SWAP2 SWAP1 SWAP2 POP SSTORE PUSH2 0x29AF JUMP JUMPDEST PUSH1 0x2 PUSH1 0x5 DUP2 GT ISZERO PUSH2 0x2779 JUMPI PUSH2 0x2778 PUSH2 0x42F9 JUMP JUMPDEST JUMPDEST DUP4 PUSH1 0x5 DUP2 GT ISZERO PUSH2 0x278C JUMPI PUSH2 0x278B PUSH2 0x42F9 JUMP JUMPDEST JUMPDEST SUB PUSH2 0x2817 JUMPI PUSH0 PUSH1 0x8 PUSH0 DUP5 DUP2 MSTORE PUSH1 0x20 ADD SWAP1 DUP2 MSTORE PUSH1 0x20 ADD PUSH0 KECCAK256 PUSH0 ADD SLOAD SUB PUSH2 0x27DD JUMPI PUSH1 0x40 MLOAD PUSH32 0xC5723B5100000000000000000000000000000000000000000000000000000000 DUP2 MSTORE PUSH1 0x4 ADD PUSH1 0x40 MLOAD DUP1 SWAP2 SUB SWAP1 REVERT JUMPDEST PUSH1 0xF PUSH0 DUP4 DUP2 MSTORE PUSH1 0x20 ADD SWAP1 DUP2 MSTORE PUSH1 0x20 ADD PUSH0 KECCAK256 DUP2 SWAP1 DUP1 PUSH1 0x1 DUP2 SLOAD ADD DUP1 DUP3 SSTORE DUP1 SWAP2 POP POP PUSH1 0x1 SWAP1 SUB SWAP1 PUSH0 MSTORE PUSH1 0x20 PUSH0 KECCAK256 ADD PUSH0 SWAP1 SWAP2 SWAP1 SWAP2 SWAP1 SWAP2 POP SSTORE PUSH2 0x29AE JUMP JUMPDEST PUSH1 0x4 PUSH1 0x5 DUP2 GT ISZERO PUSH2 0x282B JUMPI PUSH2 0x282A PUSH2 0x42F9 JUMP JUMPDEST JUMPDEST DUP4 PUSH1 0x5 DUP2 GT ISZERO PUSH2 0x283E JUMPI PUSH2 0x283D PUSH2 0x42F9 JUMP JUMPDEST JUMPDEST SUB PUSH2 0x28C9 JUMPI PUSH0 PUSH1 0xA PUSH0 DUP5 DUP2 MSTORE PUSH1 0x20 ADD SWAP1 DUP2 MSTORE PUSH1 0x20 ADD PUSH0 KECCAK256 PUSH0 ADD SLOAD SUB PUSH2 0x288F JUMPI PUSH1 0x40 MLOAD PUSH32 0xC5723B5100000000000000000000000000000000000000000000000000000000 DUP2 MSTORE PUSH1 0x4 ADD PUSH1 0x40 MLOAD DUP1 SWAP2 SUB SWAP1 REVERT JUMPDEST PUSH1 0x10 PUSH0 DUP4 DUP2 MSTORE PUSH1 0x20 ADD SWAP1 DUP2 MSTORE PUSH1 0x20 ADD PUSH0 KECCAK256 DUP2 SWAP1 DUP1 PUSH1 0x1 DUP2 SLOAD ADD DUP1 DUP3 SSTORE DUP1 SWAP2 POP POP PUSH1 0x1 SWAP1 SUB SWAP1 PUSH0 MSTORE PUSH1 0x20 PUSH0 KECCAK256 ADD PUSH0 SWAP1 SWAP2 SWAP1 SWAP2 SWAP1 SWAP2 POP SSTORE PUSH2 0x29AD JUMP JUMPDEST PUSH1 0x5 DUP1 DUP2 GT ISZERO PUSH2 0x28DC JUMPI PUSH2 0x28DB PUSH2 0x42F9 JUMP JUMPDEST JUMPDEST DUP4 PUSH1 0x5 DUP2 GT ISZERO PUSH2 0x28EF JUMPI PUSH2 0x28EE PUSH2 0x42F9 JUMP JUMPDEST JUMPDEST SUB PUSH2 0x297A JUMPI PUSH0 PUSH1 0xB PUSH0 DUP5 DUP2 MSTORE PUSH1 0x20 ADD SWAP1 DUP2 MSTORE PUSH1 0x20 ADD PUSH0 KECCAK256 PUSH0 ADD SLOAD SUB PUSH2 0x2940 JUMPI PUSH1 0x40 MLOAD PUSH32 0xC5723B5100000000000000000000000000000000000000000000000000000000 DUP2 MSTORE PUSH1 0x4 ADD PUSH1 0x40 MLOAD DUP1 SWAP2 SUB SWAP1 REVERT JUMPDEST PUSH1 0x11 PUSH0 DUP4 DUP2 MSTORE PUSH1 0x20 ADD SWAP1 DUP2 MSTORE PUSH1 0x20 ADD PUSH0 KECCAK256 DUP2 SWAP1 DUP1 PUSH1 0x1 DUP2 SLOAD ADD DUP1 DUP3 SSTORE DUP1 SWAP2 POP POP PUSH1 0x1 SWAP1 SUB SWAP1 PUSH0 MSTORE PUSH1 0x20 PUSH0 KECCAK256 ADD PUSH0 SWAP1 SWAP2 SWAP1 SWAP2 SWAP1 SWAP2 POP SSTORE PUSH2 0x29AC JUMP JUMPDEST PUSH1 0x40 MLOAD PUSH32 0x9D7B369D00000000000000000000000000000000000000000000000000000000 DUP2 MSTORE PUSH1 0x4 ADD PUSH1 0x40 MLOAD DUP1 SWAP2 SUB SWAP1 REVERT JUMPDEST JUMPDEST JUMPDEST JUMPDEST JUMPDEST POP POP POP JUMP JUMPDEST PUSH1 0x14 PUSH1 0x20 MSTORE DUP1 PUSH0 MSTORE PUSH1 0x40 PUSH0 KECCAK256 PUSH0 SWAP2 POP SLOAD SWAP1 PUSH2 0x100 EXP SWAP1 DIV PUSH1 0xFF AND DUP2 JUMP JUMPDEST PUSH1 0x3 SLOAD DUP2 JUMP JUMPDEST PUSH0 PUSH1 0x1 PUSH1 0x15 PUSH0 CALLER PUSH20 0xFFFFFFFFFFFFFFFFFFFFFFFFFFFFFFFFFFFFFFFF AND PUSH20 0xFFFFFFFFFFFFFFFFFFFFFFFFFFFFFFFFFFFFFFFF AND DUP2 MSTORE PUSH1 0x20 ADD SWAP1 DUP2 MSTORE PUSH1 0x20 ADD PUSH0 KECCAK256 PUSH0 DUP3 PUSH1 0x5 DUP2 GT ISZERO PUSH2 0x2A2C JUMPI PUSH2 0x2A2B PUSH2 0x42F9 JUMP JUMPDEST JUMPDEST PUSH1 0x5 DUP2 GT ISZERO PUSH2 0x2A3E JUMPI PUSH2 0x2A3D PUSH2 0x42F9 JUMP JUMPDEST JUMPDEST DUP2 MSTORE PUSH1 0x20 ADD SWAP1 DUP2 MSTORE PUSH1 0x20 ADD PUSH0 KECCAK256 PUSH0 SWAP1 SLOAD SWAP1 PUSH2 0x100 EXP SWAP1 DIV PUSH1 0xFF AND DUP1 PUSH2 0x2AB0 JUMPI POP PUSH1 0x16 PUSH0 SWAP1 SLOAD SWAP1 PUSH2 0x100 EXP SWAP1 DIV PUSH20 0xFFFFFFFFFFFFFFFFFFFFFFFFFFFFFFFFFFFFFFFF AND PUSH20 0xFFFFFFFFFFFFFFFFFFFFFFFFFFFFFFFFFFFFFFFF AND CALLER PUSH20 0xFFFFFFFFFFFFFFFFFFFFFFFFFFFFFFFFFFFFFFFF AND EQ ISZERO JUMPDEST PUSH2 0x2AE6 JUMPI PUSH1 0x40 MLOAD PUSH32 0x9D7B369D00000000000000000000000000000000000000000000000000000000 DUP2 MSTORE PUSH1 0x4 ADD PUSH1 0x40 MLOAD DUP1 SWAP2 SUB SWAP1 REVERT JUMPDEST PUSH0 PUSH1 0x1 PUSH0 DUP2 SLOAD DUP1 SWAP3 SWAP2 SWAP1 PUSH2 0x2AF9 SWAP1 PUSH2 0x4D19 JUMP JUMPDEST SWAP2 SWAP1 POP SSTORE SWAP1 POP PUSH1 0x40 MLOAD DUP1 PUSH1 0x80 ADD PUSH1 0x40 MSTORE DUP1 DUP3 DUP2 MSTORE PUSH1 0x20 ADD DUP6 DUP2 MSTORE PUSH1 0x20 ADD TIMESTAMP DUP2 MSTORE PUSH1 0x20 ADD CALLER PUSH20 0xFFFFFFFFFFFFFFFFFFFFFFFFFFFFFFFFFFFFFFFF AND DUP2 MSTORE POP PUSH1 0x7 PUSH0 DUP4 DUP2 MSTORE PUSH1 0x20 ADD SWAP1 DUP2 MSTORE PUSH1 0x20 ADD PUSH0 KECCAK256 PUSH0 DUP3 ADD MLOAD DUP2 PUSH0 ADD SSTORE PUSH1 0x20 DUP3 ADD MLOAD DUP2 PUSH1 0x1 ADD SSTORE PUSH1 0x40 DUP3 ADD MLOAD DUP2 PUSH1 0x2 ADD SSTORE PUSH1 0x60 DUP3 ADD MLOAD DUP2 PUSH1 0x3 ADD PUSH0 PUSH2 0x100 EXP DUP2 SLOAD DUP2 PUSH20 0xFFFFFFFFFFFFFFFFFFFFFFFFFFFFFFFFFFFFFFFF MUL NOT AND SWAP1 DUP4 PUSH20 0xFFFFFFFFFFFFFFFFFFFFFFFFFFFFFFFFFFFFFFFF AND MUL OR SWAP1 SSTORE POP SWAP1 POP POP DUP1 SWAP3 POP POP POP SWAP2 SWAP1 POP JUMP JUMPDEST PUSH1 0x60 PUSH1 0x12 PUSH0 DUP4 DUP2 MSTORE PUSH1 0x20 ADD SWAP1 DUP2 MSTORE PUSH1 0x20 ADD PUSH0 KECCAK256 DUP1 SLOAD DUP1 PUSH1 0x20 MUL PUSH1 0x20 ADD PUSH1 0x40 MLOAD SWAP1 DUP2 ADD PUSH1 0x40 MSTORE DUP1 SWAP3 SWAP2 SWAP1 DUP2 DUP2 MSTORE PUSH1 0x20 ADD DUP3 DUP1 SLOAD DUP1 ISZERO PUSH2 0x2C11 JUMPI PUSH1 0x20 MUL DUP3 ADD SWAP2 SWAP1 PUSH0 MSTORE PUSH1 0x20 PUSH0 KECCAK256 SWAP1 JUMPDEST DUP2 SLOAD DUP2 MSTORE PUSH1 0x20 ADD SWAP1 PUSH1 0x1 ADD SWAP1 DUP1 DUP4 GT PUSH2 0x2BFD JUMPI JUMPDEST POP POP POP POP POP SWAP1 POP SWAP2 SWAP1 POP JUMP JUMPDEST PUSH0 PUSH1 0x5 PUSH1 0x15 PUSH0 CALLER PUSH20 0xFFFFFFFFFFFFFFFFFFFFFFFFFFFFFFFFFFFFFFFF AND PUSH20 0xFFFFFFFFFFFFFFFFFFFFFFFFFFFFFFFFFFFFFFFF AND DUP2 MSTORE PUSH1 0x20 ADD SWAP1 DUP2 MSTORE PUSH1 0x20 ADD PUSH0 KECCAK256 PUSH0 DUP3 PUSH1 0x5 DUP2 GT ISZERO PUSH2 0x2C71 JUMPI PUSH2 0x2C70 PUSH2 0x42F9 JUMP JUMPDEST JUMPDEST PUSH1 0x5 DUP2 GT ISZERO PUSH2 0x2C83 JUMPI PUSH2 0x2C82 PUSH2 0x42F9 JUMP JUMPDEST JUMPDEST DUP2 MSTORE PUSH1 0x20 ADD SWAP1 DUP2 MSTORE PUSH1 0x20 ADD PUSH0 KECCAK256 PUSH0 SWAP1 SLOAD SWAP1 PUSH2 0x100 EXP SWAP1 DIV PUSH1 0xFF AND DUP1 PUSH2 0x2CF5 JUMPI POP PUSH1 0x16 PUSH0 SWAP1 SLOAD SWAP1 PUSH2 0x100 EXP SWAP1 DIV PUSH20 0xFFFFFFFFFFFFFFFFFFFFFFFFFFFFFFFFFFFFFFFF AND PUSH20 0xFFFFFFFFFFFFFFFFFFFFFFFFFFFFFFFFFFFFFFFF AND CALLER PUSH20 0xFFFFFFFFFFFFFFFFFFFFFFFFFFFFFFFFFFFFFFFF AND EQ ISZERO JUMPDEST PUSH2 0x2D2B JUMPI PUSH1 0x40 MLOAD PUSH32 0x9D7B369D00000000000000000000000000000000000000000000000000000000 DUP2 MSTORE PUSH1 0x4 ADD PUSH1 0x40 MLOAD DUP1 SWAP2 SUB SWAP1 REVERT JUMPDEST DUP4 PUSH1 0x80 DUP2 MLOAD GT ISZERO PUSH2 0x2D68 JUMPI PUSH1 0x40 MLOAD PUSH32 0xB11B2AD800000000000000000000000000000000000000000000000000000000 DUP2 MSTORE PUSH1 0x4 ADD PUSH1 0x40 MLOAD DUP1 SWAP2 SUB SWAP1 REVERT JUMPDEST DUP4 PUSH1 0x80 DUP2 MLOAD GT ISZERO PUSH2 0x2DA5 JUMPI PUSH1 0x40 MLOAD PUSH32 0xB11B2AD800000000000000000000000000000000000000000000000000000000 DUP2 MSTORE PUSH1 0x4 ADD PUSH1 0x40 MLOAD DUP1 SWAP2 SUB SWAP1 REVERT JUMPDEST PUSH0 PUSH1 0x5 PUSH0 DUP2 SLOAD DUP1 SWAP3 SWAP2 SWAP1 PUSH2 0x2DB8 SWAP1 PUSH2 0x4D19 JUMP JUMPDEST SWAP2 SWAP1 POP SSTORE SWAP1 POP PUSH1 0x40 MLOAD DUP1 PUSH1 0xA0 ADD PUSH1 0x40 MSTORE DUP1 DUP3 DUP2 MSTORE PUSH1 0x20 ADD DUP9 DUP2 MSTORE PUSH1 0x20 ADD DUP8 DUP2 MSTORE PUSH1 0x20 ADD TIMESTAMP DUP2 MSTORE PUSH1 0x20 ADD CALLER PUSH20 0xFFFFFFFFFFFFFFFFFFFFFFFFFFFFFFFFFFFFFFFF AND DUP2 MSTORE POP PUSH1 0xB PUSH0 DUP4 DUP2 MSTORE PUSH1 0x20 ADD SWAP1 DUP2 MSTORE PUSH1 0x20 ADD PUSH0 KECCAK256 PUSH0 DUP3 ADD MLOAD DUP2 PUSH0 ADD SSTORE PUSH1 0x20 DUP3 ADD MLOAD DUP2 PUSH1 0x1 ADD SWAP1 DUP2 PUSH2 0x2E29 SWAP2 SWAP1 PUSH2 0x4F5D JUMP JUMPDEST POP PUSH1 0x40 DUP3 ADD MLOAD DUP2 PUSH1 0x2 ADD SWAP1 DUP2 PUSH2 0x2E3F SWAP2 SWAP1 PUSH2 0x4F5D JUMP JUMPDEST POP PUSH1 0x60 DUP3 ADD MLOAD DUP2 PUSH1 0x3 ADD SSTORE PUSH1 0x80 DUP3 ADD MLOAD DUP2 PUSH1 0x4 ADD PUSH0 PUSH2 0x100 EXP DUP2 SLOAD DUP2 PUSH20 0xFFFFFFFFFFFFFFFFFFFFFFFFFFFFFFFFFFFFFFFF MUL NOT AND SWAP1 DUP4 PUSH20 0xFFFFFFFFFFFFFFFFFFFFFFFFFFFFFFFFFFFFFFFF AND MUL OR SWAP1 SSTORE POP SWAP1 POP POP DUP1 SWAP5 POP POP POP POP POP SWAP3 SWAP2 POP POP JUMP JUMPDEST PUSH1 0x16 PUSH0 SWAP1 SLOAD SWAP1 PUSH2 0x100 EXP SWAP1 DIV PUSH20 0xFFFFFFFFFFFFFFFFFFFFFFFFFFFFFFFFFFFFFFFF AND DUP2 JUMP JUMPDEST PUSH1 0x32 DUP2 JUMP JUMPDEST PUSH0 PUSH1 0x2 PUSH1 0x15 PUSH0 CALLER PUSH20 0xFFFFFFFFFFFFFFFFFFFFFFFFFFFFFFFFFFFFFFFF AND PUSH20 0xFFFFFFFFFFFFFFFFFFFFFFFFFFFFFFFFFFFFFFFF AND DUP2 MSTORE PUSH1 0x20 ADD SWAP1 DUP2 MSTORE PUSH1 0x20 ADD PUSH0 KECCAK256 PUSH0 DUP3 PUSH1 0x5 DUP2 GT ISZERO PUSH2 0x2F1E JUMPI PUSH2 0x2F1D PUSH2 0x42F9 JUMP JUMPDEST JUMPDEST PUSH1 0x5 DUP2 GT ISZERO PUSH2 0x2F30 JUMPI PUSH2 0x2F2F PUSH2 0x42F9 JUMP JUMPDEST JUMPDEST DUP2 MSTORE PUSH1 0x20 ADD SWAP1 DUP2 MSTORE PUSH1 0x20 ADD PUSH0 KECCAK256 PUSH0 SWAP1 SLOAD SWAP1 PUSH2 0x100 EXP SWAP1 DIV PUSH1 0xFF AND DUP1 PUSH2 0x2FA2 JUMPI POP PUSH1 0x16 PUSH0 SWAP1 SLOAD SWAP1 PUSH2 0x100 EXP SWAP1 DIV PUSH20 0xFFFFFFFFFFFFFFFFFFFFFFFFFFFFFFFFFFFFFFFF AND PUSH20 0xFFFFFFFFFFFFFFFFFFFFFFFFFFFFFFFFFFFFFFFF AND CALLER PUSH20 0xFFFFFFFFFFFFFFFFFFFFFFFFFFFFFFFFFFFFFFFF AND EQ ISZERO JUMPDEST PUSH2 0x2FD8 JUMPI PUSH1 0x40 MLOAD PUSH32 0x9D7B369D00000000000000000000000000000000000000000000000000000000 DUP2 MSTORE PUSH1 0x4 ADD PUSH1 0x40 MLOAD DUP1 SWAP2 SUB SWAP1 REVERT JUMPDEST DUP5 PUSH1 0x80 DUP2 MLOAD GT ISZERO PUSH2 0x3015 JUMPI PUSH1 0x40 MLOAD PUSH32 0xB11B2AD800000000000000000000000000000000000000000000000000000000 DUP2 MSTORE PUSH1 0x4 ADD PUSH1 0x40 MLOAD DUP1 SWAP2 SUB SWAP1 REVERT JUMPDEST PUSH0 PUSH1 0x2 PUSH0 DUP2 SLOAD DUP1 SWAP3 SWAP2 SWAP1 PUSH2 0x3028 SWAP1 PUSH2 0x4D19 JUMP JUMPDEST SWAP2 SWAP1 POP SSTORE SWAP1 POP PUSH1 0x40 MLOAD DUP1 PUSH2 0x140 ADD PUSH1 0x40 MSTORE DUP1 DUP3 DUP2 MSTORE PUSH1 0x20 ADD DUP10 DUP2 MSTORE PUSH1 0x20 ADD PUSH0 PUSH1 0x2 DUP2 GT ISZERO PUSH2 0x3059 JUMPI PUSH2 0x3058 PUSH2 0x42F9 JUMP JUMPDEST JUMPDEST DUP2 MSTORE PUSH1 0x20 ADD DUP9 DUP2 MSTORE PUSH1 0x20 ADD DUP8 DUP2 MSTORE PUSH1 0x20 ADD DUP7 DUP2 MSTORE PUSH1 0x20 ADD PUSH0 DUP2 MSTORE PUSH1 0x20 ADD PUSH0 DUP2 MSTORE PUSH1 0x20 ADD TIMESTAMP DUP2 MSTORE PUSH1 0x20 ADD CALLER PUSH20 0xFFFFFFFFFFFFFFFFFFFFFFFFFFFFFFFFFFFFFFFF AND DUP2 MSTORE POP PUSH1 0x8 PUSH0 DUP4 DUP2 MSTORE PUSH1 0x20 ADD SWAP1 DUP2 MSTORE PUSH1 0x20 ADD PUSH0 KECCAK256 PUSH0 DUP3 ADD MLOAD DUP2 PUSH0 ADD SSTORE PUSH1 0x20 DUP3 ADD MLOAD DUP2 PUSH1 0x1 ADD SSTORE PUSH1 0x40 DUP3 ADD MLOAD DUP2 PUSH1 0x2 ADD PUSH0 PUSH2 0x100 EXP DUP2 SLOAD DUP2 PUSH1 0xFF MUL NOT AND SWAP1 DUP4 PUSH1 0x2 DUP2 GT ISZERO PUSH2 0x30E9 JUMPI PUSH2 0x30E8 PUSH2 0x42F9 JUMP JUMPDEST JUMPDEST MUL OR SWAP1 SSTORE POP PUSH1 0x60 DUP3 ADD MLOAD DUP2 PUSH1 0x3 ADD SWAP1 DUP2 PUSH2 0x3103 SWAP2 SWAP1 PUSH2 0x4F5D JUMP JUMPDEST POP PUSH1 0x80 DUP3 ADD MLOAD DUP2 PUSH1 0x4 ADD SSTORE PUSH1 0xA0 DUP3 ADD MLOAD DUP2 PUSH1 0x5 ADD SSTORE PUSH1 0xC0 DUP3 ADD MLOAD DUP2 PUSH1 0x6 ADD SSTORE PUSH1 0xE0 DUP3 ADD MLOAD DUP2 PUSH1 0x7 ADD SSTORE PUSH2 0x100 DUP3 ADD MLOAD DUP2 PUSH1 0x8 ADD SSTORE PUSH2 0x120 DUP3 ADD MLOAD DUP2 PUSH1 0x9 ADD PUSH0 PUSH2 0x100 EXP DUP2 SLOAD DUP2 PUSH20 0xFFFFFFFFFFFFFFFFFFFFFFFFFFFFFFFFFFFFFFFF MUL NOT AND SWAP1 DUP4 PUSH20 0xFFFFFFFFFFFFFFFFFFFFFFFFFFFFFFFFFFFFFFFF AND MUL OR SWAP1 SSTORE POP SWAP1 POP POP DUP1 SWAP4 POP POP POP POP SWAP5 SWAP4 POP POP POP POP JUMP JUMPDEST PUSH1 0x4 SLOAD DUP2 JUMP JUMPDEST PUSH0 PUSH0 PUSH1 0x5 DUP2 GT ISZERO PUSH2 0x31A9 JUMPI PUSH2 0x31A8 PUSH2 0x42F9 JUMP JUMPDEST JUMPDEST DUP3 PUSH1 0x5 DUP2 GT ISZERO PUSH2 0x31BC JUMPI PUSH2 0x31BB PUSH2 0x42F9 JUMP JUMPDEST JUMPDEST SUB PUSH2 0x31D6 JUMPI PUSH1 0x1 PUSH0 SLOAD PUSH2 0x31CF SWAP2 SWAP1 PUSH2 0x5094 JUMP JUMPDEST SWAP1 POP PUSH2 0x3359 JUMP JUMPDEST PUSH1 0x1 PUSH1 0x5 DUP2 GT ISZERO PUSH2 0x31EA JUMPI PUSH2 0x31E9 PUSH2 0x42F9 JUMP JUMPDEST JUMPDEST DUP3 PUSH1 0x5 DUP2 GT ISZERO PUSH2 0x31FD JUMPI PUSH2 0x31FC PUSH2 0x42F9 JUMP JUMPDEST JUMPDEST SUB PUSH2 0x3217 JUMPI PUSH1 0x1 DUP1 SLOAD PUSH2 0x3210 SWAP2 SWAP1 PUSH2 0x5094 JUMP JUMPDEST SWAP1 POP PUSH2 0x3359 JUMP JUMPDEST PUSH1 0x2 PUSH1 0x5 DUP2 GT ISZERO PUSH2 0x322B JUMPI PUSH2 0x322A PUSH2 0x42F9 JUMP JUMPDEST JUMPDEST DUP3 PUSH1 0x5 DUP2 GT ISZERO PUSH2 0x323E JUMPI PUSH2 0x323D PUSH2 0x42F9 JUMP JUMPDEST JUMPDEST SUB PUSH2 0x3259 JUMPI PUSH1 0x1 PUSH1 0x2 SLOAD PUSH2 0x3252 SWAP2 SWAP1 PUSH2 0x5094 JUMP JUMPDEST SWAP1 POP PUSH2 0x3359 JUMP JUMPDEST PUSH1 0x3 PUSH1 0x5 DUP2 GT ISZERO PUSH2 0x326D JUMPI PUSH2 0x326C PUSH2 0x42F9 JUMP JUMPDEST JUMPDEST DUP3 PUSH1 0x5 DUP2 GT ISZERO PUSH2 0x3280 JUMPI PUSH2 0x327F PUSH2 0x42F9 JUMP JUMPDEST JUMPDEST SUB PUSH2 0x329B JUMPI PUSH1 0x1 PUSH1 0x3 SLOAD PUSH2 0x3294 SWAP2 SWAP1 PUSH2 0x5094 JUMP JUMPDEST SWAP1 POP PUSH2 0x3359 JUMP JUMPDEST PUSH1 0x4 PUSH1 0x5 DUP2 GT ISZERO PUSH2 0x32AF JUMPI PUSH2 0x32AE PUSH2 0x42F9 JUMP JUMPDEST JUMPDEST DUP3 PUSH1 0x5 DUP2 GT ISZERO PUSH2 0x32C2 JUMPI PUSH2 0x32C1 PUSH2 0x42F9 JUMP JUMPDEST JUMPDEST SUB PUSH2 0x32DD JUMPI PUSH1 0x1 PUSH1 0x4 SLOAD PUSH2 0x32D6 SWAP2 SWAP1 PUSH2 0x5094 JUMP JUMPDEST SWAP1 POP PUSH2 0x3359 JUMP JUMPDEST PUSH1 0x5 DUP1 DUP2 GT ISZERO PUSH2 0x32F0 JUMPI PUSH2 0x32EF PUSH2 0x42F9 JUMP JUMPDEST JUMPDEST DUP3 PUSH1 0x5 DUP2 GT ISZERO PUSH2 0x3303 JUMPI PUSH2 0x3302 PUSH2 0x42F9 JUMP JUMPDEST JUMPDEST SUB PUSH2 0x331E JUMPI PUSH1 0x1 PUSH1 0x5 SLOAD PUSH2 0x3317 SWAP2 SWAP1 PUSH2 0x5094 JUMP JUMPDEST SWAP1 POP PUSH2 0x3359 JUMP JUMPDEST PUSH1 0x40 MLOAD PUSH32 0x8C379A000000000000000000000000000000000000000000000000000000000 DUP2 MSTORE PUSH1 0x4 ADD PUSH2 0x3350 SWAP1 PUSH2 0x5111 JUMP JUMPDEST PUSH1 0x40 MLOAD DUP1 SWAP2 SUB SWAP1 REVERT JUMPDEST SWAP2 SWAP1 POP JUMP JUMPDEST PUSH0 PUSH1 0xA PUSH0 DUP5 DUP2 MSTORE PUSH1 0x20 ADD SWAP1 DUP2 MSTORE PUSH1 0x20 ADD PUSH0 KECCAK256 PUSH0 ADD SLOAD SUB PUSH2 0x33AA JUMPI PUSH1 0x40 MLOAD PUSH32 0xC5723B5100000000000000000000000000000000000000000000000000000000 DUP2 MSTORE PUSH1 0x4 ADD PUSH1 0x40 MLOAD DUP1 SWAP2 SUB SWAP1 REVERT JUMPDEST PUSH0 PUSH1 0x8 PUSH0 DUP4 DUP2 MSTORE PUSH1 0x20 ADD SWAP1 DUP2 MSTORE PUSH1 0x20 ADD PUSH0 KECCAK256 PUSH0 ADD SLOAD SUB PUSH2 0x33F6 JUMPI PUSH1 0x40 MLOAD PUSH32 0xC5723B5100000000000000000000000000000000000000000000000000000000 DUP2 MSTORE PUSH1 0x4 ADD PUSH1 0x40 MLOAD DUP1 SWAP2 SUB SWAP1 REVERT JUMPDEST PUSH0 PUSH1 0x2 DUP2 GT ISZERO PUSH2 0x3409 JUMPI PUSH2 0x3408 PUSH2 0x42F9 JUMP JUMPDEST JUMPDEST PUSH1 0xA PUSH0 DUP5 DUP2 MSTORE PUSH1 0x20 ADD SWAP1 DUP2 MSTORE PUSH1 0x20 ADD PUSH0 KECCAK256 PUSH1 0x1 ADD PUSH1 0x1 SWAP1 SLOAD SWAP1 PUSH2 0x100 EXP SWAP1 DIV PUSH1 0xFF AND PUSH1 0x2 DUP2 GT ISZERO PUSH2 0x343D JUMPI PUSH2 0x343C PUSH2 0x42F9 JUMP JUMPDEST JUMPDEST EQ PUSH2 0x3474 JUMPI PUSH1 0x40 MLOAD PUSH32 0xF525E32000000000000000000000000000000000000000000000000000000000 DUP2 MSTORE PUSH1 0x4 ADD PUSH1 0x40 MLOAD DUP1 SWAP2 SUB SWAP1 REVERT JUMPDEST PUSH0 PUSH1 0x2 DUP2 GT ISZERO PUSH2 0x3487 JUMPI PUSH2 0x3486 PUSH2 0x42F9 JUMP JUMPDEST JUMPDEST PUSH1 0x8 PUSH0 DUP4 DUP2 MSTORE PUSH1 0x20 ADD SWAP1 DUP2 MSTORE PUSH1 0x20 ADD PUSH0 KECCAK256 PUSH1 0x2 ADD PUSH0 SWAP1 SLOAD SWAP1 PUSH2 0x100 EXP SWAP1 DIV PUSH1 0xFF AND PUSH1 0x2 DUP2 GT ISZERO PUSH2 0x34BA JUMPI PUSH2 0x34B9 PUSH2 0x42F9 JUMP JUMPDEST JUMPDEST EQ PUSH2 0x34F1 JUMPI PUSH1 0x40 MLOAD PUSH32 0xF525E32000000000000000000000000000000000000000000000000000000000 DUP2 MSTORE PUSH1 0x4 ADD PUSH1 0x40 MLOAD DUP1 SWAP2 SUB SWAP1 REVERT JUMPDEST PUSH1 0x12 PUSH0 DUP4 DUP2 MSTORE PUSH1 0x20 ADD SWAP1 DUP2 MSTORE PUSH1 0x20 ADD PUSH0 KECCAK256 DUP2 SWAP1 DUP1 PUSH1 0x1 DUP2 SLOAD ADD DUP1 DUP3 SSTORE DUP1 SWAP2 POP POP PUSH1 0x1 SWAP1 SUB SWAP1 PUSH0 MSTORE PUSH1 0x20 PUSH0 KECCAK256 ADD PUSH0 SWAP1 SWAP2 SWAP1 SWAP2 SWAP1 SWAP2 POP SSTORE POP POP JUMP JUMPDEST PUSH1 0x60 PUSH0 PUSH1 0x5 DUP2 GT ISZERO PUSH2 0x353F JUMPI PUSH2 0x353E PUSH2 0x42F9 JUMP JUMPDEST JUMPDEST DUP4 PUSH1 0x5 DUP2 GT ISZERO PUSH2 0x3552 JUMPI PUSH2 0x3551 PUSH2 0x42F9 JUMP JUMPDEST JUMPDEST SUB PUSH2 0x358E JUMPI PUSH1 0x6 PUSH0 DUP4 DUP2 MSTORE PUSH1 0x20 ADD SWAP1 DUP2 MSTORE PUSH1 0x20 ADD PUSH0 KECCAK256 PUSH1 0x40 MLOAD PUSH1 0x20 ADD PUSH2 0x3578 SWAP2 SWAP1 PUSH2 0x5382 JUMP JUMPDEST PUSH1 0x40 MLOAD PUSH1 0x20 DUP2 DUP4 SUB SUB DUP2 MSTORE SWAP1 PUSH1 0x40 MSTORE SWAP1 POP PUSH2 0x37B7 JUMP JUMPDEST PUSH1 0x1 PUSH1 0x5 DUP2 GT ISZERO PUSH2 0x35A2 JUMPI PUSH2 0x35A1 PUSH2 0x42F9 JUMP JUMPDEST JUMPDEST DUP4 PUSH1 0x5 DUP2 GT ISZERO PUSH2 0x35B5 JUMPI PUSH2 0x35B4 PUSH2 0x42F9 JUMP JUMPDEST JUMPDEST SUB PUSH2 0x35F1 JUMPI PUSH1 0x7 PUSH0 DUP4 DUP2 MSTORE PUSH1 0x20 ADD SWAP1 DUP2 MSTORE PUSH1 0x20 ADD PUSH0 KECCAK256 PUSH1 0x40 MLOAD PUSH1 0x20 ADD PUSH2 0x35DB SWAP2 SWAP1 PUSH2 0x5423 JUMP JUMPDEST PUSH1 0x40 MLOAD PUSH1 0x20 DUP2 DUP4 SUB SUB DUP2 MSTORE SWAP1 PUSH1 0x40 MSTORE SWAP1 POP PUSH2 0x37B7 JUMP JUMPDEST PUSH1 0x2 PUSH1 0x5 DUP2 GT ISZERO PUSH2 0x3605 JUMPI PUSH2 0x3604 PUSH2 0x42F9 JUMP JUMPDEST JUMPDEST DUP4 PUSH1 0x5 DUP2 GT ISZERO PUSH2 0x3618 JUMPI PUSH2 0x3617 PUSH2 0x42F9 JUMP JUMPDEST JUMPDEST SUB PUSH2 0x3654 JUMPI PUSH1 0x8 PUSH0 DUP4 DUP2 MSTORE PUSH1 0x20 ADD SWAP1 DUP2 MSTORE PUSH1 0x20 ADD PUSH0 KECCAK256 PUSH1 0x40 MLOAD PUSH1 0x20 ADD PUSH2 0x363E SWAP2 SWAP1 PUSH2 0x55A9 JUMP JUMPDEST PUSH1 0x40 MLOAD PUSH1 0x20 DUP2 DUP4 SUB SUB DUP2 MSTORE SWAP1 PUSH1 0x40 MSTORE SWAP1 POP PUSH2 0x37B7 JUMP JUMPDEST PUSH1 0x3 PUSH1 0x5 DUP2 GT ISZERO PUSH2 0x3668 JUMPI PUSH2 0x3667 PUSH2 0x42F9 JUMP JUMPDEST JUMPDEST DUP4 PUSH1 0x5 DUP2 GT ISZERO PUSH2 0x367B JUMPI PUSH2 0x367A PUSH2 0x42F9 JUMP JUMPDEST JUMPDEST SUB PUSH2 0x36B7 JUMPI PUSH1 0x9 PUSH0 DUP4 DUP2 MSTORE PUSH1 0x20 ADD SWAP1 DUP2 MSTORE PUSH1 0x20 ADD PUSH0 KECCAK256 PUSH1 0x40 MLOAD PUSH1 0x20 ADD PUSH2 0x36A1 SWAP2 SWAP1 PUSH2 0x564B JUMP JUMPDEST PUSH1 0x40 MLOAD PUSH1 0x20 DUP2 DUP4 SUB SUB DUP2 MSTORE SWAP1 PUSH1 0x40 MSTORE SWAP1 POP PUSH2 0x37B7 JUMP JUMPDEST PUSH1 0x4 PUSH1 0x5 DUP2 GT ISZERO PUSH2 0x36CB JUMPI PUSH2 0x36CA PUSH2 0x42F9 JUMP JUMPDEST JUMPDEST DUP4 PUSH1 0x5 DUP2 GT ISZERO PUSH2 0x36DE JUMPI PUSH2 0x36DD PUSH2 0x42F9 JUMP JUMPDEST JUMPDEST SUB PUSH2 0x371A JUMPI PUSH1 0xA PUSH0 DUP4 DUP2 MSTORE PUSH1 0x20 ADD SWAP1 DUP2 MSTORE PUSH1 0x20 ADD PUSH0 KECCAK256 PUSH1 0x40 MLOAD PUSH1 0x20 ADD PUSH2 0x3704 SWAP2 SWAP1 PUSH2 0x582F JUMP JUMPDEST PUSH1 0x40 MLOAD PUSH1 0x20 DUP2 DUP4 SUB SUB DUP2 MSTORE SWAP1 PUSH1 0x40 MSTORE SWAP1 POP PUSH2 0x37B7 JUMP JUMPDEST PUSH1 0x5 DUP1 DUP2 GT ISZERO PUSH2 0x372D JUMPI PUSH2 0x372C PUSH2 0x42F9 JUMP JUMPDEST JUMPDEST DUP4 PUSH1 0x5 DUP2 GT ISZERO PUSH2 0x3740 JUMPI PUSH2 0x373F PUSH2 0x42F9 JUMP JUMPDEST JUMPDEST SUB PUSH2 0x377C JUMPI PUSH1 0xB PUSH0 DUP4 DUP2 MSTORE PUSH1 0x20 ADD SWAP1 DUP2 MSTORE PUSH1 0x20 ADD PUSH0 KECCAK256 PUSH1 0x40 MLOAD PUSH1 0x20 ADD PUSH2 0x3766 SWAP2 SWAP1 PUSH2 0x58E4 JUMP JUMPDEST PUSH1 0x40 MLOAD PUSH1 0x20 DUP2 DUP4 SUB SUB DUP2 MSTORE SWAP1 PUSH1 0x40 MSTORE SWAP1 POP PUSH2 0x37B7 JUMP JUMPDEST PUSH1 0x40 MLOAD PUSH32 0x8C379A000000000000000000000000000000000000000000000000000000000 DUP2 MSTORE PUSH1 0x4 ADD PUSH2 0x37AE SWAP1 PUSH2 0x5111 JUMP JUMPDEST PUSH1 0x40 MLOAD DUP1 SWAP2 SUB SWAP1 REVERT JUMPDEST SWAP3 SWAP2 POP POP JUMP JUMPDEST PUSH1 0xB PUSH1 0x20 MSTORE DUP1 PUSH0 MSTORE PUSH1 0x40 PUSH0 KECCAK256 PUSH0 SWAP2 POP SWAP1 POP DUP1 PUSH0 ADD SLOAD SWAP1 DUP1 PUSH1 0x1 ADD DUP1 SLOAD PUSH2 0x37E2 SWAP1 PUSH2 0x4D8D JUMP JUMPDEST DUP1 PUSH1 0x1F ADD PUSH1 0x20 DUP1 SWAP2 DIV MUL PUSH1 0x20 ADD PUSH1 0x40 MLOAD SWAP1 DUP2 ADD PUSH1 0x40 MSTORE DUP1 SWAP3 SWAP2 SWAP1 DUP2 DUP2 MSTORE PUSH1 0x20 ADD DUP3 DUP1 SLOAD PUSH2 0x380E SWAP1 PUSH2 0x4D8D JUMP JUMPDEST DUP1 ISZERO PUSH2 0x3859 JUMPI DUP1 PUSH1 0x1F LT PUSH2 0x3830 JUMPI PUSH2 0x100 DUP1 DUP4 SLOAD DIV MUL DUP4 MSTORE SWAP2 PUSH1 0x20 ADD SWAP2 PUSH2 0x3859 JUMP JUMPDEST DUP3 ADD SWAP2 SWAP1 PUSH0 MSTORE PUSH1 0x20 PUSH0 KECCAK256 SWAP1 JUMPDEST DUP2 SLOAD DUP2 MSTORE SWAP1 PUSH1 0x1 ADD SWAP1 PUSH1 0x20 ADD DUP1 DUP4 GT PUSH2 0x383C JUMPI DUP3 SWAP1 SUB PUSH1 0x1F AND DUP3 ADD SWAP2 JUMPDEST POP POP POP POP POP SWAP1 DUP1 PUSH1 0x2 ADD DUP1 SLOAD PUSH2 0x386E SWAP1 PUSH2 0x4D8D JUMP JUMPDEST DUP1 PUSH1 0x1F ADD PUSH1 0x20 DUP1 SWAP2 DIV MUL PUSH1 0x20 ADD PUSH1 0x40 MLOAD SWAP1 DUP2 ADD PUSH1 0x40 MSTORE DUP1 SWAP3 SWAP2 SWAP1 DUP2 DUP2 MSTORE PUSH1 0x20 ADD DUP3 DUP1 SLOAD PUSH2 0x389A SWAP1 PUSH2 0x4D8D JUMP JUMPDEST DUP1 ISZERO PUSH2 0x38E5 JUMPI DUP1 PUSH1 0x1F LT PUSH2 0x38BC JUMPI PUSH2 0x100 DUP1 DUP4 SLOAD DIV MUL DUP4 MSTORE SWAP2 PUSH1 0x20 ADD SWAP2 PUSH2 0x38E5 JUMP JUMPDEST DUP3 ADD SWAP2 SWAP1 PUSH0 MSTORE PUSH1 0x20 PUSH0 KECCAK256 SWAP1 JUMPDEST DUP2 SLOAD DUP2 MSTORE SWAP1 PUSH1 0x1 ADD SWAP1 PUSH1 0x20 ADD DUP1 DUP4 GT PUSH2 0x38C8 JUMPI DUP3 SWAP1 SUB PUSH1 0x1F AND DUP3 ADD SWAP2 JUMPDEST POP POP POP POP POP SWAP1 DUP1 PUSH1 0x3 ADD SLOAD SWAP1 DUP1 PUSH1 0x4 ADD PUSH0 SWAP1 SLOAD SWAP1 PUSH2 0x100 EXP SWAP1 DIV PUSH20 0xFFFFFFFFFFFFFFFFFFFFFFFFFFFFFFFFFFFFFFFF AND SWAP1 POP DUP6 JUMP JUMPDEST PUSH1 0x6 PUSH1 0x20 MSTORE DUP1 PUSH0 MSTORE PUSH1 0x40 PUSH0 KECCAK256 PUSH0 SWAP2 POP SWAP1 POP DUP1 PUSH0 ADD SLOAD SWAP1 DUP1 PUSH1 0x1 ADD DUP1 SLOAD PUSH2 0x393F SWAP1 PUSH2 0x4D8D JUMP JUMPDEST DUP1 PUSH1 0x1F ADD PUSH1 0x20 DUP1 SWAP2 DIV MUL PUSH1 0x20 ADD PUSH1 0x40 MLOAD SWAP1 DUP2 ADD PUSH1 0x40 MSTORE DUP1 SWAP3 SWAP2 SWAP1 DUP2 DUP2 MSTORE PUSH1 0x20 ADD DUP3 DUP1 SLOAD PUSH2 0x396B SWAP1 PUSH2 0x4D8D JUMP JUMPDEST DUP1 ISZERO PUSH2 0x39B6 JUMPI DUP1 PUSH1 0x1F LT PUSH2 0x398D JUMPI PUSH2 0x100 DUP1 DUP4 SLOAD DIV MUL DUP4 MSTORE SWAP2 PUSH1 0x20 ADD SWAP2 PUSH2 0x39B6 JUMP JUMPDEST DUP3 ADD SWAP2 SWAP1 PUSH0 MSTORE PUSH1 0x20 PUSH0 KECCAK256 SWAP1 JUMPDEST DUP2 SLOAD DUP2 MSTORE SWAP1 PUSH1 0x1 ADD SWAP1 PUSH1 0x20 ADD DUP1 DUP4 GT PUSH2 0x3999 JUMPI DUP3 SWAP1 SUB PUSH1 0x1F AND DUP3 ADD SWAP2 JUMPDEST POP POP POP POP POP SWAP1 DUP1 PUSH1 0x2 ADD SLOAD SWAP1 DUP1 PUSH1 0x3 ADD SLOAD SWAP1 DUP1 PUSH1 0x4 ADD SLOAD SWAP1 DUP1 PUSH1 0x5 ADD SLOAD SWAP1 DUP1 PUSH1 0x6 ADD PUSH0 SWAP1 SLOAD SWAP1 PUSH2 0x100 EXP SWAP1 DIV PUSH1 0xFF AND SWAP1 DUP1 PUSH1 0x7 ADD SLOAD SWAP1 DUP1 PUSH1 0x8 ADD PUSH0 SWAP1 SLOAD SWAP1 PUSH2 0x100 EXP SWAP1 DIV PUSH20 0xFFFFFFFFFFFFFFFFFFFFFFFFFFFFFFFFFFFFFFFF AND SWAP1 POP DUP10 JUMP JUMPDEST PUSH1 0x8 PUSH1 0x20 MSTORE DUP1 PUSH0 MSTORE PUSH1 0x40 PUSH0 KECCAK256 PUSH0 SWAP2 POP SWAP1 POP DUP1 PUSH0 ADD SLOAD SWAP1 DUP1 PUSH1 0x1 ADD SLOAD SWAP1 DUP1 PUSH1 0x2 ADD PUSH0 SWAP1 SLOAD SWAP1 PUSH2 0x100 EXP SWAP1 DIV PUSH1 0xFF AND SWAP1 DUP1 PUSH1 0x3 ADD DUP1 SLOAD PUSH2 0x3A52 SWAP1 PUSH2 0x4D8D JUMP JUMPDEST DUP1 PUSH1 0x1F ADD PUSH1 0x20 DUP1 SWAP2 DIV MUL PUSH1 0x20 ADD PUSH1 0x40 MLOAD SWAP1 DUP2 ADD PUSH1 0x40 MSTORE DUP1 SWAP3 SWAP2 SWAP1 DUP2 DUP2 MSTORE PUSH1 0x20 ADD DUP3 DUP1 SLOAD PUSH2 0x3A7E SWAP1 PUSH2 0x4D8D JUMP JUMPDEST DUP1 ISZERO PUSH2 0x3AC9 JUMPI DUP1 PUSH1 0x1F LT PUSH2 0x3AA0 JUMPI PUSH2 0x100 DUP1 DUP4 SLOAD DIV MUL DUP4 MSTORE SWAP2 PUSH1 0x20 ADD SWAP2 PUSH2 0x3AC9 JUMP JUMPDEST DUP3 ADD SWAP2 SWAP1 PUSH0 MSTORE PUSH1 0x20 PUSH0 KECCAK256 SWAP1 JUMPDEST DUP2 SLOAD DUP2 MSTORE SWAP1 PUSH1 0x1 ADD SWAP1 PUSH1 0x20 ADD DUP1 DUP4 GT PUSH2 0x3AAC JUMPI DUP3 SWAP1 SUB PUSH1 0x1F AND DUP3 ADD SWAP2 JUMPDEST POP POP POP POP POP SWAP1 DUP1 PUSH1 0x4 ADD SLOAD SWAP1 DUP1 PUSH1 0x5 ADD SLOAD SWAP1 DUP1 PUSH1 0x6 ADD SLOAD SWAP1 DUP1 PUSH1 0x7 ADD SLOAD SWAP1 DUP1 PUSH1 0x8 ADD SLOAD SWAP1 DUP1 PUSH1 0x9 ADD PUSH0 SWAP1 SLOAD SWAP1 PUSH2 0x100 EXP SWAP1 DIV PUSH20 0xFFFFFFFFFFFFFFFFFFFFFFFFFFFFFFFFFFFFFFFF AND SWAP1 POP DUP11 JUMP JUMPDEST PUSH1 0x60 PUSH1 0x13 PUSH0 DUP4 DUP2 MSTORE PUSH1 0x20 ADD SWAP1 DUP2 MSTORE PUSH1 0x20 ADD PUSH0 KECCAK256 DUP1 SLOAD DUP1 PUSH1 0x20 MUL PUSH1 0x20 ADD PUSH1 0x40 MLOAD SWAP1 DUP2 ADD PUSH1 0x40 MSTORE DUP1 SWAP3 SWAP2 SWAP1 DUP2 DUP2 MSTORE PUSH1 0x20 ADD DUP3 DUP1 SLOAD DUP1 ISZERO PUSH2 0x3B71 JUMPI PUSH1 0x20 MUL DUP3 ADD SWAP2 SWAP1 PUSH0 MSTORE PUSH1 0x20 PUSH0 KECCAK256 SWAP1 JUMPDEST DUP2 SLOAD DUP2 MSTORE PUSH1 0x20 ADD SWAP1 PUSH1 0x1 ADD SWAP1 DUP1 DUP4 GT PUSH2 0x3B5D JUMPI JUMPDEST POP POP POP POP POP SWAP1 POP SWAP2 SWAP1 POP JUMP JUMPDEST PUSH1 0x12 PUSH1 0x20 MSTORE DUP2 PUSH0 MSTORE PUSH1 0x40 PUSH0 KECCAK256 DUP2 DUP2 SLOAD DUP2 LT PUSH2 0x3B96 JUMPI PUSH0 DUP1 REVERT JUMPDEST SWAP1 PUSH0 MSTORE PUSH1 0x20 PUSH0 KECCAK256 ADD PUSH0 SWAP2 POP SWAP2 POP POP SLOAD DUP2 JUMP JUMPDEST PUSH1 0x10 PUSH1 0x20 MSTORE DUP2 PUSH0 MSTORE PUSH1 0x40 PUSH0 KECCAK256 DUP2 DUP2 SLOAD DUP2 LT PUSH2 0x3BC1 JUMPI PUSH0 DUP1 REVERT JUMPDEST SWAP1 PUSH0 MSTORE PUSH1 0x20 PUSH0 KECCAK256 ADD PUSH0 SWAP2 POP SWAP2 POP POP SLOAD DUP2 JUMP JUMPDEST PUSH1 0x32 DUP2 JUMP JUMPDEST PUSH1 0x1 SLOAD DUP2 JUMP JUMPDEST PUSH0 PUSH1 0x3 PUSH1 0x15 PUSH0 CALLER PUSH20 0xFFFFFFFFFFFFFFFFFFFFFFFFFFFFFFFFFFFFFFFF AND PUSH20 0xFFFFFFFFFFFFFFFFFFFFFFFFFFFFFFFFFFFFFFFF AND DUP2 MSTORE PUSH1 0x20 ADD SWAP1 DUP2 MSTORE PUSH1 0x20 ADD PUSH0 KECCAK256 PUSH0 DUP3 PUSH1 0x5 DUP2 GT ISZERO PUSH2 0x3C32 JUMPI PUSH2 0x3C31 PUSH2 0x42F9 JUMP JUMPDEST JUMPDEST PUSH1 0x5 DUP2 GT ISZERO PUSH2 0x3C44 JUMPI PUSH2 0x3C43 PUSH2 0x42F9 JUMP JUMPDEST JUMPDEST DUP2 MSTORE PUSH1 0x20 ADD SWAP1 DUP2 MSTORE PUSH1 0x20 ADD PUSH0 KECCAK256 PUSH0 SWAP1 SLOAD SWAP1 PUSH2 0x100 EXP SWAP1 DIV PUSH1 0xFF AND DUP1 PUSH2 0x3CB6 JUMPI POP PUSH1 0x16 PUSH0 SWAP1 SLOAD SWAP1 PUSH2 0x100 EXP SWAP1 DIV PUSH20 0xFFFFFFFFFFFFFFFFFFFFFFFFFFFFFFFFFFFFFFFF AND PUSH20 0xFFFFFFFFFFFFFFFFFFFFFFFFFFFFFFFFFFFFFFFF AND CALLER PUSH20 0xFFFFFFFFFFFFFFFFFFFFFFFFFFFFFFFFFFFFFFFF AND EQ ISZERO JUMPDEST PUSH2 0x3CEC JUMPI PUSH1 0x40 MLOAD PUSH32 0x9D7B369D00000000000000000000000000000000000000000000000000000000 DUP2 MSTORE PUSH1 0x4 ADD PUSH1 0x40 MLOAD DUP1 SWAP2 SUB SWAP1 REVERT JUMPDEST DUP3 PUSH1 0x80 DUP2 MLOAD GT ISZERO PUSH2 0x3D29 JUMPI PUSH1 0x40 MLOAD PUSH32 0xB11B2AD800000000000000000000000000000000000000000000000000000000 DUP2 MSTORE PUSH1 0x4 ADD PUSH1 0x40 MLOAD DUP1 SWAP2 SUB SWAP1 REVERT JUMPDEST PUSH0 PUSH1 0x3 PUSH0 DUP2 SLOAD DUP1 SWAP3 SWAP2 SWAP1 PUSH2 0x3D3C SWAP1 PUSH2 0x4D19 JUMP JUMPDEST SWAP2 SWAP1 POP SSTORE SWAP1 POP PUSH1 0x40 MLOAD DUP1 PUSH1 0x80 ADD PUSH1 0x40 MSTORE DUP1 DUP3 DUP2 MSTORE PUSH1 0x20 ADD DUP7 DUP2 MSTORE PUSH1 0x20 ADD TIMESTAMP DUP2 MSTORE PUSH1 0x20 ADD CALLER PUSH20 0xFFFFFFFFFFFFFFFFFFFFFFFFFFFFFFFFFFFFFFFF AND DUP2 MSTORE POP PUSH1 0x9 PUSH0 DUP4 DUP2 MSTORE PUSH1 0x20 ADD SWAP1 DUP2 MSTORE PUSH1 0x20 ADD PUSH0 KECCAK256 PUSH0 DUP3 ADD MLOAD DUP2 PUSH0 ADD SSTORE PUSH1 0x20 DUP3 ADD MLOAD DUP2 PUSH1 0x1 ADD SWAP1 DUP2 PUSH2 0x3DA7 SWAP2 SWAP1 PUSH2 0x4F5D JUMP JUMPDEST POP PUSH1 0x40 DUP3 ADD MLOAD DUP2 PUSH1 0x2 ADD SSTORE PUSH1 0x60 DUP3 ADD MLOAD DUP2 PUSH1 0x3 ADD PUSH0 PUSH2 0x100 EXP DUP2 SLOAD DUP2 PUSH20 0xFFFFFFFFFFFFFFFFFFFFFFFFFFFFFFFFFFFFFFFF MUL NOT AND SWAP1 DUP4 PUSH20 0xFFFFFFFFFFFFFFFFFFFFFFFFFFFFFFFFFFFFFFFF AND MUL OR SWAP1 SSTORE POP SWAP1 POP POP DUP1 SWAP4 POP POP POP POP SWAP2 SWAP1 POP JUMP JUMPDEST PUSH0 PUSH1 0xA PUSH0 DUP5 DUP2 MSTORE PUSH1 0x20 ADD SWAP1 DUP2 MSTORE PUSH1 0x20 ADD PUSH0 KECCAK256 PUSH0 ADD SLOAD SUB PUSH2 0x3E52 JUMPI PUSH1 0x40 MLOAD PUSH32 0xC5723B5100000000000000000000000000000000000000000000000000000000 DUP2 MSTORE PUSH1 0x4 ADD PUSH1 0x40 MLOAD DUP1 SWAP2 SUB SWAP1 REVERT JUMPDEST PUSH0 PUSH1 0x6 PUSH0 DUP4 DUP2 MSTORE PUSH1 0x20 ADD SWAP1 DUP2 MSTORE PUSH1 0x20 ADD PUSH0 KECCAK256 PUSH0 ADD SLOAD SUB PUSH2 0x3E9E JUMPI PUSH1 0x40 MLOAD PUSH32 0xC5723B5100000000000000000000000000000000000000000000000000000000 DUP2 MSTORE PUSH1 0x4 ADD PUSH1 0x40 MLOAD DUP1 SWAP2 SUB SWAP1 REVERT JUMPDEST PUSH0 PUSH1 0x2 DUP2 GT ISZERO PUSH2 0x3EB1 JUMPI PUSH2 0x3EB0 PUSH2 0x42F9 JUMP JUMPDEST JUMPDEST PUSH1 0xA PUSH0 DUP5 DUP2 MSTORE PUSH1 0x20 ADD SWAP1 DUP2 MSTORE PUSH1 0x20 ADD PUSH0 KECCAK256 PUSH1 0x1 ADD PUSH1 0x1 SWAP1 SLOAD SWAP1 PUSH2 0x100 EXP SWAP1 DIV PUSH1 0xFF AND PUSH1 0x2 DUP2 GT ISZERO PUSH2 0x3EE5 JUMPI PUSH2 0x3EE4 PUSH2 0x42F9 JUMP JUMPDEST JUMPDEST EQ PUSH2 0x3F1C JUMPI PUSH1 0x40 MLOAD PUSH32 0xF525E32000000000000000000000000000000000000000000000000000000000 DUP2 MSTORE PUSH1 0x4 ADD PUSH1 0x40 MLOAD DUP1 SWAP2 SUB SWAP1 REVERT JUMPDEST PUSH0 PUSH1 0x1 DUP2 GT ISZERO PUSH2 0x3F2F JUMPI PUSH2 0x3F2E PUSH2 0x42F9 JUMP JUMPDEST JUMPDEST PUSH1 0x6 PUSH0 DUP4 DUP2 MSTORE PUSH1 0x20 ADD SWAP1 DUP2 MSTORE PUSH1 0x20 ADD PUSH0 KECCAK256 PUSH1 0x6 ADD PUSH0 SWAP1 SLOAD SWAP1 PUSH2 0x100 EXP SWAP1 DIV PUSH1 0xFF AND PUSH1 0x1 DUP2 GT ISZERO PUSH2 0x3F62 JUMPI PUSH2 0x3F61 PUSH2 0x42F9 JUMP JUMPDEST JUMPDEST EQ PUSH2 0x3F99 JUMPI PUSH1 0x40 MLOAD PUSH32 0xF525E32000000000000000000000000000000000000000000000000000000000 DUP2 MSTORE PUSH1 0x4 ADD PUSH1 0x40 MLOAD DUP1 SWAP2 SUB SWAP1 REVERT JUMPDEST PUSH1 0x32 PUSH1 0x13 PUSH0 DUP5 DUP2 MSTORE PUSH1 0x20 ADD SWAP1 DUP2 MSTORE PUSH1 0x20 ADD PUSH0 KECCAK256 DUP1 SLOAD SWAP1 POP LT PUSH2 0x3FE7 JUMPI PUSH1 0x40 MLOAD PUSH32 0x4F2A111200000000000000000000000000000000000000000000000000000000 DUP2 MSTORE PUSH1 0x4 ADD PUSH1 0x40 MLOAD DUP1 SWAP2 SUB SWAP1 REVERT JUMPDEST PUSH1 0x13 PUSH0 DUP4 DUP2 MSTORE PUSH1 0x20 ADD SWAP1 DUP2 MSTORE PUSH1 0x20 ADD PUSH0 KECCAK256 DUP2 SWAP1 DUP1 PUSH1 0x1 DUP2 SLOAD ADD DUP1 DUP3 SSTORE DUP1 SWAP2 POP POP PUSH1 0x1 SWAP1 SUB SWAP1 PUSH0 MSTORE PUSH1 0x20 PUSH0 KECCAK256 ADD PUSH0 SWAP1 SWAP2 SWAP1 SWAP2 SWAP1 SWAP2 POP SSTORE POP POP JUMP JUMPDEST PUSH1 0x7 PUSH1 0x20 MSTORE DUP1 PUSH0 MSTORE PUSH1 0x40 PUSH0 KECCAK256 PUSH0 SWAP2 POP SWAP1 POP DUP1 PUSH0 ADD SLOAD SWAP1 DUP1 PUSH1 0x1 ADD SLOAD SWAP1 DUP1 PUSH1 0x2 ADD SLOAD SWAP1 DUP1 PUSH1 0x3 ADD PUSH0 SWAP1 SLOAD SWAP1 PUSH2 0x100 EXP SWAP1 DIV PUSH20 0xFFFFFFFFFFFFFFFFFFFFFFFFFFFFFFFFFFFFFFFF AND SWAP1 POP DUP5 JUMP JUMPDEST PUSH1 0x2 SLOAD DUP2 JUMP JUMPDEST PUSH1 0x11 PUSH1 0x20 MSTORE DUP2 PUSH0 MSTORE PUSH1 0x40 PUSH0 KECCAK256 DUP2 DUP2 SLOAD DUP2 LT PUSH2 0x408A JUMPI PUSH0 DUP1 REVERT JUMPDEST SWAP1 PUSH0 MSTORE PUSH1 0x20 PUSH0 KECCAK256 ADD PUSH0 SWAP2 POP SWAP2 POP POP SLOAD DUP2 JUMP JUMPDEST PUSH0 PUSH1 0x40 MLOAD SWAP1 POP SWAP1 JUMP JUMPDEST PUSH0 PUSH0 REVERT JUMPDEST PUSH0 PUSH0 REVERT JUMPDEST PUSH0 DUP2 SWAP1 POP SWAP2 SWAP1 POP JUMP JUMPDEST PUSH2 0x40BF DUP2 PUSH2 0x40AD JUMP JUMPDEST DUP2 EQ PUSH2 0x40C9 JUMPI PUSH0 PUSH0 REVERT JUMPDEST POP JUMP JUMPDEST PUSH0 DUP2 CALLDATALOAD SWAP1 POP PUSH2 0x40DA DUP2 PUSH2 0x40B6 JUMP JUMPDEST SWAP3 SWAP2 POP POP JUMP JUMPDEST PUSH0 PUSH0 PUSH1 0x40 DUP4 DUP6 SUB SLT ISZERO PUSH2 0x40F6 JUMPI PUSH2 0x40F5 PUSH2 0x40A5 JUMP JUMPDEST JUMPDEST PUSH0 PUSH2 0x4103 DUP6 DUP3 DUP7 ADD PUSH2 0x40CC JUMP JUMPDEST SWAP3 POP POP PUSH1 0x20 PUSH2 0x4114 DUP6 DUP3 DUP7 ADD PUSH2 0x40CC JUMP JUMPDEST SWAP2 POP POP SWAP3 POP SWAP3 SWAP1 POP JUMP JUMPDEST PUSH2 0x4127 DUP2 PUSH2 0x40AD JUMP JUMPDEST DUP3 MSTORE POP POP JUMP JUMPDEST PUSH0 PUSH1 0x20 DUP3 ADD SWAP1 POP PUSH2 0x4140 PUSH0 DUP4 ADD DUP5 PUSH2 0x411E JUMP JUMPDEST SWAP3 SWAP2 POP POP JUMP JUMPDEST PUSH0 PUSH20 0xFFFFFFFFFFFFFFFFFFFFFFFFFFFFFFFFFFFFFFFF DUP3 AND SWAP1 POP SWAP2 SWAP1 POP JUMP JUMPDEST PUSH0 PUSH2 0x416F DUP3 PUSH2 0x4146 JUMP JUMPDEST SWAP1 POP SWAP2 SWAP1 POP JUMP JUMPDEST PUSH2 0x417F DUP2 PUSH2 0x4165 JUMP JUMPDEST DUP2 EQ PUSH2 0x4189 JUMPI PUSH0 PUSH0 REVERT JUMPDEST POP JUMP JUMPDEST PUSH0 DUP2 CALLDATALOAD SWAP1 POP PUSH2 0x419A DUP2 PUSH2 0x4176 JUMP JUMPDEST SWAP3 SWAP2 POP POP JUMP JUMPDEST PUSH1 0x6 DUP2 LT PUSH2 0x41AC JUMPI PUSH0 PUSH0 REVERT JUMPDEST POP JUMP JUMPDEST PUSH0 DUP2 CALLDATALOAD SWAP1 POP PUSH2 0x41BD DUP2 PUSH2 0x41A0 JUMP JUMPDEST SWAP3 SWAP2 POP POP JUMP JUMPDEST PUSH0 PUSH0 PUSH1 0x40 DUP4 DUP6 SUB SLT ISZERO PUSH2 0x41D9 JUMPI PUSH2 0x41D8 PUSH2 0x40A5 JUMP JUMPDEST JUMPDEST PUSH0 PUSH2 0x41E6 DUP6 DUP3 DUP7 ADD PUSH2 0x418C JUMP JUMPDEST SWAP3 POP POP PUSH1 0x20 PUSH2 0x41F7 DUP6 DUP3 DUP7 ADD PUSH2 0x41AF JUMP JUMPDEST SWAP2 POP POP SWAP3 POP SWAP3 SWAP1 POP JUMP JUMPDEST PUSH0 DUP2 ISZERO ISZERO SWAP1 POP SWAP2 SWAP1 POP JUMP JUMPDEST PUSH2 0x4215 DUP2 PUSH2 0x4201 JUMP JUMPDEST DUP3 MSTORE POP POP JUMP JUMPDEST PUSH0 PUSH1 0x20 DUP3 ADD SWAP1 POP PUSH2 0x422E PUSH0 DUP4 ADD DUP5 PUSH2 0x420C JUMP JUMPDEST SWAP3 SWAP2 POP POP JUMP JUMPDEST PUSH0 PUSH1 0x20 DUP3 DUP5 SUB SLT ISZERO PUSH2 0x4249 JUMPI PUSH2 0x4248 PUSH2 0x40A5 JUMP JUMPDEST JUMPDEST PUSH0 PUSH2 0x4256 DUP5 DUP3 DUP6 ADD PUSH2 0x40CC JUMP JUMPDEST SWAP2 POP POP SWAP3 SWAP2 POP POP JUMP JUMPDEST PUSH1 0x4 DUP2 LT PUSH2 0x426B JUMPI PUSH0 PUSH0 REVERT JUMPDEST POP JUMP JUMPDEST PUSH0 DUP2 CALLDATALOAD SWAP1 POP PUSH2 0x427C DUP2 PUSH2 0x425F JUMP JUMPDEST SWAP3 SWAP2 POP POP JUMP JUMPDEST PUSH0 PUSH0 PUSH0 PUSH0 PUSH0 PUSH1 0xA0 DUP7 DUP9 SUB SLT ISZERO PUSH2 0x429B JUMPI PUSH2 0x429A PUSH2 0x40A5 JUMP JUMPDEST JUMPDEST PUSH0 PUSH2 0x42A8 DUP9 DUP3 DUP10 ADD PUSH2 0x426E JUMP JUMPDEST SWAP6 POP POP PUSH1 0x20 PUSH2 0x42B9 DUP9 DUP3 DUP10 ADD PUSH2 0x40CC JUMP JUMPDEST SWAP5 POP POP PUSH1 0x40 PUSH2 0x42CA DUP9 DUP3 DUP10 ADD PUSH2 0x40CC JUMP JUMPDEST SWAP4 POP POP PUSH1 0x60 PUSH2 0x42DB DUP9 DUP3 DUP10 ADD PUSH2 0x40CC JUMP JUMPDEST SWAP3 POP POP PUSH1 0x80 PUSH2 0x42EC DUP9 DUP3 DUP10 ADD PUSH2 0x40CC JUMP JUMPDEST SWAP2 POP POP SWAP3 SWAP6 POP SWAP3 SWAP6 SWAP1 SWAP4 POP JUMP JUMPDEST PUSH32 0x4E487B7100000000000000000000000000000000000000000000000000000000 PUSH0 MSTORE PUSH1 0x21 PUSH1 0x4 MSTORE PUSH1 0x24 PUSH0 REVERT JUMPDEST PUSH1 0x4 DUP2 LT PUSH2 0x4337 JUMPI PUSH2 0x4336 PUSH2 0x42F9 JUMP JUMPDEST JUMPDEST POP JUMP JUMPDEST PUSH0 DUP2 SWAP1 POP PUSH2 0x4347 DUP3 PUSH2 0x4326 JUMP JUMPDEST SWAP2 SWAP1 POP JUMP JUMPDEST PUSH0 PUSH2 0x4356 DUP3 PUSH2 0x433A JUMP JUMPDEST SWAP1 POP SWAP2 SWAP1 POP JUMP JUMPDEST PUSH2 0x4366 DUP2 PUSH2 0x434C JUMP JUMPDEST DUP3 MSTORE POP POP JUMP JUMPDEST PUSH1 0x3 DUP2 LT PUSH2 0x437D JUMPI PUSH2 0x437C PUSH2 0x42F9 JUMP JUMPDEST JUMPDEST POP JUMP JUMPDEST PUSH0 DUP2 SWAP1 POP PUSH2 0x438D DUP3 PUSH2 0x436C JUMP JUMPDEST SWAP2 SWAP1 POP JUMP JUMPDEST PUSH0 PUSH2 0x439C DUP3 PUSH2 0x4380 JUMP JUMPDEST SWAP1 POP SWAP2 SWAP1 POP JUMP JUMPDEST PUSH2 0x43AC DUP2 PUSH2 0x4392 JUMP JUMPDEST DUP3 MSTORE POP POP JUMP JUMPDEST PUSH2 0x43BB DUP2 PUSH2 0x4165 JUMP JUMPDEST DUP3 MSTORE POP POP JUMP JUMPDEST PUSH0 PUSH2 0x160 DUP3 ADD SWAP1 POP PUSH2 0x43D5 PUSH0 DUP4 ADD DUP15 PUSH2 0x411E JUMP JUMPDEST PUSH2 0x43E2 PUSH1 0x20 DUP4 ADD DUP14 PUSH2 0x435D JUMP JUMPDEST PUSH2 0x43EF PUSH1 0x40 DUP4 ADD DUP13 PUSH2 0x43A3 JUMP JUMPDEST PUSH2 0x43FC PUSH1 0x60 DUP4 ADD DUP12 PUSH2 0x411E JUMP JUMPDEST PUSH2 0x4409 PUSH1 0x80 DUP4 ADD DUP11 PUSH2 0x411E JUMP JUMPDEST PUSH2 0x4416 PUSH1 0xA0 DUP4 ADD DUP10 PUSH2 0x411E JUMP JUMPDEST PUSH2 0x4423 PUSH1 0xC0 DUP4 ADD DUP9 PUSH2 0x411E JUMP JUMPDEST PUSH2 0x4430 PUSH1 0xE0 DUP4 ADD DUP8 PUSH2 0x411E JUMP JUMPDEST PUSH2 0x443E PUSH2 0x100 DUP4 ADD DUP7 PUSH2 0x411E JUMP JUMPDEST PUSH2 0x444C PUSH2 0x120 DUP4 ADD DUP6 PUSH2 0x411E JUMP JUMPDEST PUSH2 0x445A PUSH2 0x140 DUP4 ADD DUP5 PUSH2 0x43B2 JUMP JUMPDEST SWAP13 SWAP12 POP POP POP POP POP POP POP POP POP POP POP POP JUMP JUMPDEST PUSH0 PUSH0 REVERT JUMPDEST PUSH0 PUSH0 REVERT JUMPDEST PUSH0 PUSH1 0x1F NOT PUSH1 0x1F DUP4 ADD AND SWAP1 POP SWAP2 SWAP1 POP JUMP JUMPDEST PUSH32 0x4E487B7100000000000000000000000000000000000000000000000000000000 PUSH0 MSTORE PUSH1 0x41 PUSH1 0x4 MSTORE PUSH1 0x24 PUSH0 REVERT JUMPDEST PUSH2 0x44B8 DUP3 PUSH2 0x4472 JUMP JUMPDEST DUP2 ADD DUP2 DUP2 LT PUSH8 0xFFFFFFFFFFFFFFFF DUP3 GT OR ISZERO PUSH2 0x44D7 JUMPI PUSH2 0x44D6 PUSH2 0x4482 JUMP JUMPDEST JUMPDEST DUP1 PUSH1 0x40 MSTORE POP POP POP JUMP JUMPDEST PUSH0 PUSH2 0x44E9 PUSH2 0x409C JUMP JUMPDEST SWAP1 POP PUSH2 0x44F5 DUP3 DUP3 PUSH2 0x44AF JUMP JUMPDEST SWAP2 SWAP1 POP JUMP JUMPDEST PUSH0 PUSH8 0xFFFFFFFFFFFFFFFF DUP3 GT ISZERO PUSH2 0x4514 JUMPI PUSH2 0x4513 PUSH2 0x4482 JUMP JUMPDEST JUMPDEST PUSH2 0x451D DUP3 PUSH2 0x4472 JUMP JUMPDEST SWAP1 POP PUSH1 0x20 DUP2 ADD SWAP1 POP SWAP2 SWAP1 POP JUMP JUMPDEST DUP3 DUP2 DUP4 CALLDATACOPY PUSH0 DUP4 DUP4 ADD MSTORE POP POP POP JUMP JUMPDEST PUSH0 PUSH2 0x454A PUSH2 0x4545 DUP5 PUSH2 0x44FA JUMP JUMPDEST PUSH2 0x44E0 JUMP JUMPDEST SWAP1 POP DUP3 DUP2 MSTORE PUSH1 0x20 DUP2 ADD DUP5 DUP5 DUP5 ADD GT ISZERO PUSH2 0x4566 JUMPI PUSH2 0x4565 PUSH2 0x446E JUMP JUMPDEST JUMPDEST PUSH2 0x4571 DUP5 DUP3 DUP6 PUSH2 0x452A JUMP JUMPDEST POP SWAP4 SWAP3 POP POP POP JUMP JUMPDEST PUSH0 DUP3 PUSH1 0x1F DUP4 ADD SLT PUSH2 0x458D JUMPI PUSH2 0x458C PUSH2 0x446A JUMP JUMPDEST JUMPDEST DUP2 CALLDATALOAD PUSH2 0x459D DUP5 DUP3 PUSH1 0x20 DUP7 ADD PUSH2 0x4538 JUMP JUMPDEST SWAP2 POP POP SWAP3 SWAP2 POP POP JUMP JUMPDEST PUSH1 0x2 DUP2 LT PUSH2 0x45B2 JUMPI PUSH0 PUSH0 REVERT JUMPDEST POP JUMP JUMPDEST PUSH0 DUP2 CALLDATALOAD SWAP1 POP PUSH2 0x45C3 DUP2 PUSH2 0x45A6 JUMP JUMPDEST SWAP3 SWAP2 POP POP JUMP JUMPDEST PUSH0 PUSH0 PUSH0 PUSH0 PUSH0 PUSH1 0xA0 DUP7 DUP9 SUB SLT ISZERO PUSH2 0x45E2 JUMPI PUSH2 0x45E1 PUSH2 0x40A5 JUMP JUMPDEST JUMPDEST PUSH0 DUP7 ADD CALLDATALOAD PUSH8 0xFFFFFFFFFFFFFFFF DUP2 GT ISZERO PUSH2 0x45FF JUMPI PUSH2 0x45FE PUSH2 0x40A9 JUMP JUMPDEST JUMPDEST PUSH2 0x460B DUP9 DUP3 DUP10 ADD PUSH2 0x4579 JUMP JUMPDEST SWAP6 POP POP PUSH1 0x20 PUSH2 0x461C DUP9 DUP3 DUP10 ADD PUSH2 0x40CC JUMP JUMPDEST SWAP5 POP POP PUSH1 0x40 PUSH2 0x462D DUP9 DUP3 DUP10 ADD PUSH2 0x45B5 JUMP JUMPDEST SWAP4 POP POP PUSH1 0x60 PUSH2 0x463E DUP9 DUP3 DUP10 ADD PUSH2 0x40CC JUMP JUMPDEST SWAP3 POP POP PUSH1 0x80 PUSH2 0x464F DUP9 DUP3 DUP10 ADD PUSH2 0x40CC JUMP JUMPDEST SWAP2 POP POP SWAP3 SWAP6 POP SWAP3 SWAP6 SWAP1 SWAP4 POP JUMP JUMPDEST PUSH0 DUP2 MLOAD SWAP1 POP SWAP2 SWAP1 POP JUMP JUMPDEST PUSH0 DUP3 DUP3 MSTORE PUSH1 0x20 DUP3 ADD SWAP1 POP SWAP3 SWAP2 POP POP JUMP JUMPDEST DUP3 DUP2 DUP4 MCOPY PUSH0 DUP4 DUP4 ADD MSTORE POP POP POP JUMP JUMPDEST PUSH0 PUSH2 0x468E DUP3 PUSH2 0x465C JUMP JUMPDEST PUSH2 0x4698 DUP2 DUP6 PUSH2 0x4666 JUMP JUMPDEST SWAP4 POP PUSH2 0x46A8 DUP2 DUP6 PUSH1 0x20 DUP7 ADD PUSH2 0x4676 JUMP JUMPDEST PUSH2 0x46B1 DUP2 PUSH2 0x4472 JUMP JUMPDEST DUP5 ADD SWAP2 POP POP SWAP3 SWAP2 POP POP JUMP JUMPDEST PUSH0 PUSH1 0x80 DUP3 ADD SWAP1 POP PUSH2 0x46CF PUSH0 DUP4 ADD DUP8 PUSH2 0x411E JUMP JUMPDEST DUP2 DUP2 SUB PUSH1 0x20 DUP4 ADD MSTORE PUSH2 0x46E1 DUP2 DUP7 PUSH2 0x4684 JUMP JUMPDEST SWAP1 POP PUSH2 0x46F0 PUSH1 0x40 DUP4 ADD DUP6 PUSH2 0x411E JUMP JUMPDEST PUSH2 0x46FD PUSH1 0x60 DUP4 ADD DUP5 PUSH2 0x43B2 JUMP JUMPDEST SWAP6 SWAP5 POP POP POP POP POP JUMP JUMPDEST PUSH0 DUP2 MLOAD SWAP1 POP SWAP2 SWAP1 POP JUMP JUMPDEST PUSH0 DUP3 DUP3 MSTORE PUSH1 0x20 DUP3 ADD SWAP1 POP SWAP3 SWAP2 POP POP JUMP JUMPDEST PUSH0 DUP2 SWAP1 POP PUSH1 0x20 DUP3 ADD SWAP1 POP SWAP2 SWAP1 POP JUMP JUMPDEST PUSH2 0x4738 DUP2 PUSH2 0x40AD JUMP JUMPDEST DUP3 MSTORE POP POP JUMP JUMPDEST PUSH0 PUSH2 0x4749 DUP4 DUP4 PUSH2 0x472F JUMP JUMPDEST PUSH1 0x20 DUP4 ADD SWAP1 POP SWAP3 SWAP2 POP POP JUMP JUMPDEST PUSH0 PUSH1 0x20 DUP3 ADD SWAP1 POP SWAP2 SWAP1 POP JUMP JUMPDEST PUSH0 PUSH2 0x476B DUP3 PUSH2 0x4706 JUMP JUMPDEST PUSH2 0x4775 DUP2 DUP6 PUSH2 0x4710 JUMP JUMPDEST SWAP4 POP PUSH2 0x4780 DUP4 PUSH2 0x4720 JUMP JUMPDEST DUP1 PUSH0 JUMPDEST DUP4 DUP2 LT ISZERO PUSH2 0x47B0 JUMPI DUP2 MLOAD PUSH2 0x4797 DUP9 DUP3 PUSH2 0x473E JUMP JUMPDEST SWAP8 POP PUSH2 0x47A2 DUP4 PUSH2 0x4755 JUMP JUMPDEST SWAP3 POP POP PUSH1 0x1 DUP2 ADD SWAP1 POP PUSH2 0x4783 JUMP JUMPDEST POP DUP6 SWAP4 POP POP POP POP SWAP3 SWAP2 POP POP JUMP JUMPDEST PUSH0 PUSH1 0x20 DUP3 ADD SWAP1 POP DUP2 DUP2 SUB PUSH0 DUP4 ADD MSTORE PUSH2 0x47D5 DUP2 DUP5 PUSH2 0x4761 JUMP JUMPDEST SWAP1 POP SWAP3 SWAP2 POP POP JUMP JUMPDEST PUSH0 PUSH0 PUSH1 0x40 DUP4 DUP6 SUB SLT ISZERO PUSH2 0x47F3 JUMPI PUSH2 0x47F2 PUSH2 0x40A5 JUMP JUMPDEST JUMPDEST PUSH0 PUSH2 0x4800 DUP6 DUP3 DUP7 ADD PUSH2 0x41AF JUMP JUMPDEST SWAP3 POP POP PUSH1 0x20 PUSH2 0x4811 DUP6 DUP3 DUP7 ADD PUSH2 0x40CC JUMP JUMPDEST SWAP2 POP POP SWAP3 POP SWAP3 SWAP1 POP JUMP JUMPDEST PUSH0 PUSH0 PUSH0 PUSH1 0x60 DUP5 DUP7 SUB SLT ISZERO PUSH2 0x4832 JUMPI PUSH2 0x4831 PUSH2 0x40A5 JUMP JUMPDEST JUMPDEST PUSH0 PUSH2 0x483F DUP7 DUP3 DUP8 ADD PUSH2 0x41AF JUMP JUMPDEST SWAP4 POP POP PUSH1 0x20 PUSH2 0x4850 DUP7 DUP3 DUP8 ADD PUSH2 0x40CC JUMP JUMPDEST SWAP3 POP POP PUSH1 0x40 PUSH2 0x4861 DUP7 DUP3 DUP8 ADD PUSH2 0x40CC JUMP JUMPDEST SWAP2 POP POP SWAP3 POP SWAP3 POP SWAP3 JUMP JUMPDEST PUSH0 PUSH0 PUSH1 0x40 DUP4 DUP6 SUB SLT ISZERO PUSH2 0x4881 JUMPI PUSH2 0x4880 PUSH2 0x40A5 JUMP JUMPDEST JUMPDEST PUSH0 DUP4 ADD CALLDATALOAD PUSH8 0xFFFFFFFFFFFFFFFF DUP2 GT ISZERO PUSH2 0x489E JUMPI PUSH2 0x489D PUSH2 0x40A9 JUMP JUMPDEST JUMPDEST PUSH2 0x48AA DUP6 DUP3 DUP7 ADD PUSH2 0x4579 JUMP JUMPDEST SWAP3 POP POP PUSH1 0x20 DUP4 ADD CALLDATALOAD PUSH8 0xFFFFFFFFFFFFFFFF DUP2 GT ISZERO PUSH2 0x48CB JUMPI PUSH2 0x48CA PUSH2 0x40A9 JUMP JUMPDEST JUMPDEST PUSH2 0x48D7 DUP6 DUP3 DUP7 ADD PUSH2 0x4579 JUMP JUMPDEST SWAP2 POP POP SWAP3 POP SWAP3 SWAP1 POP JUMP JUMPDEST PUSH0 PUSH1 0x20 DUP3 ADD SWAP1 POP PUSH2 0x48F4 PUSH0 DUP4 ADD DUP5 PUSH2 0x43B2 JUMP JUMPDEST SWAP3 SWAP2 POP POP JUMP JUMPDEST PUSH0 PUSH0 PUSH0 PUSH0 PUSH1 0x80 DUP6 DUP8 SUB SLT ISZERO PUSH2 0x4912 JUMPI PUSH2 0x4911 PUSH2 0x40A5 JUMP JUMPDEST JUMPDEST PUSH0 PUSH2 0x491F DUP8 DUP3 DUP9 ADD PUSH2 0x40CC JUMP JUMPDEST SWAP5 POP POP PUSH1 0x20 DUP6 ADD CALLDATALOAD PUSH8 0xFFFFFFFFFFFFFFFF DUP2 GT ISZERO PUSH2 0x4940 JUMPI PUSH2 0x493F PUSH2 0x40A9 JUMP JUMPDEST JUMPDEST PUSH2 0x494C DUP8 DUP3 DUP9 ADD PUSH2 0x4579 JUMP JUMPDEST SWAP4 POP POP PUSH1 0x40 PUSH2 0x495D DUP8 DUP3 DUP9 ADD PUSH2 0x40CC JUMP JUMPDEST SWAP3 POP POP PUSH1 0x60 PUSH2 0x496E DUP8 DUP3 DUP9 ADD PUSH2 0x40CC JUMP JUMPDEST SWAP2 POP POP SWAP3 SWAP6 SWAP2 SWAP5 POP SWAP3 POP JUMP JUMPDEST PUSH0 PUSH1 0x20 DUP3 DUP5 SUB SLT ISZERO PUSH2 0x498F JUMPI PUSH2 0x498E PUSH2 0x40A5 JUMP JUMPDEST JUMPDEST PUSH0 PUSH2 0x499C DUP5 DUP3 DUP6 ADD PUSH2 0x41AF JUMP JUMPDEST SWAP2 POP POP SWAP3 SWAP2 POP POP JUMP JUMPDEST PUSH0 DUP2 MLOAD SWAP1 POP SWAP2 SWAP1 POP JUMP JUMPDEST PUSH0 DUP3 DUP3 MSTORE PUSH1 0x20 DUP3 ADD SWAP1 POP SWAP3 SWAP2 POP POP JUMP JUMPDEST PUSH0 PUSH2 0x49C9 DUP3 PUSH2 0x49A5 JUMP JUMPDEST PUSH2 0x49D3 DUP2 DUP6 PUSH2 0x49AF JUMP JUMPDEST SWAP4 POP PUSH2 0x49E3 DUP2 DUP6 PUSH1 0x20 DUP7 ADD PUSH2 0x4676 JUMP JUMPDEST PUSH2 0x49EC DUP2 PUSH2 0x4472 JUMP JUMPDEST DUP5 ADD SWAP2 POP POP SWAP3 SWAP2 POP POP JUMP JUMPDEST PUSH0 PUSH1 0x20 DUP3 ADD SWAP1 POP DUP2 DUP2 SUB PUSH0 DUP4 ADD MSTORE PUSH2 0x4A0F DUP2 DUP5 PUSH2 0x49BF JUMP JUMPDEST SWAP1 POP SWAP3 SWAP2 POP POP JUMP JUMPDEST PUSH0 PUSH1 0xA0 DUP3 ADD SWAP1 POP PUSH2 0x4A2A PUSH0 DUP4 ADD DUP9 PUSH2 0x411E JUMP JUMPDEST DUP2 DUP2 SUB PUSH1 0x20 DUP4 ADD MSTORE PUSH2 0x4A3C DUP2 DUP8 PUSH2 0x4684 JUMP JUMPDEST SWAP1 POP DUP2 DUP2 SUB PUSH1 0x40 DUP4 ADD MSTORE PUSH2 0x4A50 DUP2 DUP7 PUSH2 0x4684 JUMP JUMPDEST SWAP1 POP PUSH2 0x4A5F PUSH1 0x60 DUP4 ADD DUP6 PUSH2 0x411E JUMP JUMPDEST PUSH2 0x4A6C PUSH1 0x80 DUP4 ADD DUP5 PUSH2 0x43B2 JUMP JUMPDEST SWAP7 SWAP6 POP POP POP POP POP POP JUMP JUMPDEST PUSH1 0x2 DUP2 LT PUSH2 0x4A87 JUMPI PUSH2 0x4A86 PUSH2 0x42F9 JUMP JUMPDEST JUMPDEST POP JUMP JUMPDEST PUSH0 DUP2 SWAP1 POP PUSH2 0x4A97 DUP3 PUSH2 0x4A76 JUMP JUMPDEST SWAP2 SWAP1 POP JUMP JUMPDEST PUSH0 PUSH2 0x4AA6 DUP3 PUSH2 0x4A8A JUMP JUMPDEST SWAP1 POP SWAP2 SWAP1 POP JUMP JUMPDEST PUSH2 0x4AB6 DUP2 PUSH2 0x4A9C JUMP JUMPDEST DUP3 MSTORE POP POP JUMP JUMPDEST PUSH0 PUSH2 0x120 DUP3 ADD SWAP1 POP PUSH2 0x4AD0 PUSH0 DUP4 ADD DUP13 PUSH2 0x411E JUMP JUMPDEST DUP2 DUP2 SUB PUSH1 0x20 DUP4 ADD MSTORE PUSH2 0x4AE2 DUP2 DUP12 PUSH2 0x4684 JUMP JUMPDEST SWAP1 POP PUSH2 0x4AF1 PUSH1 0x40 DUP4 ADD DUP11 PUSH2 0x411E JUMP JUMPDEST PUSH2 0x4AFE PUSH1 0x60 DUP4 ADD DUP10 PUSH2 0x411E JUMP JUMPDEST PUSH2 0x4B0B PUSH1 0x80 DUP4 ADD DUP9 PUSH2 0x411E JUMP JUMPDEST PUSH2 0x4B18 PUSH1 0xA0 DUP4 ADD DUP8 PUSH2 0x411E JUMP JUMPDEST PUSH2 0x4B25 PUSH1 0xC0 DUP4 ADD DUP7 PUSH2 0x4AAD JUMP JUMPDEST PUSH2 0x4B32 PUSH1 0xE0 DUP4 ADD DUP6 PUSH2 0x411E JUMP JUMPDEST PUSH2 0x4B40 PUSH2 0x100 DUP4 ADD DUP5 PUSH2 0x43B2 JUMP JUMPDEST SWAP11 SWAP10 POP POP POP POP POP POP POP POP POP POP JUMP JUMPDEST PUSH1 0x3 DUP2 LT PUSH2 0x4B5F JUMPI PUSH2 0x4B5E PUSH2 0x42F9 JUMP JUMPDEST JUMPDEST POP JUMP JUMPDEST PUSH0 DUP2 SWAP1 POP PUSH2 0x4B6F DUP3 PUSH2 0x4B4E JUMP JUMPDEST SWAP2 SWAP1 POP JUMP JUMPDEST PUSH0 PUSH2 0x4B7E DUP3 PUSH2 0x4B62 JUMP JUMPDEST SWAP1 POP SWAP2 SWAP1 POP JUMP JUMPDEST PUSH2 0x4B8E DUP2 PUSH2 0x4B74 JUMP JUMPDEST DUP3 MSTORE POP POP JUMP JUMPDEST PUSH0 PUSH2 0x140 DUP3 ADD SWAP1 POP PUSH2 0x4BA8 PUSH0 DUP4 ADD DUP14 PUSH2 0x411E JUMP JUMPDEST PUSH2 0x4BB5 PUSH1 0x20 DUP4 ADD DUP13 PUSH2 0x411E JUMP JUMPDEST PUSH2 0x4BC2 PUSH1 0x40 DUP4 ADD DUP12 PUSH2 0x4B85 JUMP JUMPDEST DUP2 DUP2 SUB PUSH1 0x60 DUP4 ADD MSTORE PUSH2 0x4BD4 DUP2 DUP11 PUSH2 0x4684 JUMP JUMPDEST SWAP1 POP PUSH2 0x4BE3 PUSH1 0x80 DUP4 ADD DUP10 PUSH2 0x411E JUMP JUMPDEST PUSH2 0x4BF0 PUSH1 0xA0 DUP4 ADD DUP9 PUSH2 0x411E JUMP JUMPDEST PUSH2 0x4BFD PUSH1 0xC0 DUP4 ADD DUP8 PUSH2 0x411E JUMP JUMPDEST PUSH2 0x4C0A PUSH1 0xE0 DUP4 ADD DUP7 PUSH2 0x411E JUMP JUMPDEST PUSH2 0x4C18 PUSH2 0x100 DUP4 ADD DUP6 PUSH2 0x411E JUMP JUMPDEST PUSH2 0x4C26 PUSH2 0x120 DUP4 ADD DUP5 PUSH2 0x43B2 JUMP JUMPDEST SWAP12 SWAP11 POP POP POP POP POP POP POP POP POP POP POP JUMP JUMPDEST PUSH0 PUSH1 0x20 DUP3 DUP5 SUB SLT ISZERO PUSH2 0x4C4A JUMPI PUSH2 0x4C49 PUSH2 0x40A5 JUMP JUMPDEST JUMPDEST PUSH0 DUP3 ADD CALLDATALOAD PUSH8 0xFFFFFFFFFFFFFFFF DUP2 GT ISZERO PUSH2 0x4C67 JUMPI PUSH2 0x4C66 PUSH2 0x40A9 JUMP JUMPDEST JUMPDEST PUSH2 0x4C73 DUP5 DUP3 DUP6 ADD PUSH2 0x4579 JUMP JUMPDEST SWAP2 POP POP SWAP3 SWAP2 POP POP JUMP JUMPDEST PUSH0 PUSH1 0x80 DUP3 ADD SWAP1 POP PUSH2 0x4C8F PUSH0 DUP4 ADD DUP8 PUSH2 0x411E JUMP JUMPDEST PUSH2 0x4C9C PUSH1 0x20 DUP4 ADD DUP7 PUSH2 0x411E JUMP JUMPDEST PUSH2 0x4CA9 PUSH1 0x40 DUP4 ADD DUP6 PUSH2 0x411E JUMP JUMPDEST PUSH2 0x4CB6 PUSH1 0x60 DUP4 ADD DUP5 PUSH2 0x43B2 JUMP JUMPDEST SWAP6 SWAP5 POP POP POP POP POP JUMP JUMPDEST PUSH32 0x4E487B7100000000000000000000000000000000000000000000000000000000 PUSH0 MSTORE PUSH1 0x32 PUSH1 0x4 MSTORE PUSH1 0x24 PUSH0 REVERT JUMPDEST PUSH32 0x4E487B7100000000000000000000000000000000000000000000000000000000 PUSH0 MSTORE PUSH1 0x11 PUSH1 0x4 MSTORE PUSH1 0x24 PUSH0 REVERT JUMPDEST PUSH0 PUSH2 0x4D23 DUP3 PUSH2 0x40AD JUMP JUMPDEST SWAP2 POP PUSH32 0xFFFFFFFFFFFFFFFFFFFFFFFFFFFFFFFFFFFFFFFFFFFFFFFFFFFFFFFFFFFFFFFF DUP3 SUB PUSH2 0x4D55 JUMPI PUSH2 0x4D54 PUSH2 0x4CEC JUMP JUMPDEST JUMPDEST PUSH1 0x1 DUP3 ADD SWAP1 POP SWAP2 SWAP1 POP JUMP JUMPDEST PUSH32 0x4E487B7100000000000000000000000000000000000000000000000000000000 PUSH0 MSTORE PUSH1 0x22 PUSH1 0x4 MSTORE PUSH1 0x24 PUSH0 REVERT JUMPDEST PUSH0 PUSH1 0x2 DUP3 DIV SWAP1 POP PUSH1 0x1 DUP3 AND DUP1 PUSH2 0x4DA4 JUMPI PUSH1 0x7F DUP3 AND SWAP2 POP JUMPDEST PUSH1 0x20 DUP3 LT DUP2 SUB PUSH2 0x4DB7 JUMPI PUSH2 0x4DB6 PUSH2 0x4D60 JUMP JUMPDEST JUMPDEST POP SWAP2 SWAP1 POP JUMP JUMPDEST PUSH0 DUP2 SWAP1 POP DUP2 PUSH0 MSTORE PUSH1 0x20 PUSH0 KECCAK256 SWAP1 POP SWAP2 SWAP1 POP JUMP JUMPDEST PUSH0 PUSH1 0x20 PUSH1 0x1F DUP4 ADD DIV SWAP1 POP SWAP2 SWAP1 POP JUMP JUMPDEST PUSH0 DUP3 DUP3 SHL SWAP1 POP SWAP3 SWAP2 POP POP JUMP JUMPDEST PUSH0 PUSH1 0x8 DUP4 MUL PUSH2 0x4E19 PUSH32 0xFFFFFFFFFFFFFFFFFFFFFFFFFFFFFFFFFFFFFFFFFFFFFFFFFFFFFFFFFFFFFFFF DUP3 PUSH2 0x4DDE JUMP JUMPDEST PUSH2 0x4E23 DUP7 DUP4 PUSH2 0x4DDE JUMP JUMPDEST SWAP6 POP DUP1 NOT DUP5 AND SWAP4 POP DUP1 DUP7 AND DUP5 OR SWAP3 POP POP POP SWAP4 SWAP3 POP POP POP JUMP JUMPDEST PUSH0 DUP2 SWAP1 POP SWAP2 SWAP1 POP JUMP JUMPDEST PUSH0 PUSH2 0x4E5E PUSH2 0x4E59 PUSH2 0x4E54 DUP5 PUSH2 0x40AD JUMP JUMPDEST PUSH2 0x4E3B JUMP JUMPDEST PUSH2 0x40AD JUMP JUMPDEST SWAP1 POP SWAP2 SWAP1 POP JUMP JUMPDEST PUSH0 DUP2 SWAP1 POP SWAP2 SWAP1 POP JUMP JUMPDEST PUSH2 0x4E77 DUP4 PUSH2 0x4E44 JUMP JUMPDEST PUSH2 0x4E8B PUSH2 0x4E83 DUP3 PUSH2 0x4E65 JUMP JUMPDEST DUP5 DUP5 SLOAD PUSH2 0x4DEA JUMP JUMPDEST DUP3 SSTORE POP POP POP POP JUMP JUMPDEST PUSH0 PUSH0 SWAP1 POP SWAP1 JUMP JUMPDEST PUSH2 0x4EA2 PUSH2 0x4E93 JUMP JUMPDEST PUSH2 0x4EAD DUP2 DUP5 DUP5 PUSH2 0x4E6E JUMP JUMPDEST POP POP POP JUMP JUMPDEST JUMPDEST DUP2 DUP2 LT ISZERO PUSH2 0x4ED0 JUMPI PUSH2 0x4EC5 PUSH0 DUP3 PUSH2 0x4E9A JUMP JUMPDEST PUSH1 0x1 DUP2 ADD SWAP1 POP PUSH2 0x4EB3 JUMP JUMPDEST POP POP JUMP JUMPDEST PUSH1 0x1F DUP3 GT ISZERO PUSH2 0x4F15 JUMPI PUSH2 0x4EE6 DUP2 PUSH2 0x4DBD JUMP JUMPDEST PUSH2 0x4EEF DUP5 PUSH2 0x4DCF JUMP JUMPDEST DUP2 ADD PUSH1 0x20 DUP6 LT ISZERO PUSH2 0x4EFE JUMPI DUP2 SWAP1 POP JUMPDEST PUSH2 0x4F12 PUSH2 0x4F0A DUP6 PUSH2 0x4DCF JUMP JUMPDEST DUP4 ADD DUP3 PUSH2 0x4EB2 JUMP JUMPDEST POP POP JUMPDEST POP POP POP JUMP JUMPDEST PUSH0 DUP3 DUP3 SHR SWAP1 POP SWAP3 SWAP2 POP POP JUMP JUMPDEST PUSH0 PUSH2 0x4F35 PUSH0 NOT DUP5 PUSH1 0x8 MUL PUSH2 0x4F1A JUMP JUMPDEST NOT DUP1 DUP4 AND SWAP2 POP POP SWAP3 SWAP2 POP POP JUMP JUMPDEST PUSH0 PUSH2 0x4F4D DUP4 DUP4 PUSH2 0x4F26 JUMP JUMPDEST SWAP2 POP DUP3 PUSH1 0x2 MUL DUP3 OR SWAP1 POP SWAP3 SWAP2 POP POP JUMP JUMPDEST PUSH2 0x4F66 DUP3 PUSH2 0x465C JUMP JUMPDEST PUSH8 0xFFFFFFFFFFFFFFFF DUP2 GT ISZERO PUSH2 0x4F7F JUMPI PUSH2 0x4F7E PUSH2 0x4482 JUMP JUMPDEST JUMPDEST PUSH2 0x4F89 DUP3 SLOAD PUSH2 0x4D8D JUMP JUMPDEST PUSH2 0x4F94 DUP3 DUP3 DUP6 PUSH2 0x4ED4 JUMP JUMPDEST PUSH0 PUSH1 0x20 SWAP1 POP PUSH1 0x1F DUP4 GT PUSH1 0x1 DUP2 EQ PUSH2 0x4FC5 JUMPI PUSH0 DUP5 ISZERO PUSH2 0x4FB3 JUMPI DUP3 DUP8 ADD MLOAD SWAP1 POP JUMPDEST PUSH2 0x4FBD DUP6 DUP3 PUSH2 0x4F42 JUMP JUMPDEST DUP7 SSTORE POP PUSH2 0x5024 JUMP JUMPDEST PUSH1 0x1F NOT DUP5 AND PUSH2 0x4FD3 DUP7 PUSH2 0x4DBD JUMP JUMPDEST PUSH0 JUMPDEST DUP3 DUP2 LT ISZERO PUSH2 0x4FFA JUMPI DUP5 DUP10 ADD MLOAD DUP3 SSTORE PUSH1 0x1 DUP3 ADD SWAP2 POP PUSH1 0x20 DUP6 ADD SWAP5 POP PUSH1 0x20 DUP2 ADD SWAP1 POP PUSH2 0x4FD5 JUMP JUMPDEST DUP7 DUP4 LT ISZERO PUSH2 0x5017 JUMPI DUP5 DUP10 ADD MLOAD PUSH2 0x5013 PUSH1 0x1F DUP10 AND DUP3 PUSH2 0x4F26 JUMP JUMPDEST DUP4 SSTORE POP JUMPDEST PUSH1 0x1 PUSH1 0x2 DUP9 MUL ADD DUP9 SSTORE POP POP POP JUMPDEST POP POP POP POP POP POP JUMP JUMPDEST PUSH32 0x496E76616C6964207265736F75726365207479706520666F72206E6F74657300 PUSH0 DUP3 ADD MSTORE POP JUMP JUMPDEST PUSH0 PUSH2 0x5060 PUSH1 0x1F DUP4 PUSH2 0x4666 JUMP JUMPDEST SWAP2 POP PUSH2 0x506B DUP3 PUSH2 0x502C JUMP JUMPDEST PUSH1 0x20 DUP3 ADD SWAP1 POP SWAP2 SWAP1 POP JUMP JUMPDEST PUSH0 PUSH1 0x20 DUP3 ADD SWAP1 POP DUP2 DUP2 SUB PUSH0 DUP4 ADD MSTORE PUSH2 0x508D DUP2 PUSH2 0x5054 JUMP JUMPDEST SWAP1 POP SWAP2 SWAP1 POP JUMP JUMPDEST PUSH0 PUSH2 0x509E DUP3 PUSH2 0x40AD JUMP JUMPDEST SWAP2 POP PUSH2 0x50A9 DUP4 PUSH2 0x40AD JUMP JUMPDEST SWAP3 POP DUP3 DUP3 SUB SWAP1 POP DUP2 DUP2 GT ISZERO PUSH2 0x50C1 JUMPI PUSH2 0x50C0 PUSH2 0x4CEC JUMP JUMPDEST JUMPDEST SWAP3 SWAP2 POP POP JUMP JUMPDEST PUSH32 0x496E76616C6964207265736F7572636520747970650000000000000000000000 PUSH0 DUP3 ADD MSTORE POP JUMP JUMPDEST PUSH0 PUSH2 0x50FB PUSH1 0x15 DUP4 PUSH2 0x4666 JUMP JUMPDEST SWAP2 POP PUSH2 0x5106 DUP3 PUSH2 0x50C7 JUMP JUMPDEST PUSH1 0x20 DUP3 ADD SWAP1 POP SWAP2 SWAP1 POP JUMP JUMPDEST PUSH0 PUSH1 0x20 DUP3 ADD SWAP1 POP DUP2 DUP2 SUB PUSH0 DUP4 ADD MSTORE PUSH2 0x5128 DUP2 PUSH2 0x50EF JUMP JUMPDEST SWAP1 POP SWAP2 SWAP1 POP JUMP JUMPDEST PUSH0 DUP2 PUSH0 SHR SWAP1 POP SWAP2 SWAP1 POP JUMP JUMPDEST PUSH0 DUP2 SWAP1 POP SWAP2 SWAP1 POP JUMP JUMPDEST PUSH0 PUSH2 0x5155 PUSH2 0x5150 DUP4 PUSH2 0x512F JUMP JUMPDEST PUSH2 0x513A JUMP JUMPDEST SWAP1 POP SWAP2 SWAP1 POP JUMP JUMPDEST PUSH0 DUP3 DUP3 MSTORE PUSH1 0x20 DUP3 ADD SWAP1 POP SWAP3 SWAP2 POP POP JUMP JUMPDEST PUSH0 DUP2 SLOAD PUSH2 0x5178 DUP2 PUSH2 0x4D8D JUMP JUMPDEST PUSH2 0x5182 DUP2 DUP7 PUSH2 0x515C JUMP JUMPDEST SWAP5 POP PUSH1 0x1 DUP3 AND PUSH0 DUP2 EQ PUSH2 0x519C JUMPI PUSH1 0x1 DUP2 EQ PUSH2 0x51B2 JUMPI PUSH2 0x51E4 JUMP JUMPDEST PUSH1 0xFF NOT DUP4 AND DUP7 MSTORE DUP2 ISZERO ISZERO PUSH1 0x20 MUL DUP7 ADD SWAP4 POP PUSH2 0x51E4 JUMP JUMPDEST PUSH2 0x51BB DUP6 PUSH2 0x4DBD JUMP JUMPDEST PUSH0 JUMPDEST DUP4 DUP2 LT ISZERO PUSH2 0x51DC JUMPI DUP2 SLOAD DUP2 DUP10 ADD MSTORE PUSH1 0x1 DUP3 ADD SWAP2 POP PUSH1 0x20 DUP2 ADD SWAP1 POP PUSH2 0x51BD JUMP JUMPDEST DUP1 DUP9 ADD SWAP6 POP POP POP JUMPDEST POP POP POP SWAP3 SWAP2 POP POP JUMP JUMPDEST PUSH0 PUSH1 0xFF DUP3 AND SWAP1 POP SWAP2 SWAP1 POP JUMP JUMPDEST PUSH0 PUSH2 0x520B PUSH2 0x5206 DUP4 PUSH2 0x512F JUMP JUMPDEST PUSH2 0x51ED JUMP JUMPDEST SWAP1 POP SWAP2 SWAP1 POP JUMP JUMPDEST PUSH2 0x521B DUP2 PUSH2 0x4A9C JUMP JUMPDEST DUP3 MSTORE POP POP JUMP JUMPDEST PUSH0 PUSH20 0xFFFFFFFFFFFFFFFFFFFFFFFFFFFFFFFFFFFFFFFF DUP3 AND SWAP1 POP SWAP2 SWAP1 POP JUMP JUMPDEST PUSH0 PUSH2 0x5252 PUSH2 0x524D DUP4 PUSH2 0x512F JUMP JUMPDEST PUSH2 0x5221 JUMP JUMPDEST SWAP1 POP SWAP2 SWAP1 POP JUMP JUMPDEST PUSH2 0x5262 DUP2 PUSH2 0x4165 JUMP JUMPDEST DUP3 MSTORE POP POP JUMP JUMPDEST PUSH0 PUSH2 0x120 DUP4 ADD PUSH0 PUSH0 DUP5 ADD SLOAD SWAP1 POP PUSH2 0x527E DUP2 PUSH2 0x5143 JUMP JUMPDEST PUSH2 0x528A PUSH0 DUP8 ADD DUP3 PUSH2 0x472F JUMP JUMPDEST POP PUSH1 0x1 DUP5 ADD DUP6 DUP4 SUB PUSH1 0x20 DUP8 ADD MSTORE PUSH2 0x52A1 DUP4 DUP3 PUSH2 0x516C JUMP JUMPDEST SWAP3 POP POP PUSH1 0x2 DUP5 ADD SLOAD SWAP1 POP PUSH2 0x52B4 DUP2 PUSH2 0x5143 JUMP JUMPDEST PUSH2 0x52C1 PUSH1 0x40 DUP8 ADD DUP3 PUSH2 0x472F JUMP JUMPDEST POP PUSH1 0x3 DUP5 ADD SLOAD SWAP1 POP PUSH2 0x52D2 DUP2 PUSH2 0x5143 JUMP JUMPDEST PUSH2 0x52DF PUSH1 0x60 DUP8 ADD DUP3 PUSH2 0x472F JUMP JUMPDEST POP PUSH1 0x4 DUP5 ADD SLOAD SWAP1 POP PUSH2 0x52F0 DUP2 PUSH2 0x5143 JUMP JUMPDEST PUSH2 0x52FD PUSH1 0x80 DUP8 ADD DUP3 PUSH2 0x472F JUMP JUMPDEST POP PUSH1 0x5 DUP5 ADD SLOAD SWAP1 POP PUSH2 0x530E DUP2 PUSH2 0x5143 JUMP JUMPDEST PUSH2 0x531B PUSH1 0xA0 DUP8 ADD DUP3 PUSH2 0x472F JUMP JUMPDEST POP PUSH1 0x6 DUP5 ADD SLOAD SWAP1 POP PUSH2 0x532C DUP2 PUSH2 0x51F9 JUMP JUMPDEST PUSH2 0x5339 PUSH1 0xC0 DUP8 ADD DUP3 PUSH2 0x5212 JUMP JUMPDEST POP PUSH1 0x7 DUP5 ADD SLOAD SWAP1 POP PUSH2 0x534A DUP2 PUSH2 0x5143 JUMP JUMPDEST PUSH2 0x5357 PUSH1 0xE0 DUP8 ADD DUP3 PUSH2 0x472F JUMP JUMPDEST POP PUSH1 0x8 DUP5 ADD SLOAD SWAP1 POP PUSH2 0x5368 DUP2 PUSH2 0x5240 JUMP JUMPDEST PUSH2 0x5376 PUSH2 0x100 DUP8 ADD DUP3 PUSH2 0x5259 JUMP JUMPDEST POP DUP2 SWAP3 POP POP POP SWAP3 SWAP2 POP POP JUMP JUMPDEST PUSH0 PUSH1 0x20 DUP3 ADD SWAP1 POP DUP2 DUP2 SUB PUSH0 DUP4 ADD MSTORE PUSH2 0x539A DUP2 DUP5 PUSH2 0x5268 JUMP JUMPDEST SWAP1 POP SWAP3 SWAP2 POP POP JUMP JUMPDEST PUSH1 0x80 DUP3 ADD PUSH0 PUSH0 DUP4 ADD SLOAD SWAP1 POP PUSH2 0x53B6 DUP2 PUSH2 0x5143 JUMP JUMPDEST PUSH2 0x53C2 PUSH0 DUP7 ADD DUP3 PUSH2 0x472F JUMP JUMPDEST POP PUSH1 0x1 DUP4 ADD SLOAD SWAP1 POP PUSH2 0x53D3 DUP2 PUSH2 0x5143 JUMP JUMPDEST PUSH2 0x53E0 PUSH1 0x20 DUP7 ADD DUP3 PUSH2 0x472F JUMP JUMPDEST POP PUSH1 0x2 DUP4 ADD SLOAD SWAP1 POP PUSH2 0x53F1 DUP2 PUSH2 0x5143 JUMP JUMPDEST PUSH2 0x53FE PUSH1 0x40 DUP7 ADD DUP3 PUSH2 0x472F JUMP JUMPDEST POP PUSH1 0x3 DUP4 ADD SLOAD SWAP1 POP PUSH2 0x540F DUP2 PUSH2 0x5240 JUMP JUMPDEST PUSH2 0x541C PUSH1 0x60 DUP7 ADD DUP3 PUSH2 0x5259 JUMP JUMPDEST POP POP POP POP POP JUMP JUMPDEST PUSH0 PUSH1 0x80 DUP3 ADD SWAP1 POP PUSH2 0x5436 PUSH0 DUP4 ADD DUP5 PUSH2 0x53A2 JUMP JUMPDEST SWAP3 SWAP2 POP POP JUMP JUMPDEST PUSH0 PUSH1 0xFF DUP3 AND SWAP1 POP SWAP2 SWAP1 POP JUMP JUMPDEST PUSH0 PUSH2 0x545A PUSH2 0x5455 DUP4 PUSH2 0x512F JUMP JUMPDEST PUSH2 0x543C JUMP JUMPDEST SWAP1 POP SWAP2 SWAP1 POP JUMP JUMPDEST PUSH2 0x546A DUP2 PUSH2 0x4B74 JUMP JUMPDEST DUP3 MSTORE POP POP JUMP JUMPDEST PUSH0 PUSH2 0x140 DUP4 ADD PUSH0 PUSH0 DUP5 ADD SLOAD SWAP1 POP PUSH2 0x5486 DUP2 PUSH2 0x5143 JUMP JUMPDEST PUSH2 0x5492 PUSH0 DUP8 ADD DUP3 PUSH2 0x472F JUMP JUMPDEST POP PUSH1 0x1 DUP5 ADD SLOAD SWAP1 POP PUSH2 0x54A3 DUP2 PUSH2 0x5143 JUMP JUMPDEST PUSH2 0x54B0 PUSH1 0x20 DUP8 ADD DUP3 PUSH2 0x472F JUMP JUMPDEST POP PUSH1 0x2 DUP5 ADD SLOAD SWAP1 POP PUSH2 0x54C1 DUP2 PUSH2 0x5448 JUMP JUMPDEST PUSH2 0x54CE PUSH1 0x40 DUP8 ADD DUP3 PUSH2 0x5461 JUMP JUMPDEST POP PUSH1 0x3 DUP5 ADD DUP6 DUP4 SUB PUSH1 0x60 DUP8 ADD MSTORE PUSH2 0x54E5 DUP4 DUP3 PUSH2 0x516C JUMP JUMPDEST SWAP3 POP POP PUSH1 0x4 DUP5 ADD SLOAD SWAP1 POP PUSH2 0x54F8 DUP2 PUSH2 0x5143 JUMP JUMPDEST PUSH2 0x5505 PUSH1 0x80 DUP8 ADD DUP3 PUSH2 0x472F JUMP JUMPDEST POP PUSH1 0x5 DUP5 ADD SLOAD SWAP1 POP PUSH2 0x5516 DUP2 PUSH2 0x5143 JUMP JUMPDEST PUSH2 0x5523 PUSH1 0xA0 DUP8 ADD DUP3 PUSH2 0x472F JUMP JUMPDEST POP PUSH1 0x6 DUP5 ADD SLOAD SWAP1 POP PUSH2 0x5534 DUP2 PUSH2 0x5143 JUMP JUMPDEST PUSH2 0x5541 PUSH1 0xC0 DUP8 ADD DUP3 PUSH2 0x472F JUMP JUMPDEST POP PUSH1 0x7 DUP5 ADD SLOAD SWAP1 POP PUSH2 0x5552 DUP2 PUSH2 0x5143 JUMP JUMPDEST PUSH2 0x555F PUSH1 0xE0 DUP8 ADD DUP3 PUSH2 0x472F JUMP JUMPDEST POP PUSH1 0x8 DUP5 ADD SLOAD SWAP1 POP PUSH2 0x5570 DUP2 PUSH2 0x5143 JUMP JUMPDEST PUSH2 0x557E PUSH2 0x100 DUP8 ADD DUP3 PUSH2 0x472F JUMP JUMPDEST POP PUSH1 0x9 DUP5 ADD SLOAD SWAP1 POP PUSH2 0x558F DUP2 PUSH2 0x5240 JUMP JUMPDEST PUSH2 0x559D PUSH2 0x120 DUP8 ADD DUP3 PUSH2 0x5259 JUMP JUMPDEST POP DUP2 SWAP3 POP POP POP SWAP3 SWAP2 POP POP JUMP JUMPDEST PUSH0 PUSH1 0x20 DUP3 ADD SWAP1 POP DUP2 DUP2 SUB PUSH0 DUP4 ADD MSTORE PUSH2 0x55C1 DUP2 DUP5 PUSH2 0x5470 JUMP JUMPDEST SWAP1 POP SWAP3 SWAP2 POP POP JUMP JUMPDEST PUSH0 PUSH1 0x80 DUP4 ADD PUSH0 PUSH0 DUP5 ADD SLOAD SWAP1 POP PUSH2 0x55DE DUP2 PUSH2 0x5143 JUMP JUMPDEST PUSH2 0x55EA PUSH0 DUP8 ADD DUP3 PUSH2 0x472F JUMP JUMPDEST POP PUSH1 0x1 DUP5 ADD DUP6 DUP4 SUB PUSH1 0x20 DUP8 ADD MSTORE PUSH2 0x5601 DUP4 DUP3 PUSH2 0x516C JUMP JUMPDEST SWAP3 POP POP PUSH1 0x2 DUP5 ADD SLOAD SWAP1 POP PUSH2 0x5614 DUP2 PUSH2 0x5143 JUMP JUMPDEST PUSH2 0x5621 PUSH1 0x40 DUP8 ADD DUP3 PUSH2 0x472F JUMP JUMPDEST POP PUSH1 0x3 DUP5 ADD SLOAD SWAP1 POP PUSH2 0x5632 DUP2 PUSH2 0x5240 JUMP JUMPDEST PUSH2 0x563F PUSH1 0x60 DUP8 ADD DUP3 PUSH2 0x5259 JUMP JUMPDEST POP DUP2 SWAP3 POP POP POP SWAP3 SWAP2 POP POP JUMP JUMPDEST PUSH0 PUSH1 0x20 DUP3 ADD SWAP1 POP DUP2 DUP2 SUB PUSH0 DUP4 ADD MSTORE PUSH2 0x5663 DUP2 DUP5 PUSH2 0x55C9 JUMP JUMPDEST SWAP1 POP SWAP3 SWAP2 POP POP JUMP JUMPDEST PUSH0 PUSH1 0xFF DUP3 AND SWAP1 POP SWAP2 SWAP1 POP JUMP JUMPDEST PUSH0 PUSH2 0x5689 PUSH2 0x5684 DUP4 PUSH2 0x512F JUMP JUMPDEST PUSH2 0x566B JUMP JUMPDEST SWAP1 POP SWAP2 SWAP1 POP JUMP JUMPDEST PUSH2 0x5699 DUP2 PUSH2 0x434C JUMP JUMPDEST DUP3 MSTORE POP POP JUMP JUMPDEST PUSH0 DUP2 PUSH1 0x8 SHR SWAP1 POP SWAP2 SWAP1 POP JUMP JUMPDEST PUSH0 PUSH1 0xFF DUP3 AND SWAP1 POP SWAP2 SWAP1 POP JUMP JUMPDEST PUSH0 PUSH2 0x56C9 PUSH2 0x56C4 DUP4 PUSH2 0x569F JUMP JUMPDEST PUSH2 0x56AB JUMP JUMPDEST SWAP1 POP SWAP2 SWAP1 POP JUMP JUMPDEST PUSH2 0x56D9 DUP2 PUSH2 0x4392 JUMP JUMPDEST DUP3 MSTORE POP POP JUMP JUMPDEST PUSH2 0x160 DUP3 ADD PUSH0 PUSH0 DUP4 ADD SLOAD SWAP1 POP PUSH2 0x56F4 DUP2 PUSH2 0x5143 JUMP JUMPDEST PUSH2 0x5700 PUSH0 DUP7 ADD DUP3 PUSH2 0x472F JUMP JUMPDEST POP PUSH1 0x1 DUP4 ADD SLOAD SWAP1 POP PUSH2 0x5711 DUP2 PUSH2 0x5677 JUMP JUMPDEST PUSH2 0x571E PUSH1 0x20 DUP7 ADD DUP3 PUSH2 0x5690 JUMP JUMPDEST POP PUSH2 0x5728 DUP2 PUSH2 0x56B7 JUMP JUMPDEST PUSH2 0x5735 PUSH1 0x40 DUP7 ADD DUP3 PUSH2 0x56D0 JUMP JUMPDEST POP PUSH1 0x2 DUP4 ADD SLOAD SWAP1 POP PUSH2 0x5746 DUP2 PUSH2 0x5143 JUMP JUMPDEST PUSH2 0x5753 PUSH1 0x60 DUP7 ADD DUP3 PUSH2 0x472F JUMP JUMPDEST POP PUSH1 0x3 DUP4 ADD SLOAD SWAP1 POP PUSH2 0x5764 DUP2 PUSH2 0x5143 JUMP JUMPDEST PUSH2 0x5771 PUSH1 0x80 DUP7 ADD DUP3 PUSH2 0x472F JUMP JUMPDEST POP PUSH1 0x4 DUP4 ADD SLOAD SWAP1 POP PUSH2 0x5782 DUP2 PUSH2 0x5143 JUMP JUMPDEST PUSH2 0x578F PUSH1 0xA0 DUP7 ADD DUP3 PUSH2 0x472F JUMP JUMPDEST POP PUSH1 0x5 DUP4 ADD SLOAD SWAP1 POP PUSH2 0x57A0 DUP2 PUSH2 0x5143 JUMP JUMPDEST PUSH2 0x57AD PUSH1 0xC0 DUP7 ADD DUP3 PUSH2 0x472F JUMP JUMPDEST POP PUSH1 0x6 DUP4 ADD SLOAD SWAP1 POP PUSH2 0x57BE DUP2 PUSH2 0x5143 JUMP JUMPDEST PUSH2 0x57CB PUSH1 0xE0 DUP7 ADD DUP3 PUSH2 0x472F JUMP JUMPDEST POP PUSH1 0x7 DUP4 ADD SLOAD SWAP1 POP PUSH2 0x57DC DUP2 PUSH2 0x5143 JUMP JUMPDEST PUSH2 0x57EA PUSH2 0x100 DUP7 ADD DUP3 PUSH2 0x472F JUMP JUMPDEST POP PUSH1 0x8 DUP4 ADD SLOAD SWAP1 POP PUSH2 0x57FB DUP2 PUSH2 0x5143 JUMP JUMPDEST PUSH2 0x5809 PUSH2 0x120 DUP7 ADD DUP3 PUSH2 0x472F JUMP JUMPDEST POP PUSH1 0x9 DUP4 ADD SLOAD SWAP1 POP PUSH2 0x581A DUP2 PUSH2 0x5240 JUMP JUMPDEST PUSH2 0x5828 PUSH2 0x140 DUP7 ADD DUP3 PUSH2 0x5259 JUMP JUMPDEST POP POP POP POP POP JUMP JUMPDEST PUSH0 PUSH2 0x160 DUP3 ADD SWAP1 POP PUSH2 0x5843 PUSH0 DUP4 ADD DUP5 PUSH2 0x56DF JUMP JUMPDEST SWAP3 SWAP2 POP POP JUMP JUMPDEST PUSH0 PUSH1 0xA0 DUP4 ADD PUSH0 PUSH0 DUP5 ADD SLOAD SWAP1 POP PUSH2 0x585E DUP2 PUSH2 0x5143 JUMP JUMPDEST PUSH2 0x586A PUSH0 DUP8 ADD DUP3 PUSH2 0x472F JUMP JUMPDEST POP PUSH1 0x1 DUP5 ADD DUP6 DUP4 SUB PUSH1 0x20 DUP8 ADD MSTORE PUSH2 0x5881 DUP4 DUP3 PUSH2 0x516C JUMP JUMPDEST SWAP3 POP POP PUSH1 0x2 DUP5 ADD DUP6 DUP4 SUB PUSH1 0x40 DUP8 ADD MSTORE PUSH2 0x589A DUP4 DUP3 PUSH2 0x516C JUMP JUMPDEST SWAP3 POP POP PUSH1 0x3 DUP5 ADD SLOAD SWAP1 POP PUSH2 0x58AD DUP2 PUSH2 0x5143 JUMP JUMPDEST PUSH2 0x58BA PUSH1 0x60 DUP8 ADD DUP3 PUSH2 0x472F JUMP JUMPDEST POP PUSH1 0x4 DUP5 ADD SLOAD SWAP1 POP PUSH2 0x58CB DUP2 PUSH2 0x5240 JUMP JUMPDEST PUSH2 0x58D8 PUSH1 0x80 DUP8 ADD DUP3 PUSH2 0x5259 JUMP JUMPDEST POP DUP2 SWAP3 POP POP POP SWAP3 SWAP2 POP POP JUMP JUMPDEST PUSH0 PUSH1 0x20 DUP3 ADD SWAP1 POP DUP2 DUP2 SUB PUSH0 DUP4 ADD MSTORE PUSH2 0x58FC DUP2 DUP5 PUSH2 0x5849 JUMP JUMPDEST SWAP1 POP SWAP3 SWAP2 POP POP JUMP INVALID LOG2 PUSH5 0x6970667358 0x22 SLT KECCAK256 PUSH23 0xCBFECDF62EC74D2C08062BDE0F35C8DCCA100E8B763B80 EXTCALL 0xD0 SELFDESTRUCT CODECOPY 0xCD 0xB9 RETURN NUMBER PUSH5 0x736F6C6343 STOP ADDMOD 0x1E STOP CALLER LOG2 PUSH5 0x6970667358 0x22 SLT KECCAK256 SDIV INVALID MSIZE SHL SLT 0xAC 0xBB 0x2E PUSH22 0x9901ADFDC44F0FDCD41F4AE113BCD3754C35840F1A05 PUSH13 0x64736F6C634300081E00330000 "
		},
		"gasEstimates": {
			"creation": {
				"codeDepositCost": "8750000",
				"executionCost": "11912",
				"totalCost": "8761912"
			},
			"external": {
				"beforeEach()": "infinite",
				"registry()": "infinite",
				"testCreateItemAndVerify()": "infinite",
				"testCreateLotAndLocation()": "infinite",
				"testMultipleNotes()": "infinite",
				"testProcessLifecycleWithItems()": "infinite",
				"testResourceCounts()": "infinite",
				"testResourceNotes()": "infinite",
				"testServiceLifecycle()": "infinite"
			}
		},
		"methodIdentifiers": {
			"beforeEach()": "6331e7d4",
			"registry()": "7b103999",
			"testCreateItemAndVerify()": "311fdff4",
			"testCreateLotAndLocation()": "7dfecb94",
			"testMultipleNotes()": "ee1989c1",
			"testProcessLifecycleWithItems()": "ea67ba41",
			"testResourceCounts()": "46b12220",
			"testResourceNotes()": "971742eb",
			"testServiceLifecycle()": "1e034361"
		}
	},
	"abi": [
		{
			"inputs": [],
			"name": "beforeEach",
			"outputs": [],
			"stateMutability": "nonpayable",
			"type": "function"
		},
		{
			"inputs": [],
			"name": "registry",
			"outputs": [
				{
					"internalType": "contract PublicResourceRegistry",
					"name": "",
					"type": "address"
				}
			],
			"stateMutability": "view",
			"type": "function"
		},
		{
			"inputs": [],
			"name": "testCreateItemAndVerify",
			"outputs": [],
			"stateMutability": "nonpayable",
			"type": "function"
		},
		{
			"inputs": [],
			"name": "testCreateLotAndLocation",
			"outputs": [],
			"stateMutability": "nonpayable",
			"type": "function"
		},
		{
			"inputs": [],
			"name": "testMultipleNotes",
			"outputs": [],
			"stateMutability": "nonpayable",
			"type": "function"
		},
		{
			"inputs": [],
			"name": "testProcessLifecycleWithItems",
			"outputs": [],
			"stateMutability": "nonpayable",
			"type": "function"
		},
		{
			"inputs": [],
			"name": "testResourceCounts",
			"outputs": [],
			"stateMutability": "nonpayable",
			"type": "function"
		},
		{
			"inputs": [],
			"name": "testResourceNotes",
			"outputs": [],
			"stateMutability": "nonpayable",
			"type": "function"
		},
		{
			"inputs": [],
			"name": "testServiceLifecycle",
			"outputs": [],
			"stateMutability": "nonpayable",
			"type": "function"
		}
	]
}