{
	"data": {
		"bytecode": {
			"linkReferences": {},
			"object": "608060405260015f5560018055600160025560016003556001600455600160055534801561002b575f5ffd5b503360165f6101000a81548173ffffffffffffffffffffffffffffffffffffffff021916908373ffffffffffffffffffffffffffffffffffffffff1602179055505f5f90505b6005808111156100845761008361015e565b5b811161015857600160155f60165f9054906101000a900473ffffffffffffffffffffffffffffffffffffffff1673ffffffffffffffffffffffffffffffffffffffff1673ffffffffffffffffffffffffffffffffffffffff1681526020019081526020015f205f8360058111156100fe576100fd61015e565b5b60058111156101105761010f61015e565b5b60058111156101225761012161015e565b5b81526020019081526020015f205f6101000a81548160ff0219169083151502179055508080610150906101c1565b915050610071565b50610208565b7f4e487b71000000000000000000000000000000000000000000000000000000005f52602160045260245ffd5b7f4e487b71000000000000000000000000000000000000000000000000000000005f52601160045260245ffd5b5f819050919050565b5f6101cb826101b8565b91507fffffffffffffffffffffffffffffffffffffffffffffffffffffffffffffffff82036101fd576101fc61018b565b5b600182019050919050565b61593e806102155f395ff3fe608060405234801561000f575f5ffd5b5060043610610292575f3560e01c80637a2043a311610165578063bfb231d2116100cc578063d666f29e11610085578063d666f29e14610938578063e1250ab414610956578063e521300714610986578063f1648e84146109a2578063f6c53d9b146109d5578063f9fdb154146109f357610292565b8063bfb231d214610819578063c22c4f4314610851578063c60d817e1461088a578063cc2f211d146108ba578063cf5cf8e1146108ea578063cf97f1111461091a57610292565b806394761a281161011e57806394761a281461071b578063a07e12e11461074b578063a805af1814610769578063acdf0acb14610799578063b7f44b72146107b5578063b9e0db35146107e557610292565b80637a2043a3146106315780637a78e12d1461064f5780637d3c99bb1461067f57806383cc56e1146106af5780638da5cb5b146106df578063925b033d146106fd57610292565b80634ef55a1f116102095780636a868974116101c25780636a868974146105375780636bebd1fd146105555780636c6f4a06146105855780636e2c06fa146105b557806371895501146105e557806371c906c51461060157610292565b80634ef55a1f146104305780635182d7eb14610460578063579e51c71461047e578063585b5c63146104b857806361c3a7e6146104e8578063624871f91461051b57610292565b806334200d7b1161025b57806334200d7b1461035e57806334ccc5ea1461038e5780633c8393ad146103ac5780633e4a1e6c146103c85780634b48f656146103e45780634c56df7b1461040057610292565b806251ff7d146102965780630a108d5e146102c657806320f3847e146102f65780632f3ccebd14610326578063301da87014610342575b5f5ffd5b6102b060048036038101906102ab91906140e4565b610a23565b6040516102bd9190614131565b60405180910390f35b6102e060048036038101906102db91906141c7565b610a4e565b6040516102ed919061421f565b60405180910390f35b610310600480360381019061030b91906140e4565b610a78565b60405161031d9190614131565b60405180910390f35b610340600480360381019061033b9190614238565b610aa3565b005b61035c600480360381019061035791906141c7565b610c87565b005b610378600480360381019061037391906140e4565b610d99565b6040516103859190614131565b60405180910390f35b610396610dc4565b6040516103a39190614131565b60405180910390f35b6103c660048036038101906103c19190614238565b610dc9565b005b6103e260048036038101906103dd9190614238565b611101565b005b6103fe60048036038101906103f991906140e4565b6112e4565b005b61041a600480360381019061041591906140e4565b611479565b6040516104279190614131565b60405180910390f35b61044a60048036038101906104459190614286565b6114a4565b6040516104579190614131565b60405180910390f35b61046861182d565b6040516104759190614131565b60405180910390f35b61049860048036038101906104939190614238565b611833565b6040516104af9b9a999897969594939291906143c5565b60405180910390f35b6104d260048036038101906104cd91906145cd565b6118c1565b6040516104df9190614131565b60405180910390f35b61050260048036038101906104fd9190614238565b611c72565b60405161051294939291906146c0565b60405180910390f35b61053560048036038101906105309190614238565b611d43565b005b61053f6120ff565b60405161054c9190614131565b60405180910390f35b61056f600480360381019061056a9190614238565b612104565b60405161057c91906147c1565b60405180910390f35b61059f600480360381019061059a91906140e4565b61216b565b6040516105ac9190614131565b60405180910390f35b6105cf60048036038101906105ca91906147e1565b612196565b6040516105dc91906147c1565b60405180910390f35b6105ff60048036038101906105fa919061481f565b6124ac565b005b61061b60048036038101906106169190614238565b6129b6565b604051610628919061421f565b60405180910390f35b6106396129d3565b6040516106469190614131565b60405180910390f35b61066960048036038101906106649190614238565b6129d9565b6040516106769190614131565b60405180910390f35b61069960048036038101906106949190614238565b612bb7565b6040516106a691906147c1565b60405180910390f35b6106c960048036038101906106c4919061486f565b612c1e565b6040516106d69190614131565b60405180910390f35b6106e7612ea1565b6040516106f491906148e5565b60405180910390f35b610705612ec6565b6040516107129190614131565b60405180910390f35b610735600480360381019061073091906148fe565b612ecc565b6040516107429190614131565b60405180910390f35b610753613191565b6040516107609190614131565b60405180910390f35b610783600480360381019061077e919061497e565b613197565b6040516107909190614131565b60405180910390f35b6107b360048036038101906107ae91906140e4565b613360565b005b6107cf60048036038101906107ca91906147e1565b61352c565b6040516107dc91906149fb565b60405180910390f35b6107ff60048036038101906107fa9190614238565b6137bf565b604051610810959493929190614a1b565b60405180910390f35b610833600480360381019061082e9190614238565b61391c565b60405161084899989796959493929190614ac0565b60405180910390f35b61086b60048036038101906108669190614238565b613a17565b6040516108819a99989796959493929190614b98565b60405180910390f35b6108a4600480360381019061089f9190614238565b613b18565b6040516108b191906147c1565b60405180910390f35b6108d460048036038101906108cf91906140e4565b613b7f565b6040516108e19190614131565b60405180910390f35b61090460048036038101906108ff91906140e4565b613baa565b6040516109119190614131565b60405180910390f35b610922613bd5565b60405161092f9190614131565b60405180910390f35b610940613bdb565b60405161094d9190614131565b60405180910390f35b610970600480360381019061096b9190614c39565b613be1565b60405161097d9190614131565b60405180910390f35b6109a0600480360381019061099b91906140e4565b613e09565b005b6109bc60048036038101906109b79190614238565b614024565b6040516109cc9493929190614c80565b60405180910390f35b6109dd61406f565b6040516109ea9190614131565b60405180910390f35b610a0d6004803603810190610a0891906140e4565b614075565b604051610a1a9190614131565b60405180910390f35b600f602052815f5260405f208181548110610a3c575f80fd5b905f5260205f20015f91509150505481565b6015602052815f5260405f20602052805f5260405f205f915091509054906101000a900460ff1681565b6013602052815f5260405f208181548110610a91575f80fd5b905f5260205f20015f91509150505481565b600260155f3373ffffffffffffffffffffffffffffffffffffffff1673ffffffffffffffffffffffffffffffffffffffff1681526020019081526020015f205f826005811115610af657610af56142fd565b5b6005811115610b0857610b076142fd565b5b81526020019081526020015f205f9054906101000a900460ff1680610b7a575060165f9054906101000a900473ffffffffffffffffffffffffffffffffffffffff1673ffffffffffffffffffffffffffffffffffffffff163373ffffffffffffffffffffffffffffffffffffffff1614155b610bb0576040517f9d7b369d00000000000000000000000000000000000000000000000000000000815260040160405180910390fd5b60016002811115610bc457610bc36142fd565b5b60085f8481526020019081526020015f206002015f9054906101000a900460ff166002811115610bf757610bf66142fd565b5b14610c2e576040517ff525e32000000000000000000000000000000000000000000000000000000000815260040160405180910390fd5b600260085f8481526020019081526020015f206002015f6101000a81548160ff02191690836002811115610c6557610c646142fd565b5b02179055504260085f8481526020019081526020015f20600701819055505050565b60165f9054906101000a900473ffffffffffffffffffffffffffffffffffffffff1673ffffffffffffffffffffffffffffffffffffffff163373ffffffffffffffffffffffffffffffffffffffff1614610d0d576040517f5fc483c500000000000000000000000000000000000000000000000000000000815260040160405180910390fd5b600160155f8473ffffffffffffffffffffffffffffffffffffffff1673ffffffffffffffffffffffffffffffffffffffff1681526020019081526020015f205f836005811115610d6057610d5f6142fd565b5b6005811115610d7257610d716142fd565b5b81526020019081526020015f205f6101000a81548160ff0219169083151502179055505050565b600e602052815f5260405f208181548110610db2575f80fd5b905f5260205f20015f91509150505481565b608081565b600460155f3373ffffffffffffffffffffffffffffffffffffffff1673ffffffffffffffffffffffffffffffffffffffff1681526020019081526020015f205f826005811115610e1c57610e1b6142fd565b5b6005811115610e2e57610e2d6142fd565b5b81526020019081526020015f205f9054906101000a900460ff1680610ea0575060165f9054906101000a900473ffffffffffffffffffffffffffffffffffffffff1673ffffffffffffffffffffffffffffffffffffffff163373ffffffffffffffffffffffffffffffffffffffff1614155b610ed6576040517f9d7b369d00000000000000000000000000000000000000000000000000000000815260040160405180910390fd5b5f6002811115610ee957610ee86142fd565b5b600a5f8481526020019081526020015f2060010160019054906101000a900460ff166002811115610f1d57610f1c6142fd565b5b14610f54576040517ff525e32000000000000000000000000000000000000000000000000000000000815260040160405180910390fd5b6001600a5f8481526020019081526020015f2060010160016101000a81548160ff02191690836002811115610f8c57610f8b6142fd565b5b021790555042600a5f8481526020019081526020015f2060060181905550600380811115610fbd57610fbc6142fd565b5b600a5f8481526020019081526020015f206001015f9054906101000a900460ff166003811115610ff057610fef6142fd565b5b036110fd575f60135f8481526020019081526020015f2080548060200260200160405190810160405280929190818152602001828054801561104f57602002820191905f5260205f20905b81548152602001906001019080831161103b575b505050505090505f5f90505b81518110156110fa578360065f84848151811061107b5761107a614cc3565b5b602002602001015181526020019081526020015f2060040181905550600160065f8484815181106110af576110ae614cc3565b5b602002602001015181526020019081526020015f206006015f6101000a81548160ff021916908360018111156110e8576110e76142fd565b5b0217905550808060010191505061105b565b50505b5050565b600260155f3373ffffffffffffffffffffffffffffffffffffffff1673ffffffffffffffffffffffffffffffffffffffff1681526020019081526020015f205f826005811115611154576111536142fd565b5b6005811115611166576111656142fd565b5b81526020019081526020015f205f9054906101000a900460ff16806111d8575060165f9054906101000a900473ffffffffffffffffffffffffffffffffffffffff1673ffffffffffffffffffffffffffffffffffffffff163373ffffffffffffffffffffffffffffffffffffffff1614155b61120e576040517f9d7b369d00000000000000000000000000000000000000000000000000000000815260040160405180910390fd5b5f6002811115611221576112206142fd565b5b60085f8481526020019081526020015f206002015f9054906101000a900460ff166002811115611254576112536142fd565b5b1461128b576040517ff525e32000000000000000000000000000000000000000000000000000000000815260040160405180910390fd5b600160085f8481526020019081526020015f206002015f6101000a81548160ff021916908360028111156112c2576112c16142fd565b5b02179055504260085f8481526020019081526020015f20600601819055505050565b3373ffffffffffffffffffffffffffffffffffffffff1660065f8481526020019081526020015f206008015f9054906101000a900473ffffffffffffffffffffffffffffffffffffffff1673ffffffffffffffffffffffffffffffffffffffff161461137c576040517f9d7b369d00000000000000000000000000000000000000000000000000000000815260040160405180910390fd5b5f60065f8381526020019081526020015f205f0154036113c8576040517fc5723b5100000000000000000000000000000000000000000000000000000000815260040160405180910390fd5b6103e8600c5f8481526020019081526020015f208054905010611417576040517f4f2a111200000000000000000000000000000000000000000000000000000000815260040160405180910390fd5b600c5f8381526020019081526020015f2081908060018154018082558091505060019003905f5260205f20015f9091909190915055600160145f8381526020019081526020015f205f6101000a81548160ff0219169083151502179055505050565b600c602052815f5260405f208181548110611492575f80fd5b905f5260205f20015f91509150505481565b5f600460155f3373ffffffffffffffffffffffffffffffffffffffff1673ffffffffffffffffffffffffffffffffffffffff1681526020019081526020015f205f8260058111156114f8576114f76142fd565b5b600581111561150a576115096142fd565b5b81526020019081526020015f205f9054906101000a900460ff168061157c575060165f9054906101000a900473ffffffffffffffffffffffffffffffffffffffff1673ffffffffffffffffffffffffffffffffffffffff163373ffffffffffffffffffffffffffffffffffffffff1614155b6115b2576040517f9d7b369d00000000000000000000000000000000000000000000000000000000815260040160405180910390fd5b6003808111156115c5576115c46142fd565b5b8760038111156115d8576115d76142fd565b5b03611676575f600b5f8881526020019081526020015f205f015403611629576040517ff80f144500000000000000000000000000000000000000000000000000000000815260040160405180910390fd5b5f600b5f8781526020019081526020015f205f015403611675576040517ff80f144500000000000000000000000000000000000000000000000000000000815260040160405180910390fd5b5b5f60045f81548092919061168990614d1d565b9190505590506040518061016001604052808281526020018960038111156116b4576116b36142fd565b5b81526020015f60028111156116cc576116cb6142fd565b5b81526020018881526020018781526020018681526020018581526020015f81526020015f81526020014281526020013373ffffffffffffffffffffffffffffffffffffffff16815250600a5f8381526020019081526020015f205f820151815f01556020820151816001015f6101000a81548160ff02191690836003811115611758576117576142fd565b5b021790555060408201518160010160016101000a81548160ff02191690836002811115611788576117876142fd565b5b0217905550606082015181600201556080820151816003015560a0820151816004015560c0820151816005015560e0820151816006015561010082015181600701556101208201518160080155610140820151816009015f6101000a81548173ffffffffffffffffffffffffffffffffffffffff021916908373ffffffffffffffffffffffffffffffffffffffff160217905550905050809250505095945050505050565b60055481565b600a602052805f5260405f205f91509050805f015490806001015f9054906101000a900460ff16908060010160019054906101000a900460ff1690806002015490806003015490806004015490806005015490806006015490806007015490806008015490806009015f9054906101000a900473ffffffffffffffffffffffffffffffffffffffff1690508b565b5f5f60155f3373ffffffffffffffffffffffffffffffffffffffff1673ffffffffffffffffffffffffffffffffffffffff1681526020019081526020015f205f826005811115611914576119136142fd565b5b6005811115611926576119256142fd565b5b81526020019081526020015f205f9054906101000a900460ff1680611998575060165f9054906101000a900473ffffffffffffffffffffffffffffffffffffffff1673ffffffffffffffffffffffffffffffffffffffff163373ffffffffffffffffffffffffffffffffffffffff1614155b6119ce576040517f9d7b369d00000000000000000000000000000000000000000000000000000000815260040160405180910390fd5b86608081511115611a0b576040517fb11b2ad800000000000000000000000000000000000000000000000000000000815260040160405180910390fd5b5f60075f8981526020019081526020015f205f015403611a57576040517fc5723b5100000000000000000000000000000000000000000000000000000000815260040160405180910390fd5b5f8514158015611a7957505f600a5f8781526020019081526020015f205f0154145b15611ab0576040517fc5723b5100000000000000000000000000000000000000000000000000000000815260040160405180910390fd5b5f8414158015611ad257505f600b5f8681526020019081526020015f205f0154145b15611b09576040517fc5723b5100000000000000000000000000000000000000000000000000000000815260040160405180910390fd5b5f5f5f815480929190611b1b90614d1d565b9190505590506040518061012001604052808281526020018a81526020018981526020018681526020015f8152602001878152602001886001811115611b6457611b636142fd565b5b81526020014281526020013373ffffffffffffffffffffffffffffffffffffffff1681525060065f8381526020019081526020015f205f820151815f01556020820151816001019081611bb79190614f61565b5060408201518160020155606082015181600301556080820151816004015560a0820151816005015560c0820151816006015f6101000a81548160ff02191690836001811115611c0a57611c096142fd565b5b021790555060e08201518160070155610100820151816008015f6101000a81548173ffffffffffffffffffffffffffffffffffffffff021916908373ffffffffffffffffffffffffffffffffffffffff16021790555090505080935050505095945050505050565b6009602052805f5260405f205f91509050805f015490806001018054611c9790614d91565b80601f0160208091040260200160405190810160405280929190818152602001828054611cc390614d91565b8015611d0e5780601f10611ce557610100808354040283529160200191611d0e565b820191905f5260205f20905b815481529060010190602001808311611cf157829003601f168201915b505050505090806002015490806003015f9054906101000a900473ffffffffffffffffffffffffffffffffffffffff16905084565b600460155f3373ffffffffffffffffffffffffffffffffffffffff1673ffffffffffffffffffffffffffffffffffffffff1681526020019081526020015f205f826005811115611d9657611d956142fd565b5b6005811115611da857611da76142fd565b5b81526020019081526020015f205f9054906101000a900460ff1680611e1a575060165f9054906101000a900473ffffffffffffffffffffffffffffffffffffffff1673ffffffffffffffffffffffffffffffffffffffff163373ffffffffffffffffffffffffffffffffffffffff1614155b611e50576040517f9d7b369d00000000000000000000000000000000000000000000000000000000815260040160405180910390fd5b60016002811115611e6457611e636142fd565b5b600a5f8481526020019081526020015f2060010160019054906101000a900460ff166002811115611e9857611e976142fd565b5b14611ecf576040517ff525e32000000000000000000000000000000000000000000000000000000000815260040160405180910390fd5b6002600a5f8481526020019081526020015f2060010160016101000a81548160ff02191690836002811115611f0757611f066142fd565b5b021790555042600a5f8481526020019081526020015f2060070181905550600380811115611f3857611f376142fd565b5b600a5f8481526020019081526020015f206001015f9054906101000a900460ff166003811115611f6b57611f6a6142fd565b5b036120fb575f60135f8481526020019081526020015f20805480602002602001604051908101604052809291908181526020018280548015611fca57602002820191905f5260205f20905b815481526020019060010190808311611fb6575b505050505090505f5f90505b81518110156120f857600a5f8581526020019081526020015f206003015460065f84848151811061200a57612009614cc3565b5b602002602001015181526020019081526020015f20600301819055505f60065f84848151811061203d5761203c614cc3565b5b602002602001015181526020019081526020015f206004018190555060145f83838151811061206f5761206e614cc3565b5b602002602001015181526020019081526020015f205f9054906101000a900460ff166120eb575f60065f8484815181106120ac576120ab614cc3565b5b602002602001015181526020019081526020015f206006015f6101000a81548160ff021916908360018111156120e5576120e46142fd565b5b02179055505b8080600101915050611fd6565b50505b5050565b5f5481565b6060600c5f8381526020019081526020015f2080548060200260200160405190810160405280929190818152602001828054801561215f57602002820191905f5260205f20905b81548152602001906001019080831161214b575b50505050509050919050565b600d602052815f5260405f208181548110612184575f80fd5b905f5260205f20015f91509150505481565b60605f60058111156121ab576121aa6142fd565b5b8360058111156121be576121bd6142fd565b5b0361222857600d5f8381526020019081526020015f2080548060200260200160405190810160405280929190818152602001828054801561221c57602002820191905f5260205f20905b815481526020019060010190808311612208575b505050505090506124a6565b6001600581111561223c5761223b6142fd565b5b83600581111561224f5761224e6142fd565b5b036122b957600e5f8381526020019081526020015f208054806020026020016040519081016040528092919081815260200182805480156122ad57602002820191905f5260205f20905b815481526020019060010190808311612299575b505050505090506124a6565b600260058111156122cd576122cc6142fd565b5b8360058111156122e0576122df6142fd565b5b0361234a57600f5f8381526020019081526020015f2080548060200260200160405190810160405280929190818152602001828054801561233e57602002820191905f5260205f20905b81548152602001906001019080831161232a575b505050505090506124a6565b6004600581111561235e5761235d6142fd565b5b836005811115612371576123706142fd565b5b036123db5760105f8381526020019081526020015f208054806020026020016040519081016040528092919081815260200182805480156123cf57602002820191905f5260205f20905b8154815260200190600101908083116123bb575b505050505090506124a6565b6005808111156123ee576123ed6142fd565b5b836005811115612401576124006142fd565b5b0361246b5760115f8381526020019081526020015f2080548060200260200160405190810160405280929190818152602001828054801561245f57602002820191905f5260205f20905b81548152602001906001019080831161244b575b505050505090506124a6565b6040517f08c379a000000000000000000000000000000000000000000000000000000000815260040161249d9061507a565b60405180910390fd5b92915050565b5f60095f8381526020019081526020015f205f0154036124f8576040517fc5723b5100000000000000000000000000000000000000000000000000000000815260040160405180910390fd5b60155f3373ffffffffffffffffffffffffffffffffffffffff1673ffffffffffffffffffffffffffffffffffffffff1681526020019081526020015f205f846005811115612549576125486142fd565b5b600581111561255b5761255a6142fd565b5b81526020019081526020015f205f9054906101000a900460ff16806125cd575060165f9054906101000a900473ffffffffffffffffffffffffffffffffffffffff1673ffffffffffffffffffffffffffffffffffffffff163373ffffffffffffffffffffffffffffffffffffffff1614155b612603576040517f9d7b369d00000000000000000000000000000000000000000000000000000000815260040160405180910390fd5b5f6005811115612616576126156142fd565b5b836005811115612629576126286142fd565b5b036126b4575f60065f8481526020019081526020015f205f01540361267a576040517fc5723b5100000000000000000000000000000000000000000000000000000000815260040160405180910390fd5b600d5f8381526020019081526020015f2081908060018154018082558091505060019003905f5260205f20015f90919091909150556129b1565b600160058111156126c8576126c76142fd565b5b8360058111156126db576126da6142fd565b5b03612766575f60075f8481526020019081526020015f205f01540361272c576040517fc5723b5100000000000000000000000000000000000000000000000000000000815260040160405180910390fd5b600e5f8381526020019081526020015f2081908060018154018082558091505060019003905f5260205f20015f90919091909150556129b0565b6002600581111561277a576127796142fd565b5b83600581111561278d5761278c6142fd565b5b03612818575f60085f8481526020019081526020015f205f0154036127de576040517fc5723b5100000000000000000000000000000000000000000000000000000000815260040160405180910390fd5b600f5f8381526020019081526020015f2081908060018154018082558091505060019003905f5260205f20015f90919091909150556129af565b6004600581111561282c5761282b6142fd565b5b83600581111561283f5761283e6142fd565b5b036128ca575f600a5f8481526020019081526020015f205f015403612890576040517fc5723b5100000000000000000000000000000000000000000000000000000000815260040160405180910390fd5b60105f8381526020019081526020015f2081908060018154018082558091505060019003905f5260205f20015f90919091909150556129ae565b6005808111156128dd576128dc6142fd565b5b8360058111156128f0576128ef6142fd565b5b0361297b575f600b5f8481526020019081526020015f205f015403612941576040517fc5723b5100000000000000000000000000000000000000000000000000000000815260040160405180910390fd5b60115f8381526020019081526020015f2081908060018154018082558091505060019003905f5260205f20015f90919091909150556129ad565b6040517f9d7b369d00000000000000000000000000000000000000000000000000000000815260040160405180910390fd5b5b5b5b5b505050565b6014602052805f5260405f205f915054906101000a900460ff1681565b60035481565b5f600160155f3373ffffffffffffffffffffffffffffffffffffffff1673ffffffffffffffffffffffffffffffffffffffff1681526020019081526020015f205f826005811115612a2d57612a2c6142fd565b5b6005811115612a3f57612a3e6142fd565b5b81526020019081526020015f205f9054906101000a900460ff1680612ab1575060165f9054906101000a900473ffffffffffffffffffffffffffffffffffffffff1673ffffffffffffffffffffffffffffffffffffffff163373ffffffffffffffffffffffffffffffffffffffff1614155b612ae7576040517f9d7b369d00000000000000000000000000000000000000000000000000000000815260040160405180910390fd5b5f60015f815480929190612afa90614d1d565b91905055905060405180608001604052808281526020018581526020014281526020013373ffffffffffffffffffffffffffffffffffffffff1681525060075f8381526020019081526020015f205f820151815f015560208201518160010155604082015181600201556060820151816003015f6101000a81548173ffffffffffffffffffffffffffffffffffffffff021916908373ffffffffffffffffffffffffffffffffffffffff1602179055509050508092505050919050565b606060125f8381526020019081526020015f20805480602002602001604051908101604052809291908181526020018280548015612c1257602002820191905f5260205f20905b815481526020019060010190808311612bfe575b50505050509050919050565b5f600560155f3373ffffffffffffffffffffffffffffffffffffffff1673ffffffffffffffffffffffffffffffffffffffff1681526020019081526020015f205f826005811115612c7257612c716142fd565b5b6005811115612c8457612c836142fd565b5b81526020019081526020015f205f9054906101000a900460ff1680612cf6575060165f9054906101000a900473ffffffffffffffffffffffffffffffffffffffff1673ffffffffffffffffffffffffffffffffffffffff163373ffffffffffffffffffffffffffffffffffffffff1614155b612d2c576040517f9d7b369d00000000000000000000000000000000000000000000000000000000815260040160405180910390fd5b83608081511115612d69576040517fb11b2ad800000000000000000000000000000000000000000000000000000000815260040160405180910390fd5b83608081511115612da6576040517fb11b2ad800000000000000000000000000000000000000000000000000000000815260040160405180910390fd5b5f60055f815480929190612db990614d1d565b9190505590506040518060a001604052808281526020018881526020018781526020014281526020013373ffffffffffffffffffffffffffffffffffffffff16815250600b5f8381526020019081526020015f205f820151815f01556020820151816001019081612e2a9190614f61565b506040820151816002019081612e409190614f61565b50606082015181600301556080820151816004015f6101000a81548173ffffffffffffffffffffffffffffffffffffffff021916908373ffffffffffffffffffffffffffffffffffffffff1602179055509050508094505050505092915050565b60165f9054906101000a900473ffffffffffffffffffffffffffffffffffffffff1681565b6103e881565b5f600260155f3373ffffffffffffffffffffffffffffffffffffffff1673ffffffffffffffffffffffffffffffffffffffff1681526020019081526020015f205f826005811115612f2057612f1f6142fd565b5b6005811115612f3257612f316142fd565b5b81526020019081526020015f205f9054906101000a900460ff1680612fa4575060165f9054906101000a900473ffffffffffffffffffffffffffffffffffffffff1673ffffffffffffffffffffffffffffffffffffffff163373ffffffffffffffffffffffffffffffffffffffff1614155b612fda576040517f9d7b369d00000000000000000000000000000000000000000000000000000000815260040160405180910390fd5b84608081511115613017576040517fb11b2ad800000000000000000000000000000000000000000000000000000000815260040160405180910390fd5b5f60025f81548092919061302a90614d1d565b9190505590506040518061014001604052808281526020018981526020015f600281111561305b5761305a6142fd565b5b81526020018881526020018781526020018681526020015f81526020015f81526020014281526020013373ffffffffffffffffffffffffffffffffffffffff1681525060085f8381526020019081526020015f205f820151815f0155602082015181600101556040820151816002015f6101000a81548160ff021916908360028111156130eb576130ea6142fd565b5b021790555060608201518160030190816131059190614f61565b506080820151816004015560a0820151816005015560c0820151816006015560e082015181600701556101008201518160080155610120820151816009015f6101000a81548173ffffffffffffffffffffffffffffffffffffffff021916908373ffffffffffffffffffffffffffffffffffffffff160217905550905050809350505050949350505050565b60045481565b5f5f60058111156131ab576131aa6142fd565b5b8260058111156131be576131bd6142fd565b5b036131d85760015f546131d19190615098565b905061335b565b600160058111156131ec576131eb6142fd565b5b8260058111156131ff576131fe6142fd565b5b0361321957600180546132129190615098565b905061335b565b6002600581111561322d5761322c6142fd565b5b8260058111156132405761323f6142fd565b5b0361325b5760016002546132549190615098565b905061335b565b6003600581111561326f5761326e6142fd565b5b826005811115613282576132816142fd565b5b0361329d5760016003546132969190615098565b905061335b565b600460058111156132b1576132b06142fd565b5b8260058111156132c4576132c36142fd565b5b036132df5760016004546132d89190615098565b905061335b565b6005808111156132f2576132f16142fd565b5b826005811115613305576133046142fd565b5b036133205760016005546133199190615098565b905061335b565b6040517f08c379a000000000000000000000000000000000000000000000000000000000815260040161335290615115565b60405180910390fd5b919050565b5f600a5f8481526020019081526020015f205f0154036133ac576040517fc5723b5100000000000000000000000000000000000000000000000000000000815260040160405180910390fd5b5f60085f8381526020019081526020015f205f0154036133f8576040517fc5723b5100000000000000000000000000000000000000000000000000000000815260040160405180910390fd5b5f600281111561340b5761340a6142fd565b5b600a5f8481526020019081526020015f2060010160019054906101000a900460ff16600281111561343f5761343e6142fd565b5b14613476576040517ff525e32000000000000000000000000000000000000000000000000000000000815260040160405180910390fd5b5f6002811115613489576134886142fd565b5b60085f8381526020019081526020015f206002015f9054906101000a900460ff1660028111156134bc576134bb6142fd565b5b146134f3576040517ff525e32000000000000000000000000000000000000000000000000000000000815260040160405180910390fd5b60125f8381526020019081526020015f2081908060018154018082558091505060019003905f5260205f20015f90919091909150555050565b60605f6005811115613541576135406142fd565b5b836005811115613554576135536142fd565b5b036135905760065f8381526020019081526020015f2060405160200161357a9190615386565b60405160208183030381529060405290506137b9565b600160058111156135a4576135a36142fd565b5b8360058111156135b7576135b66142fd565b5b036135f35760075f8381526020019081526020015f206040516020016135dd9190615427565b60405160208183030381529060405290506137b9565b60026005811115613607576136066142fd565b5b83600581111561361a576136196142fd565b5b036136565760085f8381526020019081526020015f2060405160200161364091906155ad565b60405160208183030381529060405290506137b9565b6003600581111561366a576136696142fd565b5b83600581111561367d5761367c6142fd565b5b036136b95760095f8381526020019081526020015f206040516020016136a3919061564f565b60405160208183030381529060405290506137b9565b600460058111156136cd576136cc6142fd565b5b8360058111156136e0576136df6142fd565b5b0361371c57600a5f8381526020019081526020015f206040516020016137069190615833565b60405160208183030381529060405290506137b9565b60058081111561372f5761372e6142fd565b5b836005811115613742576137416142fd565b5b0361377e57600b5f8381526020019081526020015f2060405160200161376891906158e8565b60405160208183030381529060405290506137b9565b6040517f08c379a00000000000000000000000000000000000000000000000000000000081526004016137b090615115565b60405180910390fd5b92915050565b600b602052805f5260405f205f91509050805f0154908060010180546137e490614d91565b80601f016020809104026020016040519081016040528092919081815260200182805461381090614d91565b801561385b5780601f106138325761010080835404028352916020019161385b565b820191905f5260205f20905b81548152906001019060200180831161383e57829003601f168201915b50505050509080600201805461387090614d91565b80601f016020809104026020016040519081016040528092919081815260200182805461389c90614d91565b80156138e75780601f106138be576101008083540402835291602001916138e7565b820191905f5260205f20905b8154815290600101906020018083116138ca57829003601f168201915b505050505090806003015490806004015f9054906101000a900473ffffffffffffffffffffffffffffffffffffffff16905085565b6006602052805f5260405f205f91509050805f01549080600101805461394190614d91565b80601f016020809104026020016040519081016040528092919081815260200182805461396d90614d91565b80156139b85780601f1061398f576101008083540402835291602001916139b8565b820191905f5260205f20905b81548152906001019060200180831161399b57829003601f168201915b505050505090806002015490806003015490806004015490806005015490806006015f9054906101000a900460ff1690806007015490806008015f9054906101000a900473ffffffffffffffffffffffffffffffffffffffff16905089565b6008602052805f5260405f205f91509050805f015490806001015490806002015f9054906101000a900460ff1690806003018054613a5490614d91565b80601f0160208091040260200160405190810160405280929190818152602001828054613a8090614d91565b8015613acb5780601f10613aa257610100808354040283529160200191613acb565b820191905f5260205f20905b815481529060010190602001808311613aae57829003601f168201915b505050505090806004015490806005015490806006015490806007015490806008015490806009015f9054906101000a900473ffffffffffffffffffffffffffffffffffffffff1690508a565b606060135f8381526020019081526020015f20805480602002602001604051908101604052809291908181526020018280548015613b7357602002820191905f5260205f20905b815481526020019060010190808311613b5f575b50505050509050919050565b6012602052815f5260405f208181548110613b98575f80fd5b905f5260205f20015f91509150505481565b6010602052815f5260405f208181548110613bc3575f80fd5b905f5260205f20015f91509150505481565b61271081565b60015481565b5f600360155f3373ffffffffffffffffffffffffffffffffffffffff1673ffffffffffffffffffffffffffffffffffffffff1681526020019081526020015f205f826005811115613c3557613c346142fd565b5b6005811115613c4757613c466142fd565b5b81526020019081526020015f205f9054906101000a900460ff1680613cb9575060165f9054906101000a900473ffffffffffffffffffffffffffffffffffffffff1673ffffffffffffffffffffffffffffffffffffffff163373ffffffffffffffffffffffffffffffffffffffff1614155b613cef576040517f9d7b369d00000000000000000000000000000000000000000000000000000000815260040160405180910390fd5b82608081511115613d2c576040517fb11b2ad800000000000000000000000000000000000000000000000000000000815260040160405180910390fd5b5f60035f815480929190613d3f90614d1d565b91905055905060405180608001604052808281526020018681526020014281526020013373ffffffffffffffffffffffffffffffffffffffff1681525060095f8381526020019081526020015f205f820151815f01556020820151816001019081613daa9190614f61565b50604082015181600201556060820151816003015f6101000a81548173ffffffffffffffffffffffffffffffffffffffff021916908373ffffffffffffffffffffffffffffffffffffffff160217905550905050809350505050919050565b5f600a5f8481526020019081526020015f205f015403613e55576040517fc5723b5100000000000000000000000000000000000000000000000000000000815260040160405180910390fd5b5f60065f8381526020019081526020015f205f015403613ea1576040517fc5723b5100000000000000000000000000000000000000000000000000000000815260040160405180910390fd5b5f6002811115613eb457613eb36142fd565b5b600a5f8481526020019081526020015f2060010160019054906101000a900460ff166002811115613ee857613ee76142fd565b5b14613f1f576040517ff525e32000000000000000000000000000000000000000000000000000000000815260040160405180910390fd5b5f6001811115613f3257613f316142fd565b5b60065f8381526020019081526020015f206006015f9054906101000a900460ff166001811115613f6557613f646142fd565b5b14613f9c576040517ff525e32000000000000000000000000000000000000000000000000000000000815260040160405180910390fd5b61271060135f8481526020019081526020015f208054905010613feb576040517f4f2a111200000000000000000000000000000000000000000000000000000000815260040160405180910390fd5b60135f8381526020019081526020015f2081908060018154018082558091505060019003905f5260205f20015f90919091909150555050565b6007602052805f5260405f205f91509050805f015490806001015490806002015490806003015f9054906101000a900473ffffffffffffffffffffffffffffffffffffffff16905084565b60025481565b6011602052815f5260405f20818154811061408e575f80fd5b905f5260205f20015f91509150505481565b5f604051905090565b5f5ffd5b5f5ffd5b5f819050919050565b6140c3816140b1565b81146140cd575f5ffd5b50565b5f813590506140de816140ba565b92915050565b5f5f604083850312156140fa576140f96140a9565b5b5f614107858286016140d0565b9250506020614118858286016140d0565b9150509250929050565b61412b816140b1565b82525050565b5f6020820190506141445f830184614122565b92915050565b5f73ffffffffffffffffffffffffffffffffffffffff82169050919050565b5f6141738261414a565b9050919050565b61418381614169565b811461418d575f5ffd5b50565b5f8135905061419e8161417a565b92915050565b600681106141b0575f5ffd5b50565b5f813590506141c1816141a4565b92915050565b5f5f604083850312156141dd576141dc6140a9565b5b5f6141ea85828601614190565b92505060206141fb858286016141b3565b9150509250929050565b5f8115159050919050565b61421981614205565b82525050565b5f6020820190506142325f830184614210565b92915050565b5f6020828403121561424d5761424c6140a9565b5b5f61425a848285016140d0565b91505092915050565b6004811061426f575f5ffd5b50565b5f8135905061428081614263565b92915050565b5f5f5f5f5f60a0868803121561429f5761429e6140a9565b5b5f6142ac88828901614272565b95505060206142bd888289016140d0565b94505060406142ce888289016140d0565b93505060606142df888289016140d0565b92505060806142f0888289016140d0565b9150509295509295909350565b7f4e487b71000000000000000000000000000000000000000000000000000000005f52602160045260245ffd5b6004811061433b5761433a6142fd565b5b50565b5f81905061434b8261432a565b919050565b5f61435a8261433e565b9050919050565b61436a81614350565b82525050565b60038110614381576143806142fd565b5b50565b5f81905061439182614370565b919050565b5f6143a082614384565b9050919050565b6143b081614396565b82525050565b6143bf81614169565b82525050565b5f610160820190506143d95f83018e614122565b6143e6602083018d614361565b6143f3604083018c6143a7565b614400606083018b614122565b61440d608083018a614122565b61441a60a0830189614122565b61442760c0830188614122565b61443460e0830187614122565b614442610100830186614122565b614450610120830185614122565b61445e6101408301846143b6565b9c9b505050505050505050505050565b5f5ffd5b5f5ffd5b5f601f19601f8301169050919050565b7f4e487b71000000000000000000000000000000000000000000000000000000005f52604160045260245ffd5b6144bc82614476565b810181811067ffffffffffffffff821117156144db576144da614486565b5b80604052505050565b5f6144ed6140a0565b90506144f982826144b3565b919050565b5f67ffffffffffffffff82111561451857614517614486565b5b61452182614476565b9050602081019050919050565b828183375f83830152505050565b5f61454e614549846144fe565b6144e4565b90508281526020810184848401111561456a57614569614472565b5b61457584828561452e565b509392505050565b5f82601f8301126145915761459061446e565b5b81356145a184826020860161453c565b91505092915050565b600281106145b6575f5ffd5b50565b5f813590506145c7816145aa565b92915050565b5f5f5f5f5f60a086880312156145e6576145e56140a9565b5b5f86013567ffffffffffffffff811115614603576146026140ad565b5b61460f8882890161457d565b9550506020614620888289016140d0565b9450506040614631888289016145b9565b9350506060614642888289016140d0565b9250506080614653888289016140d0565b9150509295509295909350565b5f81519050919050565b5f82825260208201905092915050565b8281835e5f83830152505050565b5f61469282614660565b61469c818561466a565b93506146ac81856020860161467a565b6146b581614476565b840191505092915050565b5f6080820190506146d35f830187614122565b81810360208301526146e58186614688565b90506146f46040830185614122565b61470160608301846143b6565b95945050505050565b5f81519050919050565b5f82825260208201905092915050565b5f819050602082019050919050565b61473c816140b1565b82525050565b5f61474d8383614733565b60208301905092915050565b5f602082019050919050565b5f61476f8261470a565b6147798185614714565b935061478483614724565b805f5b838110156147b457815161479b8882614742565b97506147a683614759565b925050600181019050614787565b5085935050505092915050565b5f6020820190508181035f8301526147d98184614765565b905092915050565b5f5f604083850312156147f7576147f66140a9565b5b5f614804858286016141b3565b9250506020614815858286016140d0565b9150509250929050565b5f5f5f60608486031215614836576148356140a9565b5b5f614843868287016141b3565b9350506020614854868287016140d0565b9250506040614865868287016140d0565b9150509250925092565b5f5f60408385031215614885576148846140a9565b5b5f83013567ffffffffffffffff8111156148a2576148a16140ad565b5b6148ae8582860161457d565b925050602083013567ffffffffffffffff8111156148cf576148ce6140ad565b5b6148db8582860161457d565b9150509250929050565b5f6020820190506148f85f8301846143b6565b92915050565b5f5f5f5f60808587031215614916576149156140a9565b5b5f614923878288016140d0565b945050602085013567ffffffffffffffff811115614944576149436140ad565b5b6149508782880161457d565b9350506040614961878288016140d0565b9250506060614972878288016140d0565b91505092959194509250565b5f60208284031215614993576149926140a9565b5b5f6149a0848285016141b3565b91505092915050565b5f81519050919050565b5f82825260208201905092915050565b5f6149cd826149a9565b6149d781856149b3565b93506149e781856020860161467a565b6149f081614476565b840191505092915050565b5f6020820190508181035f830152614a1381846149c3565b905092915050565b5f60a082019050614a2e5f830188614122565b8181036020830152614a408187614688565b90508181036040830152614a548186614688565b9050614a636060830185614122565b614a7060808301846143b6565b9695505050505050565b60028110614a8b57614a8a6142fd565b5b50565b5f819050614a9b82614a7a565b919050565b5f614aaa82614a8e565b9050919050565b614aba81614aa0565b82525050565b5f61012082019050614ad45f83018c614122565b8181036020830152614ae6818b614688565b9050614af5604083018a614122565b614b026060830189614122565b614b0f6080830188614122565b614b1c60a0830187614122565b614b2960c0830186614ab1565b614b3660e0830185614122565b614b446101008301846143b6565b9a9950505050505050505050565b60038110614b6357614b626142fd565b5b50565b5f819050614b7382614b52565b919050565b5f614b8282614b66565b9050919050565b614b9281614b78565b82525050565b5f61014082019050614bac5f83018d614122565b614bb9602083018c614122565b614bc6604083018b614b89565b8181036060830152614bd8818a614688565b9050614be76080830189614122565b614bf460a0830188614122565b614c0160c0830187614122565b614c0e60e0830186614122565b614c1c610100830185614122565b614c2a6101208301846143b6565b9b9a5050505050505050505050565b5f60208284031215614c4e57614c4d6140a9565b5b5f82013567ffffffffffffffff811115614c6b57614c6a6140ad565b5b614c778482850161457d565b91505092915050565b5f608082019050614c935f830187614122565b614ca06020830186614122565b614cad6040830185614122565b614cba60608301846143b6565b95945050505050565b7f4e487b71000000000000000000000000000000000000000000000000000000005f52603260045260245ffd5b7f4e487b71000000000000000000000000000000000000000000000000000000005f52601160045260245ffd5b5f614d27826140b1565b91507fffffffffffffffffffffffffffffffffffffffffffffffffffffffffffffffff8203614d5957614d58614cf0565b5b600182019050919050565b7f4e487b71000000000000000000000000000000000000000000000000000000005f52602260045260245ffd5b5f6002820490506001821680614da857607f821691505b602082108103614dbb57614dba614d64565b5b50919050565b5f819050815f5260205f209050919050565b5f6020601f8301049050919050565b5f82821b905092915050565b5f60088302614e1d7fffffffffffffffffffffffffffffffffffffffffffffffffffffffffffffffff82614de2565b614e278683614de2565b95508019841693508086168417925050509392505050565b5f819050919050565b5f614e62614e5d614e58846140b1565b614e3f565b6140b1565b9050919050565b5f819050919050565b614e7b83614e48565b614e8f614e8782614e69565b848454614dee565b825550505050565b5f5f905090565b614ea6614e97565b614eb1818484614e72565b505050565b5b81811015614ed457614ec95f82614e9e565b600181019050614eb7565b5050565b601f821115614f1957614eea81614dc1565b614ef384614dd3565b81016020851015614f02578190505b614f16614f0e85614dd3565b830182614eb6565b50505b505050565b5f82821c905092915050565b5f614f395f1984600802614f1e565b1980831691505092915050565b5f614f518383614f2a565b9150826002028217905092915050565b614f6a82614660565b67ffffffffffffffff811115614f8357614f82614486565b5b614f8d8254614d91565b614f98828285614ed8565b5f60209050601f831160018114614fc9575f8415614fb7578287015190505b614fc18582614f46565b865550615028565b601f198416614fd786614dc1565b5f5b82811015614ffe57848901518255600182019150602085019450602081019050614fd9565b8683101561501b5784890151615017601f891682614f2a565b8355505b6001600288020188555050505b505050505050565b7f496e76616c6964207265736f75726365207479706520666f72206e6f746573005f82015250565b5f615064601f8361466a565b915061506f82615030565b602082019050919050565b5f6020820190508181035f83015261509181615058565b9050919050565b5f6150a2826140b1565b91506150ad836140b1565b92508282039050818111156150c5576150c4614cf0565b5b92915050565b7f496e76616c6964207265736f75726365207479706500000000000000000000005f82015250565b5f6150ff60158361466a565b915061510a826150cb565b602082019050919050565b5f6020820190508181035f83015261512c816150f3565b9050919050565b5f815f1c9050919050565b5f819050919050565b5f61515961515483615133565b61513e565b9050919050565b5f82825260208201905092915050565b5f815461517c81614d91565b6151868186615160565b9450600182165f81146151a057600181146151b6576151e8565b60ff1983168652811515602002860193506151e8565b6151bf85614dc1565b5f5b838110156151e0578154818901526001820191506020810190506151c1565b808801955050505b50505092915050565b5f60ff82169050919050565b5f61520f61520a83615133565b6151f1565b9050919050565b61521f81614aa0565b82525050565b5f73ffffffffffffffffffffffffffffffffffffffff82169050919050565b5f61525661525183615133565b615225565b9050919050565b61526681614169565b82525050565b5f61012083015f5f840154905061528281615147565b61528e5f870182614733565b506001840185830360208701526152a58382615170565b925050600284015490506152b881615147565b6152c56040870182614733565b50600384015490506152d681615147565b6152e36060870182614733565b50600484015490506152f481615147565b6153016080870182614733565b506005840154905061531281615147565b61531f60a0870182614733565b5060068401549050615330816151fd565b61533d60c0870182615216565b506007840154905061534e81615147565b61535b60e0870182614733565b506008840154905061536c81615244565b61537a61010087018261525d565b50819250505092915050565b5f6020820190508181035f83015261539e818461526c565b905092915050565b608082015f5f83015490506153ba81615147565b6153c65f860182614733565b50600183015490506153d781615147565b6153e46020860182614733565b50600283015490506153f581615147565b6154026040860182614733565b506003830154905061541381615244565b615420606086018261525d565b5050505050565b5f60808201905061543a5f8301846153a6565b92915050565b5f60ff82169050919050565b5f61545e61545983615133565b615440565b9050919050565b61546e81614b78565b82525050565b5f61014083015f5f840154905061548a81615147565b6154965f870182614733565b50600184015490506154a781615147565b6154b46020870182614733565b50600284015490506154c58161544c565b6154d26040870182615465565b506003840185830360608701526154e98382615170565b925050600484015490506154fc81615147565b6155096080870182614733565b506005840154905061551a81615147565b61552760a0870182614733565b506006840154905061553881615147565b61554560c0870182614733565b506007840154905061555681615147565b61556360e0870182614733565b506008840154905061557481615147565b615582610100870182614733565b506009840154905061559381615244565b6155a161012087018261525d565b50819250505092915050565b5f6020820190508181035f8301526155c58184615474565b905092915050565b5f608083015f5f84015490506155e281615147565b6155ee5f870182614733565b506001840185830360208701526156058382615170565b9250506002840154905061561881615147565b6156256040870182614733565b506003840154905061563681615244565b615643606087018261525d565b50819250505092915050565b5f6020820190508181035f83015261566781846155cd565b905092915050565b5f60ff82169050919050565b5f61568d61568883615133565b61566f565b9050919050565b61569d81614350565b82525050565b5f8160081c9050919050565b5f60ff82169050919050565b5f6156cd6156c8836156a3565b6156af565b9050919050565b6156dd81614396565b82525050565b61016082015f5f83015490506156f881615147565b6157045f860182614733565b50600183015490506157158161567b565b6157226020860182615694565b5061572c816156bb565b61573960408601826156d4565b506002830154905061574a81615147565b6157576060860182614733565b506003830154905061576881615147565b6157756080860182614733565b506004830154905061578681615147565b61579360a0860182614733565b50600583015490506157a481615147565b6157b160c0860182614733565b50600683015490506157c281615147565b6157cf60e0860182614733565b50600783015490506157e081615147565b6157ee610100860182614733565b50600883015490506157ff81615147565b61580d610120860182614733565b506009830154905061581e81615244565b61582c61014086018261525d565b5050505050565b5f610160820190506158475f8301846156e3565b92915050565b5f60a083015f5f840154905061586281615147565b61586e5f870182614733565b506001840185830360208701526158858382615170565b92505060028401858303604087015261589e8382615170565b925050600384015490506158b181615147565b6158be6060870182614733565b50600484015490506158cf81615244565b6158dc608087018261525d565b50819250505092915050565b5f6020820190508181035f830152615900818461584d565b90509291505056fea26469706673582212207c707ef07b0c82d3094dff449f0e769d091b7c41bf7431cb24815bc9820765f964736f6c634300081e0033",
			"opcodes": "PUSH1 0x80 PUSH1 0x40 MSTORE PUSH1 0x1 PUSH0 SSTORE PUSH1 0x1 DUP1 SSTORE PUSH1 0x1 PUSH1 0x2 SSTORE PUSH1 0x1 PUSH1 0x3 SSTORE PUSH1 0x1 PUSH1 0x4 SSTORE PUSH1 0x1 PUSH1 0x5 SSTORE CALLVALUE DUP1 ISZERO PUSH2 0x2B JUMPI PUSH0 PUSH0 REVERT JUMPDEST POP CALLER PUSH1 0x16 PUSH0 PUSH2 0x100 EXP DUP2 SLOAD DUP2 PUSH20 0xFFFFFFFFFFFFFFFFFFFFFFFFFFFFFFFFFFFFFFFF MUL NOT AND SWAP1 DUP4 PUSH20 0xFFFFFFFFFFFFFFFFFFFFFFFFFFFFFFFFFFFFFFFF AND MUL OR SWAP1 SSTORE POP PUSH0 PUSH0 SWAP1 POP JUMPDEST PUSH1 0x5 DUP1 DUP2 GT ISZERO PUSH2 0x84 JUMPI PUSH2 0x83 PUSH2 0x15E JUMP JUMPDEST JUMPDEST DUP2 GT PUSH2 0x158 JUMPI PUSH1 0x1 PUSH1 0x15 PUSH0 PUSH1 0x16 PUSH0 SWAP1 SLOAD SWAP1 PUSH2 0x100 EXP SWAP1 DIV PUSH20 0xFFFFFFFFFFFFFFFFFFFFFFFFFFFFFFFFFFFFFFFF AND PUSH20 0xFFFFFFFFFFFFFFFFFFFFFFFFFFFFFFFFFFFFFFFF AND PUSH20 0xFFFFFFFFFFFFFFFFFFFFFFFFFFFFFFFFFFFFFFFF AND DUP2 MSTORE PUSH1 0x20 ADD SWAP1 DUP2 MSTORE PUSH1 0x20 ADD PUSH0 KECCAK256 PUSH0 DUP4 PUSH1 0x5 DUP2 GT ISZERO PUSH2 0xFE JUMPI PUSH2 0xFD PUSH2 0x15E JUMP JUMPDEST JUMPDEST PUSH1 0x5 DUP2 GT ISZERO PUSH2 0x110 JUMPI PUSH2 0x10F PUSH2 0x15E JUMP JUMPDEST JUMPDEST PUSH1 0x5 DUP2 GT ISZERO PUSH2 0x122 JUMPI PUSH2 0x121 PUSH2 0x15E JUMP JUMPDEST JUMPDEST DUP2 MSTORE PUSH1 0x20 ADD SWAP1 DUP2 MSTORE PUSH1 0x20 ADD PUSH0 KECCAK256 PUSH0 PUSH2 0x100 EXP DUP2 SLOAD DUP2 PUSH1 0xFF MUL NOT AND SWAP1 DUP4 ISZERO ISZERO MUL OR SWAP1 SSTORE POP DUP1 DUP1 PUSH2 0x150 SWAP1 PUSH2 0x1C1 JUMP JUMPDEST SWAP2 POP POP PUSH2 0x71 JUMP JUMPDEST POP PUSH2 0x208 JUMP JUMPDEST PUSH32 0x4E487B7100000000000000000000000000000000000000000000000000000000 PUSH0 MSTORE PUSH1 0x21 PUSH1 0x4 MSTORE PUSH1 0x24 PUSH0 REVERT JUMPDEST PUSH32 0x4E487B7100000000000000000000000000000000000000000000000000000000 PUSH0 MSTORE PUSH1 0x11 PUSH1 0x4 MSTORE PUSH1 0x24 PUSH0 REVERT JUMPDEST PUSH0 DUP2 SWAP1 POP SWAP2 SWAP1 POP JUMP JUMPDEST PUSH0 PUSH2 0x1CB DUP3 PUSH2 0x1B8 JUMP JUMPDEST SWAP2 POP PUSH32 0xFFFFFFFFFFFFFFFFFFFFFFFFFFFFFFFFFFFFFFFFFFFFFFFFFFFFFFFFFFFFFFFF DUP3 SUB PUSH2 0x1FD JUMPI PUSH2 0x1FC PUSH2 0x18B JUMP JUMPDEST JUMPDEST PUSH1 0x1 DUP3 ADD SWAP1 POP SWAP2 SWAP1 POP JUMP JUMPDEST PUSH2 0x593E DUP1 PUSH2 0x215 PUSH0 CODECOPY PUSH0 RETURN INVALID PUSH1 0x80 PUSH1 0x40 MSTORE CALLVALUE DUP1 ISZERO PUSH2 0xF JUMPI PUSH0 PUSH0 REVERT JUMPDEST POP PUSH1 0x4 CALLDATASIZE LT PUSH2 0x292 JUMPI PUSH0 CALLDATALOAD PUSH1 0xE0 SHR DUP1 PUSH4 0x7A2043A3 GT PUSH2 0x165 JUMPI DUP1 PUSH4 0xBFB231D2 GT PUSH2 0xCC JUMPI DUP1 PUSH4 0xD666F29E GT PUSH2 0x85 JUMPI DUP1 PUSH4 0xD666F29E EQ PUSH2 0x938 JUMPI DUP1 PUSH4 0xE1250AB4 EQ PUSH2 0x956 JUMPI DUP1 PUSH4 0xE5213007 EQ PUSH2 0x986 JUMPI DUP1 PUSH4 0xF1648E84 EQ PUSH2 0x9A2 JUMPI DUP1 PUSH4 0xF6C53D9B EQ PUSH2 0x9D5 JUMPI DUP1 PUSH4 0xF9FDB154 EQ PUSH2 0x9F3 JUMPI PUSH2 0x292 JUMP JUMPDEST DUP1 PUSH4 0xBFB231D2 EQ PUSH2 0x819 JUMPI DUP1 PUSH4 0xC22C4F43 EQ PUSH2 0x851 JUMPI DUP1 PUSH4 0xC60D817E EQ PUSH2 0x88A JUMPI DUP1 PUSH4 0xCC2F211D EQ PUSH2 0x8BA JUMPI DUP1 PUSH4 0xCF5CF8E1 EQ PUSH2 0x8EA JUMPI DUP1 PUSH4 0xCF97F111 EQ PUSH2 0x91A JUMPI PUSH2 0x292 JUMP JUMPDEST DUP1 PUSH4 0x94761A28 GT PUSH2 0x11E JUMPI DUP1 PUSH4 0x94761A28 EQ PUSH2 0x71B JUMPI DUP1 PUSH4 0xA07E12E1 EQ PUSH2 0x74B JUMPI DUP1 PUSH4 0xA805AF18 EQ PUSH2 0x769 JUMPI DUP1 PUSH4 0xACDF0ACB EQ PUSH2 0x799 JUMPI DUP1 PUSH4 0xB7F44B72 EQ PUSH2 0x7B5 JUMPI DUP1 PUSH4 0xB9E0DB35 EQ PUSH2 0x7E5 JUMPI PUSH2 0x292 JUMP JUMPDEST DUP1 PUSH4 0x7A2043A3 EQ PUSH2 0x631 JUMPI DUP1 PUSH4 0x7A78E12D EQ PUSH2 0x64F JUMPI DUP1 PUSH4 0x7D3C99BB EQ PUSH2 0x67F JUMPI DUP1 PUSH4 0x83CC56E1 EQ PUSH2 0x6AF JUMPI DUP1 PUSH4 0x8DA5CB5B EQ PUSH2 0x6DF JUMPI DUP1 PUSH4 0x925B033D EQ PUSH2 0x6FD JUMPI PUSH2 0x292 JUMP JUMPDEST DUP1 PUSH4 0x4EF55A1F GT PUSH2 0x209 JUMPI DUP1 PUSH4 0x6A868974 GT PUSH2 0x1C2 JUMPI DUP1 PUSH4 0x6A868974 EQ PUSH2 0x537 JUMPI DUP1 PUSH4 0x6BEBD1FD EQ PUSH2 0x555 JUMPI DUP1 PUSH4 0x6C6F4A06 EQ PUSH2 0x585 JUMPI DUP1 PUSH4 0x6E2C06FA EQ PUSH2 0x5B5 JUMPI DUP1 PUSH4 0x71895501 EQ PUSH2 0x5E5 JUMPI DUP1 PUSH4 0x71C906C5 EQ PUSH2 0x601 JUMPI PUSH2 0x292 JUMP JUMPDEST DUP1 PUSH4 0x4EF55A1F EQ PUSH2 0x430 JUMPI DUP1 PUSH4 0x5182D7EB EQ PUSH2 0x460 JUMPI DUP1 PUSH4 0x579E51C7 EQ PUSH2 0x47E JUMPI DUP1 PUSH4 0x585B5C63 EQ PUSH2 0x4B8 JUMPI DUP1 PUSH4 0x61C3A7E6 EQ PUSH2 0x4E8 JUMPI DUP1 PUSH4 0x624871F9 EQ PUSH2 0x51B JUMPI PUSH2 0x292 JUMP JUMPDEST DUP1 PUSH4 0x34200D7B GT PUSH2 0x25B JUMPI DUP1 PUSH4 0x34200D7B EQ PUSH2 0x35E JUMPI DUP1 PUSH4 0x34CCC5EA EQ PUSH2 0x38E JUMPI DUP1 PUSH4 0x3C8393AD EQ PUSH2 0x3AC JUMPI DUP1 PUSH4 0x3E4A1E6C EQ PUSH2 0x3C8 JUMPI DUP1 PUSH4 0x4B48F656 EQ PUSH2 0x3E4 JUMPI DUP1 PUSH4 0x4C56DF7B EQ PUSH2 0x400 JUMPI PUSH2 0x292 JUMP JUMPDEST DUP1 PUSH3 0x51FF7D EQ PUSH2 0x296 JUMPI DUP1 PUSH4 0xA108D5E EQ PUSH2 0x2C6 JUMPI DUP1 PUSH4 0x20F3847E EQ PUSH2 0x2F6 JUMPI DUP1 PUSH4 0x2F3CCEBD EQ PUSH2 0x326 JUMPI DUP1 PUSH4 0x301DA870 EQ PUSH2 0x342 JUMPI JUMPDEST PUSH0 PUSH0 REVERT JUMPDEST PUSH2 0x2B0 PUSH1 0x4 DUP1 CALLDATASIZE SUB DUP2 ADD SWAP1 PUSH2 0x2AB SWAP2 SWAP1 PUSH2 0x40E4 JUMP JUMPDEST PUSH2 0xA23 JUMP JUMPDEST PUSH1 0x40 MLOAD PUSH2 0x2BD SWAP2 SWAP1 PUSH2 0x4131 JUMP JUMPDEST PUSH1 0x40 MLOAD DUP1 SWAP2 SUB SWAP1 RETURN JUMPDEST PUSH2 0x2E0 PUSH1 0x4 DUP1 CALLDATASIZE SUB DUP2 ADD SWAP1 PUSH2 0x2DB SWAP2 SWAP1 PUSH2 0x41C7 JUMP JUMPDEST PUSH2 0xA4E JUMP JUMPDEST PUSH1 0x40 MLOAD PUSH2 0x2ED SWAP2 SWAP1 PUSH2 0x421F JUMP JUMPDEST PUSH1 0x40 MLOAD DUP1 SWAP2 SUB SWAP1 RETURN JUMPDEST PUSH2 0x310 PUSH1 0x4 DUP1 CALLDATASIZE SUB DUP2 ADD SWAP1 PUSH2 0x30B SWAP2 SWAP1 PUSH2 0x40E4 JUMP JUMPDEST PUSH2 0xA78 JUMP JUMPDEST PUSH1 0x40 MLOAD PUSH2 0x31D SWAP2 SWAP1 PUSH2 0x4131 JUMP JUMPDEST PUSH1 0x40 MLOAD DUP1 SWAP2 SUB SWAP1 RETURN JUMPDEST PUSH2 0x340 PUSH1 0x4 DUP1 CALLDATASIZE SUB DUP2 ADD SWAP1 PUSH2 0x33B SWAP2 SWAP1 PUSH2 0x4238 JUMP JUMPDEST PUSH2 0xAA3 JUMP JUMPDEST STOP JUMPDEST PUSH2 0x35C PUSH1 0x4 DUP1 CALLDATASIZE SUB DUP2 ADD SWAP1 PUSH2 0x357 SWAP2 SWAP1 PUSH2 0x41C7 JUMP JUMPDEST PUSH2 0xC87 JUMP JUMPDEST STOP JUMPDEST PUSH2 0x378 PUSH1 0x4 DUP1 CALLDATASIZE SUB DUP2 ADD SWAP1 PUSH2 0x373 SWAP2 SWAP1 PUSH2 0x40E4 JUMP JUMPDEST PUSH2 0xD99 JUMP JUMPDEST PUSH1 0x40 MLOAD PUSH2 0x385 SWAP2 SWAP1 PUSH2 0x4131 JUMP JUMPDEST PUSH1 0x40 MLOAD DUP1 SWAP2 SUB SWAP1 RETURN JUMPDEST PUSH2 0x396 PUSH2 0xDC4 JUMP JUMPDEST PUSH1 0x40 MLOAD PUSH2 0x3A3 SWAP2 SWAP1 PUSH2 0x4131 JUMP JUMPDEST PUSH1 0x40 MLOAD DUP1 SWAP2 SUB SWAP1 RETURN JUMPDEST PUSH2 0x3C6 PUSH1 0x4 DUP1 CALLDATASIZE SUB DUP2 ADD SWAP1 PUSH2 0x3C1 SWAP2 SWAP1 PUSH2 0x4238 JUMP JUMPDEST PUSH2 0xDC9 JUMP JUMPDEST STOP JUMPDEST PUSH2 0x3E2 PUSH1 0x4 DUP1 CALLDATASIZE SUB DUP2 ADD SWAP1 PUSH2 0x3DD SWAP2 SWAP1 PUSH2 0x4238 JUMP JUMPDEST PUSH2 0x1101 JUMP JUMPDEST STOP JUMPDEST PUSH2 0x3FE PUSH1 0x4 DUP1 CALLDATASIZE SUB DUP2 ADD SWAP1 PUSH2 0x3F9 SWAP2 SWAP1 PUSH2 0x40E4 JUMP JUMPDEST PUSH2 0x12E4 JUMP JUMPDEST STOP JUMPDEST PUSH2 0x41A PUSH1 0x4 DUP1 CALLDATASIZE SUB DUP2 ADD SWAP1 PUSH2 0x415 SWAP2 SWAP1 PUSH2 0x40E4 JUMP JUMPDEST PUSH2 0x1479 JUMP JUMPDEST PUSH1 0x40 MLOAD PUSH2 0x427 SWAP2 SWAP1 PUSH2 0x4131 JUMP JUMPDEST PUSH1 0x40 MLOAD DUP1 SWAP2 SUB SWAP1 RETURN JUMPDEST PUSH2 0x44A PUSH1 0x4 DUP1 CALLDATASIZE SUB DUP2 ADD SWAP1 PUSH2 0x445 SWAP2 SWAP1 PUSH2 0x4286 JUMP JUMPDEST PUSH2 0x14A4 JUMP JUMPDEST PUSH1 0x40 MLOAD PUSH2 0x457 SWAP2 SWAP1 PUSH2 0x4131 JUMP JUMPDEST PUSH1 0x40 MLOAD DUP1 SWAP2 SUB SWAP1 RETURN JUMPDEST PUSH2 0x468 PUSH2 0x182D JUMP JUMPDEST PUSH1 0x40 MLOAD PUSH2 0x475 SWAP2 SWAP1 PUSH2 0x4131 JUMP JUMPDEST PUSH1 0x40 MLOAD DUP1 SWAP2 SUB SWAP1 RETURN JUMPDEST PUSH2 0x498 PUSH1 0x4 DUP1 CALLDATASIZE SUB DUP2 ADD SWAP1 PUSH2 0x493 SWAP2 SWAP1 PUSH2 0x4238 JUMP JUMPDEST PUSH2 0x1833 JUMP JUMPDEST PUSH1 0x40 MLOAD PUSH2 0x4AF SWAP12 SWAP11 SWAP10 SWAP9 SWAP8 SWAP7 SWAP6 SWAP5 SWAP4 SWAP3 SWAP2 SWAP1 PUSH2 0x43C5 JUMP JUMPDEST PUSH1 0x40 MLOAD DUP1 SWAP2 SUB SWAP1 RETURN JUMPDEST PUSH2 0x4D2 PUSH1 0x4 DUP1 CALLDATASIZE SUB DUP2 ADD SWAP1 PUSH2 0x4CD SWAP2 SWAP1 PUSH2 0x45CD JUMP JUMPDEST PUSH2 0x18C1 JUMP JUMPDEST PUSH1 0x40 MLOAD PUSH2 0x4DF SWAP2 SWAP1 PUSH2 0x4131 JUMP JUMPDEST PUSH1 0x40 MLOAD DUP1 SWAP2 SUB SWAP1 RETURN JUMPDEST PUSH2 0x502 PUSH1 0x4 DUP1 CALLDATASIZE SUB DUP2 ADD SWAP1 PUSH2 0x4FD SWAP2 SWAP1 PUSH2 0x4238 JUMP JUMPDEST PUSH2 0x1C72 JUMP JUMPDEST PUSH1 0x40 MLOAD PUSH2 0x512 SWAP5 SWAP4 SWAP3 SWAP2 SWAP1 PUSH2 0x46C0 JUMP JUMPDEST PUSH1 0x40 MLOAD DUP1 SWAP2 SUB SWAP1 RETURN JUMPDEST PUSH2 0x535 PUSH1 0x4 DUP1 CALLDATASIZE SUB DUP2 ADD SWAP1 PUSH2 0x530 SWAP2 SWAP1 PUSH2 0x4238 JUMP JUMPDEST PUSH2 0x1D43 JUMP JUMPDEST STOP JUMPDEST PUSH2 0x53F PUSH2 0x20FF JUMP JUMPDEST PUSH1 0x40 MLOAD PUSH2 0x54C SWAP2 SWAP1 PUSH2 0x4131 JUMP JUMPDEST PUSH1 0x40 MLOAD DUP1 SWAP2 SUB SWAP1 RETURN JUMPDEST PUSH2 0x56F PUSH1 0x4 DUP1 CALLDATASIZE SUB DUP2 ADD SWAP1 PUSH2 0x56A SWAP2 SWAP1 PUSH2 0x4238 JUMP JUMPDEST PUSH2 0x2104 JUMP JUMPDEST PUSH1 0x40 MLOAD PUSH2 0x57C SWAP2 SWAP1 PUSH2 0x47C1 JUMP JUMPDEST PUSH1 0x40 MLOAD DUP1 SWAP2 SUB SWAP1 RETURN JUMPDEST PUSH2 0x59F PUSH1 0x4 DUP1 CALLDATASIZE SUB DUP2 ADD SWAP1 PUSH2 0x59A SWAP2 SWAP1 PUSH2 0x40E4 JUMP JUMPDEST PUSH2 0x216B JUMP JUMPDEST PUSH1 0x40 MLOAD PUSH2 0x5AC SWAP2 SWAP1 PUSH2 0x4131 JUMP JUMPDEST PUSH1 0x40 MLOAD DUP1 SWAP2 SUB SWAP1 RETURN JUMPDEST PUSH2 0x5CF PUSH1 0x4 DUP1 CALLDATASIZE SUB DUP2 ADD SWAP1 PUSH2 0x5CA SWAP2 SWAP1 PUSH2 0x47E1 JUMP JUMPDEST PUSH2 0x2196 JUMP JUMPDEST PUSH1 0x40 MLOAD PUSH2 0x5DC SWAP2 SWAP1 PUSH2 0x47C1 JUMP JUMPDEST PUSH1 0x40 MLOAD DUP1 SWAP2 SUB SWAP1 RETURN JUMPDEST PUSH2 0x5FF PUSH1 0x4 DUP1 CALLDATASIZE SUB DUP2 ADD SWAP1 PUSH2 0x5FA SWAP2 SWAP1 PUSH2 0x481F JUMP JUMPDEST PUSH2 0x24AC JUMP JUMPDEST STOP JUMPDEST PUSH2 0x61B PUSH1 0x4 DUP1 CALLDATASIZE SUB DUP2 ADD SWAP1 PUSH2 0x616 SWAP2 SWAP1 PUSH2 0x4238 JUMP JUMPDEST PUSH2 0x29B6 JUMP JUMPDEST PUSH1 0x40 MLOAD PUSH2 0x628 SWAP2 SWAP1 PUSH2 0x421F JUMP JUMPDEST PUSH1 0x40 MLOAD DUP1 SWAP2 SUB SWAP1 RETURN JUMPDEST PUSH2 0x639 PUSH2 0x29D3 JUMP JUMPDEST PUSH1 0x40 MLOAD PUSH2 0x646 SWAP2 SWAP1 PUSH2 0x4131 JUMP JUMPDEST PUSH1 0x40 MLOAD DUP1 SWAP2 SUB SWAP1 RETURN JUMPDEST PUSH2 0x669 PUSH1 0x4 DUP1 CALLDATASIZE SUB DUP2 ADD SWAP1 PUSH2 0x664 SWAP2 SWAP1 PUSH2 0x4238 JUMP JUMPDEST PUSH2 0x29D9 JUMP JUMPDEST PUSH1 0x40 MLOAD PUSH2 0x676 SWAP2 SWAP1 PUSH2 0x4131 JUMP JUMPDEST PUSH1 0x40 MLOAD DUP1 SWAP2 SUB SWAP1 RETURN JUMPDEST PUSH2 0x699 PUSH1 0x4 DUP1 CALLDATASIZE SUB DUP2 ADD SWAP1 PUSH2 0x694 SWAP2 SWAP1 PUSH2 0x4238 JUMP JUMPDEST PUSH2 0x2BB7 JUMP JUMPDEST PUSH1 0x40 MLOAD PUSH2 0x6A6 SWAP2 SWAP1 PUSH2 0x47C1 JUMP JUMPDEST PUSH1 0x40 MLOAD DUP1 SWAP2 SUB SWAP1 RETURN JUMPDEST PUSH2 0x6C9 PUSH1 0x4 DUP1 CALLDATASIZE SUB DUP2 ADD SWAP1 PUSH2 0x6C4 SWAP2 SWAP1 PUSH2 0x486F JUMP JUMPDEST PUSH2 0x2C1E JUMP JUMPDEST PUSH1 0x40 MLOAD PUSH2 0x6D6 SWAP2 SWAP1 PUSH2 0x4131 JUMP JUMPDEST PUSH1 0x40 MLOAD DUP1 SWAP2 SUB SWAP1 RETURN JUMPDEST PUSH2 0x6E7 PUSH2 0x2EA1 JUMP JUMPDEST PUSH1 0x40 MLOAD PUSH2 0x6F4 SWAP2 SWAP1 PUSH2 0x48E5 JUMP JUMPDEST PUSH1 0x40 MLOAD DUP1 SWAP2 SUB SWAP1 RETURN JUMPDEST PUSH2 0x705 PUSH2 0x2EC6 JUMP JUMPDEST PUSH1 0x40 MLOAD PUSH2 0x712 SWAP2 SWAP1 PUSH2 0x4131 JUMP JUMPDEST PUSH1 0x40 MLOAD DUP1 SWAP2 SUB SWAP1 RETURN JUMPDEST PUSH2 0x735 PUSH1 0x4 DUP1 CALLDATASIZE SUB DUP2 ADD SWAP1 PUSH2 0x730 SWAP2 SWAP1 PUSH2 0x48FE JUMP JUMPDEST PUSH2 0x2ECC JUMP JUMPDEST PUSH1 0x40 MLOAD PUSH2 0x742 SWAP2 SWAP1 PUSH2 0x4131 JUMP JUMPDEST PUSH1 0x40 MLOAD DUP1 SWAP2 SUB SWAP1 RETURN JUMPDEST PUSH2 0x753 PUSH2 0x3191 JUMP JUMPDEST PUSH1 0x40 MLOAD PUSH2 0x760 SWAP2 SWAP1 PUSH2 0x4131 JUMP JUMPDEST PUSH1 0x40 MLOAD DUP1 SWAP2 SUB SWAP1 RETURN JUMPDEST PUSH2 0x783 PUSH1 0x4 DUP1 CALLDATASIZE SUB DUP2 ADD SWAP1 PUSH2 0x77E SWAP2 SWAP1 PUSH2 0x497E JUMP JUMPDEST PUSH2 0x3197 JUMP JUMPDEST PUSH1 0x40 MLOAD PUSH2 0x790 SWAP2 SWAP1 PUSH2 0x4131 JUMP JUMPDEST PUSH1 0x40 MLOAD DUP1 SWAP2 SUB SWAP1 RETURN JUMPDEST PUSH2 0x7B3 PUSH1 0x4 DUP1 CALLDATASIZE SUB DUP2 ADD SWAP1 PUSH2 0x7AE SWAP2 SWAP1 PUSH2 0x40E4 JUMP JUMPDEST PUSH2 0x3360 JUMP JUMPDEST STOP JUMPDEST PUSH2 0x7CF PUSH1 0x4 DUP1 CALLDATASIZE SUB DUP2 ADD SWAP1 PUSH2 0x7CA SWAP2 SWAP1 PUSH2 0x47E1 JUMP JUMPDEST PUSH2 0x352C JUMP JUMPDEST PUSH1 0x40 MLOAD PUSH2 0x7DC SWAP2 SWAP1 PUSH2 0x49FB JUMP JUMPDEST PUSH1 0x40 MLOAD DUP1 SWAP2 SUB SWAP1 RETURN JUMPDEST PUSH2 0x7FF PUSH1 0x4 DUP1 CALLDATASIZE SUB DUP2 ADD SWAP1 PUSH2 0x7FA SWAP2 SWAP1 PUSH2 0x4238 JUMP JUMPDEST PUSH2 0x37BF JUMP JUMPDEST PUSH1 0x40 MLOAD PUSH2 0x810 SWAP6 SWAP5 SWAP4 SWAP3 SWAP2 SWAP1 PUSH2 0x4A1B JUMP JUMPDEST PUSH1 0x40 MLOAD DUP1 SWAP2 SUB SWAP1 RETURN JUMPDEST PUSH2 0x833 PUSH1 0x4 DUP1 CALLDATASIZE SUB DUP2 ADD SWAP1 PUSH2 0x82E SWAP2 SWAP1 PUSH2 0x4238 JUMP JUMPDEST PUSH2 0x391C JUMP JUMPDEST PUSH1 0x40 MLOAD PUSH2 0x848 SWAP10 SWAP9 SWAP8 SWAP7 SWAP6 SWAP5 SWAP4 SWAP3 SWAP2 SWAP1 PUSH2 0x4AC0 JUMP JUMPDEST PUSH1 0x40 MLOAD DUP1 SWAP2 SUB SWAP1 RETURN JUMPDEST PUSH2 0x86B PUSH1 0x4 DUP1 CALLDATASIZE SUB DUP2 ADD SWAP1 PUSH2 0x866 SWAP2 SWAP1 PUSH2 0x4238 JUMP JUMPDEST PUSH2 0x3A17 JUMP JUMPDEST PUSH1 0x40 MLOAD PUSH2 0x881 SWAP11 SWAP10 SWAP9 SWAP8 SWAP7 SWAP6 SWAP5 SWAP4 SWAP3 SWAP2 SWAP1 PUSH2 0x4B98 JUMP JUMPDEST PUSH1 0x40 MLOAD DUP1 SWAP2 SUB SWAP1 RETURN JUMPDEST PUSH2 0x8A4 PUSH1 0x4 DUP1 CALLDATASIZE SUB DUP2 ADD SWAP1 PUSH2 0x89F SWAP2 SWAP1 PUSH2 0x4238 JUMP JUMPDEST PUSH2 0x3B18 JUMP JUMPDEST PUSH1 0x40 MLOAD PUSH2 0x8B1 SWAP2 SWAP1 PUSH2 0x47C1 JUMP JUMPDEST PUSH1 0x40 MLOAD DUP1 SWAP2 SUB SWAP1 RETURN JUMPDEST PUSH2 0x8D4 PUSH1 0x4 DUP1 CALLDATASIZE SUB DUP2 ADD SWAP1 PUSH2 0x8CF SWAP2 SWAP1 PUSH2 0x40E4 JUMP JUMPDEST PUSH2 0x3B7F JUMP JUMPDEST PUSH1 0x40 MLOAD PUSH2 0x8E1 SWAP2 SWAP1 PUSH2 0x4131 JUMP JUMPDEST PUSH1 0x40 MLOAD DUP1 SWAP2 SUB SWAP1 RETURN JUMPDEST PUSH2 0x904 PUSH1 0x4 DUP1 CALLDATASIZE SUB DUP2 ADD SWAP1 PUSH2 0x8FF SWAP2 SWAP1 PUSH2 0x40E4 JUMP JUMPDEST PUSH2 0x3BAA JUMP JUMPDEST PUSH1 0x40 MLOAD PUSH2 0x911 SWAP2 SWAP1 PUSH2 0x4131 JUMP JUMPDEST PUSH1 0x40 MLOAD DUP1 SWAP2 SUB SWAP1 RETURN JUMPDEST PUSH2 0x922 PUSH2 0x3BD5 JUMP JUMPDEST PUSH1 0x40 MLOAD PUSH2 0x92F SWAP2 SWAP1 PUSH2 0x4131 JUMP JUMPDEST PUSH1 0x40 MLOAD DUP1 SWAP2 SUB SWAP1 RETURN JUMPDEST PUSH2 0x940 PUSH2 0x3BDB JUMP JUMPDEST PUSH1 0x40 MLOAD PUSH2 0x94D SWAP2 SWAP1 PUSH2 0x4131 JUMP JUMPDEST PUSH1 0x40 MLOAD DUP1 SWAP2 SUB SWAP1 RETURN JUMPDEST PUSH2 0x970 PUSH1 0x4 DUP1 CALLDATASIZE SUB DUP2 ADD SWAP1 PUSH2 0x96B SWAP2 SWAP1 PUSH2 0x4C39 JUMP JUMPDEST PUSH2 0x3BE1 JUMP JUMPDEST PUSH1 0x40 MLOAD PUSH2 0x97D SWAP2 SWAP1 PUSH2 0x4131 JUMP JUMPDEST PUSH1 0x40 MLOAD DUP1 SWAP2 SUB SWAP1 RETURN JUMPDEST PUSH2 0x9A0 PUSH1 0x4 DUP1 CALLDATASIZE SUB DUP2 ADD SWAP1 PUSH2 0x99B SWAP2 SWAP1 PUSH2 0x40E4 JUMP JUMPDEST PUSH2 0x3E09 JUMP JUMPDEST STOP JUMPDEST PUSH2 0x9BC PUSH1 0x4 DUP1 CALLDATASIZE SUB DUP2 ADD SWAP1 PUSH2 0x9B7 SWAP2 SWAP1 PUSH2 0x4238 JUMP JUMPDEST PUSH2 0x4024 JUMP JUMPDEST PUSH1 0x40 MLOAD PUSH2 0x9CC SWAP5 SWAP4 SWAP3 SWAP2 SWAP1 PUSH2 0x4C80 JUMP JUMPDEST PUSH1 0x40 MLOAD DUP1 SWAP2 SUB SWAP1 RETURN JUMPDEST PUSH2 0x9DD PUSH2 0x406F JUMP JUMPDEST PUSH1 0x40 MLOAD PUSH2 0x9EA SWAP2 SWAP1 PUSH2 0x4131 JUMP JUMPDEST PUSH1 0x40 MLOAD DUP1 SWAP2 SUB SWAP1 RETURN JUMPDEST PUSH2 0xA0D PUSH1 0x4 DUP1 CALLDATASIZE SUB DUP2 ADD SWAP1 PUSH2 0xA08 SWAP2 SWAP1 PUSH2 0x40E4 JUMP JUMPDEST PUSH2 0x4075 JUMP JUMPDEST PUSH1 0x40 MLOAD PUSH2 0xA1A SWAP2 SWAP1 PUSH2 0x4131 JUMP JUMPDEST PUSH1 0x40 MLOAD DUP1 SWAP2 SUB SWAP1 RETURN JUMPDEST PUSH1 0xF PUSH1 0x20 MSTORE DUP2 PUSH0 MSTORE PUSH1 0x40 PUSH0 KECCAK256 DUP2 DUP2 SLOAD DUP2 LT PUSH2 0xA3C JUMPI PUSH0 DUP1 REVERT JUMPDEST SWAP1 PUSH0 MSTORE PUSH1 0x20 PUSH0 KECCAK256 ADD PUSH0 SWAP2 POP SWAP2 POP POP SLOAD DUP2 JUMP JUMPDEST PUSH1 0x15 PUSH1 0x20 MSTORE DUP2 PUSH0 MSTORE PUSH1 0x40 PUSH0 KECCAK256 PUSH1 0x20 MSTORE DUP1 PUSH0 MSTORE PUSH1 0x40 PUSH0 KECCAK256 PUSH0 SWAP2 POP SWAP2 POP SWAP1 SLOAD SWAP1 PUSH2 0x100 EXP SWAP1 DIV PUSH1 0xFF AND DUP2 JUMP JUMPDEST PUSH1 0x13 PUSH1 0x20 MSTORE DUP2 PUSH0 MSTORE PUSH1 0x40 PUSH0 KECCAK256 DUP2 DUP2 SLOAD DUP2 LT PUSH2 0xA91 JUMPI PUSH0 DUP1 REVERT JUMPDEST SWAP1 PUSH0 MSTORE PUSH1 0x20 PUSH0 KECCAK256 ADD PUSH0 SWAP2 POP SWAP2 POP POP SLOAD DUP2 JUMP JUMPDEST PUSH1 0x2 PUSH1 0x15 PUSH0 CALLER PUSH20 0xFFFFFFFFFFFFFFFFFFFFFFFFFFFFFFFFFFFFFFFF AND PUSH20 0xFFFFFFFFFFFFFFFFFFFFFFFFFFFFFFFFFFFFFFFF AND DUP2 MSTORE PUSH1 0x20 ADD SWAP1 DUP2 MSTORE PUSH1 0x20 ADD PUSH0 KECCAK256 PUSH0 DUP3 PUSH1 0x5 DUP2 GT ISZERO PUSH2 0xAF6 JUMPI PUSH2 0xAF5 PUSH2 0x42FD JUMP JUMPDEST JUMPDEST PUSH1 0x5 DUP2 GT ISZERO PUSH2 0xB08 JUMPI PUSH2 0xB07 PUSH2 0x42FD JUMP JUMPDEST JUMPDEST DUP2 MSTORE PUSH1 0x20 ADD SWAP1 DUP2 MSTORE PUSH1 0x20 ADD PUSH0 KECCAK256 PUSH0 SWAP1 SLOAD SWAP1 PUSH2 0x100 EXP SWAP1 DIV PUSH1 0xFF AND DUP1 PUSH2 0xB7A JUMPI POP PUSH1 0x16 PUSH0 SWAP1 SLOAD SWAP1 PUSH2 0x100 EXP SWAP1 DIV PUSH20 0xFFFFFFFFFFFFFFFFFFFFFFFFFFFFFFFFFFFFFFFF AND PUSH20 0xFFFFFFFFFFFFFFFFFFFFFFFFFFFFFFFFFFFFFFFF AND CALLER PUSH20 0xFFFFFFFFFFFFFFFFFFFFFFFFFFFFFFFFFFFFFFFF AND EQ ISZERO JUMPDEST PUSH2 0xBB0 JUMPI PUSH1 0x40 MLOAD PUSH32 0x9D7B369D00000000000000000000000000000000000000000000000000000000 DUP2 MSTORE PUSH1 0x4 ADD PUSH1 0x40 MLOAD DUP1 SWAP2 SUB SWAP1 REVERT JUMPDEST PUSH1 0x1 PUSH1 0x2 DUP2 GT ISZERO PUSH2 0xBC4 JUMPI PUSH2 0xBC3 PUSH2 0x42FD JUMP JUMPDEST JUMPDEST PUSH1 0x8 PUSH0 DUP5 DUP2 MSTORE PUSH1 0x20 ADD SWAP1 DUP2 MSTORE PUSH1 0x20 ADD PUSH0 KECCAK256 PUSH1 0x2 ADD PUSH0 SWAP1 SLOAD SWAP1 PUSH2 0x100 EXP SWAP1 DIV PUSH1 0xFF AND PUSH1 0x2 DUP2 GT ISZERO PUSH2 0xBF7 JUMPI PUSH2 0xBF6 PUSH2 0x42FD JUMP JUMPDEST JUMPDEST EQ PUSH2 0xC2E JUMPI PUSH1 0x40 MLOAD PUSH32 0xF525E32000000000000000000000000000000000000000000000000000000000 DUP2 MSTORE PUSH1 0x4 ADD PUSH1 0x40 MLOAD DUP1 SWAP2 SUB SWAP1 REVERT JUMPDEST PUSH1 0x2 PUSH1 0x8 PUSH0 DUP5 DUP2 MSTORE PUSH1 0x20 ADD SWAP1 DUP2 MSTORE PUSH1 0x20 ADD PUSH0 KECCAK256 PUSH1 0x2 ADD PUSH0 PUSH2 0x100 EXP DUP2 SLOAD DUP2 PUSH1 0xFF MUL NOT AND SWAP1 DUP4 PUSH1 0x2 DUP2 GT ISZERO PUSH2 0xC65 JUMPI PUSH2 0xC64 PUSH2 0x42FD JUMP JUMPDEST JUMPDEST MUL OR SWAP1 SSTORE POP TIMESTAMP PUSH1 0x8 PUSH0 DUP5 DUP2 MSTORE PUSH1 0x20 ADD SWAP1 DUP2 MSTORE PUSH1 0x20 ADD PUSH0 KECCAK256 PUSH1 0x7 ADD DUP2 SWAP1 SSTORE POP POP POP JUMP JUMPDEST PUSH1 0x16 PUSH0 SWAP1 SLOAD SWAP1 PUSH2 0x100 EXP SWAP1 DIV PUSH20 0xFFFFFFFFFFFFFFFFFFFFFFFFFFFFFFFFFFFFFFFF AND PUSH20 0xFFFFFFFFFFFFFFFFFFFFFFFFFFFFFFFFFFFFFFFF AND CALLER PUSH20 0xFFFFFFFFFFFFFFFFFFFFFFFFFFFFFFFFFFFFFFFF AND EQ PUSH2 0xD0D JUMPI PUSH1 0x40 MLOAD PUSH32 0x5FC483C500000000000000000000000000000000000000000000000000000000 DUP2 MSTORE PUSH1 0x4 ADD PUSH1 0x40 MLOAD DUP1 SWAP2 SUB SWAP1 REVERT JUMPDEST PUSH1 0x1 PUSH1 0x15 PUSH0 DUP5 PUSH20 0xFFFFFFFFFFFFFFFFFFFFFFFFFFFFFFFFFFFFFFFF AND PUSH20 0xFFFFFFFFFFFFFFFFFFFFFFFFFFFFFFFFFFFFFFFF AND DUP2 MSTORE PUSH1 0x20 ADD SWAP1 DUP2 MSTORE PUSH1 0x20 ADD PUSH0 KECCAK256 PUSH0 DUP4 PUSH1 0x5 DUP2 GT ISZERO PUSH2 0xD60 JUMPI PUSH2 0xD5F PUSH2 0x42FD JUMP JUMPDEST JUMPDEST PUSH1 0x5 DUP2 GT ISZERO PUSH2 0xD72 JUMPI PUSH2 0xD71 PUSH2 0x42FD JUMP JUMPDEST JUMPDEST DUP2 MSTORE PUSH1 0x20 ADD SWAP1 DUP2 MSTORE PUSH1 0x20 ADD PUSH0 KECCAK256 PUSH0 PUSH2 0x100 EXP DUP2 SLOAD DUP2 PUSH1 0xFF MUL NOT AND SWAP1 DUP4 ISZERO ISZERO MUL OR SWAP1 SSTORE POP POP POP JUMP JUMPDEST PUSH1 0xE PUSH1 0x20 MSTORE DUP2 PUSH0 MSTORE PUSH1 0x40 PUSH0 KECCAK256 DUP2 DUP2 SLOAD DUP2 LT PUSH2 0xDB2 JUMPI PUSH0 DUP1 REVERT JUMPDEST SWAP1 PUSH0 MSTORE PUSH1 0x20 PUSH0 KECCAK256 ADD PUSH0 SWAP2 POP SWAP2 POP POP SLOAD DUP2 JUMP JUMPDEST PUSH1 0x80 DUP2 JUMP JUMPDEST PUSH1 0x4 PUSH1 0x15 PUSH0 CALLER PUSH20 0xFFFFFFFFFFFFFFFFFFFFFFFFFFFFFFFFFFFFFFFF AND PUSH20 0xFFFFFFFFFFFFFFFFFFFFFFFFFFFFFFFFFFFFFFFF AND DUP2 MSTORE PUSH1 0x20 ADD SWAP1 DUP2 MSTORE PUSH1 0x20 ADD PUSH0 KECCAK256 PUSH0 DUP3 PUSH1 0x5 DUP2 GT ISZERO PUSH2 0xE1C JUMPI PUSH2 0xE1B PUSH2 0x42FD JUMP JUMPDEST JUMPDEST PUSH1 0x5 DUP2 GT ISZERO PUSH2 0xE2E JUMPI PUSH2 0xE2D PUSH2 0x42FD JUMP JUMPDEST JUMPDEST DUP2 MSTORE PUSH1 0x20 ADD SWAP1 DUP2 MSTORE PUSH1 0x20 ADD PUSH0 KECCAK256 PUSH0 SWAP1 SLOAD SWAP1 PUSH2 0x100 EXP SWAP1 DIV PUSH1 0xFF AND DUP1 PUSH2 0xEA0 JUMPI POP PUSH1 0x16 PUSH0 SWAP1 SLOAD SWAP1 PUSH2 0x100 EXP SWAP1 DIV PUSH20 0xFFFFFFFFFFFFFFFFFFFFFFFFFFFFFFFFFFFFFFFF AND PUSH20 0xFFFFFFFFFFFFFFFFFFFFFFFFFFFFFFFFFFFFFFFF AND CALLER PUSH20 0xFFFFFFFFFFFFFFFFFFFFFFFFFFFFFFFFFFFFFFFF AND EQ ISZERO JUMPDEST PUSH2 0xED6 JUMPI PUSH1 0x40 MLOAD PUSH32 0x9D7B369D00000000000000000000000000000000000000000000000000000000 DUP2 MSTORE PUSH1 0x4 ADD PUSH1 0x40 MLOAD DUP1 SWAP2 SUB SWAP1 REVERT JUMPDEST PUSH0 PUSH1 0x2 DUP2 GT ISZERO PUSH2 0xEE9 JUMPI PUSH2 0xEE8 PUSH2 0x42FD JUMP JUMPDEST JUMPDEST PUSH1 0xA PUSH0 DUP5 DUP2 MSTORE PUSH1 0x20 ADD SWAP1 DUP2 MSTORE PUSH1 0x20 ADD PUSH0 KECCAK256 PUSH1 0x1 ADD PUSH1 0x1 SWAP1 SLOAD SWAP1 PUSH2 0x100 EXP SWAP1 DIV PUSH1 0xFF AND PUSH1 0x2 DUP2 GT ISZERO PUSH2 0xF1D JUMPI PUSH2 0xF1C PUSH2 0x42FD JUMP JUMPDEST JUMPDEST EQ PUSH2 0xF54 JUMPI PUSH1 0x40 MLOAD PUSH32 0xF525E32000000000000000000000000000000000000000000000000000000000 DUP2 MSTORE PUSH1 0x4 ADD PUSH1 0x40 MLOAD DUP1 SWAP2 SUB SWAP1 REVERT JUMPDEST PUSH1 0x1 PUSH1 0xA PUSH0 DUP5 DUP2 MSTORE PUSH1 0x20 ADD SWAP1 DUP2 MSTORE PUSH1 0x20 ADD PUSH0 KECCAK256 PUSH1 0x1 ADD PUSH1 0x1 PUSH2 0x100 EXP DUP2 SLOAD DUP2 PUSH1 0xFF MUL NOT AND SWAP1 DUP4 PUSH1 0x2 DUP2 GT ISZERO PUSH2 0xF8C JUMPI PUSH2 0xF8B PUSH2 0x42FD JUMP JUMPDEST JUMPDEST MUL OR SWAP1 SSTORE POP TIMESTAMP PUSH1 0xA PUSH0 DUP5 DUP2 MSTORE PUSH1 0x20 ADD SWAP1 DUP2 MSTORE PUSH1 0x20 ADD PUSH0 KECCAK256 PUSH1 0x6 ADD DUP2 SWAP1 SSTORE POP PUSH1 0x3 DUP1 DUP2 GT ISZERO PUSH2 0xFBD JUMPI PUSH2 0xFBC PUSH2 0x42FD JUMP JUMPDEST JUMPDEST PUSH1 0xA PUSH0 DUP5 DUP2 MSTORE PUSH1 0x20 ADD SWAP1 DUP2 MSTORE PUSH1 0x20 ADD PUSH0 KECCAK256 PUSH1 0x1 ADD PUSH0 SWAP1 SLOAD SWAP1 PUSH2 0x100 EXP SWAP1 DIV PUSH1 0xFF AND PUSH1 0x3 DUP2 GT ISZERO PUSH2 0xFF0 JUMPI PUSH2 0xFEF PUSH2 0x42FD JUMP JUMPDEST JUMPDEST SUB PUSH2 0x10FD JUMPI PUSH0 PUSH1 0x13 PUSH0 DUP5 DUP2 MSTORE PUSH1 0x20 ADD SWAP1 DUP2 MSTORE PUSH1 0x20 ADD PUSH0 KECCAK256 DUP1 SLOAD DUP1 PUSH1 0x20 MUL PUSH1 0x20 ADD PUSH1 0x40 MLOAD SWAP1 DUP2 ADD PUSH1 0x40 MSTORE DUP1 SWAP3 SWAP2 SWAP1 DUP2 DUP2 MSTORE PUSH1 0x20 ADD DUP3 DUP1 SLOAD DUP1 ISZERO PUSH2 0x104F JUMPI PUSH1 0x20 MUL DUP3 ADD SWAP2 SWAP1 PUSH0 MSTORE PUSH1 0x20 PUSH0 KECCAK256 SWAP1 JUMPDEST DUP2 SLOAD DUP2 MSTORE PUSH1 0x20 ADD SWAP1 PUSH1 0x1 ADD SWAP1 DUP1 DUP4 GT PUSH2 0x103B JUMPI JUMPDEST POP POP POP POP POP SWAP1 POP PUSH0 PUSH0 SWAP1 POP JUMPDEST DUP2 MLOAD DUP2 LT ISZERO PUSH2 0x10FA JUMPI DUP4 PUSH1 0x6 PUSH0 DUP5 DUP5 DUP2 MLOAD DUP2 LT PUSH2 0x107B JUMPI PUSH2 0x107A PUSH2 0x4CC3 JUMP JUMPDEST JUMPDEST PUSH1 0x20 MUL PUSH1 0x20 ADD ADD MLOAD DUP2 MSTORE PUSH1 0x20 ADD SWAP1 DUP2 MSTORE PUSH1 0x20 ADD PUSH0 KECCAK256 PUSH1 0x4 ADD DUP2 SWAP1 SSTORE POP PUSH1 0x1 PUSH1 0x6 PUSH0 DUP5 DUP5 DUP2 MLOAD DUP2 LT PUSH2 0x10AF JUMPI PUSH2 0x10AE PUSH2 0x4CC3 JUMP JUMPDEST JUMPDEST PUSH1 0x20 MUL PUSH1 0x20 ADD ADD MLOAD DUP2 MSTORE PUSH1 0x20 ADD SWAP1 DUP2 MSTORE PUSH1 0x20 ADD PUSH0 KECCAK256 PUSH1 0x6 ADD PUSH0 PUSH2 0x100 EXP DUP2 SLOAD DUP2 PUSH1 0xFF MUL NOT AND SWAP1 DUP4 PUSH1 0x1 DUP2 GT ISZERO PUSH2 0x10E8 JUMPI PUSH2 0x10E7 PUSH2 0x42FD JUMP JUMPDEST JUMPDEST MUL OR SWAP1 SSTORE POP DUP1 DUP1 PUSH1 0x1 ADD SWAP2 POP POP PUSH2 0x105B JUMP JUMPDEST POP POP JUMPDEST POP POP JUMP JUMPDEST PUSH1 0x2 PUSH1 0x15 PUSH0 CALLER PUSH20 0xFFFFFFFFFFFFFFFFFFFFFFFFFFFFFFFFFFFFFFFF AND PUSH20 0xFFFFFFFFFFFFFFFFFFFFFFFFFFFFFFFFFFFFFFFF AND DUP2 MSTORE PUSH1 0x20 ADD SWAP1 DUP2 MSTORE PUSH1 0x20 ADD PUSH0 KECCAK256 PUSH0 DUP3 PUSH1 0x5 DUP2 GT ISZERO PUSH2 0x1154 JUMPI PUSH2 0x1153 PUSH2 0x42FD JUMP JUMPDEST JUMPDEST PUSH1 0x5 DUP2 GT ISZERO PUSH2 0x1166 JUMPI PUSH2 0x1165 PUSH2 0x42FD JUMP JUMPDEST JUMPDEST DUP2 MSTORE PUSH1 0x20 ADD SWAP1 DUP2 MSTORE PUSH1 0x20 ADD PUSH0 KECCAK256 PUSH0 SWAP1 SLOAD SWAP1 PUSH2 0x100 EXP SWAP1 DIV PUSH1 0xFF AND DUP1 PUSH2 0x11D8 JUMPI POP PUSH1 0x16 PUSH0 SWAP1 SLOAD SWAP1 PUSH2 0x100 EXP SWAP1 DIV PUSH20 0xFFFFFFFFFFFFFFFFFFFFFFFFFFFFFFFFFFFFFFFF AND PUSH20 0xFFFFFFFFFFFFFFFFFFFFFFFFFFFFFFFFFFFFFFFF AND CALLER PUSH20 0xFFFFFFFFFFFFFFFFFFFFFFFFFFFFFFFFFFFFFFFF AND EQ ISZERO JUMPDEST PUSH2 0x120E JUMPI PUSH1 0x40 MLOAD PUSH32 0x9D7B369D00000000000000000000000000000000000000000000000000000000 DUP2 MSTORE PUSH1 0x4 ADD PUSH1 0x40 MLOAD DUP1 SWAP2 SUB SWAP1 REVERT JUMPDEST PUSH0 PUSH1 0x2 DUP2 GT ISZERO PUSH2 0x1221 JUMPI PUSH2 0x1220 PUSH2 0x42FD JUMP JUMPDEST JUMPDEST PUSH1 0x8 PUSH0 DUP5 DUP2 MSTORE PUSH1 0x20 ADD SWAP1 DUP2 MSTORE PUSH1 0x20 ADD PUSH0 KECCAK256 PUSH1 0x2 ADD PUSH0 SWAP1 SLOAD SWAP1 PUSH2 0x100 EXP SWAP1 DIV PUSH1 0xFF AND PUSH1 0x2 DUP2 GT ISZERO PUSH2 0x1254 JUMPI PUSH2 0x1253 PUSH2 0x42FD JUMP JUMPDEST JUMPDEST EQ PUSH2 0x128B JUMPI PUSH1 0x40 MLOAD PUSH32 0xF525E32000000000000000000000000000000000000000000000000000000000 DUP2 MSTORE PUSH1 0x4 ADD PUSH1 0x40 MLOAD DUP1 SWAP2 SUB SWAP1 REVERT JUMPDEST PUSH1 0x1 PUSH1 0x8 PUSH0 DUP5 DUP2 MSTORE PUSH1 0x20 ADD SWAP1 DUP2 MSTORE PUSH1 0x20 ADD PUSH0 KECCAK256 PUSH1 0x2 ADD PUSH0 PUSH2 0x100 EXP DUP2 SLOAD DUP2 PUSH1 0xFF MUL NOT AND SWAP1 DUP4 PUSH1 0x2 DUP2 GT ISZERO PUSH2 0x12C2 JUMPI PUSH2 0x12C1 PUSH2 0x42FD JUMP JUMPDEST JUMPDEST MUL OR SWAP1 SSTORE POP TIMESTAMP PUSH1 0x8 PUSH0 DUP5 DUP2 MSTORE PUSH1 0x20 ADD SWAP1 DUP2 MSTORE PUSH1 0x20 ADD PUSH0 KECCAK256 PUSH1 0x6 ADD DUP2 SWAP1 SSTORE POP POP POP JUMP JUMPDEST CALLER PUSH20 0xFFFFFFFFFFFFFFFFFFFFFFFFFFFFFFFFFFFFFFFF AND PUSH1 0x6 PUSH0 DUP5 DUP2 MSTORE PUSH1 0x20 ADD SWAP1 DUP2 MSTORE PUSH1 0x20 ADD PUSH0 KECCAK256 PUSH1 0x8 ADD PUSH0 SWAP1 SLOAD SWAP1 PUSH2 0x100 EXP SWAP1 DIV PUSH20 0xFFFFFFFFFFFFFFFFFFFFFFFFFFFFFFFFFFFFFFFF AND PUSH20 0xFFFFFFFFFFFFFFFFFFFFFFFFFFFFFFFFFFFFFFFF AND EQ PUSH2 0x137C JUMPI PUSH1 0x40 MLOAD PUSH32 0x9D7B369D00000000000000000000000000000000000000000000000000000000 DUP2 MSTORE PUSH1 0x4 ADD PUSH1 0x40 MLOAD DUP1 SWAP2 SUB SWAP1 REVERT JUMPDEST PUSH0 PUSH1 0x6 PUSH0 DUP4 DUP2 MSTORE PUSH1 0x20 ADD SWAP1 DUP2 MSTORE PUSH1 0x20 ADD PUSH0 KECCAK256 PUSH0 ADD SLOAD SUB PUSH2 0x13C8 JUMPI PUSH1 0x40 MLOAD PUSH32 0xC5723B5100000000000000000000000000000000000000000000000000000000 DUP2 MSTORE PUSH1 0x4 ADD PUSH1 0x40 MLOAD DUP1 SWAP2 SUB SWAP1 REVERT JUMPDEST PUSH2 0x3E8 PUSH1 0xC PUSH0 DUP5 DUP2 MSTORE PUSH1 0x20 ADD SWAP1 DUP2 MSTORE PUSH1 0x20 ADD PUSH0 KECCAK256 DUP1 SLOAD SWAP1 POP LT PUSH2 0x1417 JUMPI PUSH1 0x40 MLOAD PUSH32 0x4F2A111200000000000000000000000000000000000000000000000000000000 DUP2 MSTORE PUSH1 0x4 ADD PUSH1 0x40 MLOAD DUP1 SWAP2 SUB SWAP1 REVERT JUMPDEST PUSH1 0xC PUSH0 DUP4 DUP2 MSTORE PUSH1 0x20 ADD SWAP1 DUP2 MSTORE PUSH1 0x20 ADD PUSH0 KECCAK256 DUP2 SWAP1 DUP1 PUSH1 0x1 DUP2 SLOAD ADD DUP1 DUP3 SSTORE DUP1 SWAP2 POP POP PUSH1 0x1 SWAP1 SUB SWAP1 PUSH0 MSTORE PUSH1 0x20 PUSH0 KECCAK256 ADD PUSH0 SWAP1 SWAP2 SWAP1 SWAP2 SWAP1 SWAP2 POP SSTORE PUSH1 0x1 PUSH1 0x14 PUSH0 DUP4 DUP2 MSTORE PUSH1 0x20 ADD SWAP1 DUP2 MSTORE PUSH1 0x20 ADD PUSH0 KECCAK256 PUSH0 PUSH2 0x100 EXP DUP2 SLOAD DUP2 PUSH1 0xFF MUL NOT AND SWAP1 DUP4 ISZERO ISZERO MUL OR SWAP1 SSTORE POP POP POP JUMP JUMPDEST PUSH1 0xC PUSH1 0x20 MSTORE DUP2 PUSH0 MSTORE PUSH1 0x40 PUSH0 KECCAK256 DUP2 DUP2 SLOAD DUP2 LT PUSH2 0x1492 JUMPI PUSH0 DUP1 REVERT JUMPDEST SWAP1 PUSH0 MSTORE PUSH1 0x20 PUSH0 KECCAK256 ADD PUSH0 SWAP2 POP SWAP2 POP POP SLOAD DUP2 JUMP JUMPDEST PUSH0 PUSH1 0x4 PUSH1 0x15 PUSH0 CALLER PUSH20 0xFFFFFFFFFFFFFFFFFFFFFFFFFFFFFFFFFFFFFFFF AND PUSH20 0xFFFFFFFFFFFFFFFFFFFFFFFFFFFFFFFFFFFFFFFF AND DUP2 MSTORE PUSH1 0x20 ADD SWAP1 DUP2 MSTORE PUSH1 0x20 ADD PUSH0 KECCAK256 PUSH0 DUP3 PUSH1 0x5 DUP2 GT ISZERO PUSH2 0x14F8 JUMPI PUSH2 0x14F7 PUSH2 0x42FD JUMP JUMPDEST JUMPDEST PUSH1 0x5 DUP2 GT ISZERO PUSH2 0x150A JUMPI PUSH2 0x1509 PUSH2 0x42FD JUMP JUMPDEST JUMPDEST DUP2 MSTORE PUSH1 0x20 ADD SWAP1 DUP2 MSTORE PUSH1 0x20 ADD PUSH0 KECCAK256 PUSH0 SWAP1 SLOAD SWAP1 PUSH2 0x100 EXP SWAP1 DIV PUSH1 0xFF AND DUP1 PUSH2 0x157C JUMPI POP PUSH1 0x16 PUSH0 SWAP1 SLOAD SWAP1 PUSH2 0x100 EXP SWAP1 DIV PUSH20 0xFFFFFFFFFFFFFFFFFFFFFFFFFFFFFFFFFFFFFFFF AND PUSH20 0xFFFFFFFFFFFFFFFFFFFFFFFFFFFFFFFFFFFFFFFF AND CALLER PUSH20 0xFFFFFFFFFFFFFFFFFFFFFFFFFFFFFFFFFFFFFFFF AND EQ ISZERO JUMPDEST PUSH2 0x15B2 JUMPI PUSH1 0x40 MLOAD PUSH32 0x9D7B369D00000000000000000000000000000000000000000000000000000000 DUP2 MSTORE PUSH1 0x4 ADD PUSH1 0x40 MLOAD DUP1 SWAP2 SUB SWAP1 REVERT JUMPDEST PUSH1 0x3 DUP1 DUP2 GT ISZERO PUSH2 0x15C5 JUMPI PUSH2 0x15C4 PUSH2 0x42FD JUMP JUMPDEST JUMPDEST DUP8 PUSH1 0x3 DUP2 GT ISZERO PUSH2 0x15D8 JUMPI PUSH2 0x15D7 PUSH2 0x42FD JUMP JUMPDEST JUMPDEST SUB PUSH2 0x1676 JUMPI PUSH0 PUSH1 0xB PUSH0 DUP9 DUP2 MSTORE PUSH1 0x20 ADD SWAP1 DUP2 MSTORE PUSH1 0x20 ADD PUSH0 KECCAK256 PUSH0 ADD SLOAD SUB PUSH2 0x1629 JUMPI PUSH1 0x40 MLOAD PUSH32 0xF80F144500000000000000000000000000000000000000000000000000000000 DUP2 MSTORE PUSH1 0x4 ADD PUSH1 0x40 MLOAD DUP1 SWAP2 SUB SWAP1 REVERT JUMPDEST PUSH0 PUSH1 0xB PUSH0 DUP8 DUP2 MSTORE PUSH1 0x20 ADD SWAP1 DUP2 MSTORE PUSH1 0x20 ADD PUSH0 KECCAK256 PUSH0 ADD SLOAD SUB PUSH2 0x1675 JUMPI PUSH1 0x40 MLOAD PUSH32 0xF80F144500000000000000000000000000000000000000000000000000000000 DUP2 MSTORE PUSH1 0x4 ADD PUSH1 0x40 MLOAD DUP1 SWAP2 SUB SWAP1 REVERT JUMPDEST JUMPDEST PUSH0 PUSH1 0x4 PUSH0 DUP2 SLOAD DUP1 SWAP3 SWAP2 SWAP1 PUSH2 0x1689 SWAP1 PUSH2 0x4D1D JUMP JUMPDEST SWAP2 SWAP1 POP SSTORE SWAP1 POP PUSH1 0x40 MLOAD DUP1 PUSH2 0x160 ADD PUSH1 0x40 MSTORE DUP1 DUP3 DUP2 MSTORE PUSH1 0x20 ADD DUP10 PUSH1 0x3 DUP2 GT ISZERO PUSH2 0x16B4 JUMPI PUSH2 0x16B3 PUSH2 0x42FD JUMP JUMPDEST JUMPDEST DUP2 MSTORE PUSH1 0x20 ADD PUSH0 PUSH1 0x2 DUP2 GT ISZERO PUSH2 0x16CC JUMPI PUSH2 0x16CB PUSH2 0x42FD JUMP JUMPDEST JUMPDEST DUP2 MSTORE PUSH1 0x20 ADD DUP9 DUP2 MSTORE PUSH1 0x20 ADD DUP8 DUP2 MSTORE PUSH1 0x20 ADD DUP7 DUP2 MSTORE PUSH1 0x20 ADD DUP6 DUP2 MSTORE PUSH1 0x20 ADD PUSH0 DUP2 MSTORE PUSH1 0x20 ADD PUSH0 DUP2 MSTORE PUSH1 0x20 ADD TIMESTAMP DUP2 MSTORE PUSH1 0x20 ADD CALLER PUSH20 0xFFFFFFFFFFFFFFFFFFFFFFFFFFFFFFFFFFFFFFFF AND DUP2 MSTORE POP PUSH1 0xA PUSH0 DUP4 DUP2 MSTORE PUSH1 0x20 ADD SWAP1 DUP2 MSTORE PUSH1 0x20 ADD PUSH0 KECCAK256 PUSH0 DUP3 ADD MLOAD DUP2 PUSH0 ADD SSTORE PUSH1 0x20 DUP3 ADD MLOAD DUP2 PUSH1 0x1 ADD PUSH0 PUSH2 0x100 EXP DUP2 SLOAD DUP2 PUSH1 0xFF MUL NOT AND SWAP1 DUP4 PUSH1 0x3 DUP2 GT ISZERO PUSH2 0x1758 JUMPI PUSH2 0x1757 PUSH2 0x42FD JUMP JUMPDEST JUMPDEST MUL OR SWAP1 SSTORE POP PUSH1 0x40 DUP3 ADD MLOAD DUP2 PUSH1 0x1 ADD PUSH1 0x1 PUSH2 0x100 EXP DUP2 SLOAD DUP2 PUSH1 0xFF MUL NOT AND SWAP1 DUP4 PUSH1 0x2 DUP2 GT ISZERO PUSH2 0x1788 JUMPI PUSH2 0x1787 PUSH2 0x42FD JUMP JUMPDEST JUMPDEST MUL OR SWAP1 SSTORE POP PUSH1 0x60 DUP3 ADD MLOAD DUP2 PUSH1 0x2 ADD SSTORE PUSH1 0x80 DUP3 ADD MLOAD DUP2 PUSH1 0x3 ADD SSTORE PUSH1 0xA0 DUP3 ADD MLOAD DUP2 PUSH1 0x4 ADD SSTORE PUSH1 0xC0 DUP3 ADD MLOAD DUP2 PUSH1 0x5 ADD SSTORE PUSH1 0xE0 DUP3 ADD MLOAD DUP2 PUSH1 0x6 ADD SSTORE PUSH2 0x100 DUP3 ADD MLOAD DUP2 PUSH1 0x7 ADD SSTORE PUSH2 0x120 DUP3 ADD MLOAD DUP2 PUSH1 0x8 ADD SSTORE PUSH2 0x140 DUP3 ADD MLOAD DUP2 PUSH1 0x9 ADD PUSH0 PUSH2 0x100 EXP DUP2 SLOAD DUP2 PUSH20 0xFFFFFFFFFFFFFFFFFFFFFFFFFFFFFFFFFFFFFFFF MUL NOT AND SWAP1 DUP4 PUSH20 0xFFFFFFFFFFFFFFFFFFFFFFFFFFFFFFFFFFFFFFFF AND MUL OR SWAP1 SSTORE POP SWAP1 POP POP DUP1 SWAP3 POP POP POP SWAP6 SWAP5 POP POP POP POP POP JUMP JUMPDEST PUSH1 0x5 SLOAD DUP2 JUMP JUMPDEST PUSH1 0xA PUSH1 0x20 MSTORE DUP1 PUSH0 MSTORE PUSH1 0x40 PUSH0 KECCAK256 PUSH0 SWAP2 POP SWAP1 POP DUP1 PUSH0 ADD SLOAD SWAP1 DUP1 PUSH1 0x1 ADD PUSH0 SWAP1 SLOAD SWAP1 PUSH2 0x100 EXP SWAP1 DIV PUSH1 0xFF AND SWAP1 DUP1 PUSH1 0x1 ADD PUSH1 0x1 SWAP1 SLOAD SWAP1 PUSH2 0x100 EXP SWAP1 DIV PUSH1 0xFF AND SWAP1 DUP1 PUSH1 0x2 ADD SLOAD SWAP1 DUP1 PUSH1 0x3 ADD SLOAD SWAP1 DUP1 PUSH1 0x4 ADD SLOAD SWAP1 DUP1 PUSH1 0x5 ADD SLOAD SWAP1 DUP1 PUSH1 0x6 ADD SLOAD SWAP1 DUP1 PUSH1 0x7 ADD SLOAD SWAP1 DUP1 PUSH1 0x8 ADD SLOAD SWAP1 DUP1 PUSH1 0x9 ADD PUSH0 SWAP1 SLOAD SWAP1 PUSH2 0x100 EXP SWAP1 DIV PUSH20 0xFFFFFFFFFFFFFFFFFFFFFFFFFFFFFFFFFFFFFFFF AND SWAP1 POP DUP12 JUMP JUMPDEST PUSH0 PUSH0 PUSH1 0x15 PUSH0 CALLER PUSH20 0xFFFFFFFFFFFFFFFFFFFFFFFFFFFFFFFFFFFFFFFF AND PUSH20 0xFFFFFFFFFFFFFFFFFFFFFFFFFFFFFFFFFFFFFFFF AND DUP2 MSTORE PUSH1 0x20 ADD SWAP1 DUP2 MSTORE PUSH1 0x20 ADD PUSH0 KECCAK256 PUSH0 DUP3 PUSH1 0x5 DUP2 GT ISZERO PUSH2 0x1914 JUMPI PUSH2 0x1913 PUSH2 0x42FD JUMP JUMPDEST JUMPDEST PUSH1 0x5 DUP2 GT ISZERO PUSH2 0x1926 JUMPI PUSH2 0x1925 PUSH2 0x42FD JUMP JUMPDEST JUMPDEST DUP2 MSTORE PUSH1 0x20 ADD SWAP1 DUP2 MSTORE PUSH1 0x20 ADD PUSH0 KECCAK256 PUSH0 SWAP1 SLOAD SWAP1 PUSH2 0x100 EXP SWAP1 DIV PUSH1 0xFF AND DUP1 PUSH2 0x1998 JUMPI POP PUSH1 0x16 PUSH0 SWAP1 SLOAD SWAP1 PUSH2 0x100 EXP SWAP1 DIV PUSH20 0xFFFFFFFFFFFFFFFFFFFFFFFFFFFFFFFFFFFFFFFF AND PUSH20 0xFFFFFFFFFFFFFFFFFFFFFFFFFFFFFFFFFFFFFFFF AND CALLER PUSH20 0xFFFFFFFFFFFFFFFFFFFFFFFFFFFFFFFFFFFFFFFF AND EQ ISZERO JUMPDEST PUSH2 0x19CE JUMPI PUSH1 0x40 MLOAD PUSH32 0x9D7B369D00000000000000000000000000000000000000000000000000000000 DUP2 MSTORE PUSH1 0x4 ADD PUSH1 0x40 MLOAD DUP1 SWAP2 SUB SWAP1 REVERT JUMPDEST DUP7 PUSH1 0x80 DUP2 MLOAD GT ISZERO PUSH2 0x1A0B JUMPI PUSH1 0x40 MLOAD PUSH32 0xB11B2AD800000000000000000000000000000000000000000000000000000000 DUP2 MSTORE PUSH1 0x4 ADD PUSH1 0x40 MLOAD DUP1 SWAP2 SUB SWAP1 REVERT JUMPDEST PUSH0 PUSH1 0x7 PUSH0 DUP10 DUP2 MSTORE PUSH1 0x20 ADD SWAP1 DUP2 MSTORE PUSH1 0x20 ADD PUSH0 KECCAK256 PUSH0 ADD SLOAD SUB PUSH2 0x1A57 JUMPI PUSH1 0x40 MLOAD PUSH32 0xC5723B5100000000000000000000000000000000000000000000000000000000 DUP2 MSTORE PUSH1 0x4 ADD PUSH1 0x40 MLOAD DUP1 SWAP2 SUB SWAP1 REVERT JUMPDEST PUSH0 DUP6 EQ ISZERO DUP1 ISZERO PUSH2 0x1A79 JUMPI POP PUSH0 PUSH1 0xA PUSH0 DUP8 DUP2 MSTORE PUSH1 0x20 ADD SWAP1 DUP2 MSTORE PUSH1 0x20 ADD PUSH0 KECCAK256 PUSH0 ADD SLOAD EQ JUMPDEST ISZERO PUSH2 0x1AB0 JUMPI PUSH1 0x40 MLOAD PUSH32 0xC5723B5100000000000000000000000000000000000000000000000000000000 DUP2 MSTORE PUSH1 0x4 ADD PUSH1 0x40 MLOAD DUP1 SWAP2 SUB SWAP1 REVERT JUMPDEST PUSH0 DUP5 EQ ISZERO DUP1 ISZERO PUSH2 0x1AD2 JUMPI POP PUSH0 PUSH1 0xB PUSH0 DUP7 DUP2 MSTORE PUSH1 0x20 ADD SWAP1 DUP2 MSTORE PUSH1 0x20 ADD PUSH0 KECCAK256 PUSH0 ADD SLOAD EQ JUMPDEST ISZERO PUSH2 0x1B09 JUMPI PUSH1 0x40 MLOAD PUSH32 0xC5723B5100000000000000000000000000000000000000000000000000000000 DUP2 MSTORE PUSH1 0x4 ADD PUSH1 0x40 MLOAD DUP1 SWAP2 SUB SWAP1 REVERT JUMPDEST PUSH0 PUSH0 PUSH0 DUP2 SLOAD DUP1 SWAP3 SWAP2 SWAP1 PUSH2 0x1B1B SWAP1 PUSH2 0x4D1D JUMP JUMPDEST SWAP2 SWAP1 POP SSTORE SWAP1 POP PUSH1 0x40 MLOAD DUP1 PUSH2 0x120 ADD PUSH1 0x40 MSTORE DUP1 DUP3 DUP2 MSTORE PUSH1 0x20 ADD DUP11 DUP2 MSTORE PUSH1 0x20 ADD DUP10 DUP2 MSTORE PUSH1 0x20 ADD DUP7 DUP2 MSTORE PUSH1 0x20 ADD PUSH0 DUP2 MSTORE PUSH1 0x20 ADD DUP8 DUP2 MSTORE PUSH1 0x20 ADD DUP9 PUSH1 0x1 DUP2 GT ISZERO PUSH2 0x1B64 JUMPI PUSH2 0x1B63 PUSH2 0x42FD JUMP JUMPDEST JUMPDEST DUP2 MSTORE PUSH1 0x20 ADD TIMESTAMP DUP2 MSTORE PUSH1 0x20 ADD CALLER PUSH20 0xFFFFFFFFFFFFFFFFFFFFFFFFFFFFFFFFFFFFFFFF AND DUP2 MSTORE POP PUSH1 0x6 PUSH0 DUP4 DUP2 MSTORE PUSH1 0x20 ADD SWAP1 DUP2 MSTORE PUSH1 0x20 ADD PUSH0 KECCAK256 PUSH0 DUP3 ADD MLOAD DUP2 PUSH0 ADD SSTORE PUSH1 0x20 DUP3 ADD MLOAD DUP2 PUSH1 0x1 ADD SWAP1 DUP2 PUSH2 0x1BB7 SWAP2 SWAP1 PUSH2 0x4F61 JUMP JUMPDEST POP PUSH1 0x40 DUP3 ADD MLOAD DUP2 PUSH1 0x2 ADD SSTORE PUSH1 0x60 DUP3 ADD MLOAD DUP2 PUSH1 0x3 ADD SSTORE PUSH1 0x80 DUP3 ADD MLOAD DUP2 PUSH1 0x4 ADD SSTORE PUSH1 0xA0 DUP3 ADD MLOAD DUP2 PUSH1 0x5 ADD SSTORE PUSH1 0xC0 DUP3 ADD MLOAD DUP2 PUSH1 0x6 ADD PUSH0 PUSH2 0x100 EXP DUP2 SLOAD DUP2 PUSH1 0xFF MUL NOT AND SWAP1 DUP4 PUSH1 0x1 DUP2 GT ISZERO PUSH2 0x1C0A JUMPI PUSH2 0x1C09 PUSH2 0x42FD JUMP JUMPDEST JUMPDEST MUL OR SWAP1 SSTORE POP PUSH1 0xE0 DUP3 ADD MLOAD DUP2 PUSH1 0x7 ADD SSTORE PUSH2 0x100 DUP3 ADD MLOAD DUP2 PUSH1 0x8 ADD PUSH0 PUSH2 0x100 EXP DUP2 SLOAD DUP2 PUSH20 0xFFFFFFFFFFFFFFFFFFFFFFFFFFFFFFFFFFFFFFFF MUL NOT AND SWAP1 DUP4 PUSH20 0xFFFFFFFFFFFFFFFFFFFFFFFFFFFFFFFFFFFFFFFF AND MUL OR SWAP1 SSTORE POP SWAP1 POP POP DUP1 SWAP4 POP POP POP POP SWAP6 SWAP5 POP POP POP POP POP JUMP JUMPDEST PUSH1 0x9 PUSH1 0x20 MSTORE DUP1 PUSH0 MSTORE PUSH1 0x40 PUSH0 KECCAK256 PUSH0 SWAP2 POP SWAP1 POP DUP1 PUSH0 ADD SLOAD SWAP1 DUP1 PUSH1 0x1 ADD DUP1 SLOAD PUSH2 0x1C97 SWAP1 PUSH2 0x4D91 JUMP JUMPDEST DUP1 PUSH1 0x1F ADD PUSH1 0x20 DUP1 SWAP2 DIV MUL PUSH1 0x20 ADD PUSH1 0x40 MLOAD SWAP1 DUP2 ADD PUSH1 0x40 MSTORE DUP1 SWAP3 SWAP2 SWAP1 DUP2 DUP2 MSTORE PUSH1 0x20 ADD DUP3 DUP1 SLOAD PUSH2 0x1CC3 SWAP1 PUSH2 0x4D91 JUMP JUMPDEST DUP1 ISZERO PUSH2 0x1D0E JUMPI DUP1 PUSH1 0x1F LT PUSH2 0x1CE5 JUMPI PUSH2 0x100 DUP1 DUP4 SLOAD DIV MUL DUP4 MSTORE SWAP2 PUSH1 0x20 ADD SWAP2 PUSH2 0x1D0E JUMP JUMPDEST DUP3 ADD SWAP2 SWAP1 PUSH0 MSTORE PUSH1 0x20 PUSH0 KECCAK256 SWAP1 JUMPDEST DUP2 SLOAD DUP2 MSTORE SWAP1 PUSH1 0x1 ADD SWAP1 PUSH1 0x20 ADD DUP1 DUP4 GT PUSH2 0x1CF1 JUMPI DUP3 SWAP1 SUB PUSH1 0x1F AND DUP3 ADD SWAP2 JUMPDEST POP POP POP POP POP SWAP1 DUP1 PUSH1 0x2 ADD SLOAD SWAP1 DUP1 PUSH1 0x3 ADD PUSH0 SWAP1 SLOAD SWAP1 PUSH2 0x100 EXP SWAP1 DIV PUSH20 0xFFFFFFFFFFFFFFFFFFFFFFFFFFFFFFFFFFFFFFFF AND SWAP1 POP DUP5 JUMP JUMPDEST PUSH1 0x4 PUSH1 0x15 PUSH0 CALLER PUSH20 0xFFFFFFFFFFFFFFFFFFFFFFFFFFFFFFFFFFFFFFFF AND PUSH20 0xFFFFFFFFFFFFFFFFFFFFFFFFFFFFFFFFFFFFFFFF AND DUP2 MSTORE PUSH1 0x20 ADD SWAP1 DUP2 MSTORE PUSH1 0x20 ADD PUSH0 KECCAK256 PUSH0 DUP3 PUSH1 0x5 DUP2 GT ISZERO PUSH2 0x1D96 JUMPI PUSH2 0x1D95 PUSH2 0x42FD JUMP JUMPDEST JUMPDEST PUSH1 0x5 DUP2 GT ISZERO PUSH2 0x1DA8 JUMPI PUSH2 0x1DA7 PUSH2 0x42FD JUMP JUMPDEST JUMPDEST DUP2 MSTORE PUSH1 0x20 ADD SWAP1 DUP2 MSTORE PUSH1 0x20 ADD PUSH0 KECCAK256 PUSH0 SWAP1 SLOAD SWAP1 PUSH2 0x100 EXP SWAP1 DIV PUSH1 0xFF AND DUP1 PUSH2 0x1E1A JUMPI POP PUSH1 0x16 PUSH0 SWAP1 SLOAD SWAP1 PUSH2 0x100 EXP SWAP1 DIV PUSH20 0xFFFFFFFFFFFFFFFFFFFFFFFFFFFFFFFFFFFFFFFF AND PUSH20 0xFFFFFFFFFFFFFFFFFFFFFFFFFFFFFFFFFFFFFFFF AND CALLER PUSH20 0xFFFFFFFFFFFFFFFFFFFFFFFFFFFFFFFFFFFFFFFF AND EQ ISZERO JUMPDEST PUSH2 0x1E50 JUMPI PUSH1 0x40 MLOAD PUSH32 0x9D7B369D00000000000000000000000000000000000000000000000000000000 DUP2 MSTORE PUSH1 0x4 ADD PUSH1 0x40 MLOAD DUP1 SWAP2 SUB SWAP1 REVERT JUMPDEST PUSH1 0x1 PUSH1 0x2 DUP2 GT ISZERO PUSH2 0x1E64 JUMPI PUSH2 0x1E63 PUSH2 0x42FD JUMP JUMPDEST JUMPDEST PUSH1 0xA PUSH0 DUP5 DUP2 MSTORE PUSH1 0x20 ADD SWAP1 DUP2 MSTORE PUSH1 0x20 ADD PUSH0 KECCAK256 PUSH1 0x1 ADD PUSH1 0x1 SWAP1 SLOAD SWAP1 PUSH2 0x100 EXP SWAP1 DIV PUSH1 0xFF AND PUSH1 0x2 DUP2 GT ISZERO PUSH2 0x1E98 JUMPI PUSH2 0x1E97 PUSH2 0x42FD JUMP JUMPDEST JUMPDEST EQ PUSH2 0x1ECF JUMPI PUSH1 0x40 MLOAD PUSH32 0xF525E32000000000000000000000000000000000000000000000000000000000 DUP2 MSTORE PUSH1 0x4 ADD PUSH1 0x40 MLOAD DUP1 SWAP2 SUB SWAP1 REVERT JUMPDEST PUSH1 0x2 PUSH1 0xA PUSH0 DUP5 DUP2 MSTORE PUSH1 0x20 ADD SWAP1 DUP2 MSTORE PUSH1 0x20 ADD PUSH0 KECCAK256 PUSH1 0x1 ADD PUSH1 0x1 PUSH2 0x100 EXP DUP2 SLOAD DUP2 PUSH1 0xFF MUL NOT AND SWAP1 DUP4 PUSH1 0x2 DUP2 GT ISZERO PUSH2 0x1F07 JUMPI PUSH2 0x1F06 PUSH2 0x42FD JUMP JUMPDEST JUMPDEST MUL OR SWAP1 SSTORE POP TIMESTAMP PUSH1 0xA PUSH0 DUP5 DUP2 MSTORE PUSH1 0x20 ADD SWAP1 DUP2 MSTORE PUSH1 0x20 ADD PUSH0 KECCAK256 PUSH1 0x7 ADD DUP2 SWAP1 SSTORE POP PUSH1 0x3 DUP1 DUP2 GT ISZERO PUSH2 0x1F38 JUMPI PUSH2 0x1F37 PUSH2 0x42FD JUMP JUMPDEST JUMPDEST PUSH1 0xA PUSH0 DUP5 DUP2 MSTORE PUSH1 0x20 ADD SWAP1 DUP2 MSTORE PUSH1 0x20 ADD PUSH0 KECCAK256 PUSH1 0x1 ADD PUSH0 SWAP1 SLOAD SWAP1 PUSH2 0x100 EXP SWAP1 DIV PUSH1 0xFF AND PUSH1 0x3 DUP2 GT ISZERO PUSH2 0x1F6B JUMPI PUSH2 0x1F6A PUSH2 0x42FD JUMP JUMPDEST JUMPDEST SUB PUSH2 0x20FB JUMPI PUSH0 PUSH1 0x13 PUSH0 DUP5 DUP2 MSTORE PUSH1 0x20 ADD SWAP1 DUP2 MSTORE PUSH1 0x20 ADD PUSH0 KECCAK256 DUP1 SLOAD DUP1 PUSH1 0x20 MUL PUSH1 0x20 ADD PUSH1 0x40 MLOAD SWAP1 DUP2 ADD PUSH1 0x40 MSTORE DUP1 SWAP3 SWAP2 SWAP1 DUP2 DUP2 MSTORE PUSH1 0x20 ADD DUP3 DUP1 SLOAD DUP1 ISZERO PUSH2 0x1FCA JUMPI PUSH1 0x20 MUL DUP3 ADD SWAP2 SWAP1 PUSH0 MSTORE PUSH1 0x20 PUSH0 KECCAK256 SWAP1 JUMPDEST DUP2 SLOAD DUP2 MSTORE PUSH1 0x20 ADD SWAP1 PUSH1 0x1 ADD SWAP1 DUP1 DUP4 GT PUSH2 0x1FB6 JUMPI JUMPDEST POP POP POP POP POP SWAP1 POP PUSH0 PUSH0 SWAP1 POP JUMPDEST DUP2 MLOAD DUP2 LT ISZERO PUSH2 0x20F8 JUMPI PUSH1 0xA PUSH0 DUP6 DUP2 MSTORE PUSH1 0x20 ADD SWAP1 DUP2 MSTORE PUSH1 0x20 ADD PUSH0 KECCAK256 PUSH1 0x3 ADD SLOAD PUSH1 0x6 PUSH0 DUP5 DUP5 DUP2 MLOAD DUP2 LT PUSH2 0x200A JUMPI PUSH2 0x2009 PUSH2 0x4CC3 JUMP JUMPDEST JUMPDEST PUSH1 0x20 MUL PUSH1 0x20 ADD ADD MLOAD DUP2 MSTORE PUSH1 0x20 ADD SWAP1 DUP2 MSTORE PUSH1 0x20 ADD PUSH0 KECCAK256 PUSH1 0x3 ADD DUP2 SWAP1 SSTORE POP PUSH0 PUSH1 0x6 PUSH0 DUP5 DUP5 DUP2 MLOAD DUP2 LT PUSH2 0x203D JUMPI PUSH2 0x203C PUSH2 0x4CC3 JUMP JUMPDEST JUMPDEST PUSH1 0x20 MUL PUSH1 0x20 ADD ADD MLOAD DUP2 MSTORE PUSH1 0x20 ADD SWAP1 DUP2 MSTORE PUSH1 0x20 ADD PUSH0 KECCAK256 PUSH1 0x4 ADD DUP2 SWAP1 SSTORE POP PUSH1 0x14 PUSH0 DUP4 DUP4 DUP2 MLOAD DUP2 LT PUSH2 0x206F JUMPI PUSH2 0x206E PUSH2 0x4CC3 JUMP JUMPDEST JUMPDEST PUSH1 0x20 MUL PUSH1 0x20 ADD ADD MLOAD DUP2 MSTORE PUSH1 0x20 ADD SWAP1 DUP2 MSTORE PUSH1 0x20 ADD PUSH0 KECCAK256 PUSH0 SWAP1 SLOAD SWAP1 PUSH2 0x100 EXP SWAP1 DIV PUSH1 0xFF AND PUSH2 0x20EB JUMPI PUSH0 PUSH1 0x6 PUSH0 DUP5 DUP5 DUP2 MLOAD DUP2 LT PUSH2 0x20AC JUMPI PUSH2 0x20AB PUSH2 0x4CC3 JUMP JUMPDEST JUMPDEST PUSH1 0x20 MUL PUSH1 0x20 ADD ADD MLOAD DUP2 MSTORE PUSH1 0x20 ADD SWAP1 DUP2 MSTORE PUSH1 0x20 ADD PUSH0 KECCAK256 PUSH1 0x6 ADD PUSH0 PUSH2 0x100 EXP DUP2 SLOAD DUP2 PUSH1 0xFF MUL NOT AND SWAP1 DUP4 PUSH1 0x1 DUP2 GT ISZERO PUSH2 0x20E5 JUMPI PUSH2 0x20E4 PUSH2 0x42FD JUMP JUMPDEST JUMPDEST MUL OR SWAP1 SSTORE POP JUMPDEST DUP1 DUP1 PUSH1 0x1 ADD SWAP2 POP POP PUSH2 0x1FD6 JUMP JUMPDEST POP POP JUMPDEST POP POP JUMP JUMPDEST PUSH0 SLOAD DUP2 JUMP JUMPDEST PUSH1 0x60 PUSH1 0xC PUSH0 DUP4 DUP2 MSTORE PUSH1 0x20 ADD SWAP1 DUP2 MSTORE PUSH1 0x20 ADD PUSH0 KECCAK256 DUP1 SLOAD DUP1 PUSH1 0x20 MUL PUSH1 0x20 ADD PUSH1 0x40 MLOAD SWAP1 DUP2 ADD PUSH1 0x40 MSTORE DUP1 SWAP3 SWAP2 SWAP1 DUP2 DUP2 MSTORE PUSH1 0x20 ADD DUP3 DUP1 SLOAD DUP1 ISZERO PUSH2 0x215F JUMPI PUSH1 0x20 MUL DUP3 ADD SWAP2 SWAP1 PUSH0 MSTORE PUSH1 0x20 PUSH0 KECCAK256 SWAP1 JUMPDEST DUP2 SLOAD DUP2 MSTORE PUSH1 0x20 ADD SWAP1 PUSH1 0x1 ADD SWAP1 DUP1 DUP4 GT PUSH2 0x214B JUMPI JUMPDEST POP POP POP POP POP SWAP1 POP SWAP2 SWAP1 POP JUMP JUMPDEST PUSH1 0xD PUSH1 0x20 MSTORE DUP2 PUSH0 MSTORE PUSH1 0x40 PUSH0 KECCAK256 DUP2 DUP2 SLOAD DUP2 LT PUSH2 0x2184 JUMPI PUSH0 DUP1 REVERT JUMPDEST SWAP1 PUSH0 MSTORE PUSH1 0x20 PUSH0 KECCAK256 ADD PUSH0 SWAP2 POP SWAP2 POP POP SLOAD DUP2 JUMP JUMPDEST PUSH1 0x60 PUSH0 PUSH1 0x5 DUP2 GT ISZERO PUSH2 0x21AB JUMPI PUSH2 0x21AA PUSH2 0x42FD JUMP JUMPDEST JUMPDEST DUP4 PUSH1 0x5 DUP2 GT ISZERO PUSH2 0x21BE JUMPI PUSH2 0x21BD PUSH2 0x42FD JUMP JUMPDEST JUMPDEST SUB PUSH2 0x2228 JUMPI PUSH1 0xD PUSH0 DUP4 DUP2 MSTORE PUSH1 0x20 ADD SWAP1 DUP2 MSTORE PUSH1 0x20 ADD PUSH0 KECCAK256 DUP1 SLOAD DUP1 PUSH1 0x20 MUL PUSH1 0x20 ADD PUSH1 0x40 MLOAD SWAP1 DUP2 ADD PUSH1 0x40 MSTORE DUP1 SWAP3 SWAP2 SWAP1 DUP2 DUP2 MSTORE PUSH1 0x20 ADD DUP3 DUP1 SLOAD DUP1 ISZERO PUSH2 0x221C JUMPI PUSH1 0x20 MUL DUP3 ADD SWAP2 SWAP1 PUSH0 MSTORE PUSH1 0x20 PUSH0 KECCAK256 SWAP1 JUMPDEST DUP2 SLOAD DUP2 MSTORE PUSH1 0x20 ADD SWAP1 PUSH1 0x1 ADD SWAP1 DUP1 DUP4 GT PUSH2 0x2208 JUMPI JUMPDEST POP POP POP POP POP SWAP1 POP PUSH2 0x24A6 JUMP JUMPDEST PUSH1 0x1 PUSH1 0x5 DUP2 GT ISZERO PUSH2 0x223C JUMPI PUSH2 0x223B PUSH2 0x42FD JUMP JUMPDEST JUMPDEST DUP4 PUSH1 0x5 DUP2 GT ISZERO PUSH2 0x224F JUMPI PUSH2 0x224E PUSH2 0x42FD JUMP JUMPDEST JUMPDEST SUB PUSH2 0x22B9 JUMPI PUSH1 0xE PUSH0 DUP4 DUP2 MSTORE PUSH1 0x20 ADD SWAP1 DUP2 MSTORE PUSH1 0x20 ADD PUSH0 KECCAK256 DUP1 SLOAD DUP1 PUSH1 0x20 MUL PUSH1 0x20 ADD PUSH1 0x40 MLOAD SWAP1 DUP2 ADD PUSH1 0x40 MSTORE DUP1 SWAP3 SWAP2 SWAP1 DUP2 DUP2 MSTORE PUSH1 0x20 ADD DUP3 DUP1 SLOAD DUP1 ISZERO PUSH2 0x22AD JUMPI PUSH1 0x20 MUL DUP3 ADD SWAP2 SWAP1 PUSH0 MSTORE PUSH1 0x20 PUSH0 KECCAK256 SWAP1 JUMPDEST DUP2 SLOAD DUP2 MSTORE PUSH1 0x20 ADD SWAP1 PUSH1 0x1 ADD SWAP1 DUP1 DUP4 GT PUSH2 0x2299 JUMPI JUMPDEST POP POP POP POP POP SWAP1 POP PUSH2 0x24A6 JUMP JUMPDEST PUSH1 0x2 PUSH1 0x5 DUP2 GT ISZERO PUSH2 0x22CD JUMPI PUSH2 0x22CC PUSH2 0x42FD JUMP JUMPDEST JUMPDEST DUP4 PUSH1 0x5 DUP2 GT ISZERO PUSH2 0x22E0 JUMPI PUSH2 0x22DF PUSH2 0x42FD JUMP JUMPDEST JUMPDEST SUB PUSH2 0x234A JUMPI PUSH1 0xF PUSH0 DUP4 DUP2 MSTORE PUSH1 0x20 ADD SWAP1 DUP2 MSTORE PUSH1 0x20 ADD PUSH0 KECCAK256 DUP1 SLOAD DUP1 PUSH1 0x20 MUL PUSH1 0x20 ADD PUSH1 0x40 MLOAD SWAP1 DUP2 ADD PUSH1 0x40 MSTORE DUP1 SWAP3 SWAP2 SWAP1 DUP2 DUP2 MSTORE PUSH1 0x20 ADD DUP3 DUP1 SLOAD DUP1 ISZERO PUSH2 0x233E JUMPI PUSH1 0x20 MUL DUP3 ADD SWAP2 SWAP1 PUSH0 MSTORE PUSH1 0x20 PUSH0 KECCAK256 SWAP1 JUMPDEST DUP2 SLOAD DUP2 MSTORE PUSH1 0x20 ADD SWAP1 PUSH1 0x1 ADD SWAP1 DUP1 DUP4 GT PUSH2 0x232A JUMPI JUMPDEST POP POP POP POP POP SWAP1 POP PUSH2 0x24A6 JUMP JUMPDEST PUSH1 0x4 PUSH1 0x5 DUP2 GT ISZERO PUSH2 0x235E JUMPI PUSH2 0x235D PUSH2 0x42FD JUMP JUMPDEST JUMPDEST DUP4 PUSH1 0x5 DUP2 GT ISZERO PUSH2 0x2371 JUMPI PUSH2 0x2370 PUSH2 0x42FD JUMP JUMPDEST JUMPDEST SUB PUSH2 0x23DB JUMPI PUSH1 0x10 PUSH0 DUP4 DUP2 MSTORE PUSH1 0x20 ADD SWAP1 DUP2 MSTORE PUSH1 0x20 ADD PUSH0 KECCAK256 DUP1 SLOAD DUP1 PUSH1 0x20 MUL PUSH1 0x20 ADD PUSH1 0x40 MLOAD SWAP1 DUP2 ADD PUSH1 0x40 MSTORE DUP1 SWAP3 SWAP2 SWAP1 DUP2 DUP2 MSTORE PUSH1 0x20 ADD DUP3 DUP1 SLOAD DUP1 ISZERO PUSH2 0x23CF JUMPI PUSH1 0x20 MUL DUP3 ADD SWAP2 SWAP1 PUSH0 MSTORE PUSH1 0x20 PUSH0 KECCAK256 SWAP1 JUMPDEST DUP2 SLOAD DUP2 MSTORE PUSH1 0x20 ADD SWAP1 PUSH1 0x1 ADD SWAP1 DUP1 DUP4 GT PUSH2 0x23BB JUMPI JUMPDEST POP POP POP POP POP SWAP1 POP PUSH2 0x24A6 JUMP JUMPDEST PUSH1 0x5 DUP1 DUP2 GT ISZERO PUSH2 0x23EE JUMPI PUSH2 0x23ED PUSH2 0x42FD JUMP JUMPDEST JUMPDEST DUP4 PUSH1 0x5 DUP2 GT ISZERO PUSH2 0x2401 JUMPI PUSH2 0x2400 PUSH2 0x42FD JUMP JUMPDEST JUMPDEST SUB PUSH2 0x246B JUMPI PUSH1 0x11 PUSH0 DUP4 DUP2 MSTORE PUSH1 0x20 ADD SWAP1 DUP2 MSTORE PUSH1 0x20 ADD PUSH0 KECCAK256 DUP1 SLOAD DUP1 PUSH1 0x20 MUL PUSH1 0x20 ADD PUSH1 0x40 MLOAD SWAP1 DUP2 ADD PUSH1 0x40 MSTORE DUP1 SWAP3 SWAP2 SWAP1 DUP2 DUP2 MSTORE PUSH1 0x20 ADD DUP3 DUP1 SLOAD DUP1 ISZERO PUSH2 0x245F JUMPI PUSH1 0x20 MUL DUP3 ADD SWAP2 SWAP1 PUSH0 MSTORE PUSH1 0x20 PUSH0 KECCAK256 SWAP1 JUMPDEST DUP2 SLOAD DUP2 MSTORE PUSH1 0x20 ADD SWAP1 PUSH1 0x1 ADD SWAP1 DUP1 DUP4 GT PUSH2 0x244B JUMPI JUMPDEST POP POP POP POP POP SWAP1 POP PUSH2 0x24A6 JUMP JUMPDEST PUSH1 0x40 MLOAD PUSH32 0x8C379A000000000000000000000000000000000000000000000000000000000 DUP2 MSTORE PUSH1 0x4 ADD PUSH2 0x249D SWAP1 PUSH2 0x507A JUMP JUMPDEST PUSH1 0x40 MLOAD DUP1 SWAP2 SUB SWAP1 REVERT JUMPDEST SWAP3 SWAP2 POP POP JUMP JUMPDEST PUSH0 PUSH1 0x9 PUSH0 DUP4 DUP2 MSTORE PUSH1 0x20 ADD SWAP1 DUP2 MSTORE PUSH1 0x20 ADD PUSH0 KECCAK256 PUSH0 ADD SLOAD SUB PUSH2 0x24F8 JUMPI PUSH1 0x40 MLOAD PUSH32 0xC5723B5100000000000000000000000000000000000000000000000000000000 DUP2 MSTORE PUSH1 0x4 ADD PUSH1 0x40 MLOAD DUP1 SWAP2 SUB SWAP1 REVERT JUMPDEST PUSH1 0x15 PUSH0 CALLER PUSH20 0xFFFFFFFFFFFFFFFFFFFFFFFFFFFFFFFFFFFFFFFF AND PUSH20 0xFFFFFFFFFFFFFFFFFFFFFFFFFFFFFFFFFFFFFFFF AND DUP2 MSTORE PUSH1 0x20 ADD SWAP1 DUP2 MSTORE PUSH1 0x20 ADD PUSH0 KECCAK256 PUSH0 DUP5 PUSH1 0x5 DUP2 GT ISZERO PUSH2 0x2549 JUMPI PUSH2 0x2548 PUSH2 0x42FD JUMP JUMPDEST JUMPDEST PUSH1 0x5 DUP2 GT ISZERO PUSH2 0x255B JUMPI PUSH2 0x255A PUSH2 0x42FD JUMP JUMPDEST JUMPDEST DUP2 MSTORE PUSH1 0x20 ADD SWAP1 DUP2 MSTORE PUSH1 0x20 ADD PUSH0 KECCAK256 PUSH0 SWAP1 SLOAD SWAP1 PUSH2 0x100 EXP SWAP1 DIV PUSH1 0xFF AND DUP1 PUSH2 0x25CD JUMPI POP PUSH1 0x16 PUSH0 SWAP1 SLOAD SWAP1 PUSH2 0x100 EXP SWAP1 DIV PUSH20 0xFFFFFFFFFFFFFFFFFFFFFFFFFFFFFFFFFFFFFFFF AND PUSH20 0xFFFFFFFFFFFFFFFFFFFFFFFFFFFFFFFFFFFFFFFF AND CALLER PUSH20 0xFFFFFFFFFFFFFFFFFFFFFFFFFFFFFFFFFFFFFFFF AND EQ ISZERO JUMPDEST PUSH2 0x2603 JUMPI PUSH1 0x40 MLOAD PUSH32 0x9D7B369D00000000000000000000000000000000000000000000000000000000 DUP2 MSTORE PUSH1 0x4 ADD PUSH1 0x40 MLOAD DUP1 SWAP2 SUB SWAP1 REVERT JUMPDEST PUSH0 PUSH1 0x5 DUP2 GT ISZERO PUSH2 0x2616 JUMPI PUSH2 0x2615 PUSH2 0x42FD JUMP JUMPDEST JUMPDEST DUP4 PUSH1 0x5 DUP2 GT ISZERO PUSH2 0x2629 JUMPI PUSH2 0x2628 PUSH2 0x42FD JUMP JUMPDEST JUMPDEST SUB PUSH2 0x26B4 JUMPI PUSH0 PUSH1 0x6 PUSH0 DUP5 DUP2 MSTORE PUSH1 0x20 ADD SWAP1 DUP2 MSTORE PUSH1 0x20 ADD PUSH0 KECCAK256 PUSH0 ADD SLOAD SUB PUSH2 0x267A JUMPI PUSH1 0x40 MLOAD PUSH32 0xC5723B5100000000000000000000000000000000000000000000000000000000 DUP2 MSTORE PUSH1 0x4 ADD PUSH1 0x40 MLOAD DUP1 SWAP2 SUB SWAP1 REVERT JUMPDEST PUSH1 0xD PUSH0 DUP4 DUP2 MSTORE PUSH1 0x20 ADD SWAP1 DUP2 MSTORE PUSH1 0x20 ADD PUSH0 KECCAK256 DUP2 SWAP1 DUP1 PUSH1 0x1 DUP2 SLOAD ADD DUP1 DUP3 SSTORE DUP1 SWAP2 POP POP PUSH1 0x1 SWAP1 SUB SWAP1 PUSH0 MSTORE PUSH1 0x20 PUSH0 KECCAK256 ADD PUSH0 SWAP1 SWAP2 SWAP1 SWAP2 SWAP1 SWAP2 POP SSTORE PUSH2 0x29B1 JUMP JUMPDEST PUSH1 0x1 PUSH1 0x5 DUP2 GT ISZERO PUSH2 0x26C8 JUMPI PUSH2 0x26C7 PUSH2 0x42FD JUMP JUMPDEST JUMPDEST DUP4 PUSH1 0x5 DUP2 GT ISZERO PUSH2 0x26DB JUMPI PUSH2 0x26DA PUSH2 0x42FD JUMP JUMPDEST JUMPDEST SUB PUSH2 0x2766 JUMPI PUSH0 PUSH1 0x7 PUSH0 DUP5 DUP2 MSTORE PUSH1 0x20 ADD SWAP1 DUP2 MSTORE PUSH1 0x20 ADD PUSH0 KECCAK256 PUSH0 ADD SLOAD SUB PUSH2 0x272C JUMPI PUSH1 0x40 MLOAD PUSH32 0xC5723B5100000000000000000000000000000000000000000000000000000000 DUP2 MSTORE PUSH1 0x4 ADD PUSH1 0x40 MLOAD DUP1 SWAP2 SUB SWAP1 REVERT JUMPDEST PUSH1 0xE PUSH0 DUP4 DUP2 MSTORE PUSH1 0x20 ADD SWAP1 DUP2 MSTORE PUSH1 0x20 ADD PUSH0 KECCAK256 DUP2 SWAP1 DUP1 PUSH1 0x1 DUP2 SLOAD ADD DUP1 DUP3 SSTORE DUP1 SWAP2 POP POP PUSH1 0x1 SWAP1 SUB SWAP1 PUSH0 MSTORE PUSH1 0x20 PUSH0 KECCAK256 ADD PUSH0 SWAP1 SWAP2 SWAP1 SWAP2 SWAP1 SWAP2 POP SSTORE PUSH2 0x29B0 JUMP JUMPDEST PUSH1 0x2 PUSH1 0x5 DUP2 GT ISZERO PUSH2 0x277A JUMPI PUSH2 0x2779 PUSH2 0x42FD JUMP JUMPDEST JUMPDEST DUP4 PUSH1 0x5 DUP2 GT ISZERO PUSH2 0x278D JUMPI PUSH2 0x278C PUSH2 0x42FD JUMP JUMPDEST JUMPDEST SUB PUSH2 0x2818 JUMPI PUSH0 PUSH1 0x8 PUSH0 DUP5 DUP2 MSTORE PUSH1 0x20 ADD SWAP1 DUP2 MSTORE PUSH1 0x20 ADD PUSH0 KECCAK256 PUSH0 ADD SLOAD SUB PUSH2 0x27DE JUMPI PUSH1 0x40 MLOAD PUSH32 0xC5723B5100000000000000000000000000000000000000000000000000000000 DUP2 MSTORE PUSH1 0x4 ADD PUSH1 0x40 MLOAD DUP1 SWAP2 SUB SWAP1 REVERT JUMPDEST PUSH1 0xF PUSH0 DUP4 DUP2 MSTORE PUSH1 0x20 ADD SWAP1 DUP2 MSTORE PUSH1 0x20 ADD PUSH0 KECCAK256 DUP2 SWAP1 DUP1 PUSH1 0x1 DUP2 SLOAD ADD DUP1 DUP3 SSTORE DUP1 SWAP2 POP POP PUSH1 0x1 SWAP1 SUB SWAP1 PUSH0 MSTORE PUSH1 0x20 PUSH0 KECCAK256 ADD PUSH0 SWAP1 SWAP2 SWAP1 SWAP2 SWAP1 SWAP2 POP SSTORE PUSH2 0x29AF JUMP JUMPDEST PUSH1 0x4 PUSH1 0x5 DUP2 GT ISZERO PUSH2 0x282C JUMPI PUSH2 0x282B PUSH2 0x42FD JUMP JUMPDEST JUMPDEST DUP4 PUSH1 0x5 DUP2 GT ISZERO PUSH2 0x283F JUMPI PUSH2 0x283E PUSH2 0x42FD JUMP JUMPDEST JUMPDEST SUB PUSH2 0x28CA JUMPI PUSH0 PUSH1 0xA PUSH0 DUP5 DUP2 MSTORE PUSH1 0x20 ADD SWAP1 DUP2 MSTORE PUSH1 0x20 ADD PUSH0 KECCAK256 PUSH0 ADD SLOAD SUB PUSH2 0x2890 JUMPI PUSH1 0x40 MLOAD PUSH32 0xC5723B5100000000000000000000000000000000000000000000000000000000 DUP2 MSTORE PUSH1 0x4 ADD PUSH1 0x40 MLOAD DUP1 SWAP2 SUB SWAP1 REVERT JUMPDEST PUSH1 0x10 PUSH0 DUP4 DUP2 MSTORE PUSH1 0x20 ADD SWAP1 DUP2 MSTORE PUSH1 0x20 ADD PUSH0 KECCAK256 DUP2 SWAP1 DUP1 PUSH1 0x1 DUP2 SLOAD ADD DUP1 DUP3 SSTORE DUP1 SWAP2 POP POP PUSH1 0x1 SWAP1 SUB SWAP1 PUSH0 MSTORE PUSH1 0x20 PUSH0 KECCAK256 ADD PUSH0 SWAP1 SWAP2 SWAP1 SWAP2 SWAP1 SWAP2 POP SSTORE PUSH2 0x29AE JUMP JUMPDEST PUSH1 0x5 DUP1 DUP2 GT ISZERO PUSH2 0x28DD JUMPI PUSH2 0x28DC PUSH2 0x42FD JUMP JUMPDEST JUMPDEST DUP4 PUSH1 0x5 DUP2 GT ISZERO PUSH2 0x28F0 JUMPI PUSH2 0x28EF PUSH2 0x42FD JUMP JUMPDEST JUMPDEST SUB PUSH2 0x297B JUMPI PUSH0 PUSH1 0xB PUSH0 DUP5 DUP2 MSTORE PUSH1 0x20 ADD SWAP1 DUP2 MSTORE PUSH1 0x20 ADD PUSH0 KECCAK256 PUSH0 ADD SLOAD SUB PUSH2 0x2941 JUMPI PUSH1 0x40 MLOAD PUSH32 0xC5723B5100000000000000000000000000000000000000000000000000000000 DUP2 MSTORE PUSH1 0x4 ADD PUSH1 0x40 MLOAD DUP1 SWAP2 SUB SWAP1 REVERT JUMPDEST PUSH1 0x11 PUSH0 DUP4 DUP2 MSTORE PUSH1 0x20 ADD SWAP1 DUP2 MSTORE PUSH1 0x20 ADD PUSH0 KECCAK256 DUP2 SWAP1 DUP1 PUSH1 0x1 DUP2 SLOAD ADD DUP1 DUP3 SSTORE DUP1 SWAP2 POP POP PUSH1 0x1 SWAP1 SUB SWAP1 PUSH0 MSTORE PUSH1 0x20 PUSH0 KECCAK256 ADD PUSH0 SWAP1 SWAP2 SWAP1 SWAP2 SWAP1 SWAP2 POP SSTORE PUSH2 0x29AD JUMP JUMPDEST PUSH1 0x40 MLOAD PUSH32 0x9D7B369D00000000000000000000000000000000000000000000000000000000 DUP2 MSTORE PUSH1 0x4 ADD PUSH1 0x40 MLOAD DUP1 SWAP2 SUB SWAP1 REVERT JUMPDEST JUMPDEST JUMPDEST JUMPDEST JUMPDEST POP POP POP JUMP JUMPDEST PUSH1 0x14 PUSH1 0x20 MSTORE DUP1 PUSH0 MSTORE PUSH1 0x40 PUSH0 KECCAK256 PUSH0 SWAP2 POP SLOAD SWAP1 PUSH2 0x100 EXP SWAP1 DIV PUSH1 0xFF AND DUP2 JUMP JUMPDEST PUSH1 0x3 SLOAD DUP2 JUMP JUMPDEST PUSH0 PUSH1 0x1 PUSH1 0x15 PUSH0 CALLER PUSH20 0xFFFFFFFFFFFFFFFFFFFFFFFFFFFFFFFFFFFFFFFF AND PUSH20 0xFFFFFFFFFFFFFFFFFFFFFFFFFFFFFFFFFFFFFFFF AND DUP2 MSTORE PUSH1 0x20 ADD SWAP1 DUP2 MSTORE PUSH1 0x20 ADD PUSH0 KECCAK256 PUSH0 DUP3 PUSH1 0x5 DUP2 GT ISZERO PUSH2 0x2A2D JUMPI PUSH2 0x2A2C PUSH2 0x42FD JUMP JUMPDEST JUMPDEST PUSH1 0x5 DUP2 GT ISZERO PUSH2 0x2A3F JUMPI PUSH2 0x2A3E PUSH2 0x42FD JUMP JUMPDEST JUMPDEST DUP2 MSTORE PUSH1 0x20 ADD SWAP1 DUP2 MSTORE PUSH1 0x20 ADD PUSH0 KECCAK256 PUSH0 SWAP1 SLOAD SWAP1 PUSH2 0x100 EXP SWAP1 DIV PUSH1 0xFF AND DUP1 PUSH2 0x2AB1 JUMPI POP PUSH1 0x16 PUSH0 SWAP1 SLOAD SWAP1 PUSH2 0x100 EXP SWAP1 DIV PUSH20 0xFFFFFFFFFFFFFFFFFFFFFFFFFFFFFFFFFFFFFFFF AND PUSH20 0xFFFFFFFFFFFFFFFFFFFFFFFFFFFFFFFFFFFFFFFF AND CALLER PUSH20 0xFFFFFFFFFFFFFFFFFFFFFFFFFFFFFFFFFFFFFFFF AND EQ ISZERO JUMPDEST PUSH2 0x2AE7 JUMPI PUSH1 0x40 MLOAD PUSH32 0x9D7B369D00000000000000000000000000000000000000000000000000000000 DUP2 MSTORE PUSH1 0x4 ADD PUSH1 0x40 MLOAD DUP1 SWAP2 SUB SWAP1 REVERT JUMPDEST PUSH0 PUSH1 0x1 PUSH0 DUP2 SLOAD DUP1 SWAP3 SWAP2 SWAP1 PUSH2 0x2AFA SWAP1 PUSH2 0x4D1D JUMP JUMPDEST SWAP2 SWAP1 POP SSTORE SWAP1 POP PUSH1 0x40 MLOAD DUP1 PUSH1 0x80 ADD PUSH1 0x40 MSTORE DUP1 DUP3 DUP2 MSTORE PUSH1 0x20 ADD DUP6 DUP2 MSTORE PUSH1 0x20 ADD TIMESTAMP DUP2 MSTORE PUSH1 0x20 ADD CALLER PUSH20 0xFFFFFFFFFFFFFFFFFFFFFFFFFFFFFFFFFFFFFFFF AND DUP2 MSTORE POP PUSH1 0x7 PUSH0 DUP4 DUP2 MSTORE PUSH1 0x20 ADD SWAP1 DUP2 MSTORE PUSH1 0x20 ADD PUSH0 KECCAK256 PUSH0 DUP3 ADD MLOAD DUP2 PUSH0 ADD SSTORE PUSH1 0x20 DUP3 ADD MLOAD DUP2 PUSH1 0x1 ADD SSTORE PUSH1 0x40 DUP3 ADD MLOAD DUP2 PUSH1 0x2 ADD SSTORE PUSH1 0x60 DUP3 ADD MLOAD DUP2 PUSH1 0x3 ADD PUSH0 PUSH2 0x100 EXP DUP2 SLOAD DUP2 PUSH20 0xFFFFFFFFFFFFFFFFFFFFFFFFFFFFFFFFFFFFFFFF MUL NOT AND SWAP1 DUP4 PUSH20 0xFFFFFFFFFFFFFFFFFFFFFFFFFFFFFFFFFFFFFFFF AND MUL OR SWAP1 SSTORE POP SWAP1 POP POP DUP1 SWAP3 POP POP POP SWAP2 SWAP1 POP JUMP JUMPDEST PUSH1 0x60 PUSH1 0x12 PUSH0 DUP4 DUP2 MSTORE PUSH1 0x20 ADD SWAP1 DUP2 MSTORE PUSH1 0x20 ADD PUSH0 KECCAK256 DUP1 SLOAD DUP1 PUSH1 0x20 MUL PUSH1 0x20 ADD PUSH1 0x40 MLOAD SWAP1 DUP2 ADD PUSH1 0x40 MSTORE DUP1 SWAP3 SWAP2 SWAP1 DUP2 DUP2 MSTORE PUSH1 0x20 ADD DUP3 DUP1 SLOAD DUP1 ISZERO PUSH2 0x2C12 JUMPI PUSH1 0x20 MUL DUP3 ADD SWAP2 SWAP1 PUSH0 MSTORE PUSH1 0x20 PUSH0 KECCAK256 SWAP1 JUMPDEST DUP2 SLOAD DUP2 MSTORE PUSH1 0x20 ADD SWAP1 PUSH1 0x1 ADD SWAP1 DUP1 DUP4 GT PUSH2 0x2BFE JUMPI JUMPDEST POP POP POP POP POP SWAP1 POP SWAP2 SWAP1 POP JUMP JUMPDEST PUSH0 PUSH1 0x5 PUSH1 0x15 PUSH0 CALLER PUSH20 0xFFFFFFFFFFFFFFFFFFFFFFFFFFFFFFFFFFFFFFFF AND PUSH20 0xFFFFFFFFFFFFFFFFFFFFFFFFFFFFFFFFFFFFFFFF AND DUP2 MSTORE PUSH1 0x20 ADD SWAP1 DUP2 MSTORE PUSH1 0x20 ADD PUSH0 KECCAK256 PUSH0 DUP3 PUSH1 0x5 DUP2 GT ISZERO PUSH2 0x2C72 JUMPI PUSH2 0x2C71 PUSH2 0x42FD JUMP JUMPDEST JUMPDEST PUSH1 0x5 DUP2 GT ISZERO PUSH2 0x2C84 JUMPI PUSH2 0x2C83 PUSH2 0x42FD JUMP JUMPDEST JUMPDEST DUP2 MSTORE PUSH1 0x20 ADD SWAP1 DUP2 MSTORE PUSH1 0x20 ADD PUSH0 KECCAK256 PUSH0 SWAP1 SLOAD SWAP1 PUSH2 0x100 EXP SWAP1 DIV PUSH1 0xFF AND DUP1 PUSH2 0x2CF6 JUMPI POP PUSH1 0x16 PUSH0 SWAP1 SLOAD SWAP1 PUSH2 0x100 EXP SWAP1 DIV PUSH20 0xFFFFFFFFFFFFFFFFFFFFFFFFFFFFFFFFFFFFFFFF AND PUSH20 0xFFFFFFFFFFFFFFFFFFFFFFFFFFFFFFFFFFFFFFFF AND CALLER PUSH20 0xFFFFFFFFFFFFFFFFFFFFFFFFFFFFFFFFFFFFFFFF AND EQ ISZERO JUMPDEST PUSH2 0x2D2C JUMPI PUSH1 0x40 MLOAD PUSH32 0x9D7B369D00000000000000000000000000000000000000000000000000000000 DUP2 MSTORE PUSH1 0x4 ADD PUSH1 0x40 MLOAD DUP1 SWAP2 SUB SWAP1 REVERT JUMPDEST DUP4 PUSH1 0x80 DUP2 MLOAD GT ISZERO PUSH2 0x2D69 JUMPI PUSH1 0x40 MLOAD PUSH32 0xB11B2AD800000000000000000000000000000000000000000000000000000000 DUP2 MSTORE PUSH1 0x4 ADD PUSH1 0x40 MLOAD DUP1 SWAP2 SUB SWAP1 REVERT JUMPDEST DUP4 PUSH1 0x80 DUP2 MLOAD GT ISZERO PUSH2 0x2DA6 JUMPI PUSH1 0x40 MLOAD PUSH32 0xB11B2AD800000000000000000000000000000000000000000000000000000000 DUP2 MSTORE PUSH1 0x4 ADD PUSH1 0x40 MLOAD DUP1 SWAP2 SUB SWAP1 REVERT JUMPDEST PUSH0 PUSH1 0x5 PUSH0 DUP2 SLOAD DUP1 SWAP3 SWAP2 SWAP1 PUSH2 0x2DB9 SWAP1 PUSH2 0x4D1D JUMP JUMPDEST SWAP2 SWAP1 POP SSTORE SWAP1 POP PUSH1 0x40 MLOAD DUP1 PUSH1 0xA0 ADD PUSH1 0x40 MSTORE DUP1 DUP3 DUP2 MSTORE PUSH1 0x20 ADD DUP9 DUP2 MSTORE PUSH1 0x20 ADD DUP8 DUP2 MSTORE PUSH1 0x20 ADD TIMESTAMP DUP2 MSTORE PUSH1 0x20 ADD CALLER PUSH20 0xFFFFFFFFFFFFFFFFFFFFFFFFFFFFFFFFFFFFFFFF AND DUP2 MSTORE POP PUSH1 0xB PUSH0 DUP4 DUP2 MSTORE PUSH1 0x20 ADD SWAP1 DUP2 MSTORE PUSH1 0x20 ADD PUSH0 KECCAK256 PUSH0 DUP3 ADD MLOAD DUP2 PUSH0 ADD SSTORE PUSH1 0x20 DUP3 ADD MLOAD DUP2 PUSH1 0x1 ADD SWAP1 DUP2 PUSH2 0x2E2A SWAP2 SWAP1 PUSH2 0x4F61 JUMP JUMPDEST POP PUSH1 0x40 DUP3 ADD MLOAD DUP2 PUSH1 0x2 ADD SWAP1 DUP2 PUSH2 0x2E40 SWAP2 SWAP1 PUSH2 0x4F61 JUMP JUMPDEST POP PUSH1 0x60 DUP3 ADD MLOAD DUP2 PUSH1 0x3 ADD SSTORE PUSH1 0x80 DUP3 ADD MLOAD DUP2 PUSH1 0x4 ADD PUSH0 PUSH2 0x100 EXP DUP2 SLOAD DUP2 PUSH20 0xFFFFFFFFFFFFFFFFFFFFFFFFFFFFFFFFFFFFFFFF MUL NOT AND SWAP1 DUP4 PUSH20 0xFFFFFFFFFFFFFFFFFFFFFFFFFFFFFFFFFFFFFFFF AND MUL OR SWAP1 SSTORE POP SWAP1 POP POP DUP1 SWAP5 POP POP POP POP POP SWAP3 SWAP2 POP POP JUMP JUMPDEST PUSH1 0x16 PUSH0 SWAP1 SLOAD SWAP1 PUSH2 0x100 EXP SWAP1 DIV PUSH20 0xFFFFFFFFFFFFFFFFFFFFFFFFFFFFFFFFFFFFFFFF AND DUP2 JUMP JUMPDEST PUSH2 0x3E8 DUP2 JUMP JUMPDEST PUSH0 PUSH1 0x2 PUSH1 0x15 PUSH0 CALLER PUSH20 0xFFFFFFFFFFFFFFFFFFFFFFFFFFFFFFFFFFFFFFFF AND PUSH20 0xFFFFFFFFFFFFFFFFFFFFFFFFFFFFFFFFFFFFFFFF AND DUP2 MSTORE PUSH1 0x20 ADD SWAP1 DUP2 MSTORE PUSH1 0x20 ADD PUSH0 KECCAK256 PUSH0 DUP3 PUSH1 0x5 DUP2 GT ISZERO PUSH2 0x2F20 JUMPI PUSH2 0x2F1F PUSH2 0x42FD JUMP JUMPDEST JUMPDEST PUSH1 0x5 DUP2 GT ISZERO PUSH2 0x2F32 JUMPI PUSH2 0x2F31 PUSH2 0x42FD JUMP JUMPDEST JUMPDEST DUP2 MSTORE PUSH1 0x20 ADD SWAP1 DUP2 MSTORE PUSH1 0x20 ADD PUSH0 KECCAK256 PUSH0 SWAP1 SLOAD SWAP1 PUSH2 0x100 EXP SWAP1 DIV PUSH1 0xFF AND DUP1 PUSH2 0x2FA4 JUMPI POP PUSH1 0x16 PUSH0 SWAP1 SLOAD SWAP1 PUSH2 0x100 EXP SWAP1 DIV PUSH20 0xFFFFFFFFFFFFFFFFFFFFFFFFFFFFFFFFFFFFFFFF AND PUSH20 0xFFFFFFFFFFFFFFFFFFFFFFFFFFFFFFFFFFFFFFFF AND CALLER PUSH20 0xFFFFFFFFFFFFFFFFFFFFFFFFFFFFFFFFFFFFFFFF AND EQ ISZERO JUMPDEST PUSH2 0x2FDA JUMPI PUSH1 0x40 MLOAD PUSH32 0x9D7B369D00000000000000000000000000000000000000000000000000000000 DUP2 MSTORE PUSH1 0x4 ADD PUSH1 0x40 MLOAD DUP1 SWAP2 SUB SWAP1 REVERT JUMPDEST DUP5 PUSH1 0x80 DUP2 MLOAD GT ISZERO PUSH2 0x3017 JUMPI PUSH1 0x40 MLOAD PUSH32 0xB11B2AD800000000000000000000000000000000000000000000000000000000 DUP2 MSTORE PUSH1 0x4 ADD PUSH1 0x40 MLOAD DUP1 SWAP2 SUB SWAP1 REVERT JUMPDEST PUSH0 PUSH1 0x2 PUSH0 DUP2 SLOAD DUP1 SWAP3 SWAP2 SWAP1 PUSH2 0x302A SWAP1 PUSH2 0x4D1D JUMP JUMPDEST SWAP2 SWAP1 POP SSTORE SWAP1 POP PUSH1 0x40 MLOAD DUP1 PUSH2 0x140 ADD PUSH1 0x40 MSTORE DUP1 DUP3 DUP2 MSTORE PUSH1 0x20 ADD DUP10 DUP2 MSTORE PUSH1 0x20 ADD PUSH0 PUSH1 0x2 DUP2 GT ISZERO PUSH2 0x305B JUMPI PUSH2 0x305A PUSH2 0x42FD JUMP JUMPDEST JUMPDEST DUP2 MSTORE PUSH1 0x20 ADD DUP9 DUP2 MSTORE PUSH1 0x20 ADD DUP8 DUP2 MSTORE PUSH1 0x20 ADD DUP7 DUP2 MSTORE PUSH1 0x20 ADD PUSH0 DUP2 MSTORE PUSH1 0x20 ADD PUSH0 DUP2 MSTORE PUSH1 0x20 ADD TIMESTAMP DUP2 MSTORE PUSH1 0x20 ADD CALLER PUSH20 0xFFFFFFFFFFFFFFFFFFFFFFFFFFFFFFFFFFFFFFFF AND DUP2 MSTORE POP PUSH1 0x8 PUSH0 DUP4 DUP2 MSTORE PUSH1 0x20 ADD SWAP1 DUP2 MSTORE PUSH1 0x20 ADD PUSH0 KECCAK256 PUSH0 DUP3 ADD MLOAD DUP2 PUSH0 ADD SSTORE PUSH1 0x20 DUP3 ADD MLOAD DUP2 PUSH1 0x1 ADD SSTORE PUSH1 0x40 DUP3 ADD MLOAD DUP2 PUSH1 0x2 ADD PUSH0 PUSH2 0x100 EXP DUP2 SLOAD DUP2 PUSH1 0xFF MUL NOT AND SWAP1 DUP4 PUSH1 0x2 DUP2 GT ISZERO PUSH2 0x30EB JUMPI PUSH2 0x30EA PUSH2 0x42FD JUMP JUMPDEST JUMPDEST MUL OR SWAP1 SSTORE POP PUSH1 0x60 DUP3 ADD MLOAD DUP2 PUSH1 0x3 ADD SWAP1 DUP2 PUSH2 0x3105 SWAP2 SWAP1 PUSH2 0x4F61 JUMP JUMPDEST POP PUSH1 0x80 DUP3 ADD MLOAD DUP2 PUSH1 0x4 ADD SSTORE PUSH1 0xA0 DUP3 ADD MLOAD DUP2 PUSH1 0x5 ADD SSTORE PUSH1 0xC0 DUP3 ADD MLOAD DUP2 PUSH1 0x6 ADD SSTORE PUSH1 0xE0 DUP3 ADD MLOAD DUP2 PUSH1 0x7 ADD SSTORE PUSH2 0x100 DUP3 ADD MLOAD DUP2 PUSH1 0x8 ADD SSTORE PUSH2 0x120 DUP3 ADD MLOAD DUP2 PUSH1 0x9 ADD PUSH0 PUSH2 0x100 EXP DUP2 SLOAD DUP2 PUSH20 0xFFFFFFFFFFFFFFFFFFFFFFFFFFFFFFFFFFFFFFFF MUL NOT AND SWAP1 DUP4 PUSH20 0xFFFFFFFFFFFFFFFFFFFFFFFFFFFFFFFFFFFFFFFF AND MUL OR SWAP1 SSTORE POP SWAP1 POP POP DUP1 SWAP4 POP POP POP POP SWAP5 SWAP4 POP POP POP POP JUMP JUMPDEST PUSH1 0x4 SLOAD DUP2 JUMP JUMPDEST PUSH0 PUSH0 PUSH1 0x5 DUP2 GT ISZERO PUSH2 0x31AB JUMPI PUSH2 0x31AA PUSH2 0x42FD JUMP JUMPDEST JUMPDEST DUP3 PUSH1 0x5 DUP2 GT ISZERO PUSH2 0x31BE JUMPI PUSH2 0x31BD PUSH2 0x42FD JUMP JUMPDEST JUMPDEST SUB PUSH2 0x31D8 JUMPI PUSH1 0x1 PUSH0 SLOAD PUSH2 0x31D1 SWAP2 SWAP1 PUSH2 0x5098 JUMP JUMPDEST SWAP1 POP PUSH2 0x335B JUMP JUMPDEST PUSH1 0x1 PUSH1 0x5 DUP2 GT ISZERO PUSH2 0x31EC JUMPI PUSH2 0x31EB PUSH2 0x42FD JUMP JUMPDEST JUMPDEST DUP3 PUSH1 0x5 DUP2 GT ISZERO PUSH2 0x31FF JUMPI PUSH2 0x31FE PUSH2 0x42FD JUMP JUMPDEST JUMPDEST SUB PUSH2 0x3219 JUMPI PUSH1 0x1 DUP1 SLOAD PUSH2 0x3212 SWAP2 SWAP1 PUSH2 0x5098 JUMP JUMPDEST SWAP1 POP PUSH2 0x335B JUMP JUMPDEST PUSH1 0x2 PUSH1 0x5 DUP2 GT ISZERO PUSH2 0x322D JUMPI PUSH2 0x322C PUSH2 0x42FD JUMP JUMPDEST JUMPDEST DUP3 PUSH1 0x5 DUP2 GT ISZERO PUSH2 0x3240 JUMPI PUSH2 0x323F PUSH2 0x42FD JUMP JUMPDEST JUMPDEST SUB PUSH2 0x325B JUMPI PUSH1 0x1 PUSH1 0x2 SLOAD PUSH2 0x3254 SWAP2 SWAP1 PUSH2 0x5098 JUMP JUMPDEST SWAP1 POP PUSH2 0x335B JUMP JUMPDEST PUSH1 0x3 PUSH1 0x5 DUP2 GT ISZERO PUSH2 0x326F JUMPI PUSH2 0x326E PUSH2 0x42FD JUMP JUMPDEST JUMPDEST DUP3 PUSH1 0x5 DUP2 GT ISZERO PUSH2 0x3282 JUMPI PUSH2 0x3281 PUSH2 0x42FD JUMP JUMPDEST JUMPDEST SUB PUSH2 0x329D JUMPI PUSH1 0x1 PUSH1 0x3 SLOAD PUSH2 0x3296 SWAP2 SWAP1 PUSH2 0x5098 JUMP JUMPDEST SWAP1 POP PUSH2 0x335B JUMP JUMPDEST PUSH1 0x4 PUSH1 0x5 DUP2 GT ISZERO PUSH2 0x32B1 JUMPI PUSH2 0x32B0 PUSH2 0x42FD JUMP JUMPDEST JUMPDEST DUP3 PUSH1 0x5 DUP2 GT ISZERO PUSH2 0x32C4 JUMPI PUSH2 0x32C3 PUSH2 0x42FD JUMP JUMPDEST JUMPDEST SUB PUSH2 0x32DF JUMPI PUSH1 0x1 PUSH1 0x4 SLOAD PUSH2 0x32D8 SWAP2 SWAP1 PUSH2 0x5098 JUMP JUMPDEST SWAP1 POP PUSH2 0x335B JUMP JUMPDEST PUSH1 0x5 DUP1 DUP2 GT ISZERO PUSH2 0x32F2 JUMPI PUSH2 0x32F1 PUSH2 0x42FD JUMP JUMPDEST JUMPDEST DUP3 PUSH1 0x5 DUP2 GT ISZERO PUSH2 0x3305 JUMPI PUSH2 0x3304 PUSH2 0x42FD JUMP JUMPDEST JUMPDEST SUB PUSH2 0x3320 JUMPI PUSH1 0x1 PUSH1 0x5 SLOAD PUSH2 0x3319 SWAP2 SWAP1 PUSH2 0x5098 JUMP JUMPDEST SWAP1 POP PUSH2 0x335B JUMP JUMPDEST PUSH1 0x40 MLOAD PUSH32 0x8C379A000000000000000000000000000000000000000000000000000000000 DUP2 MSTORE PUSH1 0x4 ADD PUSH2 0x3352 SWAP1 PUSH2 0x5115 JUMP JUMPDEST PUSH1 0x40 MLOAD DUP1 SWAP2 SUB SWAP1 REVERT JUMPDEST SWAP2 SWAP1 POP JUMP JUMPDEST PUSH0 PUSH1 0xA PUSH0 DUP5 DUP2 MSTORE PUSH1 0x20 ADD SWAP1 DUP2 MSTORE PUSH1 0x20 ADD PUSH0 KECCAK256 PUSH0 ADD SLOAD SUB PUSH2 0x33AC JUMPI PUSH1 0x40 MLOAD PUSH32 0xC5723B5100000000000000000000000000000000000000000000000000000000 DUP2 MSTORE PUSH1 0x4 ADD PUSH1 0x40 MLOAD DUP1 SWAP2 SUB SWAP1 REVERT JUMPDEST PUSH0 PUSH1 0x8 PUSH0 DUP4 DUP2 MSTORE PUSH1 0x20 ADD SWAP1 DUP2 MSTORE PUSH1 0x20 ADD PUSH0 KECCAK256 PUSH0 ADD SLOAD SUB PUSH2 0x33F8 JUMPI PUSH1 0x40 MLOAD PUSH32 0xC5723B5100000000000000000000000000000000000000000000000000000000 DUP2 MSTORE PUSH1 0x4 ADD PUSH1 0x40 MLOAD DUP1 SWAP2 SUB SWAP1 REVERT JUMPDEST PUSH0 PUSH1 0x2 DUP2 GT ISZERO PUSH2 0x340B JUMPI PUSH2 0x340A PUSH2 0x42FD JUMP JUMPDEST JUMPDEST PUSH1 0xA PUSH0 DUP5 DUP2 MSTORE PUSH1 0x20 ADD SWAP1 DUP2 MSTORE PUSH1 0x20 ADD PUSH0 KECCAK256 PUSH1 0x1 ADD PUSH1 0x1 SWAP1 SLOAD SWAP1 PUSH2 0x100 EXP SWAP1 DIV PUSH1 0xFF AND PUSH1 0x2 DUP2 GT ISZERO PUSH2 0x343F JUMPI PUSH2 0x343E PUSH2 0x42FD JUMP JUMPDEST JUMPDEST EQ PUSH2 0x3476 JUMPI PUSH1 0x40 MLOAD PUSH32 0xF525E32000000000000000000000000000000000000000000000000000000000 DUP2 MSTORE PUSH1 0x4 ADD PUSH1 0x40 MLOAD DUP1 SWAP2 SUB SWAP1 REVERT JUMPDEST PUSH0 PUSH1 0x2 DUP2 GT ISZERO PUSH2 0x3489 JUMPI PUSH2 0x3488 PUSH2 0x42FD JUMP JUMPDEST JUMPDEST PUSH1 0x8 PUSH0 DUP4 DUP2 MSTORE PUSH1 0x20 ADD SWAP1 DUP2 MSTORE PUSH1 0x20 ADD PUSH0 KECCAK256 PUSH1 0x2 ADD PUSH0 SWAP1 SLOAD SWAP1 PUSH2 0x100 EXP SWAP1 DIV PUSH1 0xFF AND PUSH1 0x2 DUP2 GT ISZERO PUSH2 0x34BC JUMPI PUSH2 0x34BB PUSH2 0x42FD JUMP JUMPDEST JUMPDEST EQ PUSH2 0x34F3 JUMPI PUSH1 0x40 MLOAD PUSH32 0xF525E32000000000000000000000000000000000000000000000000000000000 DUP2 MSTORE PUSH1 0x4 ADD PUSH1 0x40 MLOAD DUP1 SWAP2 SUB SWAP1 REVERT JUMPDEST PUSH1 0x12 PUSH0 DUP4 DUP2 MSTORE PUSH1 0x20 ADD SWAP1 DUP2 MSTORE PUSH1 0x20 ADD PUSH0 KECCAK256 DUP2 SWAP1 DUP1 PUSH1 0x1 DUP2 SLOAD ADD DUP1 DUP3 SSTORE DUP1 SWAP2 POP POP PUSH1 0x1 SWAP1 SUB SWAP1 PUSH0 MSTORE PUSH1 0x20 PUSH0 KECCAK256 ADD PUSH0 SWAP1 SWAP2 SWAP1 SWAP2 SWAP1 SWAP2 POP SSTORE POP POP JUMP JUMPDEST PUSH1 0x60 PUSH0 PUSH1 0x5 DUP2 GT ISZERO PUSH2 0x3541 JUMPI PUSH2 0x3540 PUSH2 0x42FD JUMP JUMPDEST JUMPDEST DUP4 PUSH1 0x5 DUP2 GT ISZERO PUSH2 0x3554 JUMPI PUSH2 0x3553 PUSH2 0x42FD JUMP JUMPDEST JUMPDEST SUB PUSH2 0x3590 JUMPI PUSH1 0x6 PUSH0 DUP4 DUP2 MSTORE PUSH1 0x20 ADD SWAP1 DUP2 MSTORE PUSH1 0x20 ADD PUSH0 KECCAK256 PUSH1 0x40 MLOAD PUSH1 0x20 ADD PUSH2 0x357A SWAP2 SWAP1 PUSH2 0x5386 JUMP JUMPDEST PUSH1 0x40 MLOAD PUSH1 0x20 DUP2 DUP4 SUB SUB DUP2 MSTORE SWAP1 PUSH1 0x40 MSTORE SWAP1 POP PUSH2 0x37B9 JUMP JUMPDEST PUSH1 0x1 PUSH1 0x5 DUP2 GT ISZERO PUSH2 0x35A4 JUMPI PUSH2 0x35A3 PUSH2 0x42FD JUMP JUMPDEST JUMPDEST DUP4 PUSH1 0x5 DUP2 GT ISZERO PUSH2 0x35B7 JUMPI PUSH2 0x35B6 PUSH2 0x42FD JUMP JUMPDEST JUMPDEST SUB PUSH2 0x35F3 JUMPI PUSH1 0x7 PUSH0 DUP4 DUP2 MSTORE PUSH1 0x20 ADD SWAP1 DUP2 MSTORE PUSH1 0x20 ADD PUSH0 KECCAK256 PUSH1 0x40 MLOAD PUSH1 0x20 ADD PUSH2 0x35DD SWAP2 SWAP1 PUSH2 0x5427 JUMP JUMPDEST PUSH1 0x40 MLOAD PUSH1 0x20 DUP2 DUP4 SUB SUB DUP2 MSTORE SWAP1 PUSH1 0x40 MSTORE SWAP1 POP PUSH2 0x37B9 JUMP JUMPDEST PUSH1 0x2 PUSH1 0x5 DUP2 GT ISZERO PUSH2 0x3607 JUMPI PUSH2 0x3606 PUSH2 0x42FD JUMP JUMPDEST JUMPDEST DUP4 PUSH1 0x5 DUP2 GT ISZERO PUSH2 0x361A JUMPI PUSH2 0x3619 PUSH2 0x42FD JUMP JUMPDEST JUMPDEST SUB PUSH2 0x3656 JUMPI PUSH1 0x8 PUSH0 DUP4 DUP2 MSTORE PUSH1 0x20 ADD SWAP1 DUP2 MSTORE PUSH1 0x20 ADD PUSH0 KECCAK256 PUSH1 0x40 MLOAD PUSH1 0x20 ADD PUSH2 0x3640 SWAP2 SWAP1 PUSH2 0x55AD JUMP JUMPDEST PUSH1 0x40 MLOAD PUSH1 0x20 DUP2 DUP4 SUB SUB DUP2 MSTORE SWAP1 PUSH1 0x40 MSTORE SWAP1 POP PUSH2 0x37B9 JUMP JUMPDEST PUSH1 0x3 PUSH1 0x5 DUP2 GT ISZERO PUSH2 0x366A JUMPI PUSH2 0x3669 PUSH2 0x42FD JUMP JUMPDEST JUMPDEST DUP4 PUSH1 0x5 DUP2 GT ISZERO PUSH2 0x367D JUMPI PUSH2 0x367C PUSH2 0x42FD JUMP JUMPDEST JUMPDEST SUB PUSH2 0x36B9 JUMPI PUSH1 0x9 PUSH0 DUP4 DUP2 MSTORE PUSH1 0x20 ADD SWAP1 DUP2 MSTORE PUSH1 0x20 ADD PUSH0 KECCAK256 PUSH1 0x40 MLOAD PUSH1 0x20 ADD PUSH2 0x36A3 SWAP2 SWAP1 PUSH2 0x564F JUMP JUMPDEST PUSH1 0x40 MLOAD PUSH1 0x20 DUP2 DUP4 SUB SUB DUP2 MSTORE SWAP1 PUSH1 0x40 MSTORE SWAP1 POP PUSH2 0x37B9 JUMP JUMPDEST PUSH1 0x4 PUSH1 0x5 DUP2 GT ISZERO PUSH2 0x36CD JUMPI PUSH2 0x36CC PUSH2 0x42FD JUMP JUMPDEST JUMPDEST DUP4 PUSH1 0x5 DUP2 GT ISZERO PUSH2 0x36E0 JUMPI PUSH2 0x36DF PUSH2 0x42FD JUMP JUMPDEST JUMPDEST SUB PUSH2 0x371C JUMPI PUSH1 0xA PUSH0 DUP4 DUP2 MSTORE PUSH1 0x20 ADD SWAP1 DUP2 MSTORE PUSH1 0x20 ADD PUSH0 KECCAK256 PUSH1 0x40 MLOAD PUSH1 0x20 ADD PUSH2 0x3706 SWAP2 SWAP1 PUSH2 0x5833 JUMP JUMPDEST PUSH1 0x40 MLOAD PUSH1 0x20 DUP2 DUP4 SUB SUB DUP2 MSTORE SWAP1 PUSH1 0x40 MSTORE SWAP1 POP PUSH2 0x37B9 JUMP JUMPDEST PUSH1 0x5 DUP1 DUP2 GT ISZERO PUSH2 0x372F JUMPI PUSH2 0x372E PUSH2 0x42FD JUMP JUMPDEST JUMPDEST DUP4 PUSH1 0x5 DUP2 GT ISZERO PUSH2 0x3742 JUMPI PUSH2 0x3741 PUSH2 0x42FD JUMP JUMPDEST JUMPDEST SUB PUSH2 0x377E JUMPI PUSH1 0xB PUSH0 DUP4 DUP2 MSTORE PUSH1 0x20 ADD SWAP1 DUP2 MSTORE PUSH1 0x20 ADD PUSH0 KECCAK256 PUSH1 0x40 MLOAD PUSH1 0x20 ADD PUSH2 0x3768 SWAP2 SWAP1 PUSH2 0x58E8 JUMP JUMPDEST PUSH1 0x40 MLOAD PUSH1 0x20 DUP2 DUP4 SUB SUB DUP2 MSTORE SWAP1 PUSH1 0x40 MSTORE SWAP1 POP PUSH2 0x37B9 JUMP JUMPDEST PUSH1 0x40 MLOAD PUSH32 0x8C379A000000000000000000000000000000000000000000000000000000000 DUP2 MSTORE PUSH1 0x4 ADD PUSH2 0x37B0 SWAP1 PUSH2 0x5115 JUMP JUMPDEST PUSH1 0x40 MLOAD DUP1 SWAP2 SUB SWAP1 REVERT JUMPDEST SWAP3 SWAP2 POP POP JUMP JUMPDEST PUSH1 0xB PUSH1 0x20 MSTORE DUP1 PUSH0 MSTORE PUSH1 0x40 PUSH0 KECCAK256 PUSH0 SWAP2 POP SWAP1 POP DUP1 PUSH0 ADD SLOAD SWAP1 DUP1 PUSH1 0x1 ADD DUP1 SLOAD PUSH2 0x37E4 SWAP1 PUSH2 0x4D91 JUMP JUMPDEST DUP1 PUSH1 0x1F ADD PUSH1 0x20 DUP1 SWAP2 DIV MUL PUSH1 0x20 ADD PUSH1 0x40 MLOAD SWAP1 DUP2 ADD PUSH1 0x40 MSTORE DUP1 SWAP3 SWAP2 SWAP1 DUP2 DUP2 MSTORE PUSH1 0x20 ADD DUP3 DUP1 SLOAD PUSH2 0x3810 SWAP1 PUSH2 0x4D91 JUMP JUMPDEST DUP1 ISZERO PUSH2 0x385B JUMPI DUP1 PUSH1 0x1F LT PUSH2 0x3832 JUMPI PUSH2 0x100 DUP1 DUP4 SLOAD DIV MUL DUP4 MSTORE SWAP2 PUSH1 0x20 ADD SWAP2 PUSH2 0x385B JUMP JUMPDEST DUP3 ADD SWAP2 SWAP1 PUSH0 MSTORE PUSH1 0x20 PUSH0 KECCAK256 SWAP1 JUMPDEST DUP2 SLOAD DUP2 MSTORE SWAP1 PUSH1 0x1 ADD SWAP1 PUSH1 0x20 ADD DUP1 DUP4 GT PUSH2 0x383E JUMPI DUP3 SWAP1 SUB PUSH1 0x1F AND DUP3 ADD SWAP2 JUMPDEST POP POP POP POP POP SWAP1 DUP1 PUSH1 0x2 ADD DUP1 SLOAD PUSH2 0x3870 SWAP1 PUSH2 0x4D91 JUMP JUMPDEST DUP1 PUSH1 0x1F ADD PUSH1 0x20 DUP1 SWAP2 DIV MUL PUSH1 0x20 ADD PUSH1 0x40 MLOAD SWAP1 DUP2 ADD PUSH1 0x40 MSTORE DUP1 SWAP3 SWAP2 SWAP1 DUP2 DUP2 MSTORE PUSH1 0x20 ADD DUP3 DUP1 SLOAD PUSH2 0x389C SWAP1 PUSH2 0x4D91 JUMP JUMPDEST DUP1 ISZERO PUSH2 0x38E7 JUMPI DUP1 PUSH1 0x1F LT PUSH2 0x38BE JUMPI PUSH2 0x100 DUP1 DUP4 SLOAD DIV MUL DUP4 MSTORE SWAP2 PUSH1 0x20 ADD SWAP2 PUSH2 0x38E7 JUMP JUMPDEST DUP3 ADD SWAP2 SWAP1 PUSH0 MSTORE PUSH1 0x20 PUSH0 KECCAK256 SWAP1 JUMPDEST DUP2 SLOAD DUP2 MSTORE SWAP1 PUSH1 0x1 ADD SWAP1 PUSH1 0x20 ADD DUP1 DUP4 GT PUSH2 0x38CA JUMPI DUP3 SWAP1 SUB PUSH1 0x1F AND DUP3 ADD SWAP2 JUMPDEST POP POP POP POP POP SWAP1 DUP1 PUSH1 0x3 ADD SLOAD SWAP1 DUP1 PUSH1 0x4 ADD PUSH0 SWAP1 SLOAD SWAP1 PUSH2 0x100 EXP SWAP1 DIV PUSH20 0xFFFFFFFFFFFFFFFFFFFFFFFFFFFFFFFFFFFFFFFF AND SWAP1 POP DUP6 JUMP JUMPDEST PUSH1 0x6 PUSH1 0x20 MSTORE DUP1 PUSH0 MSTORE PUSH1 0x40 PUSH0 KECCAK256 PUSH0 SWAP2 POP SWAP1 POP DUP1 PUSH0 ADD SLOAD SWAP1 DUP1 PUSH1 0x1 ADD DUP1 SLOAD PUSH2 0x3941 SWAP1 PUSH2 0x4D91 JUMP JUMPDEST DUP1 PUSH1 0x1F ADD PUSH1 0x20 DUP1 SWAP2 DIV MUL PUSH1 0x20 ADD PUSH1 0x40 MLOAD SWAP1 DUP2 ADD PUSH1 0x40 MSTORE DUP1 SWAP3 SWAP2 SWAP1 DUP2 DUP2 MSTORE PUSH1 0x20 ADD DUP3 DUP1 SLOAD PUSH2 0x396D SWAP1 PUSH2 0x4D91 JUMP JUMPDEST DUP1 ISZERO PUSH2 0x39B8 JUMPI DUP1 PUSH1 0x1F LT PUSH2 0x398F JUMPI PUSH2 0x100 DUP1 DUP4 SLOAD DIV MUL DUP4 MSTORE SWAP2 PUSH1 0x20 ADD SWAP2 PUSH2 0x39B8 JUMP JUMPDEST DUP3 ADD SWAP2 SWAP1 PUSH0 MSTORE PUSH1 0x20 PUSH0 KECCAK256 SWAP1 JUMPDEST DUP2 SLOAD DUP2 MSTORE SWAP1 PUSH1 0x1 ADD SWAP1 PUSH1 0x20 ADD DUP1 DUP4 GT PUSH2 0x399B JUMPI DUP3 SWAP1 SUB PUSH1 0x1F AND DUP3 ADD SWAP2 JUMPDEST POP POP POP POP POP SWAP1 DUP1 PUSH1 0x2 ADD SLOAD SWAP1 DUP1 PUSH1 0x3 ADD SLOAD SWAP1 DUP1 PUSH1 0x4 ADD SLOAD SWAP1 DUP1 PUSH1 0x5 ADD SLOAD SWAP1 DUP1 PUSH1 0x6 ADD PUSH0 SWAP1 SLOAD SWAP1 PUSH2 0x100 EXP SWAP1 DIV PUSH1 0xFF AND SWAP1 DUP1 PUSH1 0x7 ADD SLOAD SWAP1 DUP1 PUSH1 0x8 ADD PUSH0 SWAP1 SLOAD SWAP1 PUSH2 0x100 EXP SWAP1 DIV PUSH20 0xFFFFFFFFFFFFFFFFFFFFFFFFFFFFFFFFFFFFFFFF AND SWAP1 POP DUP10 JUMP JUMPDEST PUSH1 0x8 PUSH1 0x20 MSTORE DUP1 PUSH0 MSTORE PUSH1 0x40 PUSH0 KECCAK256 PUSH0 SWAP2 POP SWAP1 POP DUP1 PUSH0 ADD SLOAD SWAP1 DUP1 PUSH1 0x1 ADD SLOAD SWAP1 DUP1 PUSH1 0x2 ADD PUSH0 SWAP1 SLOAD SWAP1 PUSH2 0x100 EXP SWAP1 DIV PUSH1 0xFF AND SWAP1 DUP1 PUSH1 0x3 ADD DUP1 SLOAD PUSH2 0x3A54 SWAP1 PUSH2 0x4D91 JUMP JUMPDEST DUP1 PUSH1 0x1F ADD PUSH1 0x20 DUP1 SWAP2 DIV MUL PUSH1 0x20 ADD PUSH1 0x40 MLOAD SWAP1 DUP2 ADD PUSH1 0x40 MSTORE DUP1 SWAP3 SWAP2 SWAP1 DUP2 DUP2 MSTORE PUSH1 0x20 ADD DUP3 DUP1 SLOAD PUSH2 0x3A80 SWAP1 PUSH2 0x4D91 JUMP JUMPDEST DUP1 ISZERO PUSH2 0x3ACB JUMPI DUP1 PUSH1 0x1F LT PUSH2 0x3AA2 JUMPI PUSH2 0x100 DUP1 DUP4 SLOAD DIV MUL DUP4 MSTORE SWAP2 PUSH1 0x20 ADD SWAP2 PUSH2 0x3ACB JUMP JUMPDEST DUP3 ADD SWAP2 SWAP1 PUSH0 MSTORE PUSH1 0x20 PUSH0 KECCAK256 SWAP1 JUMPDEST DUP2 SLOAD DUP2 MSTORE SWAP1 PUSH1 0x1 ADD SWAP1 PUSH1 0x20 ADD DUP1 DUP4 GT PUSH2 0x3AAE JUMPI DUP3 SWAP1 SUB PUSH1 0x1F AND DUP3 ADD SWAP2 JUMPDEST POP POP POP POP POP SWAP1 DUP1 PUSH1 0x4 ADD SLOAD SWAP1 DUP1 PUSH1 0x5 ADD SLOAD SWAP1 DUP1 PUSH1 0x6 ADD SLOAD SWAP1 DUP1 PUSH1 0x7 ADD SLOAD SWAP1 DUP1 PUSH1 0x8 ADD SLOAD SWAP1 DUP1 PUSH1 0x9 ADD PUSH0 SWAP1 SLOAD SWAP1 PUSH2 0x100 EXP SWAP1 DIV PUSH20 0xFFFFFFFFFFFFFFFFFFFFFFFFFFFFFFFFFFFFFFFF AND SWAP1 POP DUP11 JUMP JUMPDEST PUSH1 0x60 PUSH1 0x13 PUSH0 DUP4 DUP2 MSTORE PUSH1 0x20 ADD SWAP1 DUP2 MSTORE PUSH1 0x20 ADD PUSH0 KECCAK256 DUP1 SLOAD DUP1 PUSH1 0x20 MUL PUSH1 0x20 ADD PUSH1 0x40 MLOAD SWAP1 DUP2 ADD PUSH1 0x40 MSTORE DUP1 SWAP3 SWAP2 SWAP1 DUP2 DUP2 MSTORE PUSH1 0x20 ADD DUP3 DUP1 SLOAD DUP1 ISZERO PUSH2 0x3B73 JUMPI PUSH1 0x20 MUL DUP3 ADD SWAP2 SWAP1 PUSH0 MSTORE PUSH1 0x20 PUSH0 KECCAK256 SWAP1 JUMPDEST DUP2 SLOAD DUP2 MSTORE PUSH1 0x20 ADD SWAP1 PUSH1 0x1 ADD SWAP1 DUP1 DUP4 GT PUSH2 0x3B5F JUMPI JUMPDEST POP POP POP POP POP SWAP1 POP SWAP2 SWAP1 POP JUMP JUMPDEST PUSH1 0x12 PUSH1 0x20 MSTORE DUP2 PUSH0 MSTORE PUSH1 0x40 PUSH0 KECCAK256 DUP2 DUP2 SLOAD DUP2 LT PUSH2 0x3B98 JUMPI PUSH0 DUP1 REVERT JUMPDEST SWAP1 PUSH0 MSTORE PUSH1 0x20 PUSH0 KECCAK256 ADD PUSH0 SWAP2 POP SWAP2 POP POP SLOAD DUP2 JUMP JUMPDEST PUSH1 0x10 PUSH1 0x20 MSTORE DUP2 PUSH0 MSTORE PUSH1 0x40 PUSH0 KECCAK256 DUP2 DUP2 SLOAD DUP2 LT PUSH2 0x3BC3 JUMPI PUSH0 DUP1 REVERT JUMPDEST SWAP1 PUSH0 MSTORE PUSH1 0x20 PUSH0 KECCAK256 ADD PUSH0 SWAP2 POP SWAP2 POP POP SLOAD DUP2 JUMP JUMPDEST PUSH2 0x2710 DUP2 JUMP JUMPDEST PUSH1 0x1 SLOAD DUP2 JUMP JUMPDEST PUSH0 PUSH1 0x3 PUSH1 0x15 PUSH0 CALLER PUSH20 0xFFFFFFFFFFFFFFFFFFFFFFFFFFFFFFFFFFFFFFFF AND PUSH20 0xFFFFFFFFFFFFFFFFFFFFFFFFFFFFFFFFFFFFFFFF AND DUP2 MSTORE PUSH1 0x20 ADD SWAP1 DUP2 MSTORE PUSH1 0x20 ADD PUSH0 KECCAK256 PUSH0 DUP3 PUSH1 0x5 DUP2 GT ISZERO PUSH2 0x3C35 JUMPI PUSH2 0x3C34 PUSH2 0x42FD JUMP JUMPDEST JUMPDEST PUSH1 0x5 DUP2 GT ISZERO PUSH2 0x3C47 JUMPI PUSH2 0x3C46 PUSH2 0x42FD JUMP JUMPDEST JUMPDEST DUP2 MSTORE PUSH1 0x20 ADD SWAP1 DUP2 MSTORE PUSH1 0x20 ADD PUSH0 KECCAK256 PUSH0 SWAP1 SLOAD SWAP1 PUSH2 0x100 EXP SWAP1 DIV PUSH1 0xFF AND DUP1 PUSH2 0x3CB9 JUMPI POP PUSH1 0x16 PUSH0 SWAP1 SLOAD SWAP1 PUSH2 0x100 EXP SWAP1 DIV PUSH20 0xFFFFFFFFFFFFFFFFFFFFFFFFFFFFFFFFFFFFFFFF AND PUSH20 0xFFFFFFFFFFFFFFFFFFFFFFFFFFFFFFFFFFFFFFFF AND CALLER PUSH20 0xFFFFFFFFFFFFFFFFFFFFFFFFFFFFFFFFFFFFFFFF AND EQ ISZERO JUMPDEST PUSH2 0x3CEF JUMPI PUSH1 0x40 MLOAD PUSH32 0x9D7B369D00000000000000000000000000000000000000000000000000000000 DUP2 MSTORE PUSH1 0x4 ADD PUSH1 0x40 MLOAD DUP1 SWAP2 SUB SWAP1 REVERT JUMPDEST DUP3 PUSH1 0x80 DUP2 MLOAD GT ISZERO PUSH2 0x3D2C JUMPI PUSH1 0x40 MLOAD PUSH32 0xB11B2AD800000000000000000000000000000000000000000000000000000000 DUP2 MSTORE PUSH1 0x4 ADD PUSH1 0x40 MLOAD DUP1 SWAP2 SUB SWAP1 REVERT JUMPDEST PUSH0 PUSH1 0x3 PUSH0 DUP2 SLOAD DUP1 SWAP3 SWAP2 SWAP1 PUSH2 0x3D3F SWAP1 PUSH2 0x4D1D JUMP JUMPDEST SWAP2 SWAP1 POP SSTORE SWAP1 POP PUSH1 0x40 MLOAD DUP1 PUSH1 0x80 ADD PUSH1 0x40 MSTORE DUP1 DUP3 DUP2 MSTORE PUSH1 0x20 ADD DUP7 DUP2 MSTORE PUSH1 0x20 ADD TIMESTAMP DUP2 MSTORE PUSH1 0x20 ADD CALLER PUSH20 0xFFFFFFFFFFFFFFFFFFFFFFFFFFFFFFFFFFFFFFFF AND DUP2 MSTORE POP PUSH1 0x9 PUSH0 DUP4 DUP2 MSTORE PUSH1 0x20 ADD SWAP1 DUP2 MSTORE PUSH1 0x20 ADD PUSH0 KECCAK256 PUSH0 DUP3 ADD MLOAD DUP2 PUSH0 ADD SSTORE PUSH1 0x20 DUP3 ADD MLOAD DUP2 PUSH1 0x1 ADD SWAP1 DUP2 PUSH2 0x3DAA SWAP2 SWAP1 PUSH2 0x4F61 JUMP JUMPDEST POP PUSH1 0x40 DUP3 ADD MLOAD DUP2 PUSH1 0x2 ADD SSTORE PUSH1 0x60 DUP3 ADD MLOAD DUP2 PUSH1 0x3 ADD PUSH0 PUSH2 0x100 EXP DUP2 SLOAD DUP2 PUSH20 0xFFFFFFFFFFFFFFFFFFFFFFFFFFFFFFFFFFFFFFFF MUL NOT AND SWAP1 DUP4 PUSH20 0xFFFFFFFFFFFFFFFFFFFFFFFFFFFFFFFFFFFFFFFF AND MUL OR SWAP1 SSTORE POP SWAP1 POP POP DUP1 SWAP4 POP POP POP POP SWAP2 SWAP1 POP JUMP JUMPDEST PUSH0 PUSH1 0xA PUSH0 DUP5 DUP2 MSTORE PUSH1 0x20 ADD SWAP1 DUP2 MSTORE PUSH1 0x20 ADD PUSH0 KECCAK256 PUSH0 ADD SLOAD SUB PUSH2 0x3E55 JUMPI PUSH1 0x40 MLOAD PUSH32 0xC5723B5100000000000000000000000000000000000000000000000000000000 DUP2 MSTORE PUSH1 0x4 ADD PUSH1 0x40 MLOAD DUP1 SWAP2 SUB SWAP1 REVERT JUMPDEST PUSH0 PUSH1 0x6 PUSH0 DUP4 DUP2 MSTORE PUSH1 0x20 ADD SWAP1 DUP2 MSTORE PUSH1 0x20 ADD PUSH0 KECCAK256 PUSH0 ADD SLOAD SUB PUSH2 0x3EA1 JUMPI PUSH1 0x40 MLOAD PUSH32 0xC5723B5100000000000000000000000000000000000000000000000000000000 DUP2 MSTORE PUSH1 0x4 ADD PUSH1 0x40 MLOAD DUP1 SWAP2 SUB SWAP1 REVERT JUMPDEST PUSH0 PUSH1 0x2 DUP2 GT ISZERO PUSH2 0x3EB4 JUMPI PUSH2 0x3EB3 PUSH2 0x42FD JUMP JUMPDEST JUMPDEST PUSH1 0xA PUSH0 DUP5 DUP2 MSTORE PUSH1 0x20 ADD SWAP1 DUP2 MSTORE PUSH1 0x20 ADD PUSH0 KECCAK256 PUSH1 0x1 ADD PUSH1 0x1 SWAP1 SLOAD SWAP1 PUSH2 0x100 EXP SWAP1 DIV PUSH1 0xFF AND PUSH1 0x2 DUP2 GT ISZERO PUSH2 0x3EE8 JUMPI PUSH2 0x3EE7 PUSH2 0x42FD JUMP JUMPDEST JUMPDEST EQ PUSH2 0x3F1F JUMPI PUSH1 0x40 MLOAD PUSH32 0xF525E32000000000000000000000000000000000000000000000000000000000 DUP2 MSTORE PUSH1 0x4 ADD PUSH1 0x40 MLOAD DUP1 SWAP2 SUB SWAP1 REVERT JUMPDEST PUSH0 PUSH1 0x1 DUP2 GT ISZERO PUSH2 0x3F32 JUMPI PUSH2 0x3F31 PUSH2 0x42FD JUMP JUMPDEST JUMPDEST PUSH1 0x6 PUSH0 DUP4 DUP2 MSTORE PUSH1 0x20 ADD SWAP1 DUP2 MSTORE PUSH1 0x20 ADD PUSH0 KECCAK256 PUSH1 0x6 ADD PUSH0 SWAP1 SLOAD SWAP1 PUSH2 0x100 EXP SWAP1 DIV PUSH1 0xFF AND PUSH1 0x1 DUP2 GT ISZERO PUSH2 0x3F65 JUMPI PUSH2 0x3F64 PUSH2 0x42FD JUMP JUMPDEST JUMPDEST EQ PUSH2 0x3F9C JUMPI PUSH1 0x40 MLOAD PUSH32 0xF525E32000000000000000000000000000000000000000000000000000000000 DUP2 MSTORE PUSH1 0x4 ADD PUSH1 0x40 MLOAD DUP1 SWAP2 SUB SWAP1 REVERT JUMPDEST PUSH2 0x2710 PUSH1 0x13 PUSH0 DUP5 DUP2 MSTORE PUSH1 0x20 ADD SWAP1 DUP2 MSTORE PUSH1 0x20 ADD PUSH0 KECCAK256 DUP1 SLOAD SWAP1 POP LT PUSH2 0x3FEB JUMPI PUSH1 0x40 MLOAD PUSH32 0x4F2A111200000000000000000000000000000000000000000000000000000000 DUP2 MSTORE PUSH1 0x4 ADD PUSH1 0x40 MLOAD DUP1 SWAP2 SUB SWAP1 REVERT JUMPDEST PUSH1 0x13 PUSH0 DUP4 DUP2 MSTORE PUSH1 0x20 ADD SWAP1 DUP2 MSTORE PUSH1 0x20 ADD PUSH0 KECCAK256 DUP2 SWAP1 DUP1 PUSH1 0x1 DUP2 SLOAD ADD DUP1 DUP3 SSTORE DUP1 SWAP2 POP POP PUSH1 0x1 SWAP1 SUB SWAP1 PUSH0 MSTORE PUSH1 0x20 PUSH0 KECCAK256 ADD PUSH0 SWAP1 SWAP2 SWAP1 SWAP2 SWAP1 SWAP2 POP SSTORE POP POP JUMP JUMPDEST PUSH1 0x7 PUSH1 0x20 MSTORE DUP1 PUSH0 MSTORE PUSH1 0x40 PUSH0 KECCAK256 PUSH0 SWAP2 POP SWAP1 POP DUP1 PUSH0 ADD SLOAD SWAP1 DUP1 PUSH1 0x1 ADD SLOAD SWAP1 DUP1 PUSH1 0x2 ADD SLOAD SWAP1 DUP1 PUSH1 0x3 ADD PUSH0 SWAP1 SLOAD SWAP1 PUSH2 0x100 EXP SWAP1 DIV PUSH20 0xFFFFFFFFFFFFFFFFFFFFFFFFFFFFFFFFFFFFFFFF AND SWAP1 POP DUP5 JUMP JUMPDEST PUSH1 0x2 SLOAD DUP2 JUMP JUMPDEST PUSH1 0x11 PUSH1 0x20 MSTORE DUP2 PUSH0 MSTORE PUSH1 0x40 PUSH0 KECCAK256 DUP2 DUP2 SLOAD DUP2 LT PUSH2 0x408E JUMPI PUSH0 DUP1 REVERT JUMPDEST SWAP1 PUSH0 MSTORE PUSH1 0x20 PUSH0 KECCAK256 ADD PUSH0 SWAP2 POP SWAP2 POP POP SLOAD DUP2 JUMP JUMPDEST PUSH0 PUSH1 0x40 MLOAD SWAP1 POP SWAP1 JUMP JUMPDEST PUSH0 PUSH0 REVERT JUMPDEST PUSH0 PUSH0 REVERT JUMPDEST PUSH0 DUP2 SWAP1 POP SWAP2 SWAP1 POP JUMP JUMPDEST PUSH2 0x40C3 DUP2 PUSH2 0x40B1 JUMP JUMPDEST DUP2 EQ PUSH2 0x40CD JUMPI PUSH0 PUSH0 REVERT JUMPDEST POP JUMP JUMPDEST PUSH0 DUP2 CALLDATALOAD SWAP1 POP PUSH2 0x40DE DUP2 PUSH2 0x40BA JUMP JUMPDEST SWAP3 SWAP2 POP POP JUMP JUMPDEST PUSH0 PUSH0 PUSH1 0x40 DUP4 DUP6 SUB SLT ISZERO PUSH2 0x40FA JUMPI PUSH2 0x40F9 PUSH2 0x40A9 JUMP JUMPDEST JUMPDEST PUSH0 PUSH2 0x4107 DUP6 DUP3 DUP7 ADD PUSH2 0x40D0 JUMP JUMPDEST SWAP3 POP POP PUSH1 0x20 PUSH2 0x4118 DUP6 DUP3 DUP7 ADD PUSH2 0x40D0 JUMP JUMPDEST SWAP2 POP POP SWAP3 POP SWAP3 SWAP1 POP JUMP JUMPDEST PUSH2 0x412B DUP2 PUSH2 0x40B1 JUMP JUMPDEST DUP3 MSTORE POP POP JUMP JUMPDEST PUSH0 PUSH1 0x20 DUP3 ADD SWAP1 POP PUSH2 0x4144 PUSH0 DUP4 ADD DUP5 PUSH2 0x4122 JUMP JUMPDEST SWAP3 SWAP2 POP POP JUMP JUMPDEST PUSH0 PUSH20 0xFFFFFFFFFFFFFFFFFFFFFFFFFFFFFFFFFFFFFFFF DUP3 AND SWAP1 POP SWAP2 SWAP1 POP JUMP JUMPDEST PUSH0 PUSH2 0x4173 DUP3 PUSH2 0x414A JUMP JUMPDEST SWAP1 POP SWAP2 SWAP1 POP JUMP JUMPDEST PUSH2 0x4183 DUP2 PUSH2 0x4169 JUMP JUMPDEST DUP2 EQ PUSH2 0x418D JUMPI PUSH0 PUSH0 REVERT JUMPDEST POP JUMP JUMPDEST PUSH0 DUP2 CALLDATALOAD SWAP1 POP PUSH2 0x419E DUP2 PUSH2 0x417A JUMP JUMPDEST SWAP3 SWAP2 POP POP JUMP JUMPDEST PUSH1 0x6 DUP2 LT PUSH2 0x41B0 JUMPI PUSH0 PUSH0 REVERT JUMPDEST POP JUMP JUMPDEST PUSH0 DUP2 CALLDATALOAD SWAP1 POP PUSH2 0x41C1 DUP2 PUSH2 0x41A4 JUMP JUMPDEST SWAP3 SWAP2 POP POP JUMP JUMPDEST PUSH0 PUSH0 PUSH1 0x40 DUP4 DUP6 SUB SLT ISZERO PUSH2 0x41DD JUMPI PUSH2 0x41DC PUSH2 0x40A9 JUMP JUMPDEST JUMPDEST PUSH0 PUSH2 0x41EA DUP6 DUP3 DUP7 ADD PUSH2 0x4190 JUMP JUMPDEST SWAP3 POP POP PUSH1 0x20 PUSH2 0x41FB DUP6 DUP3 DUP7 ADD PUSH2 0x41B3 JUMP JUMPDEST SWAP2 POP POP SWAP3 POP SWAP3 SWAP1 POP JUMP JUMPDEST PUSH0 DUP2 ISZERO ISZERO SWAP1 POP SWAP2 SWAP1 POP JUMP JUMPDEST PUSH2 0x4219 DUP2 PUSH2 0x4205 JUMP JUMPDEST DUP3 MSTORE POP POP JUMP JUMPDEST PUSH0 PUSH1 0x20 DUP3 ADD SWAP1 POP PUSH2 0x4232 PUSH0 DUP4 ADD DUP5 PUSH2 0x4210 JUMP JUMPDEST SWAP3 SWAP2 POP POP JUMP JUMPDEST PUSH0 PUSH1 0x20 DUP3 DUP5 SUB SLT ISZERO PUSH2 0x424D JUMPI PUSH2 0x424C PUSH2 0x40A9 JUMP JUMPDEST JUMPDEST PUSH0 PUSH2 0x425A DUP5 DUP3 DUP6 ADD PUSH2 0x40D0 JUMP JUMPDEST SWAP2 POP POP SWAP3 SWAP2 POP POP JUMP JUMPDEST PUSH1 0x4 DUP2 LT PUSH2 0x426F JUMPI PUSH0 PUSH0 REVERT JUMPDEST POP JUMP JUMPDEST PUSH0 DUP2 CALLDATALOAD SWAP1 POP PUSH2 0x4280 DUP2 PUSH2 0x4263 JUMP JUMPDEST SWAP3 SWAP2 POP POP JUMP JUMPDEST PUSH0 PUSH0 PUSH0 PUSH0 PUSH0 PUSH1 0xA0 DUP7 DUP9 SUB SLT ISZERO PUSH2 0x429F JUMPI PUSH2 0x429E PUSH2 0x40A9 JUMP JUMPDEST JUMPDEST PUSH0 PUSH2 0x42AC DUP9 DUP3 DUP10 ADD PUSH2 0x4272 JUMP JUMPDEST SWAP6 POP POP PUSH1 0x20 PUSH2 0x42BD DUP9 DUP3 DUP10 ADD PUSH2 0x40D0 JUMP JUMPDEST SWAP5 POP POP PUSH1 0x40 PUSH2 0x42CE DUP9 DUP3 DUP10 ADD PUSH2 0x40D0 JUMP JUMPDEST SWAP4 POP POP PUSH1 0x60 PUSH2 0x42DF DUP9 DUP3 DUP10 ADD PUSH2 0x40D0 JUMP JUMPDEST SWAP3 POP POP PUSH1 0x80 PUSH2 0x42F0 DUP9 DUP3 DUP10 ADD PUSH2 0x40D0 JUMP JUMPDEST SWAP2 POP POP SWAP3 SWAP6 POP SWAP3 SWAP6 SWAP1 SWAP4 POP JUMP JUMPDEST PUSH32 0x4E487B7100000000000000000000000000000000000000000000000000000000 PUSH0 MSTORE PUSH1 0x21 PUSH1 0x4 MSTORE PUSH1 0x24 PUSH0 REVERT JUMPDEST PUSH1 0x4 DUP2 LT PUSH2 0x433B JUMPI PUSH2 0x433A PUSH2 0x42FD JUMP JUMPDEST JUMPDEST POP JUMP JUMPDEST PUSH0 DUP2 SWAP1 POP PUSH2 0x434B DUP3 PUSH2 0x432A JUMP JUMPDEST SWAP2 SWAP1 POP JUMP JUMPDEST PUSH0 PUSH2 0x435A DUP3 PUSH2 0x433E JUMP JUMPDEST SWAP1 POP SWAP2 SWAP1 POP JUMP JUMPDEST PUSH2 0x436A DUP2 PUSH2 0x4350 JUMP JUMPDEST DUP3 MSTORE POP POP JUMP JUMPDEST PUSH1 0x3 DUP2 LT PUSH2 0x4381 JUMPI PUSH2 0x4380 PUSH2 0x42FD JUMP JUMPDEST JUMPDEST POP JUMP JUMPDEST PUSH0 DUP2 SWAP1 POP PUSH2 0x4391 DUP3 PUSH2 0x4370 JUMP JUMPDEST SWAP2 SWAP1 POP JUMP JUMPDEST PUSH0 PUSH2 0x43A0 DUP3 PUSH2 0x4384 JUMP JUMPDEST SWAP1 POP SWAP2 SWAP1 POP JUMP JUMPDEST PUSH2 0x43B0 DUP2 PUSH2 0x4396 JUMP JUMPDEST DUP3 MSTORE POP POP JUMP JUMPDEST PUSH2 0x43BF DUP2 PUSH2 0x4169 JUMP JUMPDEST DUP3 MSTORE POP POP JUMP JUMPDEST PUSH0 PUSH2 0x160 DUP3 ADD SWAP1 POP PUSH2 0x43D9 PUSH0 DUP4 ADD DUP15 PUSH2 0x4122 JUMP JUMPDEST PUSH2 0x43E6 PUSH1 0x20 DUP4 ADD DUP14 PUSH2 0x4361 JUMP JUMPDEST PUSH2 0x43F3 PUSH1 0x40 DUP4 ADD DUP13 PUSH2 0x43A7 JUMP JUMPDEST PUSH2 0x4400 PUSH1 0x60 DUP4 ADD DUP12 PUSH2 0x4122 JUMP JUMPDEST PUSH2 0x440D PUSH1 0x80 DUP4 ADD DUP11 PUSH2 0x4122 JUMP JUMPDEST PUSH2 0x441A PUSH1 0xA0 DUP4 ADD DUP10 PUSH2 0x4122 JUMP JUMPDEST PUSH2 0x4427 PUSH1 0xC0 DUP4 ADD DUP9 PUSH2 0x4122 JUMP JUMPDEST PUSH2 0x4434 PUSH1 0xE0 DUP4 ADD DUP8 PUSH2 0x4122 JUMP JUMPDEST PUSH2 0x4442 PUSH2 0x100 DUP4 ADD DUP7 PUSH2 0x4122 JUMP JUMPDEST PUSH2 0x4450 PUSH2 0x120 DUP4 ADD DUP6 PUSH2 0x4122 JUMP JUMPDEST PUSH2 0x445E PUSH2 0x140 DUP4 ADD DUP5 PUSH2 0x43B6 JUMP JUMPDEST SWAP13 SWAP12 POP POP POP POP POP POP POP POP POP POP POP POP JUMP JUMPDEST PUSH0 PUSH0 REVERT JUMPDEST PUSH0 PUSH0 REVERT JUMPDEST PUSH0 PUSH1 0x1F NOT PUSH1 0x1F DUP4 ADD AND SWAP1 POP SWAP2 SWAP1 POP JUMP JUMPDEST PUSH32 0x4E487B7100000000000000000000000000000000000000000000000000000000 PUSH0 MSTORE PUSH1 0x41 PUSH1 0x4 MSTORE PUSH1 0x24 PUSH0 REVERT JUMPDEST PUSH2 0x44BC DUP3 PUSH2 0x4476 JUMP JUMPDEST DUP2 ADD DUP2 DUP2 LT PUSH8 0xFFFFFFFFFFFFFFFF DUP3 GT OR ISZERO PUSH2 0x44DB JUMPI PUSH2 0x44DA PUSH2 0x4486 JUMP JUMPDEST JUMPDEST DUP1 PUSH1 0x40 MSTORE POP POP POP JUMP JUMPDEST PUSH0 PUSH2 0x44ED PUSH2 0x40A0 JUMP JUMPDEST SWAP1 POP PUSH2 0x44F9 DUP3 DUP3 PUSH2 0x44B3 JUMP JUMPDEST SWAP2 SWAP1 POP JUMP JUMPDEST PUSH0 PUSH8 0xFFFFFFFFFFFFFFFF DUP3 GT ISZERO PUSH2 0x4518 JUMPI PUSH2 0x4517 PUSH2 0x4486 JUMP JUMPDEST JUMPDEST PUSH2 0x4521 DUP3 PUSH2 0x4476 JUMP JUMPDEST SWAP1 POP PUSH1 0x20 DUP2 ADD SWAP1 POP SWAP2 SWAP1 POP JUMP JUMPDEST DUP3 DUP2 DUP4 CALLDATACOPY PUSH0 DUP4 DUP4 ADD MSTORE POP POP POP JUMP JUMPDEST PUSH0 PUSH2 0x454E PUSH2 0x4549 DUP5 PUSH2 0x44FE JUMP JUMPDEST PUSH2 0x44E4 JUMP JUMPDEST SWAP1 POP DUP3 DUP2 MSTORE PUSH1 0x20 DUP2 ADD DUP5 DUP5 DUP5 ADD GT ISZERO PUSH2 0x456A JUMPI PUSH2 0x4569 PUSH2 0x4472 JUMP JUMPDEST JUMPDEST PUSH2 0x4575 DUP5 DUP3 DUP6 PUSH2 0x452E JUMP JUMPDEST POP SWAP4 SWAP3 POP POP POP JUMP JUMPDEST PUSH0 DUP3 PUSH1 0x1F DUP4 ADD SLT PUSH2 0x4591 JUMPI PUSH2 0x4590 PUSH2 0x446E JUMP JUMPDEST JUMPDEST DUP2 CALLDATALOAD PUSH2 0x45A1 DUP5 DUP3 PUSH1 0x20 DUP7 ADD PUSH2 0x453C JUMP JUMPDEST SWAP2 POP POP SWAP3 SWAP2 POP POP JUMP JUMPDEST PUSH1 0x2 DUP2 LT PUSH2 0x45B6 JUMPI PUSH0 PUSH0 REVERT JUMPDEST POP JUMP JUMPDEST PUSH0 DUP2 CALLDATALOAD SWAP1 POP PUSH2 0x45C7 DUP2 PUSH2 0x45AA JUMP JUMPDEST SWAP3 SWAP2 POP POP JUMP JUMPDEST PUSH0 PUSH0 PUSH0 PUSH0 PUSH0 PUSH1 0xA0 DUP7 DUP9 SUB SLT ISZERO PUSH2 0x45E6 JUMPI PUSH2 0x45E5 PUSH2 0x40A9 JUMP JUMPDEST JUMPDEST PUSH0 DUP7 ADD CALLDATALOAD PUSH8 0xFFFFFFFFFFFFFFFF DUP2 GT ISZERO PUSH2 0x4603 JUMPI PUSH2 0x4602 PUSH2 0x40AD JUMP JUMPDEST JUMPDEST PUSH2 0x460F DUP9 DUP3 DUP10 ADD PUSH2 0x457D JUMP JUMPDEST SWAP6 POP POP PUSH1 0x20 PUSH2 0x4620 DUP9 DUP3 DUP10 ADD PUSH2 0x40D0 JUMP JUMPDEST SWAP5 POP POP PUSH1 0x40 PUSH2 0x4631 DUP9 DUP3 DUP10 ADD PUSH2 0x45B9 JUMP JUMPDEST SWAP4 POP POP PUSH1 0x60 PUSH2 0x4642 DUP9 DUP3 DUP10 ADD PUSH2 0x40D0 JUMP JUMPDEST SWAP3 POP POP PUSH1 0x80 PUSH2 0x4653 DUP9 DUP3 DUP10 ADD PUSH2 0x40D0 JUMP JUMPDEST SWAP2 POP POP SWAP3 SWAP6 POP SWAP3 SWAP6 SWAP1 SWAP4 POP JUMP JUMPDEST PUSH0 DUP2 MLOAD SWAP1 POP SWAP2 SWAP1 POP JUMP JUMPDEST PUSH0 DUP3 DUP3 MSTORE PUSH1 0x20 DUP3 ADD SWAP1 POP SWAP3 SWAP2 POP POP JUMP JUMPDEST DUP3 DUP2 DUP4 MCOPY PUSH0 DUP4 DUP4 ADD MSTORE POP POP POP JUMP JUMPDEST PUSH0 PUSH2 0x4692 DUP3 PUSH2 0x4660 JUMP JUMPDEST PUSH2 0x469C DUP2 DUP6 PUSH2 0x466A JUMP JUMPDEST SWAP4 POP PUSH2 0x46AC DUP2 DUP6 PUSH1 0x20 DUP7 ADD PUSH2 0x467A JUMP JUMPDEST PUSH2 0x46B5 DUP2 PUSH2 0x4476 JUMP JUMPDEST DUP5 ADD SWAP2 POP POP SWAP3 SWAP2 POP POP JUMP JUMPDEST PUSH0 PUSH1 0x80 DUP3 ADD SWAP1 POP PUSH2 0x46D3 PUSH0 DUP4 ADD DUP8 PUSH2 0x4122 JUMP JUMPDEST DUP2 DUP2 SUB PUSH1 0x20 DUP4 ADD MSTORE PUSH2 0x46E5 DUP2 DUP7 PUSH2 0x4688 JUMP JUMPDEST SWAP1 POP PUSH2 0x46F4 PUSH1 0x40 DUP4 ADD DUP6 PUSH2 0x4122 JUMP JUMPDEST PUSH2 0x4701 PUSH1 0x60 DUP4 ADD DUP5 PUSH2 0x43B6 JUMP JUMPDEST SWAP6 SWAP5 POP POP POP POP POP JUMP JUMPDEST PUSH0 DUP2 MLOAD SWAP1 POP SWAP2 SWAP1 POP JUMP JUMPDEST PUSH0 DUP3 DUP3 MSTORE PUSH1 0x20 DUP3 ADD SWAP1 POP SWAP3 SWAP2 POP POP JUMP JUMPDEST PUSH0 DUP2 SWAP1 POP PUSH1 0x20 DUP3 ADD SWAP1 POP SWAP2 SWAP1 POP JUMP JUMPDEST PUSH2 0x473C DUP2 PUSH2 0x40B1 JUMP JUMPDEST DUP3 MSTORE POP POP JUMP JUMPDEST PUSH0 PUSH2 0x474D DUP4 DUP4 PUSH2 0x4733 JUMP JUMPDEST PUSH1 0x20 DUP4 ADD SWAP1 POP SWAP3 SWAP2 POP POP JUMP JUMPDEST PUSH0 PUSH1 0x20 DUP3 ADD SWAP1 POP SWAP2 SWAP1 POP JUMP JUMPDEST PUSH0 PUSH2 0x476F DUP3 PUSH2 0x470A JUMP JUMPDEST PUSH2 0x4779 DUP2 DUP6 PUSH2 0x4714 JUMP JUMPDEST SWAP4 POP PUSH2 0x4784 DUP4 PUSH2 0x4724 JUMP JUMPDEST DUP1 PUSH0 JUMPDEST DUP4 DUP2 LT ISZERO PUSH2 0x47B4 JUMPI DUP2 MLOAD PUSH2 0x479B DUP9 DUP3 PUSH2 0x4742 JUMP JUMPDEST SWAP8 POP PUSH2 0x47A6 DUP4 PUSH2 0x4759 JUMP JUMPDEST SWAP3 POP POP PUSH1 0x1 DUP2 ADD SWAP1 POP PUSH2 0x4787 JUMP JUMPDEST POP DUP6 SWAP4 POP POP POP POP SWAP3 SWAP2 POP POP JUMP JUMPDEST PUSH0 PUSH1 0x20 DUP3 ADD SWAP1 POP DUP2 DUP2 SUB PUSH0 DUP4 ADD MSTORE PUSH2 0x47D9 DUP2 DUP5 PUSH2 0x4765 JUMP JUMPDEST SWAP1 POP SWAP3 SWAP2 POP POP JUMP JUMPDEST PUSH0 PUSH0 PUSH1 0x40 DUP4 DUP6 SUB SLT ISZERO PUSH2 0x47F7 JUMPI PUSH2 0x47F6 PUSH2 0x40A9 JUMP JUMPDEST JUMPDEST PUSH0 PUSH2 0x4804 DUP6 DUP3 DUP7 ADD PUSH2 0x41B3 JUMP JUMPDEST SWAP3 POP POP PUSH1 0x20 PUSH2 0x4815 DUP6 DUP3 DUP7 ADD PUSH2 0x40D0 JUMP JUMPDEST SWAP2 POP POP SWAP3 POP SWAP3 SWAP1 POP JUMP JUMPDEST PUSH0 PUSH0 PUSH0 PUSH1 0x60 DUP5 DUP7 SUB SLT ISZERO PUSH2 0x4836 JUMPI PUSH2 0x4835 PUSH2 0x40A9 JUMP JUMPDEST JUMPDEST PUSH0 PUSH2 0x4843 DUP7 DUP3 DUP8 ADD PUSH2 0x41B3 JUMP JUMPDEST SWAP4 POP POP PUSH1 0x20 PUSH2 0x4854 DUP7 DUP3 DUP8 ADD PUSH2 0x40D0 JUMP JUMPDEST SWAP3 POP POP PUSH1 0x40 PUSH2 0x4865 DUP7 DUP3 DUP8 ADD PUSH2 0x40D0 JUMP JUMPDEST SWAP2 POP POP SWAP3 POP SWAP3 POP SWAP3 JUMP JUMPDEST PUSH0 PUSH0 PUSH1 0x40 DUP4 DUP6 SUB SLT ISZERO PUSH2 0x4885 JUMPI PUSH2 0x4884 PUSH2 0x40A9 JUMP JUMPDEST JUMPDEST PUSH0 DUP4 ADD CALLDATALOAD PUSH8 0xFFFFFFFFFFFFFFFF DUP2 GT ISZERO PUSH2 0x48A2 JUMPI PUSH2 0x48A1 PUSH2 0x40AD JUMP JUMPDEST JUMPDEST PUSH2 0x48AE DUP6 DUP3 DUP7 ADD PUSH2 0x457D JUMP JUMPDEST SWAP3 POP POP PUSH1 0x20 DUP4 ADD CALLDATALOAD PUSH8 0xFFFFFFFFFFFFFFFF DUP2 GT ISZERO PUSH2 0x48CF JUMPI PUSH2 0x48CE PUSH2 0x40AD JUMP JUMPDEST JUMPDEST PUSH2 0x48DB DUP6 DUP3 DUP7 ADD PUSH2 0x457D JUMP JUMPDEST SWAP2 POP POP SWAP3 POP SWAP3 SWAP1 POP JUMP JUMPDEST PUSH0 PUSH1 0x20 DUP3 ADD SWAP1 POP PUSH2 0x48F8 PUSH0 DUP4 ADD DUP5 PUSH2 0x43B6 JUMP JUMPDEST SWAP3 SWAP2 POP POP JUMP JUMPDEST PUSH0 PUSH0 PUSH0 PUSH0 PUSH1 0x80 DUP6 DUP8 SUB SLT ISZERO PUSH2 0x4916 JUMPI PUSH2 0x4915 PUSH2 0x40A9 JUMP JUMPDEST JUMPDEST PUSH0 PUSH2 0x4923 DUP8 DUP3 DUP9 ADD PUSH2 0x40D0 JUMP JUMPDEST SWAP5 POP POP PUSH1 0x20 DUP6 ADD CALLDATALOAD PUSH8 0xFFFFFFFFFFFFFFFF DUP2 GT ISZERO PUSH2 0x4944 JUMPI PUSH2 0x4943 PUSH2 0x40AD JUMP JUMPDEST JUMPDEST PUSH2 0x4950 DUP8 DUP3 DUP9 ADD PUSH2 0x457D JUMP JUMPDEST SWAP4 POP POP PUSH1 0x40 PUSH2 0x4961 DUP8 DUP3 DUP9 ADD PUSH2 0x40D0 JUMP JUMPDEST SWAP3 POP POP PUSH1 0x60 PUSH2 0x4972 DUP8 DUP3 DUP9 ADD PUSH2 0x40D0 JUMP JUMPDEST SWAP2 POP POP SWAP3 SWAP6 SWAP2 SWAP5 POP SWAP3 POP JUMP JUMPDEST PUSH0 PUSH1 0x20 DUP3 DUP5 SUB SLT ISZERO PUSH2 0x4993 JUMPI PUSH2 0x4992 PUSH2 0x40A9 JUMP JUMPDEST JUMPDEST PUSH0 PUSH2 0x49A0 DUP5 DUP3 DUP6 ADD PUSH2 0x41B3 JUMP JUMPDEST SWAP2 POP POP SWAP3 SWAP2 POP POP JUMP JUMPDEST PUSH0 DUP2 MLOAD SWAP1 POP SWAP2 SWAP1 POP JUMP JUMPDEST PUSH0 DUP3 DUP3 MSTORE PUSH1 0x20 DUP3 ADD SWAP1 POP SWAP3 SWAP2 POP POP JUMP JUMPDEST PUSH0 PUSH2 0x49CD DUP3 PUSH2 0x49A9 JUMP JUMPDEST PUSH2 0x49D7 DUP2 DUP6 PUSH2 0x49B3 JUMP JUMPDEST SWAP4 POP PUSH2 0x49E7 DUP2 DUP6 PUSH1 0x20 DUP7 ADD PUSH2 0x467A JUMP JUMPDEST PUSH2 0x49F0 DUP2 PUSH2 0x4476 JUMP JUMPDEST DUP5 ADD SWAP2 POP POP SWAP3 SWAP2 POP POP JUMP JUMPDEST PUSH0 PUSH1 0x20 DUP3 ADD SWAP1 POP DUP2 DUP2 SUB PUSH0 DUP4 ADD MSTORE PUSH2 0x4A13 DUP2 DUP5 PUSH2 0x49C3 JUMP JUMPDEST SWAP1 POP SWAP3 SWAP2 POP POP JUMP JUMPDEST PUSH0 PUSH1 0xA0 DUP3 ADD SWAP1 POP PUSH2 0x4A2E PUSH0 DUP4 ADD DUP9 PUSH2 0x4122 JUMP JUMPDEST DUP2 DUP2 SUB PUSH1 0x20 DUP4 ADD MSTORE PUSH2 0x4A40 DUP2 DUP8 PUSH2 0x4688 JUMP JUMPDEST SWAP1 POP DUP2 DUP2 SUB PUSH1 0x40 DUP4 ADD MSTORE PUSH2 0x4A54 DUP2 DUP7 PUSH2 0x4688 JUMP JUMPDEST SWAP1 POP PUSH2 0x4A63 PUSH1 0x60 DUP4 ADD DUP6 PUSH2 0x4122 JUMP JUMPDEST PUSH2 0x4A70 PUSH1 0x80 DUP4 ADD DUP5 PUSH2 0x43B6 JUMP JUMPDEST SWAP7 SWAP6 POP POP POP POP POP POP JUMP JUMPDEST PUSH1 0x2 DUP2 LT PUSH2 0x4A8B JUMPI PUSH2 0x4A8A PUSH2 0x42FD JUMP JUMPDEST JUMPDEST POP JUMP JUMPDEST PUSH0 DUP2 SWAP1 POP PUSH2 0x4A9B DUP3 PUSH2 0x4A7A JUMP JUMPDEST SWAP2 SWAP1 POP JUMP JUMPDEST PUSH0 PUSH2 0x4AAA DUP3 PUSH2 0x4A8E JUMP JUMPDEST SWAP1 POP SWAP2 SWAP1 POP JUMP JUMPDEST PUSH2 0x4ABA DUP2 PUSH2 0x4AA0 JUMP JUMPDEST DUP3 MSTORE POP POP JUMP JUMPDEST PUSH0 PUSH2 0x120 DUP3 ADD SWAP1 POP PUSH2 0x4AD4 PUSH0 DUP4 ADD DUP13 PUSH2 0x4122 JUMP JUMPDEST DUP2 DUP2 SUB PUSH1 0x20 DUP4 ADD MSTORE PUSH2 0x4AE6 DUP2 DUP12 PUSH2 0x4688 JUMP JUMPDEST SWAP1 POP PUSH2 0x4AF5 PUSH1 0x40 DUP4 ADD DUP11 PUSH2 0x4122 JUMP JUMPDEST PUSH2 0x4B02 PUSH1 0x60 DUP4 ADD DUP10 PUSH2 0x4122 JUMP JUMPDEST PUSH2 0x4B0F PUSH1 0x80 DUP4 ADD DUP9 PUSH2 0x4122 JUMP JUMPDEST PUSH2 0x4B1C PUSH1 0xA0 DUP4 ADD DUP8 PUSH2 0x4122 JUMP JUMPDEST PUSH2 0x4B29 PUSH1 0xC0 DUP4 ADD DUP7 PUSH2 0x4AB1 JUMP JUMPDEST PUSH2 0x4B36 PUSH1 0xE0 DUP4 ADD DUP6 PUSH2 0x4122 JUMP JUMPDEST PUSH2 0x4B44 PUSH2 0x100 DUP4 ADD DUP5 PUSH2 0x43B6 JUMP JUMPDEST SWAP11 SWAP10 POP POP POP POP POP POP POP POP POP POP JUMP JUMPDEST PUSH1 0x3 DUP2 LT PUSH2 0x4B63 JUMPI PUSH2 0x4B62 PUSH2 0x42FD JUMP JUMPDEST JUMPDEST POP JUMP JUMPDEST PUSH0 DUP2 SWAP1 POP PUSH2 0x4B73 DUP3 PUSH2 0x4B52 JUMP JUMPDEST SWAP2 SWAP1 POP JUMP JUMPDEST PUSH0 PUSH2 0x4B82 DUP3 PUSH2 0x4B66 JUMP JUMPDEST SWAP1 POP SWAP2 SWAP1 POP JUMP JUMPDEST PUSH2 0x4B92 DUP2 PUSH2 0x4B78 JUMP JUMPDEST DUP3 MSTORE POP POP JUMP JUMPDEST PUSH0 PUSH2 0x140 DUP3 ADD SWAP1 POP PUSH2 0x4BAC PUSH0 DUP4 ADD DUP14 PUSH2 0x4122 JUMP JUMPDEST PUSH2 0x4BB9 PUSH1 0x20 DUP4 ADD DUP13 PUSH2 0x4122 JUMP JUMPDEST PUSH2 0x4BC6 PUSH1 0x40 DUP4 ADD DUP12 PUSH2 0x4B89 JUMP JUMPDEST DUP2 DUP2 SUB PUSH1 0x60 DUP4 ADD MSTORE PUSH2 0x4BD8 DUP2 DUP11 PUSH2 0x4688 JUMP JUMPDEST SWAP1 POP PUSH2 0x4BE7 PUSH1 0x80 DUP4 ADD DUP10 PUSH2 0x4122 JUMP JUMPDEST PUSH2 0x4BF4 PUSH1 0xA0 DUP4 ADD DUP9 PUSH2 0x4122 JUMP JUMPDEST PUSH2 0x4C01 PUSH1 0xC0 DUP4 ADD DUP8 PUSH2 0x4122 JUMP JUMPDEST PUSH2 0x4C0E PUSH1 0xE0 DUP4 ADD DUP7 PUSH2 0x4122 JUMP JUMPDEST PUSH2 0x4C1C PUSH2 0x100 DUP4 ADD DUP6 PUSH2 0x4122 JUMP JUMPDEST PUSH2 0x4C2A PUSH2 0x120 DUP4 ADD DUP5 PUSH2 0x43B6 JUMP JUMPDEST SWAP12 SWAP11 POP POP POP POP POP POP POP POP POP POP POP JUMP JUMPDEST PUSH0 PUSH1 0x20 DUP3 DUP5 SUB SLT ISZERO PUSH2 0x4C4E JUMPI PUSH2 0x4C4D PUSH2 0x40A9 JUMP JUMPDEST JUMPDEST PUSH0 DUP3 ADD CALLDATALOAD PUSH8 0xFFFFFFFFFFFFFFFF DUP2 GT ISZERO PUSH2 0x4C6B JUMPI PUSH2 0x4C6A PUSH2 0x40AD JUMP JUMPDEST JUMPDEST PUSH2 0x4C77 DUP5 DUP3 DUP6 ADD PUSH2 0x457D JUMP JUMPDEST SWAP2 POP POP SWAP3 SWAP2 POP POP JUMP JUMPDEST PUSH0 PUSH1 0x80 DUP3 ADD SWAP1 POP PUSH2 0x4C93 PUSH0 DUP4 ADD DUP8 PUSH2 0x4122 JUMP JUMPDEST PUSH2 0x4CA0 PUSH1 0x20 DUP4 ADD DUP7 PUSH2 0x4122 JUMP JUMPDEST PUSH2 0x4CAD PUSH1 0x40 DUP4 ADD DUP6 PUSH2 0x4122 JUMP JUMPDEST PUSH2 0x4CBA PUSH1 0x60 DUP4 ADD DUP5 PUSH2 0x43B6 JUMP JUMPDEST SWAP6 SWAP5 POP POP POP POP POP JUMP JUMPDEST PUSH32 0x4E487B7100000000000000000000000000000000000000000000000000000000 PUSH0 MSTORE PUSH1 0x32 PUSH1 0x4 MSTORE PUSH1 0x24 PUSH0 REVERT JUMPDEST PUSH32 0x4E487B7100000000000000000000000000000000000000000000000000000000 PUSH0 MSTORE PUSH1 0x11 PUSH1 0x4 MSTORE PUSH1 0x24 PUSH0 REVERT JUMPDEST PUSH0 PUSH2 0x4D27 DUP3 PUSH2 0x40B1 JUMP JUMPDEST SWAP2 POP PUSH32 0xFFFFFFFFFFFFFFFFFFFFFFFFFFFFFFFFFFFFFFFFFFFFFFFFFFFFFFFFFFFFFFFF DUP3 SUB PUSH2 0x4D59 JUMPI PUSH2 0x4D58 PUSH2 0x4CF0 JUMP JUMPDEST JUMPDEST PUSH1 0x1 DUP3 ADD SWAP1 POP SWAP2 SWAP1 POP JUMP JUMPDEST PUSH32 0x4E487B7100000000000000000000000000000000000000000000000000000000 PUSH0 MSTORE PUSH1 0x22 PUSH1 0x4 MSTORE PUSH1 0x24 PUSH0 REVERT JUMPDEST PUSH0 PUSH1 0x2 DUP3 DIV SWAP1 POP PUSH1 0x1 DUP3 AND DUP1 PUSH2 0x4DA8 JUMPI PUSH1 0x7F DUP3 AND SWAP2 POP JUMPDEST PUSH1 0x20 DUP3 LT DUP2 SUB PUSH2 0x4DBB JUMPI PUSH2 0x4DBA PUSH2 0x4D64 JUMP JUMPDEST JUMPDEST POP SWAP2 SWAP1 POP JUMP JUMPDEST PUSH0 DUP2 SWAP1 POP DUP2 PUSH0 MSTORE PUSH1 0x20 PUSH0 KECCAK256 SWAP1 POP SWAP2 SWAP1 POP JUMP JUMPDEST PUSH0 PUSH1 0x20 PUSH1 0x1F DUP4 ADD DIV SWAP1 POP SWAP2 SWAP1 POP JUMP JUMPDEST PUSH0 DUP3 DUP3 SHL SWAP1 POP SWAP3 SWAP2 POP POP JUMP JUMPDEST PUSH0 PUSH1 0x8 DUP4 MUL PUSH2 0x4E1D PUSH32 0xFFFFFFFFFFFFFFFFFFFFFFFFFFFFFFFFFFFFFFFFFFFFFFFFFFFFFFFFFFFFFFFF DUP3 PUSH2 0x4DE2 JUMP JUMPDEST PUSH2 0x4E27 DUP7 DUP4 PUSH2 0x4DE2 JUMP JUMPDEST SWAP6 POP DUP1 NOT DUP5 AND SWAP4 POP DUP1 DUP7 AND DUP5 OR SWAP3 POP POP POP SWAP4 SWAP3 POP POP POP JUMP JUMPDEST PUSH0 DUP2 SWAP1 POP SWAP2 SWAP1 POP JUMP JUMPDEST PUSH0 PUSH2 0x4E62 PUSH2 0x4E5D PUSH2 0x4E58 DUP5 PUSH2 0x40B1 JUMP JUMPDEST PUSH2 0x4E3F JUMP JUMPDEST PUSH2 0x40B1 JUMP JUMPDEST SWAP1 POP SWAP2 SWAP1 POP JUMP JUMPDEST PUSH0 DUP2 SWAP1 POP SWAP2 SWAP1 POP JUMP JUMPDEST PUSH2 0x4E7B DUP4 PUSH2 0x4E48 JUMP JUMPDEST PUSH2 0x4E8F PUSH2 0x4E87 DUP3 PUSH2 0x4E69 JUMP JUMPDEST DUP5 DUP5 SLOAD PUSH2 0x4DEE JUMP JUMPDEST DUP3 SSTORE POP POP POP POP JUMP JUMPDEST PUSH0 PUSH0 SWAP1 POP SWAP1 JUMP JUMPDEST PUSH2 0x4EA6 PUSH2 0x4E97 JUMP JUMPDEST PUSH2 0x4EB1 DUP2 DUP5 DUP5 PUSH2 0x4E72 JUMP JUMPDEST POP POP POP JUMP JUMPDEST JUMPDEST DUP2 DUP2 LT ISZERO PUSH2 0x4ED4 JUMPI PUSH2 0x4EC9 PUSH0 DUP3 PUSH2 0x4E9E JUMP JUMPDEST PUSH1 0x1 DUP2 ADD SWAP1 POP PUSH2 0x4EB7 JUMP JUMPDEST POP POP JUMP JUMPDEST PUSH1 0x1F DUP3 GT ISZERO PUSH2 0x4F19 JUMPI PUSH2 0x4EEA DUP2 PUSH2 0x4DC1 JUMP JUMPDEST PUSH2 0x4EF3 DUP5 PUSH2 0x4DD3 JUMP JUMPDEST DUP2 ADD PUSH1 0x20 DUP6 LT ISZERO PUSH2 0x4F02 JUMPI DUP2 SWAP1 POP JUMPDEST PUSH2 0x4F16 PUSH2 0x4F0E DUP6 PUSH2 0x4DD3 JUMP JUMPDEST DUP4 ADD DUP3 PUSH2 0x4EB6 JUMP JUMPDEST POP POP JUMPDEST POP POP POP JUMP JUMPDEST PUSH0 DUP3 DUP3 SHR SWAP1 POP SWAP3 SWAP2 POP POP JUMP JUMPDEST PUSH0 PUSH2 0x4F39 PUSH0 NOT DUP5 PUSH1 0x8 MUL PUSH2 0x4F1E JUMP JUMPDEST NOT DUP1 DUP4 AND SWAP2 POP POP SWAP3 SWAP2 POP POP JUMP JUMPDEST PUSH0 PUSH2 0x4F51 DUP4 DUP4 PUSH2 0x4F2A JUMP JUMPDEST SWAP2 POP DUP3 PUSH1 0x2 MUL DUP3 OR SWAP1 POP SWAP3 SWAP2 POP POP JUMP JUMPDEST PUSH2 0x4F6A DUP3 PUSH2 0x4660 JUMP JUMPDEST PUSH8 0xFFFFFFFFFFFFFFFF DUP2 GT ISZERO PUSH2 0x4F83 JUMPI PUSH2 0x4F82 PUSH2 0x4486 JUMP JUMPDEST JUMPDEST PUSH2 0x4F8D DUP3 SLOAD PUSH2 0x4D91 JUMP JUMPDEST PUSH2 0x4F98 DUP3 DUP3 DUP6 PUSH2 0x4ED8 JUMP JUMPDEST PUSH0 PUSH1 0x20 SWAP1 POP PUSH1 0x1F DUP4 GT PUSH1 0x1 DUP2 EQ PUSH2 0x4FC9 JUMPI PUSH0 DUP5 ISZERO PUSH2 0x4FB7 JUMPI DUP3 DUP8 ADD MLOAD SWAP1 POP JUMPDEST PUSH2 0x4FC1 DUP6 DUP3 PUSH2 0x4F46 JUMP JUMPDEST DUP7 SSTORE POP PUSH2 0x5028 JUMP JUMPDEST PUSH1 0x1F NOT DUP5 AND PUSH2 0x4FD7 DUP7 PUSH2 0x4DC1 JUMP JUMPDEST PUSH0 JUMPDEST DUP3 DUP2 LT ISZERO PUSH2 0x4FFE JUMPI DUP5 DUP10 ADD MLOAD DUP3 SSTORE PUSH1 0x1 DUP3 ADD SWAP2 POP PUSH1 0x20 DUP6 ADD SWAP5 POP PUSH1 0x20 DUP2 ADD SWAP1 POP PUSH2 0x4FD9 JUMP JUMPDEST DUP7 DUP4 LT ISZERO PUSH2 0x501B JUMPI DUP5 DUP10 ADD MLOAD PUSH2 0x5017 PUSH1 0x1F DUP10 AND DUP3 PUSH2 0x4F2A JUMP JUMPDEST DUP4 SSTORE POP JUMPDEST PUSH1 0x1 PUSH1 0x2 DUP9 MUL ADD DUP9 SSTORE POP POP POP JUMPDEST POP POP POP POP POP POP JUMP JUMPDEST PUSH32 0x496E76616C6964207265736F75726365207479706520666F72206E6F74657300 PUSH0 DUP3 ADD MSTORE POP JUMP JUMPDEST PUSH0 PUSH2 0x5064 PUSH1 0x1F DUP4 PUSH2 0x466A JUMP JUMPDEST SWAP2 POP PUSH2 0x506F DUP3 PUSH2 0x5030 JUMP JUMPDEST PUSH1 0x20 DUP3 ADD SWAP1 POP SWAP2 SWAP1 POP JUMP JUMPDEST PUSH0 PUSH1 0x20 DUP3 ADD SWAP1 POP DUP2 DUP2 SUB PUSH0 DUP4 ADD MSTORE PUSH2 0x5091 DUP2 PUSH2 0x5058 JUMP JUMPDEST SWAP1 POP SWAP2 SWAP1 POP JUMP JUMPDEST PUSH0 PUSH2 0x50A2 DUP3 PUSH2 0x40B1 JUMP JUMPDEST SWAP2 POP PUSH2 0x50AD DUP4 PUSH2 0x40B1 JUMP JUMPDEST SWAP3 POP DUP3 DUP3 SUB SWAP1 POP DUP2 DUP2 GT ISZERO PUSH2 0x50C5 JUMPI PUSH2 0x50C4 PUSH2 0x4CF0 JUMP JUMPDEST JUMPDEST SWAP3 SWAP2 POP POP JUMP JUMPDEST PUSH32 0x496E76616C6964207265736F7572636520747970650000000000000000000000 PUSH0 DUP3 ADD MSTORE POP JUMP JUMPDEST PUSH0 PUSH2 0x50FF PUSH1 0x15 DUP4 PUSH2 0x466A JUMP JUMPDEST SWAP2 POP PUSH2 0x510A DUP3 PUSH2 0x50CB JUMP JUMPDEST PUSH1 0x20 DUP3 ADD SWAP1 POP SWAP2 SWAP1 POP JUMP JUMPDEST PUSH0 PUSH1 0x20 DUP3 ADD SWAP1 POP DUP2 DUP2 SUB PUSH0 DUP4 ADD MSTORE PUSH2 0x512C DUP2 PUSH2 0x50F3 JUMP JUMPDEST SWAP1 POP SWAP2 SWAP1 POP JUMP JUMPDEST PUSH0 DUP2 PUSH0 SHR SWAP1 POP SWAP2 SWAP1 POP JUMP JUMPDEST PUSH0 DUP2 SWAP1 POP SWAP2 SWAP1 POP JUMP JUMPDEST PUSH0 PUSH2 0x5159 PUSH2 0x5154 DUP4 PUSH2 0x5133 JUMP JUMPDEST PUSH2 0x513E JUMP JUMPDEST SWAP1 POP SWAP2 SWAP1 POP JUMP JUMPDEST PUSH0 DUP3 DUP3 MSTORE PUSH1 0x20 DUP3 ADD SWAP1 POP SWAP3 SWAP2 POP POP JUMP JUMPDEST PUSH0 DUP2 SLOAD PUSH2 0x517C DUP2 PUSH2 0x4D91 JUMP JUMPDEST PUSH2 0x5186 DUP2 DUP7 PUSH2 0x5160 JUMP JUMPDEST SWAP5 POP PUSH1 0x1 DUP3 AND PUSH0 DUP2 EQ PUSH2 0x51A0 JUMPI PUSH1 0x1 DUP2 EQ PUSH2 0x51B6 JUMPI PUSH2 0x51E8 JUMP JUMPDEST PUSH1 0xFF NOT DUP4 AND DUP7 MSTORE DUP2 ISZERO ISZERO PUSH1 0x20 MUL DUP7 ADD SWAP4 POP PUSH2 0x51E8 JUMP JUMPDEST PUSH2 0x51BF DUP6 PUSH2 0x4DC1 JUMP JUMPDEST PUSH0 JUMPDEST DUP4 DUP2 LT ISZERO PUSH2 0x51E0 JUMPI DUP2 SLOAD DUP2 DUP10 ADD MSTORE PUSH1 0x1 DUP3 ADD SWAP2 POP PUSH1 0x20 DUP2 ADD SWAP1 POP PUSH2 0x51C1 JUMP JUMPDEST DUP1 DUP9 ADD SWAP6 POP POP POP JUMPDEST POP POP POP SWAP3 SWAP2 POP POP JUMP JUMPDEST PUSH0 PUSH1 0xFF DUP3 AND SWAP1 POP SWAP2 SWAP1 POP JUMP JUMPDEST PUSH0 PUSH2 0x520F PUSH2 0x520A DUP4 PUSH2 0x5133 JUMP JUMPDEST PUSH2 0x51F1 JUMP JUMPDEST SWAP1 POP SWAP2 SWAP1 POP JUMP JUMPDEST PUSH2 0x521F DUP2 PUSH2 0x4AA0 JUMP JUMPDEST DUP3 MSTORE POP POP JUMP JUMPDEST PUSH0 PUSH20 0xFFFFFFFFFFFFFFFFFFFFFFFFFFFFFFFFFFFFFFFF DUP3 AND SWAP1 POP SWAP2 SWAP1 POP JUMP JUMPDEST PUSH0 PUSH2 0x5256 PUSH2 0x5251 DUP4 PUSH2 0x5133 JUMP JUMPDEST PUSH2 0x5225 JUMP JUMPDEST SWAP1 POP SWAP2 SWAP1 POP JUMP JUMPDEST PUSH2 0x5266 DUP2 PUSH2 0x4169 JUMP JUMPDEST DUP3 MSTORE POP POP JUMP JUMPDEST PUSH0 PUSH2 0x120 DUP4 ADD PUSH0 PUSH0 DUP5 ADD SLOAD SWAP1 POP PUSH2 0x5282 DUP2 PUSH2 0x5147 JUMP JUMPDEST PUSH2 0x528E PUSH0 DUP8 ADD DUP3 PUSH2 0x4733 JUMP JUMPDEST POP PUSH1 0x1 DUP5 ADD DUP6 DUP4 SUB PUSH1 0x20 DUP8 ADD MSTORE PUSH2 0x52A5 DUP4 DUP3 PUSH2 0x5170 JUMP JUMPDEST SWAP3 POP POP PUSH1 0x2 DUP5 ADD SLOAD SWAP1 POP PUSH2 0x52B8 DUP2 PUSH2 0x5147 JUMP JUMPDEST PUSH2 0x52C5 PUSH1 0x40 DUP8 ADD DUP3 PUSH2 0x4733 JUMP JUMPDEST POP PUSH1 0x3 DUP5 ADD SLOAD SWAP1 POP PUSH2 0x52D6 DUP2 PUSH2 0x5147 JUMP JUMPDEST PUSH2 0x52E3 PUSH1 0x60 DUP8 ADD DUP3 PUSH2 0x4733 JUMP JUMPDEST POP PUSH1 0x4 DUP5 ADD SLOAD SWAP1 POP PUSH2 0x52F4 DUP2 PUSH2 0x5147 JUMP JUMPDEST PUSH2 0x5301 PUSH1 0x80 DUP8 ADD DUP3 PUSH2 0x4733 JUMP JUMPDEST POP PUSH1 0x5 DUP5 ADD SLOAD SWAP1 POP PUSH2 0x5312 DUP2 PUSH2 0x5147 JUMP JUMPDEST PUSH2 0x531F PUSH1 0xA0 DUP8 ADD DUP3 PUSH2 0x4733 JUMP JUMPDEST POP PUSH1 0x6 DUP5 ADD SLOAD SWAP1 POP PUSH2 0x5330 DUP2 PUSH2 0x51FD JUMP JUMPDEST PUSH2 0x533D PUSH1 0xC0 DUP8 ADD DUP3 PUSH2 0x5216 JUMP JUMPDEST POP PUSH1 0x7 DUP5 ADD SLOAD SWAP1 POP PUSH2 0x534E DUP2 PUSH2 0x5147 JUMP JUMPDEST PUSH2 0x535B PUSH1 0xE0 DUP8 ADD DUP3 PUSH2 0x4733 JUMP JUMPDEST POP PUSH1 0x8 DUP5 ADD SLOAD SWAP1 POP PUSH2 0x536C DUP2 PUSH2 0x5244 JUMP JUMPDEST PUSH2 0x537A PUSH2 0x100 DUP8 ADD DUP3 PUSH2 0x525D JUMP JUMPDEST POP DUP2 SWAP3 POP POP POP SWAP3 SWAP2 POP POP JUMP JUMPDEST PUSH0 PUSH1 0x20 DUP3 ADD SWAP1 POP DUP2 DUP2 SUB PUSH0 DUP4 ADD MSTORE PUSH2 0x539E DUP2 DUP5 PUSH2 0x526C JUMP JUMPDEST SWAP1 POP SWAP3 SWAP2 POP POP JUMP JUMPDEST PUSH1 0x80 DUP3 ADD PUSH0 PUSH0 DUP4 ADD SLOAD SWAP1 POP PUSH2 0x53BA DUP2 PUSH2 0x5147 JUMP JUMPDEST PUSH2 0x53C6 PUSH0 DUP7 ADD DUP3 PUSH2 0x4733 JUMP JUMPDEST POP PUSH1 0x1 DUP4 ADD SLOAD SWAP1 POP PUSH2 0x53D7 DUP2 PUSH2 0x5147 JUMP JUMPDEST PUSH2 0x53E4 PUSH1 0x20 DUP7 ADD DUP3 PUSH2 0x4733 JUMP JUMPDEST POP PUSH1 0x2 DUP4 ADD SLOAD SWAP1 POP PUSH2 0x53F5 DUP2 PUSH2 0x5147 JUMP JUMPDEST PUSH2 0x5402 PUSH1 0x40 DUP7 ADD DUP3 PUSH2 0x4733 JUMP JUMPDEST POP PUSH1 0x3 DUP4 ADD SLOAD SWAP1 POP PUSH2 0x5413 DUP2 PUSH2 0x5244 JUMP JUMPDEST PUSH2 0x5420 PUSH1 0x60 DUP7 ADD DUP3 PUSH2 0x525D JUMP JUMPDEST POP POP POP POP POP JUMP JUMPDEST PUSH0 PUSH1 0x80 DUP3 ADD SWAP1 POP PUSH2 0x543A PUSH0 DUP4 ADD DUP5 PUSH2 0x53A6 JUMP JUMPDEST SWAP3 SWAP2 POP POP JUMP JUMPDEST PUSH0 PUSH1 0xFF DUP3 AND SWAP1 POP SWAP2 SWAP1 POP JUMP JUMPDEST PUSH0 PUSH2 0x545E PUSH2 0x5459 DUP4 PUSH2 0x5133 JUMP JUMPDEST PUSH2 0x5440 JUMP JUMPDEST SWAP1 POP SWAP2 SWAP1 POP JUMP JUMPDEST PUSH2 0x546E DUP2 PUSH2 0x4B78 JUMP JUMPDEST DUP3 MSTORE POP POP JUMP JUMPDEST PUSH0 PUSH2 0x140 DUP4 ADD PUSH0 PUSH0 DUP5 ADD SLOAD SWAP1 POP PUSH2 0x548A DUP2 PUSH2 0x5147 JUMP JUMPDEST PUSH2 0x5496 PUSH0 DUP8 ADD DUP3 PUSH2 0x4733 JUMP JUMPDEST POP PUSH1 0x1 DUP5 ADD SLOAD SWAP1 POP PUSH2 0x54A7 DUP2 PUSH2 0x5147 JUMP JUMPDEST PUSH2 0x54B4 PUSH1 0x20 DUP8 ADD DUP3 PUSH2 0x4733 JUMP JUMPDEST POP PUSH1 0x2 DUP5 ADD SLOAD SWAP1 POP PUSH2 0x54C5 DUP2 PUSH2 0x544C JUMP JUMPDEST PUSH2 0x54D2 PUSH1 0x40 DUP8 ADD DUP3 PUSH2 0x5465 JUMP JUMPDEST POP PUSH1 0x3 DUP5 ADD DUP6 DUP4 SUB PUSH1 0x60 DUP8 ADD MSTORE PUSH2 0x54E9 DUP4 DUP3 PUSH2 0x5170 JUMP JUMPDEST SWAP3 POP POP PUSH1 0x4 DUP5 ADD SLOAD SWAP1 POP PUSH2 0x54FC DUP2 PUSH2 0x5147 JUMP JUMPDEST PUSH2 0x5509 PUSH1 0x80 DUP8 ADD DUP3 PUSH2 0x4733 JUMP JUMPDEST POP PUSH1 0x5 DUP5 ADD SLOAD SWAP1 POP PUSH2 0x551A DUP2 PUSH2 0x5147 JUMP JUMPDEST PUSH2 0x5527 PUSH1 0xA0 DUP8 ADD DUP3 PUSH2 0x4733 JUMP JUMPDEST POP PUSH1 0x6 DUP5 ADD SLOAD SWAP1 POP PUSH2 0x5538 DUP2 PUSH2 0x5147 JUMP JUMPDEST PUSH2 0x5545 PUSH1 0xC0 DUP8 ADD DUP3 PUSH2 0x4733 JUMP JUMPDEST POP PUSH1 0x7 DUP5 ADD SLOAD SWAP1 POP PUSH2 0x5556 DUP2 PUSH2 0x5147 JUMP JUMPDEST PUSH2 0x5563 PUSH1 0xE0 DUP8 ADD DUP3 PUSH2 0x4733 JUMP JUMPDEST POP PUSH1 0x8 DUP5 ADD SLOAD SWAP1 POP PUSH2 0x5574 DUP2 PUSH2 0x5147 JUMP JUMPDEST PUSH2 0x5582 PUSH2 0x100 DUP8 ADD DUP3 PUSH2 0x4733 JUMP JUMPDEST POP PUSH1 0x9 DUP5 ADD SLOAD SWAP1 POP PUSH2 0x5593 DUP2 PUSH2 0x5244 JUMP JUMPDEST PUSH2 0x55A1 PUSH2 0x120 DUP8 ADD DUP3 PUSH2 0x525D JUMP JUMPDEST POP DUP2 SWAP3 POP POP POP SWAP3 SWAP2 POP POP JUMP JUMPDEST PUSH0 PUSH1 0x20 DUP3 ADD SWAP1 POP DUP2 DUP2 SUB PUSH0 DUP4 ADD MSTORE PUSH2 0x55C5 DUP2 DUP5 PUSH2 0x5474 JUMP JUMPDEST SWAP1 POP SWAP3 SWAP2 POP POP JUMP JUMPDEST PUSH0 PUSH1 0x80 DUP4 ADD PUSH0 PUSH0 DUP5 ADD SLOAD SWAP1 POP PUSH2 0x55E2 DUP2 PUSH2 0x5147 JUMP JUMPDEST PUSH2 0x55EE PUSH0 DUP8 ADD DUP3 PUSH2 0x4733 JUMP JUMPDEST POP PUSH1 0x1 DUP5 ADD DUP6 DUP4 SUB PUSH1 0x20 DUP8 ADD MSTORE PUSH2 0x5605 DUP4 DUP3 PUSH2 0x5170 JUMP JUMPDEST SWAP3 POP POP PUSH1 0x2 DUP5 ADD SLOAD SWAP1 POP PUSH2 0x5618 DUP2 PUSH2 0x5147 JUMP JUMPDEST PUSH2 0x5625 PUSH1 0x40 DUP8 ADD DUP3 PUSH2 0x4733 JUMP JUMPDEST POP PUSH1 0x3 DUP5 ADD SLOAD SWAP1 POP PUSH2 0x5636 DUP2 PUSH2 0x5244 JUMP JUMPDEST PUSH2 0x5643 PUSH1 0x60 DUP8 ADD DUP3 PUSH2 0x525D JUMP JUMPDEST POP DUP2 SWAP3 POP POP POP SWAP3 SWAP2 POP POP JUMP JUMPDEST PUSH0 PUSH1 0x20 DUP3 ADD SWAP1 POP DUP2 DUP2 SUB PUSH0 DUP4 ADD MSTORE PUSH2 0x5667 DUP2 DUP5 PUSH2 0x55CD JUMP JUMPDEST SWAP1 POP SWAP3 SWAP2 POP POP JUMP JUMPDEST PUSH0 PUSH1 0xFF DUP3 AND SWAP1 POP SWAP2 SWAP1 POP JUMP JUMPDEST PUSH0 PUSH2 0x568D PUSH2 0x5688 DUP4 PUSH2 0x5133 JUMP JUMPDEST PUSH2 0x566F JUMP JUMPDEST SWAP1 POP SWAP2 SWAP1 POP JUMP JUMPDEST PUSH2 0x569D DUP2 PUSH2 0x4350 JUMP JUMPDEST DUP3 MSTORE POP POP JUMP JUMPDEST PUSH0 DUP2 PUSH1 0x8 SHR SWAP1 POP SWAP2 SWAP1 POP JUMP JUMPDEST PUSH0 PUSH1 0xFF DUP3 AND SWAP1 POP SWAP2 SWAP1 POP JUMP JUMPDEST PUSH0 PUSH2 0x56CD PUSH2 0x56C8 DUP4 PUSH2 0x56A3 JUMP JUMPDEST PUSH2 0x56AF JUMP JUMPDEST SWAP1 POP SWAP2 SWAP1 POP JUMP JUMPDEST PUSH2 0x56DD DUP2 PUSH2 0x4396 JUMP JUMPDEST DUP3 MSTORE POP POP JUMP JUMPDEST PUSH2 0x160 DUP3 ADD PUSH0 PUSH0 DUP4 ADD SLOAD SWAP1 POP PUSH2 0x56F8 DUP2 PUSH2 0x5147 JUMP JUMPDEST PUSH2 0x5704 PUSH0 DUP7 ADD DUP3 PUSH2 0x4733 JUMP JUMPDEST POP PUSH1 0x1 DUP4 ADD SLOAD SWAP1 POP PUSH2 0x5715 DUP2 PUSH2 0x567B JUMP JUMPDEST PUSH2 0x5722 PUSH1 0x20 DUP7 ADD DUP3 PUSH2 0x5694 JUMP JUMPDEST POP PUSH2 0x572C DUP2 PUSH2 0x56BB JUMP JUMPDEST PUSH2 0x5739 PUSH1 0x40 DUP7 ADD DUP3 PUSH2 0x56D4 JUMP JUMPDEST POP PUSH1 0x2 DUP4 ADD SLOAD SWAP1 POP PUSH2 0x574A DUP2 PUSH2 0x5147 JUMP JUMPDEST PUSH2 0x5757 PUSH1 0x60 DUP7 ADD DUP3 PUSH2 0x4733 JUMP JUMPDEST POP PUSH1 0x3 DUP4 ADD SLOAD SWAP1 POP PUSH2 0x5768 DUP2 PUSH2 0x5147 JUMP JUMPDEST PUSH2 0x5775 PUSH1 0x80 DUP7 ADD DUP3 PUSH2 0x4733 JUMP JUMPDEST POP PUSH1 0x4 DUP4 ADD SLOAD SWAP1 POP PUSH2 0x5786 DUP2 PUSH2 0x5147 JUMP JUMPDEST PUSH2 0x5793 PUSH1 0xA0 DUP7 ADD DUP3 PUSH2 0x4733 JUMP JUMPDEST POP PUSH1 0x5 DUP4 ADD SLOAD SWAP1 POP PUSH2 0x57A4 DUP2 PUSH2 0x5147 JUMP JUMPDEST PUSH2 0x57B1 PUSH1 0xC0 DUP7 ADD DUP3 PUSH2 0x4733 JUMP JUMPDEST POP PUSH1 0x6 DUP4 ADD SLOAD SWAP1 POP PUSH2 0x57C2 DUP2 PUSH2 0x5147 JUMP JUMPDEST PUSH2 0x57CF PUSH1 0xE0 DUP7 ADD DUP3 PUSH2 0x4733 JUMP JUMPDEST POP PUSH1 0x7 DUP4 ADD SLOAD SWAP1 POP PUSH2 0x57E0 DUP2 PUSH2 0x5147 JUMP JUMPDEST PUSH2 0x57EE PUSH2 0x100 DUP7 ADD DUP3 PUSH2 0x4733 JUMP JUMPDEST POP PUSH1 0x8 DUP4 ADD SLOAD SWAP1 POP PUSH2 0x57FF DUP2 PUSH2 0x5147 JUMP JUMPDEST PUSH2 0x580D PUSH2 0x120 DUP7 ADD DUP3 PUSH2 0x4733 JUMP JUMPDEST POP PUSH1 0x9 DUP4 ADD SLOAD SWAP1 POP PUSH2 0x581E DUP2 PUSH2 0x5244 JUMP JUMPDEST PUSH2 0x582C PUSH2 0x140 DUP7 ADD DUP3 PUSH2 0x525D JUMP JUMPDEST POP POP POP POP POP JUMP JUMPDEST PUSH0 PUSH2 0x160 DUP3 ADD SWAP1 POP PUSH2 0x5847 PUSH0 DUP4 ADD DUP5 PUSH2 0x56E3 JUMP JUMPDEST SWAP3 SWAP2 POP POP JUMP JUMPDEST PUSH0 PUSH1 0xA0 DUP4 ADD PUSH0 PUSH0 DUP5 ADD SLOAD SWAP1 POP PUSH2 0x5862 DUP2 PUSH2 0x5147 JUMP JUMPDEST PUSH2 0x586E PUSH0 DUP8 ADD DUP3 PUSH2 0x4733 JUMP JUMPDEST POP PUSH1 0x1 DUP5 ADD DUP6 DUP4 SUB PUSH1 0x20 DUP8 ADD MSTORE PUSH2 0x5885 DUP4 DUP3 PUSH2 0x5170 JUMP JUMPDEST SWAP3 POP POP PUSH1 0x2 DUP5 ADD DUP6 DUP4 SUB PUSH1 0x40 DUP8 ADD MSTORE PUSH2 0x589E DUP4 DUP3 PUSH2 0x5170 JUMP JUMPDEST SWAP3 POP POP PUSH1 0x3 DUP5 ADD SLOAD SWAP1 POP PUSH2 0x58B1 DUP2 PUSH2 0x5147 JUMP JUMPDEST PUSH2 0x58BE PUSH1 0x60 DUP8 ADD DUP3 PUSH2 0x4733 JUMP JUMPDEST POP PUSH1 0x4 DUP5 ADD SLOAD SWAP1 POP PUSH2 0x58CF DUP2 PUSH2 0x5244 JUMP JUMPDEST PUSH2 0x58DC PUSH1 0x80 DUP8 ADD DUP3 PUSH2 0x525D JUMP JUMPDEST POP DUP2 SWAP3 POP POP POP SWAP3 SWAP2 POP POP JUMP JUMPDEST PUSH0 PUSH1 0x20 DUP3 ADD SWAP1 POP DUP2 DUP2 SUB PUSH0 DUP4 ADD MSTORE PUSH2 0x5900 DUP2 DUP5 PUSH2 0x584D JUMP JUMPDEST SWAP1 POP SWAP3 SWAP2 POP POP JUMP INVALID LOG2 PUSH5 0x6970667358 0x22 SLT KECCAK256 PUSH29 0x707EF07B0C82D3094DFF449F0E769D091B7C41BF7431CB24815BC98207 PUSH6 0xF964736F6C63 NUMBER STOP ADDMOD 0x1E STOP CALLER "
		},
		"gasEstimates": {
			"creation": {
				"codeDepositCost": "4569200",
				"executionCost": "infinite",
				"totalCost": "infinite"
			},
			"external": {
				"MAX_COMPONENTS_PER_ITEM()": "481",
				"MAX_ITEMS_PER_PROCESS()": "480",
				"MAX_STRING_LENGTH()": "393",
				"addComponentToItem(uint256,uint256)": "infinite",
				"addItemToProcess(uint256,uint256)": "infinite",
				"addServiceToProcess(uint256,uint256)": "infinite",
				"attachNoteToResource(uint8,uint256,uint256)": "infinite",
				"completeProcess(uint256)": "infinite",
				"completeService(uint256)": "53918",
				"createItem(string,uint256,uint8,uint256,uint256)": "infinite",
				"createLocation(string,string)": "infinite",
				"createLot(uint256)": "infinite",
				"createNote(string)": "infinite",
				"createProcess(uint8,uint256,uint256,uint256,uint256)": "infinite",
				"createService(uint256,string,uint256,uint256)": "infinite",
				"getItemComponents(uint256)": "infinite",
				"getProcessItems(uint256)": "infinite",
				"getProcessServices(uint256)": "infinite",
				"getResource(uint8,uint256)": "infinite",
				"getResourceCount(uint8)": "infinite",
				"getResourceNotes(uint8,uint256)": "infinite",
				"grantPermission(address,uint8)": "27363",
				"isComponent(uint256)": "2940",
				"itemComponents(uint256,uint256)": "infinite",
				"itemNotes(uint256,uint256)": "infinite",
				"items(uint256)": "infinite",
				"locationNotes(uint256,uint256)": "infinite",
				"locations(uint256)": "infinite",
				"lotNotes(uint256,uint256)": "infinite",
				"lots(uint256)": "infinite",
				"nextItemId()": "2469",
				"nextLocationId()": "2493",
				"nextLotId()": "2469",
				"nextNoteId()": "2471",
				"nextProcessId()": "2492",
				"nextServiceId()": "2557",
				"notes(uint256)": "infinite",
				"owner()": "2642",
				"permissions(address,uint8)": "3097",
				"processItems(uint256,uint256)": "infinite",
				"processNotes(uint256,uint256)": "infinite",
				"processServices(uint256,uint256)": "infinite",
				"processes(uint256)": "infinite",
				"serviceNotes(uint256,uint256)": "infinite",
				"services(uint256)": "infinite",
				"startProcess(uint256)": "infinite",
				"startService(uint256)": "53916"
			}
		},
		"methodIdentifiers": {
			"MAX_COMPONENTS_PER_ITEM()": "925b033d",
			"MAX_ITEMS_PER_PROCESS()": "cf97f111",
			"MAX_STRING_LENGTH()": "34ccc5ea",
			"addComponentToItem(uint256,uint256)": "4b48f656",
			"addItemToProcess(uint256,uint256)": "e5213007",
			"addServiceToProcess(uint256,uint256)": "acdf0acb",
			"attachNoteToResource(uint8,uint256,uint256)": "71895501",
			"completeProcess(uint256)": "624871f9",
			"completeService(uint256)": "2f3ccebd",
			"createItem(string,uint256,uint8,uint256,uint256)": "585b5c63",
			"createLocation(string,string)": "83cc56e1",
			"createLot(uint256)": "7a78e12d",
			"createNote(string)": "e1250ab4",
			"createProcess(uint8,uint256,uint256,uint256,uint256)": "4ef55a1f",
			"createService(uint256,string,uint256,uint256)": "94761a28",
			"getItemComponents(uint256)": "6bebd1fd",
			"getProcessItems(uint256)": "c60d817e",
			"getProcessServices(uint256)": "7d3c99bb",
			"getResource(uint8,uint256)": "b7f44b72",
			"getResourceCount(uint8)": "a805af18",
			"getResourceNotes(uint8,uint256)": "6e2c06fa",
			"grantPermission(address,uint8)": "301da870",
			"isComponent(uint256)": "71c906c5",
			"itemComponents(uint256,uint256)": "4c56df7b",
			"itemNotes(uint256,uint256)": "6c6f4a06",
			"items(uint256)": "bfb231d2",
			"locationNotes(uint256,uint256)": "f9fdb154",
			"locations(uint256)": "b9e0db35",
			"lotNotes(uint256,uint256)": "34200d7b",
			"lots(uint256)": "f1648e84",
			"nextItemId()": "6a868974",
			"nextLocationId()": "5182d7eb",
			"nextLotId()": "d666f29e",
			"nextNoteId()": "7a2043a3",
			"nextProcessId()": "a07e12e1",
			"nextServiceId()": "f6c53d9b",
			"notes(uint256)": "61c3a7e6",
			"owner()": "8da5cb5b",
			"permissions(address,uint8)": "0a108d5e",
			"processItems(uint256,uint256)": "20f3847e",
			"processNotes(uint256,uint256)": "cf5cf8e1",
			"processServices(uint256,uint256)": "cc2f211d",
			"processes(uint256)": "579e51c7",
			"serviceNotes(uint256,uint256)": "0051ff7d",
			"services(uint256)": "c22c4f43",
			"startProcess(uint256)": "3c8393ad",
			"startService(uint256)": "3e4a1e6c"
		}
	},
	"abi": [
		{
			"inputs": [],
			"stateMutability": "nonpayable",
			"type": "constructor"
		},
		{
			"inputs": [],
			"name": "ExceedsLimit",
			"type": "error"
		},
		{
			"inputs": [],
			"name": "InvalidLocation",
			"type": "error"
		},
		{
			"inputs": [],
			"name": "InvalidProcess",
			"type": "error"
		},
		{
			"inputs": [],
			"name": "InvalidStatus",
			"type": "error"
		},
		{
			"inputs": [],
			"name": "NoPermission",
			"type": "error"
		},
		{
			"inputs": [],
			"name": "NotFound",
			"type": "error"
		},
		{
			"inputs": [],
			"name": "OnlyOwner",
			"type": "error"
		},
		{
			"inputs": [],
			"name": "StringTooLong",
			"type": "error"
		},
		{
			"inputs": [],
			"name": "MAX_COMPONENTS_PER_ITEM",
			"outputs": [
				{
					"internalType": "uint256",
					"name": "",
					"type": "uint256"
				}
			],
			"stateMutability": "view",
			"type": "function"
		},
		{
			"inputs": [],
			"name": "MAX_ITEMS_PER_PROCESS",
			"outputs": [
				{
					"internalType": "uint256",
					"name": "",
					"type": "uint256"
				}
			],
			"stateMutability": "view",
			"type": "function"
		},
		{
			"inputs": [],
			"name": "MAX_STRING_LENGTH",
			"outputs": [
				{
					"internalType": "uint256",
					"name": "",
					"type": "uint256"
				}
			],
			"stateMutability": "view",
			"type": "function"
		},
		{
			"inputs": [
				{
					"internalType": "uint256",
					"name": "itemId",
					"type": "uint256"
				},
				{
					"internalType": "uint256",
					"name": "componentId",
					"type": "uint256"
				}
			],
			"name": "addComponentToItem",
			"outputs": [],
			"stateMutability": "nonpayable",
			"type": "function"
		},
		{
			"inputs": [
				{
					"internalType": "uint256",
					"name": "processId",
					"type": "uint256"
				},
				{
					"internalType": "uint256",
					"name": "itemId",
					"type": "uint256"
				}
			],
			"name": "addItemToProcess",
			"outputs": [],
			"stateMutability": "nonpayable",
			"type": "function"
		},
		{
			"inputs": [
				{
					"internalType": "uint256",
					"name": "processId",
					"type": "uint256"
				},
				{
					"internalType": "uint256",
					"name": "serviceId",
					"type": "uint256"
				}
			],
			"name": "addServiceToProcess",
			"outputs": [],
			"stateMutability": "nonpayable",
			"type": "function"
		},
		{
			"inputs": [
				{
					"internalType": "enum PublicResourceRegistry.ResourceType",
					"name": "resourceType",
					"type": "uint8"
				},
				{
					"internalType": "uint256",
					"name": "entityId",
					"type": "uint256"
				},
				{
					"internalType": "uint256",
					"name": "noteId",
					"type": "uint256"
				}
			],
			"name": "attachNoteToResource",
			"outputs": [],
			"stateMutability": "nonpayable",
			"type": "function"
		},
		{
			"inputs": [
				{
					"internalType": "uint256",
					"name": "processId",
					"type": "uint256"
				}
			],
			"name": "completeProcess",
			"outputs": [],
			"stateMutability": "nonpayable",
			"type": "function"
		},
		{
			"inputs": [
				{
					"internalType": "uint256",
					"name": "serviceId",
					"type": "uint256"
				}
			],
			"name": "completeService",
			"outputs": [],
			"stateMutability": "nonpayable",
			"type": "function"
		},
		{
			"inputs": [
				{
					"internalType": "string",
					"name": "name",
					"type": "string"
				},
				{
					"internalType": "uint256",
					"name": "lotId",
					"type": "uint256"
				},
				{
					"internalType": "enum PublicResourceRegistry.ItemStatus",
					"name": "status",
					"type": "uint8"
				},
				{
					"internalType": "uint256",
					"name": "originProcessId",
					"type": "uint256"
				},
				{
					"internalType": "uint256",
					"name": "currentLocationId",
					"type": "uint256"
				}
			],
			"name": "createItem",
			"outputs": [
				{
					"internalType": "uint256",
					"name": "",
					"type": "uint256"
				}
			],
			"stateMutability": "nonpayable",
			"type": "function"
		},
		{
			"inputs": [
				{
					"internalType": "string",
					"name": "name",
					"type": "string"
				},
				{
					"internalType": "string",
					"name": "locationType",
					"type": "string"
				}
			],
			"name": "createLocation",
			"outputs": [
				{
					"internalType": "uint256",
					"name": "",
					"type": "uint256"
				}
			],
			"stateMutability": "nonpayable",
			"type": "function"
		},
		{
			"inputs": [
				{
					"internalType": "uint256",
					"name": "cost_in_cents",
					"type": "uint256"
				}
			],
			"name": "createLot",
			"outputs": [
				{
					"internalType": "uint256",
					"name": "",
					"type": "uint256"
				}
			],
			"stateMutability": "nonpayable",
			"type": "function"
		},
		{
			"inputs": [
				{
					"internalType": "string",
					"name": "content",
					"type": "string"
				}
			],
			"name": "createNote",
			"outputs": [
				{
					"internalType": "uint256",
					"name": "",
					"type": "uint256"
				}
			],
			"stateMutability": "nonpayable",
			"type": "function"
		},
		{
			"inputs": [
				{
					"internalType": "enum PublicResourceRegistry.ProcessType",
					"name": "processType",
					"type": "uint8"
				},
				{
					"internalType": "uint256",
					"name": "fromLocationId",
					"type": "uint256"
				},
				{
					"internalType": "uint256",
					"name": "toLocationId",
					"type": "uint256"
				},
				{
					"internalType": "uint256",
					"name": "expectedStart",
					"type": "uint256"
				},
				{
					"internalType": "uint256",
					"name": "expectedEnd",
					"type": "uint256"
				}
			],
			"name": "createProcess",
			"outputs": [
				{
					"internalType": "uint256",
					"name": "",
					"type": "uint256"
				}
			],
			"stateMutability": "nonpayable",
			"type": "function"
		},
		{
			"inputs": [
				{
					"internalType": "uint256",
					"name": "cost_in_cents",
					"type": "uint256"
				},
				{
					"internalType": "string",
					"name": "responsibleParty",
					"type": "string"
				},
				{
					"internalType": "uint256",
					"name": "expectedStart",
					"type": "uint256"
				},
				{
					"internalType": "uint256",
					"name": "expectedEnd",
					"type": "uint256"
				}
			],
			"name": "createService",
			"outputs": [
				{
					"internalType": "uint256",
					"name": "",
					"type": "uint256"
				}
			],
			"stateMutability": "nonpayable",
			"type": "function"
		},
		{
			"inputs": [
				{
					"internalType": "uint256",
					"name": "itemId",
					"type": "uint256"
				}
			],
			"name": "getItemComponents",
			"outputs": [
				{
					"internalType": "uint256[]",
					"name": "",
					"type": "uint256[]"
				}
			],
			"stateMutability": "view",
			"type": "function"
		},
		{
			"inputs": [
				{
					"internalType": "uint256",
					"name": "processId",
					"type": "uint256"
				}
			],
			"name": "getProcessItems",
			"outputs": [
				{
					"internalType": "uint256[]",
					"name": "",
					"type": "uint256[]"
				}
			],
			"stateMutability": "view",
			"type": "function"
		},
		{
			"inputs": [
				{
					"internalType": "uint256",
					"name": "processId",
					"type": "uint256"
				}
			],
			"name": "getProcessServices",
			"outputs": [
				{
					"internalType": "uint256[]",
					"name": "",
					"type": "uint256[]"
				}
			],
			"stateMutability": "view",
			"type": "function"
		},
		{
			"inputs": [
				{
					"internalType": "enum PublicResourceRegistry.ResourceType",
					"name": "resourceType",
					"type": "uint8"
				},
				{
					"internalType": "uint256",
					"name": "id",
					"type": "uint256"
				}
			],
			"name": "getResource",
			"outputs": [
				{
					"internalType": "bytes",
					"name": "",
					"type": "bytes"
				}
			],
			"stateMutability": "view",
			"type": "function"
		},
		{
			"inputs": [
				{
					"internalType": "enum PublicResourceRegistry.ResourceType",
					"name": "resourceType",
					"type": "uint8"
				}
			],
			"name": "getResourceCount",
			"outputs": [
				{
					"internalType": "uint256",
					"name": "",
					"type": "uint256"
				}
			],
			"stateMutability": "view",
			"type": "function"
		},
		{
			"inputs": [
				{
					"internalType": "enum PublicResourceRegistry.ResourceType",
					"name": "resourceType",
					"type": "uint8"
				},
				{
					"internalType": "uint256",
					"name": "resourceId",
					"type": "uint256"
				}
			],
			"name": "getResourceNotes",
			"outputs": [
				{
					"internalType": "uint256[]",
					"name": "",
					"type": "uint256[]"
				}
			],
			"stateMutability": "view",
			"type": "function"
		},
		{
			"inputs": [
				{
					"internalType": "address",
					"name": "userAddress",
					"type": "address"
				},
				{
					"internalType": "enum PublicResourceRegistry.ResourceType",
					"name": "resourceType",
					"type": "uint8"
				}
			],
			"name": "grantPermission",
			"outputs": [],
			"stateMutability": "nonpayable",
			"type": "function"
		},
		{
			"inputs": [
				{
					"internalType": "uint256",
					"name": "",
					"type": "uint256"
				}
			],
			"name": "isComponent",
			"outputs": [
				{
					"internalType": "bool",
					"name": "",
					"type": "bool"
				}
			],
			"stateMutability": "view",
			"type": "function"
		},
		{
			"inputs": [
				{
					"internalType": "uint256",
					"name": "",
					"type": "uint256"
				},
				{
					"internalType": "uint256",
					"name": "",
					"type": "uint256"
				}
			],
			"name": "itemComponents",
			"outputs": [
				{
					"internalType": "uint256",
					"name": "",
					"type": "uint256"
				}
			],
			"stateMutability": "view",
			"type": "function"
		},
		{
			"inputs": [
				{
					"internalType": "uint256",
					"name": "",
					"type": "uint256"
				},
				{
					"internalType": "uint256",
					"name": "",
					"type": "uint256"
				}
			],
			"name": "itemNotes",
			"outputs": [
				{
					"internalType": "uint256",
					"name": "",
					"type": "uint256"
				}
			],
			"stateMutability": "view",
			"type": "function"
		},
		{
			"inputs": [
				{
					"internalType": "uint256",
					"name": "",
					"type": "uint256"
				}
			],
			"name": "items",
			"outputs": [
				{
					"internalType": "uint256",
					"name": "id",
					"type": "uint256"
				},
				{
					"internalType": "string",
					"name": "name",
					"type": "string"
				},
				{
					"internalType": "uint256",
					"name": "lotId",
					"type": "uint256"
				},
				{
					"internalType": "uint256",
					"name": "currentLocationId",
					"type": "uint256"
				},
				{
					"internalType": "uint256",
					"name": "currentProcessId",
					"type": "uint256"
				},
				{
					"internalType": "uint256",
					"name": "originProcessId",
					"type": "uint256"
				},
				{
					"internalType": "enum PublicResourceRegistry.ItemStatus",
					"name": "status",
					"type": "uint8"
				},
				{
					"internalType": "uint256",
					"name": "timestamp",
					"type": "uint256"
				},
				{
					"internalType": "address",
					"name": "createdBy",
					"type": "address"
				}
			],
			"stateMutability": "view",
			"type": "function"
		},
		{
			"inputs": [
				{
					"internalType": "uint256",
					"name": "",
					"type": "uint256"
				},
				{
					"internalType": "uint256",
					"name": "",
					"type": "uint256"
				}
			],
			"name": "locationNotes",
			"outputs": [
				{
					"internalType": "uint256",
					"name": "",
					"type": "uint256"
				}
			],
			"stateMutability": "view",
			"type": "function"
		},
		{
			"inputs": [
				{
					"internalType": "uint256",
					"name": "",
					"type": "uint256"
				}
			],
			"name": "locations",
			"outputs": [
				{
					"internalType": "uint256",
					"name": "id",
					"type": "uint256"
				},
				{
					"internalType": "string",
					"name": "name",
					"type": "string"
				},
				{
					"internalType": "string",
					"name": "locationType",
					"type": "string"
				},
				{
					"internalType": "uint256",
					"name": "timestamp",
					"type": "uint256"
				},
				{
					"internalType": "address",
					"name": "createdBy",
					"type": "address"
				}
			],
			"stateMutability": "view",
			"type": "function"
		},
		{
			"inputs": [
				{
					"internalType": "uint256",
					"name": "",
					"type": "uint256"
				},
				{
					"internalType": "uint256",
					"name": "",
					"type": "uint256"
				}
			],
			"name": "lotNotes",
			"outputs": [
				{
					"internalType": "uint256",
					"name": "",
					"type": "uint256"
				}
			],
			"stateMutability": "view",
			"type": "function"
		},
		{
			"inputs": [
				{
					"internalType": "uint256",
					"name": "",
					"type": "uint256"
				}
			],
			"name": "lots",
			"outputs": [
				{
					"internalType": "uint256",
					"name": "id",
					"type": "uint256"
				},
				{
					"internalType": "uint256",
					"name": "cost_in_cents",
					"type": "uint256"
				},
				{
					"internalType": "uint256",
					"name": "timestamp",
					"type": "uint256"
				},
				{
					"internalType": "address",
					"name": "createdBy",
					"type": "address"
				}
			],
			"stateMutability": "view",
			"type": "function"
		},
		{
			"inputs": [],
			"name": "nextItemId",
			"outputs": [
				{
					"internalType": "uint256",
					"name": "",
					"type": "uint256"
				}
			],
			"stateMutability": "view",
			"type": "function"
		},
		{
			"inputs": [],
			"name": "nextLocationId",
			"outputs": [
				{
					"internalType": "uint256",
					"name": "",
					"type": "uint256"
				}
			],
			"stateMutability": "view",
			"type": "function"
		},
		{
			"inputs": [],
			"name": "nextLotId",
			"outputs": [
				{
					"internalType": "uint256",
					"name": "",
					"type": "uint256"
				}
			],
			"stateMutability": "view",
			"type": "function"
		},
		{
			"inputs": [],
			"name": "nextNoteId",
			"outputs": [
				{
					"internalType": "uint256",
					"name": "",
					"type": "uint256"
				}
			],
			"stateMutability": "view",
			"type": "function"
		},
		{
			"inputs": [],
			"name": "nextProcessId",
			"outputs": [
				{
					"internalType": "uint256",
					"name": "",
					"type": "uint256"
				}
			],
			"stateMutability": "view",
			"type": "function"
		},
		{
			"inputs": [],
			"name": "nextServiceId",
			"outputs": [
				{
					"internalType": "uint256",
					"name": "",
					"type": "uint256"
				}
			],
			"stateMutability": "view",
			"type": "function"
		},
		{
			"inputs": [
				{
					"internalType": "uint256",
					"name": "",
					"type": "uint256"
				}
			],
			"name": "notes",
			"outputs": [
				{
					"internalType": "uint256",
					"name": "id",
					"type": "uint256"
				},
				{
					"internalType": "string",
					"name": "content",
					"type": "string"
				},
				{
					"internalType": "uint256",
					"name": "timestamp",
					"type": "uint256"
				},
				{
					"internalType": "address",
					"name": "createdBy",
					"type": "address"
				}
			],
			"stateMutability": "view",
			"type": "function"
		},
		{
			"inputs": [],
			"name": "owner",
			"outputs": [
				{
					"internalType": "address",
					"name": "",
					"type": "address"
				}
			],
			"stateMutability": "view",
			"type": "function"
		},
		{
			"inputs": [
				{
					"internalType": "address",
					"name": "",
					"type": "address"
				},
				{
					"internalType": "enum PublicResourceRegistry.ResourceType",
					"name": "",
					"type": "uint8"
				}
			],
			"name": "permissions",
			"outputs": [
				{
					"internalType": "bool",
					"name": "",
					"type": "bool"
				}
			],
			"stateMutability": "view",
			"type": "function"
		},
		{
			"inputs": [
				{
					"internalType": "uint256",
					"name": "",
					"type": "uint256"
				},
				{
					"internalType": "uint256",
					"name": "",
					"type": "uint256"
				}
			],
			"name": "processItems",
			"outputs": [
				{
					"internalType": "uint256",
					"name": "",
					"type": "uint256"
				}
			],
			"stateMutability": "view",
			"type": "function"
		},
		{
			"inputs": [
				{
					"internalType": "uint256",
					"name": "",
					"type": "uint256"
				},
				{
					"internalType": "uint256",
					"name": "",
					"type": "uint256"
				}
			],
			"name": "processNotes",
			"outputs": [
				{
					"internalType": "uint256",
					"name": "",
					"type": "uint256"
				}
			],
			"stateMutability": "view",
			"type": "function"
		},
		{
			"inputs": [
				{
					"internalType": "uint256",
					"name": "",
					"type": "uint256"
				},
				{
					"internalType": "uint256",
					"name": "",
					"type": "uint256"
				}
			],
			"name": "processServices",
			"outputs": [
				{
					"internalType": "uint256",
					"name": "",
					"type": "uint256"
				}
			],
			"stateMutability": "view",
			"type": "function"
		},
		{
			"inputs": [
				{
					"internalType": "uint256",
					"name": "",
					"type": "uint256"
				}
			],
			"name": "processes",
			"outputs": [
				{
					"internalType": "uint256",
					"name": "id",
					"type": "uint256"
				},
				{
					"internalType": "enum PublicResourceRegistry.ProcessType",
					"name": "processType",
					"type": "uint8"
				},
				{
					"internalType": "enum PublicResourceRegistry.ProcessStatus",
					"name": "status",
					"type": "uint8"
				},
				{
					"internalType": "uint256",
					"name": "fromLocationId",
					"type": "uint256"
				},
				{
					"internalType": "uint256",
					"name": "toLocationId",
					"type": "uint256"
				},
				{
					"internalType": "uint256",
					"name": "expectedStart",
					"type": "uint256"
				},
				{
					"internalType": "uint256",
					"name": "expectedEnd",
					"type": "uint256"
				},
				{
					"internalType": "uint256",
					"name": "actualStart",
					"type": "uint256"
				},
				{
					"internalType": "uint256",
					"name": "actualEnd",
					"type": "uint256"
				},
				{
					"internalType": "uint256",
					"name": "timestamp",
					"type": "uint256"
				},
				{
					"internalType": "address",
					"name": "createdBy",
					"type": "address"
				}
			],
			"stateMutability": "view",
			"type": "function"
		},
		{
			"inputs": [
				{
					"internalType": "uint256",
					"name": "",
					"type": "uint256"
				},
				{
					"internalType": "uint256",
					"name": "",
					"type": "uint256"
				}
			],
			"name": "serviceNotes",
			"outputs": [
				{
					"internalType": "uint256",
					"name": "",
					"type": "uint256"
				}
			],
			"stateMutability": "view",
			"type": "function"
		},
		{
			"inputs": [
				{
					"internalType": "uint256",
					"name": "",
					"type": "uint256"
				}
			],
			"name": "services",
			"outputs": [
				{
					"internalType": "uint256",
					"name": "id",
					"type": "uint256"
				},
				{
					"internalType": "uint256",
					"name": "cost_in_cents",
					"type": "uint256"
				},
				{
					"internalType": "enum PublicResourceRegistry.ServiceStatus",
					"name": "status",
					"type": "uint8"
				},
				{
					"internalType": "string",
					"name": "responsibleParty",
					"type": "string"
				},
				{
					"internalType": "uint256",
					"name": "expectedStart",
					"type": "uint256"
				},
				{
					"internalType": "uint256",
					"name": "expectedEnd",
					"type": "uint256"
				},
				{
					"internalType": "uint256",
					"name": "actualStart",
					"type": "uint256"
				},
				{
					"internalType": "uint256",
					"name": "actualEnd",
					"type": "uint256"
				},
				{
					"internalType": "uint256",
					"name": "timestamp",
					"type": "uint256"
				},
				{
					"internalType": "address",
					"name": "createdBy",
					"type": "address"
				}
			],
			"stateMutability": "view",
			"type": "function"
		},
		{
			"inputs": [
				{
					"internalType": "uint256",
					"name": "processId",
					"type": "uint256"
				}
			],
			"name": "startProcess",
			"outputs": [],
			"stateMutability": "nonpayable",
			"type": "function"
		},
		{
			"inputs": [
				{
					"internalType": "uint256",
					"name": "serviceId",
					"type": "uint256"
				}
			],
			"name": "startService",
			"outputs": [],
			"stateMutability": "nonpayable",
			"type": "function"
		}
	]
}